:020000040800F2
:10000000180D0020850200088D0200088F020008EC
:100010009102000893020008950200080000000009
:10002000000000000000000000000000970200082F
:1000300099020008000000009B020008792A0008CD
:100040009F0200089F0200089F0200089F0200080C
:100050009F0200089F0200080D240008C524000824
:10006000E92400080D250008312500089F0200083A
:100070009F0200089F0200089F0200089F020008DC
:100080009F0200089F0200089F0200089F020008CC
:100090009F0200089F0200089F02000855250008E3
:1000A0009F020008D92A00089F0200089F0200084A
:1000B000052B00082D2B0008592B00089F02000873
:1000C0009F0200089F0200089F0200089F0200088C
:1000D0009F020008C5320008293300088D3300084C
:1000E000312400089F0200089F02000800F002F877
:1000F00000F0B9F80AA090E8000C82448344AAF109
:100100000107DA4501D100F0AEF8AFF2090EBAE806
:100110000F0013F0010F18BFFB1A43F0010318473B
:1001200094AE0000B4AE00000A444FF0000C10F88A
:10013000013B13F0070408BF10F8014B1D1108BF65
:1001400010F8015B641E05D010F8016B641E01F805
:10015000016BF9D113F0080F1EBF10F8014BAD1C55
:100160000C1B09D16D1E58BF01F801CBFAD505E073
:1001700014F8016B01F8016B6D1EF9D59142D6D3CD
:10018000704700000023002400250026103A28BFF5
:1001900078C1FBD8520728BF30C148BF0B607047F9
:1001A0006E2900F09E85702901F0F780662909F01C
:1001B000A685652909F0A385672909F0A08561292D
:1001C000AFF3008003681B0A28BF41F08001692952
:1001D00000F0EC81642900F0E981752900F0E681E6
:1001E0006F2901F08480782901F0C380E92901F0AA
:1001F0001F80E42901F01C80F52901F01980EF2906
:1002000001F08180F82901F0C2800368DB0928BF72
:1002100041F08001632901F0BD81732901F0C281A1
:10022000E32901F0CD81F32901F0D281002070474C
:100230001FB59DE8030000F07FFC00F059FC0400AE
:100240000020002108F008FC401C60600020002114
:1002500008F018FCE06000F035FC1FBD10B5002070
:1002600001F0A6F810BD01F084FA1146FFF7E0FF97
:1002700007F030FF01F0A2FA03B4FFF7EFFF03BC71
:1002800001F070FA0948804709480047FEE7FEE799
:10029000FEE7FEE7FEE7FEE7FEE7FEE7FEE7FEE736
:1002A00004480549054A064B70470000892A0008A2
:1002B000ED00000818070020180D00201809002084
:1002C0001809002010B500F013FC001D10BD00BF80
:1002D0008987000070B5064600F006FC056806F147
:1002E0000B0020F00704B4429CBF002070BD2B46D9
:1002F0006A68BAB11068A04210D304F108018842BC
:100300003CBF5068586007D35168101941601168AC
:10031000091B016058601460101D70BD13465268BF
:10032000002AE7D12146284600F0F2FB0028DED162
:1003300070BD70B50446051F00F0D6FB0068002CA8
:1003400014BF446870BD002C18BFAC423CBF2046AF
:100350006468F8D301680A18AA4218BF456003D13F
:100360002A6805461144016028684119A1421CBF52
:100370006C6070BD6168696021680844286070BD68
:1003800070B50D460646041F00F0AEFBD0F800C065
:10039000C5B1E6B105F10B0020F00703AB423CBF4D
:1003A000002070BD2068984238BFDCF8042013D3C9
:1003B000C11A08292FD3E01840F8041B2360FFF767
:1003C000B8FF28E03046FFF7B4FF002070BD284694
:1003D000BDE87040FFF77EBF002A18BFA2423CBFB5
:1003E00094465268F8D30119914216D11168084415
:1003F000984212D3C11A08293CBF2060506808D324
:100400005168E0184160216812681144C91A0160FE
:100410002360CCF80400201D70BD181FFFF75AFFA1
:10042000050007D021680A1F211D00F0A9FA201D30
:10043000FFF77FFF284670BD53EA020C00F0698089
:100440002DE9F04B4FF00006002B1FBFB3FA83F5E8
:1004500003FA05F424FA05F65E4012BF1643B2FA19
:1004600082F502FA05F4C5F120051EBF22FA05FC4B
:1004700044EA0C04203556EA044C4FEA144418BFF1
:10048000641C4FF000084FF00009904271EB030C20
:1004900039D3002919BFB1FA81F701FA07F6B0FA8A
:1004A00080F700FA07F6C7F120071EBF20FA07FC05
:1004B00046EA0C062037B6FBF4FCA7EB0507103F15
:1004C00007F01F0BCBF120060CFA0BFB2CFA06F6FB
:1004D00044BFB3460026202FA4BF5E464FF0000B5A
:1004E0005BEA060C08BF4FF0010B19EB0B09ABFBE5
:1004F000027C48EB0608C01B06FB02CC0BFB03CCBE
:1005000071EB0C01C1E70B46024641464846BDE887
:10051000F08B13B54FF000004FF00001AFF30080F7
:10052000BDE81C40704700007CB51D4616460C0017
:10053000009001D02044401E074B7B442A46694668
:100540000190304600F0F5FD05461CB100206946DB
:1005500000F002FE28467CBD250C000070B5044664
:1005600085690068C10601D5302600E02026C00755
:1005700007D070BDD4E9012130469047206A401C65
:1005800020626D1EF6D570BD70B504468569007891
:10059000C00707D170BDD4E9012120209047206A0F
:1005A000401C20626D1EF6D570BD00002DE9F041A3
:1005B0000646002410687529314616A510D000F0B3
:1005C000FCFA002802DA404213A507E031688A07E6
:1005D00001D512A502E0490704D511A5012401E0C7
:1005E00000F0F4FA00210A2206F1240709E0B0FB2A
:1005F000F2FCB0FBF2F302FB1C00303078541846DA
:10060000491C0028F3D123462A463046BDE8F04174
:1006100000F00EBB000000002D0000002B000000C9
:10062000200000002DE9F05F894604464FF0000AE3
:10063000DFF874B1FB44C0F820A02046E168884789
:10064000002874D0252806D0D4E901219047206ADB
:10065000401C2062F1E700265F462046E16888479B
:100660002028054607DB312D05D2781910F8200C1B
:1006700008B10643F1E7B00701D526F00406C4F837
:100680001CA00027C4F818A02A2D09D0284607F07E
:10069000D3FC38B304EB8708303DC8F8185019E094
:1006A00059F8041B204604EB87029161E1688847F2
:1006B000012F054618D1E069002820DA26F020062F
:1006C0001DE0D8F8180000EB800005EB4000303842
:1006D000C8F818002046E1688847054607F0ACFCDA
:1006E0000028EED1012F0AD02E2D08D12046E16836
:1006F00088477F1C0546022F46F02006C4DBA06910
:10070000002803DA404246F00106A061F00701D05C
:1007100026F010066C2D0BD0682D09D04C2D39D049
:100720006A2D35D0742D35D07A2D33D016E038E0CF
:10073000E1682F4620468847B842054609D16C2F0C
:1007400026D04FF48060E16806432046884705467E
:1007500004E06C2F1AD04FF4807006430DB3A5F15E
:100760004100192802D8203546F400664A46294639
:10077000204626604E46FFF713FD80B101280BD0BE
:10078000F61D26F0070000F1080956E74020E4E7CF
:100790008020D8E70020D6E706F104094DE7284677
:1007A00052E7206ABDE8F09F1EA700002DE9F04146
:1007B000074615460E461020FFF78CFD04000AD0B0
:1007C0006760C4E9026500F097F901682160046080
:1007D0000020BDE8F0810120FBE740EA010302466A
:1007E00030B59B0710D14FF0013400E008C208C9B2
:1007F0001D1B9D4315EAC41FF8D013F0FF0102F83A
:10080000011B0DD01B0AF8E711F8013B002B02F881
:10081000013B05D011F8013B002B02F8013BF3D15D
:1008200030BD10B5431C02E010F8011B71B1810707
:10083000FAD14FF0013202C88C1A8C4314EAC2116B
:10084000F9D0C01A0A0603D0C01E10BDC01A10BDD0
:100850000A0401D0801E10BD0902FCD0401E10BD4C
:1008600040EA010370B59B072ED14FF00136042AF0
:100870002AD308C810C99D1B9D43121F15EAC6152F
:1008800017D0D8B2E1B2401A50EA056110D198B23F
:10089000A1B2401A50EA05410AD123F07F4024F06A
:1008A0007F41401A50EA052102D1180EA0EB1460D6
:1008B00070BDA342DBD018BA21BA884201D9012009
:1008C00070BD4FF0FF3070BD0AB9002070BD10F848
:1008D000013B11F8014B63B1A3420AD1521E08D06B
:1008E00010F8013B11F8014B1BB1A34201D1521E7C
:1008F000EDD1181B70BD032A40F2308010F0030CBC
:1009000000F0158011F8013BBCF1020F624498BF62
:1009100011F801CB00F8013B38BF11F8013BA2F1FF
:10092000040298BF00F801CB38BF00F8013B11F07A
:10093000030300F02580083AC0F0088051F8043B1A
:10094000083A51F804CBA0E80810F5E7121D5CBF87
:1009500051F8043B40F8043BAFF30080D20724BFBA
:1009600011F8013B11F801CB48BF11F8012B24BF4E
:1009700000F8013B00F801CB48BF00F8012B70479D
:1009800010B5203AC0F00B80B1E81850203AA0E82A
:100990001850B1E81850A0E81850BFF4F5AF5FEA5E
:1009A000027C24BFB1E81850A0E8185044BF18C911
:1009B00018C0BDE810405FEA827C24BF51F8043BB8
:1009C00040F8043B08BF7047D20728BF31F8023B0C
:1009D00048BF11F8012B28BF20F8023B48BF00F8A0
:1009E000012B704710B5044610F0030F08BF11F03B
:1009F000030F40F015804FF0013E121FC0F20E8031
:100A000051F8043BA3EB0E0C2CEA030C1CEACE1CA1
:100A100008BF40F8043BF0D0A1F1040102F1040248
:100A2000521E08DB11F8013B002B00F8013BF7D107
:100A3000114600F0DEFC204610BD00004FF0013CE6
:100A400050F8042B51F8043B9A4221D1A2EB0C033D
:100A5000934313EACC1317D150F8042B51F8043BFD
:100A60009A4215D1A2EB0C03934313EACC130BD19A
:100A700050F8042B51F8043B9A4209D1A2EB0C0325
:100A8000934313EACC13DBD04FF00000704700BF54
:100A9000D01A01BAB1FA81F101F0180122FA01F07D
:100AA000CB40C1F12001DBB2C0B2C01A2CFA01F375
:100AB000D11A914311EAC311E6D1704770477047CC
:100AC0007047000070B5064C7C44064D7D4403E041
:100AD000206820448047241DAC42F9D170BD00003D
:100AE00034A6000050A6000000487047BC06002055
:100AF00000487047D406002000487047EC060020EC
:100B000000487047B4060020704770477047704730
:100B100038B504460A4600206946AFF30080002835
:100B200008BF38BD02460099204600F089FC01202C
:100B300038BD012000F0E7BDF8B5AFF300800546F1
:100B400000200C46102000BF0646A819A0420DD96F
:100B5000324669460020AFF30080070008BF00F06E
:100B6000D2FD0098A04218BF0546C419FFF7BCFF8C
:100B700005600746F01D20F007004619284600F0E2
:100B80000AF8B44208BFF8BDA21B31463868BDE878
:100B9000F84000F055BC00210160C0E90110704729
:100BA0001020704710B5FFF7ABFF006810BD10B5FF
:100BB0000446FFF7A5FF046010BD09684A0501D58A
:100BC00040B27047C905FCD500B2704709684A05B4
:100BD00001D5C0B27047C905FCD580B2704770B569
:100BE0000C460546012A05D02878800600D5EA691A
:100BF000002302E0012305E05B1C934202D2E05C8B
:100C00000028F9D1A869E618C01AA861286A184412
:100C100028622846FFF7A2FC04E0D5E9012114F878
:100C2000010B9047B442F8D32846FFF7ADFC70BDE6
:100C30002DE9F0470D4699469246044600F12408F6
:100C40000168880604D5E06921F01001216000E008
:100C50000120A84201DD471B00E00027A1697A19A5
:100C600002EB0900081AA0612078C00602D42046D1
:100C7000FFF774FC002608E0D4E901211AF8060009
:100C80009047206A401C761C20624E45F4DB207899
:100C9000C0060AD52046FFF761FC06E0D4E9012131
:100CA00030209047206A401C2062381EA7F10107BF
:100CB000F4DC07E0D4E9012118F805009047206A28
:100CC000401C2062281EA5F10105F3DC2046FFF739
:100CD0005BFC2078000602D50220BDE8F0870120E9
:100CE000FBE711680268006A530501D508700AE045
:100CF000D30501D5088006E0130603D5C217C1E964
:100D0000000200E008600120704770472DE9FF4FA6
:100D10000C461E464FF0FF378BB0D2E90001DDF8DC
:100D200060800A908A46C1F30A5505B93D46002104
:100D300008464FF00000BAF1000F00F4400005DA59
:100D400000EB80004FF4400101EA50004FEA905957
:100D5000B9F1010F00DDB9460A9850EA4A000ED0F9
:100D600044F61050A5F2FF3545432F14B8F1000F9B
:100D70001ED07542291E1EDDC9F100021CE0B8F12B
:100D8000010F4FF0000001D0302103E0F24305E0F5
:100D90002154401CB042FBDB30460022002121548C
:100DA0000B99C1F80880C1E900200FB0BDE8F08FB1
:100DB000BD1B6D1CDEE74A4600DA694206A800F05A
:100DC0000BFC06AB93E8070003AB83E80700504633
:100DD0000A9900F044FD8DE80700A0F500501F3887
:100DE00000900398002D0ADD42F21F014A46084494
:100DF000002303A90390684600F0ADFF09E0A0F5C9
:100E000000504A461F38002303A90390684600F0AB
:100E1000B7FF8DE807000004000C03D04FF0FF304F
:100E2000410800E01046B8F1000F03D00022009204
:100E300015461EE0751E05D400F01CFB30326255CD
:100E40006D1EF9D5B3460122084302D000227F1C53
:100E500004E02078302801D100227F1E002A099763
:100E600084D01DE0112D07DA00F004FB303262550A
:100E70006D1C50EA0102F5D1084302D00098C8B1B8
:100E80000EE00021681E05E0235C625C635422547E
:100E9000401E491C8142F7DBAB46A81B401E09904F
:100EA000002004F80B000B98099AC0F80880C0E9EC
:100EB000002B7AE711264FF0000857E72DE9F04F95
:100EC00088460446D21D22F0070191B0D1E9000105
:100ED000CDE90A0106F0EAFF02460B98C00F01D0E7
:100EE0002D2007E02068810701D52B2002E020217A
:100EF00001EAC000032A099001D0072A05DB034656
:100F00004146204600F0FCFA0BE12078800601D52E
:100F1000E06900E00620B8F1650F814606D0B8F11F
:100F2000660F18D0B8F1670F70D131E00020B9F129
:100F3000110F009001DB112301E009F101030AAA5E
:100F400001A90CA8FFF7E2FEDDE90C70002609F10B
:100F50000105834647E001204B4600904FF00047D3
:100F60000AAA01A90CA8FFF7D1FEDDE90DB00C9982
:100F70005D46002610B909F101000D18B9EB050016
:100F800003D4C0F1FF3609F10105A5EB09002BE000
:100F9000B9F1010F01DA4FF001090020B9F1110F89
:100FA0000090484601DD112300E003460AAA01A98A
:100FB0000CA8FFF7ABFEDDE90C704D46002683461A
:100FC000207800070AD4AB4500DA5D4601A8012D60
:100FD00004DD411911F8011C302907D04F4502DA10
:100FE00017F1040F04DA012082460FE06D1EEEE7D0
:100FF000002F02DCED1B3E4403E0781CA84200DD1C
:101000007D1CB81B00F1010A4FF000472078000753
:1010100003D4AA4501DB4FF0FF3A0021B7F1004F9E
:101020000DF143088DF8431024D002202B23002F0C
:1010300001DA7F422D230A21021EA0F1010000DC0B
:101040005FB197FBF1FC97FBF1F201FB1C7C1746AB
:101050000CF1300C08F801CDEEE7A8F101000370A7
:101060002188090501D5452100E06521A0F101088D
:1010700000F8011C09980FA9A1EB0807FF1D00B19A
:101080000120411901EBEA70A1693844081A401E99
:10109000A0612078C00602D42046FFF75FFA0998C5
:1010A00028B1D4E901219047206A401C20622078B1
:1010B000C00622D52046FFF751FA1EE0002E04DBC1
:1010C000B34502DD01A8805D00E03020D4E90121B4
:1010D0009047206A401C2062761CAAF101005FEA5A
:1010E000000A0AD1FFF704FDC0680168405CD4E93A
:1010F00001219047206A401C2062281EA5F10105AD
:10110000DCDC07E0D4E9012118F8010B9047206AE4
:10111000401C2062381EA7F10107F3DC2046FFF7D0
:1011200033FA032011B041E601694A1C02610878D4
:10113000704700B58FB0CDE9013100210591054917
:101140007944CDE9031011466846FFF76BFA0FB0FA
:1011500000BD0000E5FFFFFF0A6802F8010B0A600E
:101160007047D1E900239A4202D2531C0B601070E1
:10117000704700002DE9FF5F15468A460446DFF8F8
:10118000AC80F8440027D8E900103E46CDE90010B5
:1011900010E03AF816106A4602A800F08FFA411CD7
:1011A00007D02178890603D5E269391891420DD814
:1011B0000744761C2078800602D5E069B84205DD38
:1011C000AE42E6DB3AF816000028E2D1A069C01B67
:1011D000A0612046FFF7C2F9D8E90010CDE9001060
:1011E000002017E03AF818106A4602A800F066FAE4
:1011F000B0F1FF3F81460BD000250DF1080B05E053
:10120000D4E901211BF8050090476D1C4D45F7D32B
:1012100008F10100B0428046E4DB206A38442062D5
:101220002046FFF7B1F9BDE8FF9F0000229D0000B6
:101230002DE9F0418046D21D22F007020025D2E9B7
:101240000002F52915A614D0011E72F1000106DA7C
:101250000023D0EB030063EB020211A608E0D8F8EC
:1012600000108B0701D50FA602E0490701D50EA695
:1012700001251146002408F1240704E000F0FAF8E3
:1012800030323A55641C50EA0102F7D12B463246FF
:1012900021464046BDE8F041FFF7CABC000000000F
:1012A0002D0000002B0000002000000030B40021C1
:1012B00000F1240408E002F00705D208303542EAC4
:1012C0004372DB086554491C52EA0305F3D10468F4
:1012D000002310A2250707D5A40600D421B1C469B4
:1012E00001230DA2641EC46130BCFFF7A1BC10B580
:1012F000044621461068FFF769FC02462046BDE817
:1013000010400023D2E7D21D22F00701D1E90023CB
:10131000CCE700000000000030000000F0B40D46F3
:101320000188090502D5214C7C4402E01F4C7C4415
:101330000E34002100F1240608E002F00F07120924
:10134000E75D42EA03721B097754491C52EA03071E
:10135000F3D102780023120704D5702D06D009B10D
:10136000022311342246F0BCFFF762BC0123103483
:10137000F8E770B504460D4621461068FFF726FCD5
:10138000024629462046BDE870400023C6E7D21D2C
:1013900022F00703D3E90023C0E70368126843F093
:1013A000200303600823C3610023B7E7849B000088
:1013B0002DE9F0410646FFF79FFB8046454613E0C6
:1013C00016B1E068B0420ED120682860D4E901016E
:1013D000D8F8007088472046FEF7ABFFD8F8000029
:1013E000B842EBD100E025462C68002CE8D1BDE8DE
:1013F000F0814FF000020429C0F0128010F0030CBD
:1014000000F08A81CCF1040CBCF1020F18BF00F887
:10141000012BA8BF20F8022BA1EB0C0100F07CB936
:101420005FEAC17C24BF00F8012B00F8012B48BF04
:1014300000F8012B7047000000487047B4060020F8
:10144000034640688C46002818BF88423CBF0346CC
:101450004068F8D318681844884207D00CF103009C
:1014600020F00700001D411A521A0146081D0A60AB
:10147000FEF75FBF30B5B0F10A024FEA900E71F18E
:1014800000034EEA817EB0EB0E0061EB91014FEA62
:10149000101E4EEA017E10EB0E0041EB11114FEAD7
:1014A000102E4EEA016E10EB0E0041EB11214FEAB7
:1014B000104E4EEA014E10EB0E0041EB1141401868
:1014C00041F100014FEAD00040EA41704FEAD101FA
:1014D00010EB80054FEA810444EA907444EB010468
:1014E0006D1944EB0404521BA3414FF0000348BFA5
:1014F0000A3200D530BD401C41F1000130BD000072
:101500002DE9F0411F46044603260168072A01F42D
:10151000006004DB08B116A505E016A503E008B1DC
:1015200015A500E015A521F010002060A069C01EDF
:10153000A0610FB1401EA0612046FFF70FF84FB128
:10154000D4E9012138469047206A401C2062C01C23
:10155000206206E0206AFAE7D4E9012115F8010BC0
:101560009047761EF8D22046FFF70EF8BDE8F081CE
:101570004E414E006E616E00494E4600696E660037
:1015800010B5436913B1AFF3008001E0FFF727FB0B
:10159000012010BD127800F124010A7000224A7067
:1015A0000122EDE711684FF0FF32E9E710B543691A
:1015B00013B1AFF3008001E0FFF7DCFD012010BDA7
:1015C000128800F1240182840022C2840122EDE706
:1015D00011684FF0FF32E9E72DE9F04781461646E2
:1015E0008AB0354878440DC88DE80D0032487844FB
:1015F000801C03AC0DC884E80D0041F69B30084404
:10160000372190FBF1F290FBF1F5A5F1800501FB8C
:1016100012041B3C02D56442012000E00020DFF8E8
:1016200098A080460027FA44AAF1BE0A0EE0E0071F
:101630000AD03246684607EB470101230AEB8101D5
:1016400000F09EFB8DE8070064107F1C002CEED19B
:10165000194F7F44AE3F19E0E80715D007EB04109F
:101660000DF1180A90E80E008AE80E00C068F042FA
:1016700001D1981908903246012306A903A800F069
:101680007FFB03AB83E807006D10641C002DE3D1E2
:101690004FF0010332466946B8F1000F03A802D0AB
:1016A00000F059FB01E000F06BFBC9E90001C9F84B
:1016B00008200AB0BDE8F0876C99000070B51646A6
:1016C0000C460546FEF7FEFD036893F8010101286C
:1016D00006D0FF2C0FD8185D68B101202C7070BDAA
:1016E000D3F807013246214603F207130344284684
:1016F000BDE8704018474FF0FF3070BD002801D0A2
:1017000000F030B8704710B500F07AF8BDE810402E
:10171000FFF7F4BF4FF0000200B51346944696461B
:10172000203922BFA0E80C50A0E80C50B1F12001F4
:10173000BFF4F7AF090728BFA0E80C5048BF0CC0A2
:101740005DF804EB890028BF40F8042B08BF704700
:1017500048BF20F8022B11F0804F18BF00F8012B72
:101760007047000001491820ABBEFEE726000200CA
:1017700070477546FFF760FEAE4605006946534662
:1017800020F00700854618B020B5FEF789FDBDE8BA
:1017900020404FF000064FF000074FF000084FF0D8
:1017A000000B21F00701AC46ACE8C009ACE8C00969
:1017B000ACE8C009ACE8C0098D46704710B50446D6
:1017C000AFF300802046BDE81040FEF755BD70B570
:1017D00005460C460A2000E06D1C00F039F835B1D2
:1017E00028780028F8D102E0641C00F031F814B128
:1017F00020780028F8D1BDE870400A2000F028B811
:1018000010B5012805D0002103A0FFF7E0FF01205B
:1018100010BD09A1F8E7000053494752544D454D0A
:101820003A204F7574206F662068656170206D6581
:101830006D6F7279000000003A2048656170206D7C
:10184000656D6F727920636F727275707465640074
:1018500008B569468DF800000320ABBE08BD5FEAFD
:10186000400C08BF91F0000F4FEA8C234FEAC122D1
:1018700043EA51514FEA1C5018BF00F5F0404FEABF
:10188000300018BF41F000415FEA6C5C00F0298035
:10189000BCF1FF3F08BF40F080407047130C06BF0B
:1018A00012044FF0100C4FF0000C130E04BF120284
:1018B0000CF1080C130F04BF12010CF1040C930F70
:1018C00004BF92000CF1020CD30F04BF52000CF1C4
:1018D000010C11464FF00002A0F11F00A0EB0C001C
:1018E000704711F0004F08BF704731F000413FF4DE
:1018F000D5AF0B0C06BF09044FF0100C4FF0000CD5
:101900000B0E04BF09020CF1080C0B0F04BF0901F8
:101910000CF1040C8B0F04BF89000CF1020CCB0FEF
:1019200004BF49000CF1010CCCF12003A0EB0C002A
:1019300022FA03F302FA0CF241EA030100F101007A
:10194000704720F07F4C80EA030023F07F47ACEB28
:10195000070303F57C5300F0004003F1FF032DE97A
:1019600080494FEA154B09B44FEA144325EA0B4E60
:1019700024EA03480FF2042606EB132749083E78B1
:101980005FEA320203FB0667C7F5000707FB06F6AE
:101990004FEA54374FEAD64606F1020607FB066CBB
:1019A000CCF1005C4FEA1C472CEA074C07FB06F41D
:1019B0000CFB06F504EB15464FEA961634BF0020E3
:1019C0004FF000404FEAD13706FB07FC4FEA1C4CB2
:1019D0000CFB0BF7D21B03FB0CF761EB07010CFBB5
:1019E0000EF7B0EB074072EB17420CFB08F734BF61
:1019F000A2EB0742B2EB074261EB17414FEA0C44FE
:101A00004FEA910706FB07FC4FEA1C4C0CFB0BF757
:101A1000B0EBC74072EB573203FB0CF734BFA2EBBD
:101A2000C742B2EBC74261EB57310CFB0EF7B0EB8C
:101A3000C70072EB57720CFB08F734BFA2EBC7026A
:101A4000B2EBC70261EB5771039F4FEA816141EA34
:101A5000921104EBCC044FEAD1374FEA826206FBC5
:101A600007FC42EA90124FEA80604FEA1C4C0CFBE4
:101A70000BF7D21B03FB0CF761EB07010CFB0EF716
:101A8000B0EB074072EB17420CFB08F734BFA2EB38
:101A90000742B2EB074261EB17414FEA8C554FEA20
:101AA000910704EB9C2406FB07FC4FEA1C4C0CFB43
:101AB0000BF7B0EBC74072EB573203FB0CF734BFA8
:101AC000A2EBC742B2EBC74261EB57310CFB0EF7FA
:101AD000B0EBC70072EB57720CFB08F734BFA2EBF8
:101AE000C702B2EBC70261EB577115EB4C254FEA09
:101AF000816141EA92114FEA82624FEAD13742EAAC
:101B0000901206FB07FC44F100044FEA80604FEAA4
:101B10001C4C0CFB0BF7D21B03FB0CF761EB070112
:101B20000CFB0EF7B0EB074072EB17420CFB08F70B
:101B300034BFA2EB0742B2EB074261EB174115EB52
:101B40001C154FEA813141EA92414FEA823242EA62
:101B500090424FEA80304FEA0C7644F1000448EAA4
:101B600003434EEA0B484FF0000EB2EB080C71EB4A
:101B7000030724BF624639464EEB0E0E4FF0000BB2
:101B80000018524149414BEB0B0BB2EB080C71EBC7
:101B900003077BF1000B24BF624639464EEB0E0E65
:101BA0004FF0000B0018524149414BEB0B0BB2EBCD
:101BB000080C71EB03077BF1000B24BF624639462A
:101BC0004EEB0E0E51EA020718BF46F0010616EB67
:101BD0000E7655F1000254F1000103D5BDE88901EC
:101BE000BDE80088BDE88901BDE80048B61952414A
:101BF00041EB0101A3F10103704780807F7E7D7C72
:101C00007B7A7978777676757473727171706F6E8E
:101C10006E6D6C6C6B6A6A69686867666665646439
:101C2000636362616160605F5F5E5E5D5D5C5C5BC3
:101C30005B5A5A5959585857575656555555545432
:101C4000535352525251515050504F4F4F4E4E4D90
:101C50004D4D4C4C4C4B4B4B4A4A4A4949494848DC
:101C6000484747474746464645454544444444431C
:101C700043434342424242414141002B9C4630D4BF
:101C800077002BD01CB54FEA370703B44FF0100094
:101C90004FF01001BAF1000F06D0BCF1000FDCBF0D
:101CA00040F0080040F008014FF000000FBCBDE814
:101CB00010400BF1010BBBF1010F08BF5FEA1707E2
:101CC00022BF12F1010211F101014FF0004143F175
:101CD000000300F0004043EA00007047F9D35708C2
:101CE000D0E746EA064613F1400F4FEA16461FDDDD
:101CF00013F1200FDFBF16430A46002120335B4259
:101D0000BED0C3F1200746EA064602FA07F74FEABB
:101D1000164646EA0706C3F1200722FA03F201FA43
:101D200007F721FA03F14FF0000342EA0702A7E7A1
:101D300046EA020646EA06464FEA164646EA010623
:101D4000BCBF46EA0646360C4FF000034FF00002D7
:101D50004FF0000194E72DE9804C9A46934670B409
:101D600091E8380007C831EA400C48BF34EA430C18
:101D700003D5FFF7E6FDFFF780FFF0BCBDE8008C60
:101D80002DE9804C9A46934670B491E8380007C814
:101D900010F0804F08BF13F0804F03D100F005F81A
:101DA000FFF76BFFF0BCBDE8008C20F07F4780EAB6
:101DB000030023F07F4C07EB0C03A3F57C5300F0EA
:101DC0000040A3F1FE0392F0000F00F0B38095F005
:101DD000000F00F077802DE901494FEA11404FEAEA
:101DE000144621EA004800FB06FC24EA064708FBEB
:101DF00006F607FB08F800FB07F718EB06484CEB64
:101E0000164C4FEA124B18EB07484FEA15464CEBBD
:101E1000174022EA0B4E0BFB06FC25EA06470EFB99
:101E200006F607FB0EFE0BFB07F71EEB064E4CEB10
:101E3000164C4FF000061EEB074E4CEB174B18EB01
:101E40000B0840F1000018EB0E0B58EB000840F1B6
:101E500000008F1A4FF000013CBFC943661B14BF3E
:101E6000B5EB040C00213CBFC943F61B4FEA1744F5
:101E70004EEA8E0E27EA04454FEA1C4704FB076230
:101E80002CEA074C05FB07F70CFB05F604FB0CFCE2
:101E900016EB074642EB174216EB0C4642EB1C4290
:101EA0001BEB060658EB0202414146EA9E0601D5AD
:101EB000BDE80189B619524141EB0101A3F10103CB
:101EC000BDE801894FEA14454FEA114724EA054667
:101ED00021EA074C05FB07F406FB07F70CFB06F1AC
:101EE00005FB0CFC11EB074144EB17444FEA12478A
:101EF00011EB0C4144EB1C4422EA074C05FB07F2B2
:101F000006FB07F70CFB06F605FB0CFC16EB074679
:101F100042EB174216EB0C4642EB1C456A1854F193
:101F2000000148BF7047B619524141EB0101A3F1CE
:101F30000103704795F0000F37D04FEA11424FEA86
:101F4000144721EA024624EA074C02FB07F106FB8C
:101F500007F70CFB06F402FB0CFC14EB074441EB07
:101F600017414FEA154714EB0C4441EB1C4125EA9D
:101F7000074C02FB07F506FB07F70CFB06F602FB16
:101F80000CFC16EB074645EB174516EB0C4645EBEC
:101F90001C42121951F1000148BF7047B619524155
:101FA00041EB0101A3F1010370474FEA14454FEAE9
:101FB000114724EA054621EA074C05FB07F106FB19
:101FC00007F70CFB06F24FF0000605FB0CFC12EBCA
:101FD000074241EB174112EB0C4251EB1C4148BF49
:101FE0007047921841EB0101A3F1010370470029EA
:101FF000816802D041F0010101E021F0010181601E
:1020000070470029816802D041F4807101E021F419
:10201000807181607047014600208968490700D5BA
:1020200001207047014600208968090700D501207A
:102030007047000010B542680E4B0C791A400B68CF
:1020400042EA04221343436083680B4A1340D1E9F8
:10205000024222434C7943EA44031A438260C26A33
:10206000097C22F47002491EC9B242EA0151C162E0
:1020700010BD0000FFFEF0FFFDF7F1FF70B5072473
:1020800009290AD9C568A1F10A0606EB4606B4403B
:10209000A543B3401D43C56007E0056901EB410658
:1020A000B440A543B3401D4305611F23072A09D24D
:1020B000446B521E02EB820293409C4391400C43BE
:1020C000446370BD0D2A09D2046BD21F02EB820259
:1020D00093409C4391400C43046370BDC46A0D3A25
:1020E00002EB820293409C4391400C43C46270BD5A
:1020F000816841F00801816070470029816802D041
:1021000041F4A00101E021F4A001816070478168E1
:1021100041F004018160704770B5012190B008461C
:1021200000F0A0FB0121480200F0C0FB454E304604
:1021300000F0C6F844480090444801A9002408254E
:1021400081E831008020CDE9044040000690800005
:102150000790202008900002CDE909046946304626
:1021600000F020F90121304600F09EF801208DF8A2
:1021700030008DF831000B944FF46020CDE90D0450
:102180008DF83C50304D0BA94C3D2846FFF752FFCF
:102190004FF4404000F05CFB2D4C05230122E17B15
:1021A0002846FFF76BFFE17F052302222846FFF751
:1021B00065FF94F82F10052303222846FFF75EFFE2
:1021C00094F83F10052304222846FFF757FF052304
:1021D00094F84F101A462846FFF750FF94F85F1006
:1021E000052306222846FFF749FF94F86F100523C0
:1021F00007222846FFF742FF94F87F1005230822A4
:102200002846FFF73BFF01212846FFF7FAFE012190
:102210002846FFF7ECFE2846FFF76AFF2C462046CB
:10222000FFF700FF0028FAD12046FFF770FF204695
:10223000FFF7F1FE0028FAD101212046FFF75DFFEC
:1022400010B070BD080002404C2401403004002052
:1022500038A1000810B500F004F8BDE81040FFF701
:102260005BBF10B50021084605F070FF002101207A
:1022700005F06CFF0021022005F068FF002103201B
:1022800005F064FF0021042005F060FF0021052017
:1022900005F05CFF0021062005F058FF0021BDE895
:1022A0001040072005F052BF0029016802D041F01C
:1022B000010102E04FF6FE7211400160704700001C
:1022C00001684FF6FE72114001600021016041601B
:1022D0008160C1603149314A0839904203D1486870
:1022E00040F00F0006E02D4A1432904204D14868B5
:1022F00040F0F00048607047284A2832904203D1ED
:10230000486840F47060F5E7244A3C32904203D1BB
:10231000486840F47040EDE7204A5032904203D1C3
:10232000486840F47020E5E71C4A6432904203D1CB
:10233000486840F47000DDE7184A7832904203D1D3
:10234000486840F07060D5E7154A111F904203D1EC
:10235000086840F00F0006E0114A1432904204D1A0
:10236000086840F0F000086070470D4A283290423B
:1023700003D1086840F47060F5E7094A3C329042A6
:1023800003D1086840F47040EDE7054A50329042AE
:10239000EAD1086840F47020E5E700000800024038
:1023A0000804024030B5036847F6F07293430C6AA4
:1023B0008A682243D1E904452C4322438C69224395
:1023C000CC6922434C6A22438C6A22431A4302603E
:1023D000CA6842600A6882604968C16030BD000016
:1023E0004FF0E0200849416100218161016941F01D
:1023F00004010161016941F002010161016941F0DB
:1024000001010161704700004019010010B5012071
:1024100000F0E0F8002807D0044800688047BDE8D5
:102420001040012000F0D0B810BD000024000020B2
:1024300070B54FF48065284600F0CCF8204C20B1F0
:10244000A16A8847284600F0BFF84FF40065284687
:1024500000F0C0F820B1E16A8847284600F0B4F8DF
:102460004FF48055284600F0B5F820B1216B88471D
:10247000284600F0A9F84FF40055284600F0AAF8C5
:1024800020B1616B8847284600F09EF84FF48045E4
:10249000284600F09FF820B1A16B8847284600F03D
:1024A00093F84FF40045284600F094F8002806D031
:1024B000E16B88472846BDE8704000F085B870BDE4
:1024C0002400002010B5022000F084F8002807D076
:1024D000044840688047BDE81040022000F074B80E
:1024E00010BD00002400002010B5042000F072F898
:1024F000002807D0044880688047BDE810400420C9
:1025000000F062B810BD00002400002010B50820C3
:1025100000F060F8002807D00448C0688047BDE894
:102520001040082000F050B810BD0000240000202A
:1025300010B5102000F04EF8002807D004480069BC
:102540008047BDE81040102000F03EB810BD0000EC
:102550002400002070B5202000F03CF8194C20B178
:1025600060698047202000F02FF8402000F032F80A
:1025700020B1A0698047402000F026F8802000F0BC
:1025800029F820B1E0698047802000F01DF84FF461
:102590008075284600F01EF820B1216A8847284639
:1025A00000F012F84FF40075284600F013F80028E8
:1025B00006D0616A88472846BDE8704000F004B83C
:1025C00070BD000024000020014908607047000031
:1025D00014040140064A014600201268044B0A40D8
:1025E00014331B680B4202D0002A00D00120704730
:1025F00000040140F0B5CA78002502F00F03D206AE
:1026000001D58A7813430A784FF00F0E12F0FF0FAE
:102610004FF001021CD004680F8802FA05F637401B
:10262000B74211D14FEA850C0EFA0CF724EA0707DE
:1026300003FA0CF43C43CF78282F02D0482F02D065
:1026400002E0466100E006616D1C082DE4D30460E1
:102650000C88FF2C1ED944685FF0000606F10807BD
:1026600002FA07F50F882F40AF420FD14FEA860CD0
:102670000EFA0CF7BC4303FA0CF73C43CF78282F33
:1026800000D14561CF78482F00D10561761C082E16
:10269000E4D34460F0BD0000F0B5144C002801DA2A
:1026A000E36900E06368420D120185B2C0F301578F
:1026B0009540C0F30346032F05D0C2020AD503227A
:1026C000B240934307E023F07062636823F07063C5
:1026D000636002E0AB4343F0706201B12A4300281B
:1026E00001DAE261F0BD6260F0BD0000000001406F
:1026F000F8B504461C481E4615460F46844201D1D3
:1027000004201CE01948844201D1082017E0184831
:10271000844201D1102012E01648844201D12020C9
:102720000DE01548844201D1402008E0134884425E
:1027300001D1802003E01248844213D180151C2D62
:1027400001D0182D01D140F00100012100F0AEF8B8
:10275000ADF800708DF803508DF802606946204690
:10276000FFF748FFF8BD000000080140000C0140E1
:10277000001001400014014000180140001C0140FD
:1027800000200140014931F810007047300400205A
:1027900070B50F23C47801780122F4B1144C246879
:1027A000457804F4E064C4F5E064240AC4F1040646
:1027B000E3408478B5401C402C4301F1E021230123
:1027C00081F80034007800F01F018A404009800041
:1027D00000F1E020C0F8002170BD01F01F00824030
:1027E0004809800000F1E020C0F8802170BD0000A1
:1027F0000CED00E002490843024908607047000000
:102800000000FA050CED00E070B50C460E491646C6
:1028100001EB00156968A9B1182105F097FC0B4878
:102820000021B0FBF4F0B0FBF6F6686800F0B0F9F8
:10283000761E641EAB7BB2B2A1B2686800F0E8FB02
:10284000A87B70BD002070BD38A1000800A24A041A
:10285000034A516821F44041014351607047000030
:1028600000100240044A0029516901D0014300E0F0
:10287000814351617047000000100240044A002962
:10288000D16901D0014300E08143D161704700006C
:1028900000100240044A0029116901D0014300E000
:1028A000814311617047000000100240044A002972
:1028B000916901D0014300E08143916170470000BC
:1028C00000100240044A0029D16801D0014300E011
:1028D0008143D160704700000010024030B51F49AD
:1028E0004A6812F00C031E4A03D0042B01D0082BB7
:1028F00021D002604A680F231A4C03EA1212A35C2B
:102900000268DA4042604B68072505EA1323E35C5E
:1029100022FA03F383604B6805EAD323E35CDA40D1
:10292000C2604968032303EA9131231F595CB2FB5B
:10293000F1F1016130BD4A684B6802F470124FF04A
:10294000020413F4803F04EB924202D04B689B03D5
:1029500001D5054B00E0024B5A43CAE70010024084
:1029600000127A00D001002000093D0000290188F2
:1029700002D041F0400101E021F0400101807047A8
:102980000246002012890A4200D001207047808947
:1029900070478181704730B502884C8802F44153FA
:1029A0000A88CD8822438C882C4322430C892243F9
:1029B0004C8922438C892243CC8922431A430280CA
:1029C000828B22F400628283098A018230BD00007A
:1029D0000CB50021264801910091026842F4803232
:1029E00002604FF4A063026802F400320092019A80
:1029F000521C0192009A12B9019A9A42F3D10268CC
:102A0000920333D5012100911A490A6842F010025D
:102A10000A600A6822F003020A600A6842F00202B1
:102A20000A604168416041684160416841F48061E9
:102A30004160416821F47C114160416841F4E81132
:102A40004160016841F08071016001688901FCD535
:102A5000416821F003014160416841F00201416099
:102A60004168C1F381010229FAD10CBD00910CBD6E
:102A7000001002400020024002480168491C016029
:102A800070470000080000200F4810B5016841F0B1
:102A90000101016041680D4A1140416001680C4A22
:102AA00011400160016821F480210160416821F436
:102AB000FE0141604FF41F018160FFF789FF054966
:102AC0004FF00060086010BD001002400000FFF8E9
:102AD000FFFFF6FE08ED00E010B5084C012120468E
:102AE00000F024F9002808D00548016888472046EE
:102AF000BDE81040012100F048B810BD002C014095
:102B00006400002010B501218C07204600F00EF96A
:102B1000002808D00448416888472046BDE8104096
:102B2000012100F032B810BD6400002010B5084C3F
:102B30000121204600F0FAF8002808D005488168F5
:102B400088472046BDE81040012100F01EB810BDA6
:102B5000000400406400002010B5084C012120460C
:102B600000F0E4F8002808D00548C16888472046EE
:102B7000BDE81040012100F008B810BD0008004079
:102B800064000020C94301827047C9430182704735
:102B90000029018802D041F0010101E021F001018A
:102BA00001807047002930F8441F02D041F40041F1
:102BB00001E0C1F30E010180704700004B4910B5E0
:102BC000884202D10121C41486E0B0F1804F09D0BF
:102BD000474988420DD101210220FFF75BFE002109
:102BE000022064E001210846FFF754FE0021012085
:102BF0005DE04049884206D101210420FFF74AFEEA
:102C00000021042053E03C49884206D101210820DC
:102C1000FFF740FE0021082049E03849884206D1EC
:102C200001211020FFF736FE002110203FE034493B
:102C3000884206D101212020FFF72CFE0021202010
:102C400035E03049884202D10121441444E02E4944
:102C5000884202D10121CC043EE02C49884202D1B5
:102C600001210C0538E02A49884202D101214C0596
:102C700032E02849884206D101214020FFF70AFEB0
:102C80000021402013E02449884206D10121802000
:102C9000FFF700FE0021802009E0204988420AD188
:102CA000841501212046FFF7F5FD00212046BDE8EF
:102CB0001040FFF7EFBD1A49884202D101210C04F0
:102CC0000AE01849884202D101214C0404E0164967
:102CD00088420AD101218C042046FFF7F3FD2046EB
:102CE000BDE810400021FFF7EDBD10BD002C0140F4
:102CF0000004004000080040000C004000100040AC
:102D00000014004000340140004C014000500140DC
:102D10000054014000180040001C0040002000400A
:102D200000400140004401400048014002460020AC
:102D3000138A92890B4202EA010202D0002A00D0D3
:102D400001207047002A828901D00A4300E08A43AB
:102D50008281704730B5028C22F001020284028C1D
:102D60008388048B22F0020224F073050C882C4324
:102D70000D8915434A882A43114DA8420BD0114DA5
:102D8000A84208D0104DA84205D0104DA84202D04C
:102D90000F4DA8420DD122F008054A8923F4407353
:102DA0002A4322F004058A882A438D891D43CB8952
:102DB0002B4383800483C9888186028430BD000050
:102DC000002C01400034014000400140004401401B
:102DD00000480140028B22F008020A430283704738
:102DE00070B5028C22F010020284028C8488038B5E
:102DF0000D8823F4E6464FF6FF7303EA05253543B5
:102E00000E8922F0200203EA061616434A8803EAD6
:102E100002123243104EB04202D0104EB04215D1D1
:102E200022F080064A8924F4406403EA0212324305
:102E300022F040068A8803EA021232438E8903EAAE
:102E400086062643CC8903EA8404344384800583C0
:102E5000C9880187028470BD002C01400034014004
:102E6000028B4FF6FF7322F4006203EA0121114343
:102E70000183704770B5028C22F480720284028C48
:102E80008488838B0D8823F073031D4322F4007321
:102E90000E894FF6FF7202EA06261E434B8802EAAD
:102EA00003233343104EB04202D0104EB04215D12E
:102EB00023F400664B8924F4405402EA032333438D
:102EC00023F480668B8802EA032333438E8902EA67
:102ED00006162643CC8902EA041434438480858391
:102EE000C9888187038470BD002C014000340140F3
:102EF000828B22F008020A438283704770B5028CED
:102F000022F480520284048C8288838B0D8823F4FF
:102F1000E6464FF6FF7303EA0525354324F40056D1
:102F20000C8903EA043434434E8803EA0636264308
:102F3000094CA04202D0094CA04205D122F48044A1
:102F40008A8903EA8212224382808583C988A0F895
:102F50004010068470BD0000002C01400034014088
:102F6000828B4FF6FF7322F4006203EA01211143C2
:102F70008183704730B502881B4B1C4C98420DD0A2
:102F8000A0420BD0B0F1804F08D0194DA84205D017
:102F9000184DA84202D0184DA84203D122F0700566
:102FA0004A882A43154DA84206D0154DA84203D0A1
:102FB00022F44075CA882A4302808A8882850A885A
:102FC000028598420AD0A04208D00E4A904205D00D
:102FD0000D4A904202D00D4A904201D1097A0186F1
:102FE0000121818230BD0000002C014000340140ED
:102FF0000004004000080040000C004000100040A9
:1030000000140040004001400044014000480140DD
:103010002DE9F0413A4D88B0984616460F460446D1
:10302000A84204D10121C014FFF740FC12E0B4F122
:10303000804F05D03348844205D10121022007E0AA
:103040000121084604E03048844203D101210420D4
:10305000FFF714FC0020ADF81470ADF81060ADF867
:103060001600ADF8120004A92046FFF783FF702078
:10307000ADF800000120ADF802000220ADF8080014
:103080004046B8F1010F07D002280ED0032815D012
:10309000B8F1040F23D11AE069462046FFF75AFE23
:1030A00008212046FFF796FE19E069462046FFF703
:1030B00097FE08212046FFF7D3FE10E06946204620
:1030C000FFF7D8FE08212046FFF712FF07E0694608
:1030D0002046FFF713FF08212046FFF741FF01219B
:1030E0002046FFF755FDAC4202D00848844203D188
:1030F00001212046FFF756FD08B0BDE8F081000031
:10310000002C014000040040000800400034014051
:1031100008B503230093002300F002F808BD000067
:103120002DE9FF5F9A46554BDFF854C1DDF838B002
:103130009146044698423ED0B4F1804F37D0514D6D
:10314000514FAC423CD0BC423AD0DFF840814445BC
:1031500036D0DFF83C81444532D0DFF83881444531
:103160002ED064452CD0DFF83081444528D0DFF8DC
:103170002C81444524D0DFF82881444520D0DFF855
:10318000248144451CD0DFF82081444518D0DFF865
:103190001C81444514D0DFF81881444510D0DFF875
:1031A000148144450CD0444DAC4265D113E001205C
:1031B00002461C260FE000204FF4006219260AE0A8
:1031C000AC4203D1022002461D2604E0BC4202D1DB
:1031D000032004221E26394F47F8209001EBC1003E
:1031E000C000B0F5076F01D20A2509E034498842D2
:1031F00002D24FF47A7101E044F62061B0FBF1F5A0
:10320000B0FBF5F79C4201D0644504D10121104682
:10321000FFF74CFB03E001211046FFF72FFB204690
:10322000FFF7CCFC00206D1E7F1EADF80450ADF8FA
:1032300000708DF80800ADF80600ADF80200694690
:103240002046FFF797FE4FF4C060FFF7D3FA8DF8E2
:103250000C608DF80DA08DF80EB001208DF80F00D8
:1032600003A8FFF795FA01212046FFF78BFC012206
:1032700011462046FFF766FDBDE8FF9F002C014088
:10328000003401400004004000080040000C0040F1
:103290000010004000140040004C0140005001406C
:1032A0000054014000180040001C00400020004075
:1032B00000400140004401400048014064000020FB
:1032C00018FCE70370B5144C40F2255529462046FA
:1032D00000F09EF800281DD0204600F027F90F4A84
:1032E000C0B21188491C01F07F03911D09889942E1
:1032F00003D011880A4E70541380084809490C30D5
:103300000068884200D0804729462046BDE87040CA
:1033100000F06EB870BD0000003801400C000020C5
:10332000B00200204981000870B5144C40F22555C8
:103330002946204600F06CF800281DD0204600F0F9
:10334000F5F80F4AC0B25188491C01F07F03911D66
:103350004988994203D056880A49705453800848D6
:1033600009490C304068884200D0804729462046F1
:10337000BDE8704000F03CB870BD00000044004063
:103380000C000020300300204981000870B5144C67
:1033900040F225552946204600F03AF800281DD075
:1033A000204600F0C3F80F4AC0B29188491C01F0D2
:1033B0007F03911D8988994203D096880A497054E9
:1033C0009380084809490C308068884200D08047C3
:1033D00029462046BDE8704000F00AB870BD0000E4
:1033E000004800400C000020B00300204981000884
:1033F0000A0A01219140C94301807047002981894F
:1034000002D041F4005101E021F400518181704764
:1034100030B501F01F0201240025C1F3421304FA64
:1034200002F2012B0FD0022B0FD0838A4FEA112119
:103430000088134204FA01F400EA040001D000B14C
:103440000125284630BD8389F0E7038AEEE710B5F1
:10345000C1F3421301F01F040121A140012B07D049
:10346000022B07D01430002A026805D00A4304E07A
:103470000C30F8E71030F6E78A43026010BD000018
:1034800030B50446008A85B00D464CF6FF71084001
:10349000E98801432182A1894EF6F3100140A888F2
:1034A0002A8910436A890A431043A081A08A4FF6F3
:1034B000FF410840A9890143A1826846FFF70EFA3F
:1034C0001948844201D1039800E00298A1890904B7
:1034D00000EBC00101EB0010296801D5490000E0B4
:1034E0008900B0FBF1F06422B0FBF2F109010B0995
:1034F0006FF018056B4300EB8300A3891D044FF0A8
:10350000320306D503EBC000B0FBF2F000F0070079
:1035100005E003EB0010B0FBF2F000F00F000843F1
:10352000208105B030BD0000003801408088C0F324
:103530000800704710B50121112004F007FE482152
:10354000192004F003FE0421182004F0FFFD0421DB
:10355000172004F0FBFD10211C2004F0F7FD2821AA
:103560000F2004F0F3FD0421142004F0EFFD1021DE
:10357000152004F0EBFD1021162004F0E7FD1021CA
:103580002D2004F0E3FD04212E2004F0DFFD1021A6
:10359000BDE810402F2004F0D9BD000010B50FA1E8
:1035A000114803F01BFD114C11492068884203DAD1
:1035B00030210D4803F01AFD206806F061F901463C
:1035C0000A22094803F023FD2221074803F00EFDDB
:1035D00002F05AFABDE8104000F00CB874535044A1
:1035E0002E7478743D220000E00100209C00002031
:1035F0000000204170B50B48006801F065FF0A4DDE
:103600000446286884420BD008A10B4803F0E6FC6E
:103610000A222146084803F0FAFC02F035FA2C6031
:1036200070BD0000A00000203C0100207A52504DE7
:103630002E76616C3D000000E00100202DE9F84F7E
:10364000DF4C207AC00710D104F1080004F055FCCB
:1036500058B1DCA1DC4803F0E7FEDC4ADC49FDF7A9
:10366000A5F804F10800AFF3008004F067FDE168FD
:10367000A14688427ED3D448002201210C3003F0B9
:103680006DF9CF49D04810310C3002F047FFD14FCF
:103690003878012809D101F0F1FE30B1C849CA4893
:1036A00018310C3002F03AFF07E0387800287CD05F
:1036B0007821C5480C3003F099FCC348002203214F
:1036C0000C3003F04BF9C44CE08801286ED0552132
:1036D000BD480C3003F08AFCBB48A1880A220C309C
:1036E00003F095FC207A00287FD001287FD00228A3
:1036F0007FD003287FD05F21B3480C3003F076FCE5
:10370000B148052201210C3003F028F9AE48B3A1DD
:103710000C3003F063FCB348007801286DD0B2A1EF
:10372000A9480C3003F05AFCA74805220A210C30A6
:1037300003F014F9A448ADA10C3003F04FFC0F20A6
:1037400004F0AEFC01285AD09D4930319E480C301F
:1037500002F0E4FE9C48062201210C3003F0FEF842
:1037600001F0ECFB05F036FF024697480B46A1A19D
:103770000C3000E021E103F0ABFC934806220A2163
:103780000C3003F0EBF801F0CFF89D4906F00AF990
:1037900006F076F802468C489AA10C3003F098FCAB
:1037A0008948072201210C3001E01AE01BE003F0F8
:1037B000D5F8954895A1026883480C3003F088FC41
:1037C000207ADFF85482DFF854A2954E0125C8B163
:1037D000012817D0022854D08CE006E007E008E06A
:1037E00009E05F2165E74E2172E7632184E77421D8
:1037F00082E7702180E773217EE78AA190E7704914
:103800002831A3E77048002206210C3003F0A6F807
:103810003168414504DA6C4820210C3003F0E6FBA6
:10382000306805F0D7FE024667480B460C3000951D
:1038300003F0DFFB644856210C3003F0D7FB6248ED
:1038400000220B210C3003F089F8DAF8000005F0B3
:10385000C1FE02465C480B460C30009503F0C9FBE4
:103860005749594820310C3002F058FE5648202163
:103870000C3003F0BBFBE08801283BD1FFF78EFE44
:1038800038E05148002206210C3003F067F8316817
:10389000414504DA4C4820210C3003F0A7FB306886
:1038A00005F098FE024648480B460C30009503F0A0
:1038B000A0FB454856210C3003F098FB42480022FB
:1038C0000B210C3003F04AF8DAF8000005F082FE14
:1038D00002463D480B460C30009503F08AFB384900
:1038E000394820310C3002F019FE374820210C30C5
:1038F00003F07CFB3448012211460C3003F02EF813
:1039000049484AA1026830480C3003F0E1FB2E48D8
:10391000012209210C3003F021F8464846A1026833
:1039200029480C3003F0D4FB2748022211460C3002
:1039300003F014F8424C244842A10C30226803F0F2
:10394000C7FB214802220A210C3003F007F83F4D43
:103950001D483CA10C302A6803F0BAFB1A48032228
:1039600002210C3002F0FAFF174839A10C3022690D
:1039700003F0AEFB144803220A210C3002F0EEFFE4
:10398000114833A10C302A6903F0A2FB3878324C7D
:10399000012807D101F072FD20B12078022807D05C
:1039A000022003E02078012802D0012002F008FB69
:1039B00004F0C4FB3230C9F80C00BDE8F88F0000F9
:1039C000B400002000000000D8040020000000081F
:1039D000A774000861010020400400204D50553AB2
:1039E00000000000840100204F4646005343524E21
:1039F0003A000000426174743A25312E3166560057
:103A00000000C84225336400C80100204C4F4F50CD
:103A10003A253564742F7300000020419400002083
:103A2000980000204F4E2000480100204C703A259D
:103A3000346400004C01002052703A2534640000C8
:103A400054060020783A25346400000074060020F3
:103A5000793A2534640000008900002038B5144606
:103A60001D46021B05D4FF21009100232A46214652
:103A700004E0002200926FF0FE03224604F03EFBB9
:103A800000B238BDB0F900308B4201DA01807047D6
:103A90009342FCDD028070472DE9F041DE4DDF4CA2
:103AA0006868012802D0022870D1AFE0002202210C
:103AB000DB4802F053FFDBA1D94803F08FFA012263
:103AC0000221D74802F04AFF2288D9A1D44803F046
:103AD000FFFA02221146D24802F040FFA288D8A184
:103AE000CF4803F0F5FA02220921CD4802F036FF53
:103AF000A088012804D0022813D0032832D121E065
:103B0000D149C74802F00AFDD0A1C54803F066FAC2
:103B1000CD49C34802F002FD2021C14803F066FAF6
:103B200020E0C949BE4802F0F9FCC8A1BC4803F036
:103B300055FAC749BA4802F0F1FCC649B84802F044
:103B4000EDFC0FE0C249B64802F0E8FCBE49B448BB
:103B500002F0E4FCBF49B24802F0E0FCBEA1B0486C
:103B600003F03CFA03220221AD4802F0F7FEBBA1AC
:103B7000AB4803F033FA207A48B1012809D0022873
:103B800009D0032809D0042809D00CE061E0B5A1D0
:103B900006E0B6A104E0B7A102E0B8A100E0B9A137
:103BA0009F4803F01BFA042202219D4802F0D6FE32
:103BB000B6A19B4803F012FAE088012824D0B6A1F0
:103BC000974803F00BFA05220221954802F0C6FE41
:103BD000AA78B3A1924803F07BFA0622022190480A
:103BE00002F0BCFEB2A18E4803F0F8F907220221D0
:103BF0008B4802F0B3FEA078AF4951F82020AFA166
:103C0000874803F065FA24E0AFA1D9E7002202213A
:103C1000834802F0A3FEAEA1814803F0DFF9AF486C
:103C2000007801281BD0AEA17D4803F0D7F901220E
:103C300002217B4802F092FEAAA1794803F0CEF956
:103C400002221146764802F089FEA9A1744803F0C9
:103C5000C5F9AA4E707838B1E86910B104E0A8A19E
:103C6000E2E7E868401CE860307820B1E86910B904
:103C7000E868401EE860E96801200B2901DDE86082
:103C800003E0012901DA0B21E960E9684A1E072AED
:103C900001D8686005E0A1F10902072A01D80222D3
:103CA0006A60B2784AB3EA69D2BB8A1E022A10D986
:103CB00006290ED008290CD000274FF080400C298F
:103CC00049D2DFE801F04809484848104820482E0A
:103CD0003740C5E9070141E00121FEF759FF6F7048
:103CE00001F048F937E0E08840B10020E080012091
:103CF00001F0D4FAE088012802D02CE00120F5E799
:103D000002F0E2F927E00021FEF742FF6F7002F0B7
:103D10006FFAB42300221946104601F025F81AE084
:103D20001CE00021FEF734FF6F7002F061FA00F032
:103D300067FE10E00021FEF72BFF6F7002F058FACB
:103D400001F010FF07E00021FEF722FF6F7002F084
:103D50004FFA00F057FDE86900281AD0286A801E43
:103D6000072816D2DFE800F004172715371547009B
:103D7000307830B1208840F2E731884201D2401CCF
:103D800020807078002804D02088032801D9401EA4
:103D90002080BDE8F081307820B1A088032801D2CE
:103DA000401CA08070780028F3D0A0880128F0D9AA
:103DB000401EA080EDE7307820B1207A042801D29F
:103DC000401C207270780028E3D0207A0028E0D0D0
:103DD000401E2072DDE7307820B1A878642801D237
:103DE000401CA87070780028D3D0A8780028D0D0C4
:103DF000401EA870CDE7307820B1A0780A2801D203
:103E0000401CA07070780028C3D0A0780028C0D0D3
:103E1000401EA070BDE700006001002040040020AB
:103E2000E40400204A6F79737469636B000000003A
:103E300053656E642066713A253033646D730000FB
:103E40004D6F64653A2564002401002020200000A5
:103E50002C01002034010020205300004F626A65CD
:103E600063743A00434152200000000054414E4B1D
:103E700000000000435054520000000053504944D9
:103E8000000000004352415700000000506174746C
:103E900065726E3A00000000554152540000000067
:103EA0004272696768743A25336425250000000072
:103EB000536572766F000000B0AA00084261756415
:103EC0003A25366400000000322E3447000000001E
:103ED0004D5055363035302D000000008401002053
:103EE0004F46460042542053657475700000000030
:103EF000526573657420414C4C000000AC010020F9
:103F00004F4E200070B58AB004F018F9184900F53A
:103F1000FA70002425466E464860164802F042FDBD
:103F200070556D1CEDB2242DF7D3124802F05FFDE1
:103F3000305DAB2809D130194178CD2905D1017CFC
:103F4000DC2902D1407CBA2805D0641CE4B2142CD0
:103F5000EED30AB070BD084900202218324492788E
:103F60000A54401CC0B20E28F7D300F035FAF0E72F
:103F70008C000020E00100207E04002070B5334852
:103F8000334B314E0088334C00F59670C1B2C0F30C
:103F900007221888357A00F59670C3B2C0F307205F
:103FA00035B1012D15D0022D1FD0032D1DD044E0B9
:103FB000217062702849A370E07008882071000A9F
:103FC0006071088AA071000AE071207A401C20729A
:103FD00033E021706270A370E0702048008800F523
:103FE00096702071000A607127E01D48194D018804
:103FF0001C3501F596712980008A1A4900F59670E2
:104000006880088800F59670A880088A00F5967088
:10401000E88015480068C11700EB9170800828817E
:1040200012480068C11700EB917080086881104841
:1040300000F09AFB2873307A68730D4800F094FB07
:104040002073307A607370BD400400204801002066
:104050004C01002070040020940600205001002034
:10406000540600207406002054010020580100204E
:10407000AC0100202DE9FC5FC94C8346606905F066
:1040800065FCC84D294605F039FB0190A06905F093
:104090005DFC294605F032FB8146C348DFF80C83FE
:1040A0006FF0FE0A007801281FD198F80000E0B9EF
:1040B000BF4DFF270097BF48B5F90020564653462D
:1040C0005142B0F9000004F019F8BB4933460968C1
:1040D00008600097B948B5F900205142B0F90000D6
:1040E00004F00CF8B64909680860B648B64EB74DFA
:1040F0005946BBF1010F05D0022913D0BBF1030FC4
:1041000046D14AE0006905F021FC019905F04AFC1E
:1041100005F0B6FBA060306905F018FC494605F0D3
:1041200041FC32E007693068002F17DB05F00EFC18
:10413000494605F037FC0646384605F007FC01996C
:1041400005F030FC0746314605F070FA05F098FBA3
:10415000A0603146384605F0FBFC16E005F0F6FBA2
:10416000494605F01FFC0646384605F0EFFB01996D
:1041700005F018FC0746314605F0EAFC05F080FB27
:10418000A0603146384605F051FA05F079FBE06051
:1041900098F80000002872D0D1E001690068B1F100
:1041A00000094FF0FF3723DB05F0D0FB019905F044
:1041B000F9FB05F00FFA3A4605F0D5FD07468846AB
:1041C000484605F0C3FB019905F0ECFB05F002FA47
:1041D0008B46814643463A4604F0AAFC04F0BCFEF6
:1041E000A0603A4643464846594605F009F922E0A0
:1041F00005F0ACFB019905F0D5FB05F0EBF93A466B
:1042000005F0B1FD07468846484605F09FFB019939
:1042100005F0C8FB05F0DEF98B46814643463A4679
:1042200005F0EEF804F098FEA0603A464346484692
:10423000594604F07DFC04F08FFEE0603068B4273E
:10424000002806DB0097A968FF22C1F1B403002112
:1042500006E0A9680023C1F1B40100911A46514655
:1042600003F04CFFC0F1B40028603069002807DB80
:104270000097A969FF22C1F1B403002107E00FE014
:10428000A9690023C1F1B40100911A46514603F017
:1042900035FFC0F1B40028613068404220614EE033
:1042A0004B48007A18B1012801D0042847D10026D4
:1042B0000096287E8DF800005A388DF8010003F032
:1042C0003DFF616888423AD34248417821B1467047
:1042D00026702969491C2961017821B10670267070
:1042E0002969491E2961C17939B186712670296809
:1042F000491E29602169491E08E0817939B1C671DA
:1043000026702968491C29602169491C2161C179ED
:104310008279D14200D12661817861B1867020789E
:10432000022800D92670A868286020781DF800109F
:10433000401C2961207003F001FF14306060A06808
:104340005146884201DA504602E0FF2800DDFF2096
:10435000A060E068884201DA084602E0FF2800DD3C
:10436000FF20E0602069884201DA084602E0FF2869
:1043700000DDFF2020612868002801DA002002E02B
:10438000B42800DDB42028602869002801DA002064
:1043900002E0B42800DDB4202861BDE8FC9F0000E5
:1043A0004001002000F07F458401002060010020D2
:1043B0008E01002096010020BC0100209401002005
:1043C000B801002054060020740600209406002046
:1043D00040040020AC01002070B5194D288804F07D
:1043E00080FE184E0022334604F05EFC04F06EFBA3
:1043F000154CA060688804F074FE0022334604F077
:1044000053FC04F063FBE0601048007A002816D1EA
:10441000A88804F066FE0E4E0022334604F044FCE9
:1044200004F054FB2061E88804F05BFE0022334670
:1044300004F03AFC04F04AFB6061687B607070BD78
:104440007E040020000024408C0000204004002056
:10445000000059402DE9F041182003F021FE08B179
:10446000012700E00027164C4FF0010504F1240657
:10447000E078B84304D0172003F012FE50B17570F5
:10448000E770192003F00CFE30B1207900270128D5
:104490000BD012E03570F3E72079012768B903F0FB
:1044A0004DFE00F5FA70A06107E003F047FEA16938
:1044B000884201D2B57000E0F5702771BDE8F08147
:1044C000880100203EB5054603F038FE134C216AF2
:1044D000884222D9012004F110012070009101913D
:1044E0000B460A1F0291891E0D4803F005F80020B3
:1044F0002070B4F90620504201B204F10E00FFF71B
:10450000C1FAB4F90620504201B204F10C00FFF7E1
:10451000B9FA03F013FE284420623EBD8801002052
:104520004406002030B589B001F062FE304802F048
:104530006CF94EF6602003F09DFD2E4D00212846BB
:10454000FEF726FB00212A4802F09EF8284802F0D8
:104550005CF940F275222849254802F0A4F827A109
:10456000684602F061FF024600230621022000F0A7
:10457000DDFE684602F097FF03AC23A106A802F017
:1045800053FF0146204602F05FFF21A103F070FCBB
:104590000146684602F058FF024602230721012027
:1045A00000F0C4FE684602F07EFF03A802F07BFF25
:1045B00006A802F078FF194C01F024FF00F02AFF52
:1045C000A07808B9E07870B101F012FE084802F056
:1045D0001CF90121064802F057F801212846FEF790
:1045E000D7FA09B030BD1E2003F03AFDE4E7000021
:1045F000E404002000080040E1AA00084F63742092
:10460000203620323031380056322E310000000082
:104610005F5649464558546563680000AC01002068
:1046200070B51C4C00201C4DA060A061A86006461F
:10463000A861002003F008FDA1680844A0600120E3
:1046400003F002FDA1690844A061022003F0FCFC14
:10465000A9680844A860032003F0F6FCA96908448F
:10466000A8610A2003F0FCFC761CF6B2322EE0D3DF
:10467000A168322091FBF0F1A160A16991FBF0F1FA
:10468000A161A96891FBF0F1A960A96991FBF0F023
:10469000A86170BD540600207406002010B50B4CB4
:1046A00021696068884203D16169A06888420CD0A2
:1046B000074802F0AAF821696068884200D02061AA
:1046C0006169A068884200D0606110BD600100206F
:1046D000E404002070B5012003F0B6FC1F4C00B2CA
:1046E000A18B0BB2218B0AB2A18A09B2FFF7B6F9EE
:1046F0002061032003F0A8FC04F1200500B2A98B7F
:104700000BB2298B0AB2A98A09B2FFF7A7F928616F
:10471000002003F099FCA18900B20BB221890AB2F2
:10472000A18809B2FFF79AF92060022003F08CFCFF
:10473000A98900B20BB229890AB2A98809B2FFF788
:104740008DF92860042003F07FFC054908600520EE
:1047500003F07AFC0349086070BD00005406002095
:10476000540100205801002001784278C90141EA33
:104770008211827841EA4211C27841EA021102793B
:1047800041EAC201427941EA82018279C07941EA73
:1047900042010143C8B2704770B5154D002422464E
:1047A0000021144802F0DAF8E868401EC11700EB57
:1047B000517121F00701401AA0420FD10E490D4856
:1047C00001F0ACFEE86920B10C490A4801F0A6FEF0
:1047D00008E02021074802F009FC03E008A1054891
:1047E00002F0FCFB641CE4B2082CD8D370BD0000BE
:1047F00060010020E4040020A4000020AC000020A0
:104800002020000070B5234801F0FFFF00220221A4
:10481000204802F0A3F820A11E4802F0DFFB214D42
:10482000002400BF01F0EEFDA87848B3AC70194831
:1048300001F0EBFF00220221164802F08FF81AA1C6
:10484000144802F0CBFB1B480A2181700180012132
:104850008180C480184904725A20886088610120D0
:1048600000F01CFD012202210A4802F077F813A192
:10487000084802F0B3FB4FF47A7003F0F1FB03E059
:10488000E8780028CED0EC70BDE87040014801F017
:10489000BCBF0000E4040020436F6D6669726D20A8
:1048A0003F000000AC010020576174696E672E2E36
:1048B0002E0000004004002094060020526573651D
:1048C0007420446F6E6521000B4810B5D0F850215C
:1048D000B0F85C111161D0F86021B0F86C11516131
:1048E000B0F86C11D0F8600101610122152114208B
:1048F00003F082FFC0B210BD38A1000810B5094C0A
:104900006068401C606003F019FC2168884208D987
:104910006068A0600020606003F010FC00F57A7011
:10492000206010BDC001002070B500F007FB2A49CF
:10493000884201DA002412E02849884202DD4FF063
:104940007E540CE004F046FE0022254B04F058FD96
:10495000244A254B04F0A8F904F0B8F80446234D86
:10496000204669680E4605F0F3F8B0F5000F03DA4B
:104970002146304605F0ECF81D49884200DD6C60A8
:104980001C496868884202DB1849603101E0174918
:104990006831194801F0C2FD6868B0F17D5F02DD41
:1049A0001249483107E0B0F17C5F02DD0F49503118
:1049B00001E00E495831104801F0B0FD0F49686818
:1049C000884202DB0949383101E0084940310A4890
:1049D00001F0A4FD686870BD000030406666864046
:1049E00000000640343333333333F73FB400002044
:1049F0008FC2753CCDCCCC3DE40400209A99593F40
:104A00002DE9FE4FAD4801F000FFAD4802F0A0FDDA
:104A1000AC48DFF8BC92DFF8B08201780291012146
:104A2000DFF8A8B2AB4CAC4EAC4FAD4D017009F104
:104A3000100A00BF01F0E6FCFFF74CFEB8F80000DA
:104A4000FFF740FD002201219C4801F087FFA5A14E
:104A50009A4802F0C3FA01221146984801F07EFFFD
:104A6000B6F90020A3A1954802F032FB02220121F1
:104A7000924801F073FFB7F90020A1A18F4802F01E
:104A800027FB032201218D4801F068FFB4F90020C3
:104A90009EA18A4802F01CFB04220121874801F0F4
:104AA0005DFFB8F800209CA1844802F011FB0522AC
:104AB0000121824801F052FF9AA1804802F08EFA4B
:104AC000062201217D4801F049FF98A17B4802F0B0
:104AD00085FADBF80010494501D197A100E097A1C4
:104AE000764802F07BFA07220121744801F036FF74
:104AF00093A1724802F072FA94480168514501D1BD
:104B000093A100E093A16D4802F068FA2878A8B15B
:104B1000A87908B9E87940B1B4F9000044F62061F9
:104B200088420BDA401C208008E0B8F8000040F210
:104B3000E731884202D2401CA8F80000687888B1AA
:104B4000A87908B9E87930B1B4F90000C82809DDBE
:104B5000401E208006E0B8F80000012802D9401E5F
:104B6000A8F80000A87800287ED0D9F80000002816
:104B700000DC4042C82818DDB4F9000004F049FA0E
:104B8000754A764B04F0FCFACDE90001B6F9000055
:104B9000002800DC404204F03CFADDE9002304F088
:104BA000EDFB02D2CBF800901FE06D4800680028B2
:104BB00000DC4042C82818DDB4F9000004F029FAEE
:104BC000654A664B04F0DCFACDE90001B6F9000055
:104BD000002800DC404204F01CFADDE9002304F068
:104BE000CDFB02D25E48CBF80000D9F810000028B7
:104BF00000DC4042C82819DDB4F9000004F009FACD
:104C0000554A564B04F0BCFACDE90001B7F9000053
:104C1000002800DC404204F0FCF9DDE9002304F048
:104C2000ADFB03D24949C1F800A022E04C4800691D
:104C3000002800DC4042C8281BDDB4F9000004F065
:104C4000E8F9454A454B04F09BFACDE90001B7F974
:104C50000000002800DC404204F0DBF9DDE900231D
:104C600004F08CFB05D200E016E03D4837491030D7
:104C700008603C49012008700020A870B6F90000C7
:104C800040F69E7100F2CF70884205D8B7F9000057
:104C900000F2CF70884205D9E87858B13149002038
:104CA0000870E870054801F0B0FD064902980870E8
:104CB000BDE8FE8F01F09CFABCE60000E404002091
:104CC000440600205C010020B4010020BC0100204B
:104CD000540600208E01002096010020940100203F
:104CE000AC0100202D2D4D50552053544154452DDD
:104CF0002D000000526F6C6C203A253664000000D5
:104D000050697463683A2536640000004C696D6927
:104D1000743A20253564000046726571203A2533C7
:104D2000646D73004174746163683A00526F6C6C17
:104D3000202D3E204A535F004C2E5800522E580022
:104D400050697463682D3E204A535F00B80100200B
:104D50004C2E5900522E59009A9999999999E93FE8
:104D600074060020840100202DE9FF5FDFF870A1A8
:104D7000012400255B48DAF81880DAF8086001F0B1
:104D800044FDDFF864B100BF01F03CFB9BF800205C
:104D9000584612B10DB9641EE4B2417811B10DB993
:104DA000641CE4B224B1032C00D9012415B110E035
:104DB0000324FBE7032C0CD1837853B1CAF8188085
:104DC000042202214748CAF8086001F0C7FD47A144
:104DD0000EE0C3780BB12DB100259BF80200C0B1E5
:104DE000A5B117E0042202213E4801F0B7FD43A11E
:104DF0003C4802F0F3F84FF47A7003F031F9394887
:104E000001F003FDBDE8FF5F01F0F2B90125A14605
:104E100000E0EDB1B9F1010F03D0B9F1020F0BD0F1
:104E200016E01AB10198864200DA761C81B100982A
:104E300086420DDD761E0BE022B10398804501DA33
:104E400008F1010821B10298804501DDA8F10108AF
:104E500000220221234801F081FD2CA1214802F00B
:104E6000BDF8012202211F4801F078FD32462AA137
:104E70001C4802F02DF9022211461A4801F06EFD7D
:104E8000424627A1174802F023F9032202211548C0
:104E900001F064FD24A1134802F0A0F801273A466E
:104EA0000021104801F05AFDA7420ED120490D48BB
:104EB00001F034FB25B11F490A4801F02FFB08E03F
:104EC0002021084802F092F803E01BA1054802F0F7
:104ED00085F87F1CFFB2032FE1D901F089F953E770
:104EE00094060020E4040020AC01002043616C69BA
:104EF0006272617420446F6E6500000043616C69EA
:104F0000627261742045786974000000536572769E
:104F10006F20506F733A000058203D202533640005
:104F200059203D2025336400536176650000000060
:104F3000A4000020AC0000202020000010B50620B6
:104F400003F082F804F01AFD084904F0D7FB04F0DE
:104F500041FB4FF06632064B04F012F9012204F0D7
:104F600002FFBDE8104003F0B1BD000000F07F4536
:104F700066660A402DE9F05F4FF0000940F6FF75C4
:104F80002F463E46CB46CA46C8463446A44801F0A2
:104F90003CFC00220121A24801F0E0FCA1A1A048B4
:104FA00002F01CF8FFF73CFB012211469C4801F07F
:104FB000D5FCA0A19A4802F011F8022201219848DC
:104FC00001F0CCFC9FA1964802F008F84FF47A70EB
:104FD00003F046F8924801F018FC002003F034F882
:104FE000484503DD002003F02FF88146002003F040
:104FF0002BF8B84203DA002003F026F80746012018
:1050000003F022F8584503DD012003F01DF8834624
:10501000012003F019F8B04203DA012003F014F87C
:105020000646022003F010F8504503DD022003F08D
:105030000BF88246022003F007F8A84203DA0220A8
:1050400003F002F80546032002F0FEFF404503DDB1
:10505000032002F0F9FF8046032002F0F5FFA04292
:1050600003DA032002F0F0FF0446002211466C48E8
:1050700001F074FC76A16A4801F0B0FF002205211E
:10508000674801F06BFC74A1654801F0A7FF0A2294
:105090004946634801F0BBFF0421484601F0B6F8D9
:1050A000012205215E4801F059FC6CA15C4801F029
:1050B00095FF0A2259465A4801F0A9FF0421584693
:1050C00001F0A4F802220521554801F047FC64A133
:1050D000534801F083FF0A225146514801F097FFDF
:1050E0000421504601F092F8032205214C4801F0BA
:1050F00035FC5CA14A4801F071FF0A22414648484C
:1051000001F085FF0421404601F080F804220021CF
:10511000434801F023FC54A1414801F05FFF042201
:1051200005213F4801F01AFC4BA13D4801F056FF14
:105130000A2239463A4801F06AFF0421384601F054
:1051400065F805221146364801F008FC43A13448B1
:1051500001F044FF0A223146314801F058FF042192
:10516000304601F053F8062205212D4801F0F6FBE8
:105170003BA12B4801F032FF0A222946284801F0C2
:1051800046FF0421284601F041F807220521244862
:1051900001F0E4FB33A1224801F020FF0A2221465E
:1051A0001F4801F034FF0421204601F02FF801F0E0
:1051B00029F92F488178D1B12E480021C0F81CB0C0
:1051C000C0F80C90476046612B48C0F80CA0C0F8AE
:1051D0001C804560446126488170114801F015FB30
:1051E000002201210E4801F0B9FB24A10CE0C07897
:1051F00000283FF4F2AE0A4801F007FB002201212B
:10520000074801F0ABFB21A1054801F0E7FE4FF490
:105210007A7002F025FFBDE8F05F014801F0F5BAB1
:10522000E404002043616C6962726174696E672EE8
:105230002E2E00005475726E204A6F795374696384
:105240006B730000507265737320274F4B2700006B
:105250004D41583A000000004C583A004C593A0071
:1052600052583A0052593A004D494E3A0000000057
:10527000AC010020540600207406002043616C69D4
:105280006272617420446F6E6500000043616C6956
:1052900062726174204578697400000070B51D4D1C
:1052A000044600212846FDF773FC24B1012C13D0DD
:1052B000022C22D027E01849002000F079F9174984
:1052C000462000F075F916498C2000F071F9154957
:1052D000C82000F051F916E00F49002000F098F9BD
:1052E0000E49462000F094F90D498C2000F090F909
:1052F0000C49C82000F074F905E00B4802F00EFDDF
:10530000C00801F077F82846BDE870400121FDF79C
:105310003FBC000000080040540600207406002036
:1053200094060020400400209C0400202DE9FF4F3B
:105330000546177A85B08846104669467A1C0023D0
:1053400002F044FD0024DFF8C4B041F6583AE946C3
:1053500056E000BF19F80410A1F14102392A1ED805
:10536000412617E008F0FF02E9B2294801F0F6FAF9
:105370003146274801F03AFE9BF8000028B93C234B
:1053800051461C20089A03F083FA089802F068FE40
:10539000761CF6B219F80400B042E3D22CE02039B2
:1053A00020291ED8202617E008F0FF02E9B218488D
:1053B00001F0D4FA3146164801F018FE9BF80000BF
:1053C00028B93C2351461C20089A03F061FA08983A
:1053D00002F046FE761CF6B219F80400B042E3D2A1
:1053E0000AE008F0FF02E9B2094801F0B7FA19F83B
:1053F0000410074801F0FAFD6D1C641CADB2E4B264
:10540000BC42A7D309B0BDE8F08F00005C010020CA
:10541000E404002010B5192002F042FE164C28B119
:10542000182002F03DFEA178884208D04FF4967013
:10543000608102F083FE00F5FA70606106E002F020
:105440007DFE6169884201D90020608120896189DF
:10545000884202D9A0F10A0002E002D200F1140051
:1054600020814FF0180002F01BFEA0702189BDE8DA
:105470001040112003F0A2B98801002010B502F0FD
:105480005DFE07494968884206D30648C08828B9A6
:105490002E2002F005FE08B1012010BD002010BD35
:1054A0008C0000204004002010B5064C6078217864
:1054B000884204D002F042FE00F5FA606060607835
:1054C000207010BD8C0000202DE9F04106460E4DE5
:1054D00004F080F800270D4B3A4603F0E5FB0C4C36
:1054E0003A46234603F04CFEAE4204DA0022094B52
:1054F00003F01EFB03E02346002203F081FFBDE81A
:10550000F04103F029BD00000000204200004440AB
:105510000080564000E0704070B511480078D0B966
:10552000104C114D20782978884211D003F0D9FD14
:1055300000220E4B03F0B8FB00220D4B03F020FEBF
:1055400003F03AFDC1B20B4801F0A1F820782870B1
:10555000084801F0B3F9BDE87040FFF75BBF0000F9
:105560008801002062010020B400002000005940A2
:1055700000E06F40E40400202DE9F0410B4F0E469F
:105580000546002409482919303802F003FB385534
:10559000641C0A2CF6D305483038016B3160416B2E
:1055A0007160008F3081BDE8F0810000CC040020E4
:1055B0002DE9F041094E0F460546002407482919F8
:1055C000103802F0E7FA3055641C202CF6D3384628
:1055D000BDE8F04120220149FBF7D2B9AC0400201C
:1055E00070B5054609480A68002402634A684263A8
:1055F0000989018700F130062919325D034802F05C
:1056000090FB641C0A2CF7D370BD00009C040020A2
:1056100070B5054620220748FBF7B2F9054E002475
:105620000448325D2919103802F07BFB641C202CE1
:10563000F6D370BDAC04002010B5174CE08848B913
:10564000164801F0E9F916490978884202DBFEF7AD
:1056500059FC06E0E088012803D1FFF725FFFEF79B
:10566000BBFEFFF737F800F0CDFE0E4800780128AA
:1056700003D10D480088FEF725FF0C48007820B9BB
:105680002079FEF7F7FCFEF779FC00F00FFABDE891
:105690001040FFF733B9000040040020E001002073
:1056A000E0AA000884010020B4010020600100206D
:1056B0003EB500217D4802F033F8FDF73BFF7C4802
:1056C00001F046FF01212D2002F0F8FC00211120FD
:1056D00003F074F8192002F0E3FC00287ED00020CB
:1056E000744908703C21744801F014F80021724894
:1056F00000F0CDFF40F2752270496F4800F0D3FFF3
:10570000002421466C4800F0C2FF6100112003F024
:1057100055F8142002F0A4FC641CE4B2642CF0D30D
:10572000654801F072F866A1684601F07DFE024608
:10573000022300210120FFF7F9FD684601F0B3FEC6
:1057400000252846FFF7AAFD604C0A20A1780A2907
:1057500000D9A07021884CF24C32491F914200D3ED
:105760002080A088401E032801D30120A080207A39
:10577000042800D92572012211464F4801F0EEF8A5
:1057800053A14D4803F094F9218803F097F953A1F0
:1057900003F08EF9052000F013FC02220121464897
:1057A00001F0DCF84EA1444803F082F9A1880A22F6
:1057B00001F02DFC052000F003FC032201213E48EE
:1057C00001F0CCF848A13C4801F008FC207A50B127
:1057D00001280AD002280AD0032800E001E008D0FE
:1057E0000BE001207CE742A104E043A102E044A1D8
:1057F00000E045A1304801F0F1FB052000F0E0FB9E
:10580000042201212C4801F0A9F841A12A4801F005
:10581000E5FBE088012821D040A1274801F0DEFB0C
:10582000052000F0CDFB05220121234801F096F868
:105830003CA1214803F03CF9A1783C4D0A2255F8DF
:10584000211001F0EBFB052000F0BAFB40F2DC5028
:1058500002F006FCE088012802D003E034A1DCE776
:1058600000F032FC144800F0D0FF00F0C1FCA0783A
:1058700055F82010304801F0B5F821884FF47A70BF
:1058800041432E4AC006FDF743FC01210A4800F0BF
:10589000FBFE2C4C2A4A47F230512046FDF738FCDB
:1058A00001212046FDF774F93EBD0000580200209A
:1058B000440600205C010020E404002038A8000811
:1058C0004C6F6164696E672E2E2E0000400400202C
:1058D00053656E642066713A000000006D7300002D
:1058E0004D6F64653A0000004F626A6563743A0068
:1058F000434152200000000054414E4B0000000084
:10590000435054520000000053504944000000002E
:105910005061747465726E3A000000005541525433
:1059200000000000426175643A000000B0AA00085F
:10593000322E344700000000E00100204D620008D4
:105940001955000800080040F0B58BB0074602F07A
:10595000F5FB00F6B834384601F005FD00263E4858
:1059600000F053FF002201213B4800F0F7FF3946C9
:10597000394801F036FB3946384801F0BDFB0122B9
:105980001146354800F0EAFF44E0344801F044F89D
:1059900000283FD0314901A801F08AFC01A9304814
:1059A00001F099FD01A801F07EFD2D4801F0DBFC1E
:1059B00003220121284800F0D1FF2949264801F09F
:1059C00010FBC82002F04CFB26A104A801F02CFD1E
:1059D0000146234802F0DEF9054604A801F063FD04
:1059E000E5B10A2306221E4908A802F009FA1C485C
:1059F00008A90C3001F06FFD08A801F054FD16480D
:105A000000F003FF164819490C300522334602F016
:105A1000DDF903E002F092FBA042B6D302F08EFB68
:105A2000A04209D30D4800F0E2FF11A10A4801F09D
:105A3000D5FA00200BB0F0BD11A1684601F0F4FCCE
:105A40000146074802F0A6F90546684601F02BFD1D
:105A5000002D84D10120EDE7E4040020E0010020C6
:105A60004C0400202B505357443A0000840000207F
:105A70004E4F205265706C79212E2E2E00000000B2
:105A80004552524F5200000010B5FF21064800F069
:105A9000BEFFFF21044800F0BAFFBDE81040FF211F
:105AA000014800F0B4BF0000E001002070B5284CB0
:105AB000A068012802D0022803D03FE000F004FCD7
:105AC0003CE0207810B1012803D004E0FDF7B6FDDA
:105AD00001E0FDF7E1FF1F48C07878B3E069A0B1AD
