:020000040800F2
:10000000380A002099010008A1010008A301000896
:10001000A5010008A7010008A901000800000000D0
:10002000000000000000000000000000AB0100081C
:10003000AD01000800000000AF010008F111000848
:10004000B3010008B3010008B3010008B3010008C0
:10005000B3010008B3010008B50B00086D0C0008DF
:10006000910C0008B50C0008D90C0008B301000879
:10007000B3010008B3010008B3010008B301000890
:10008000B3010008B3010008B3010008B301000880
:10009000B3010008B3010008B3010008FD0C00081B
:1000A000B3010008F1120008B3010008B301000811
:1000B0001D1300084513000871130008B301000860
:1000C000B3010008B3010008B3010008B301000840
:1000D000B3010008B11B0008191C0008811C0008AE
:1000E000D90B0008B3010008B301000800F002F8C2
:1000F00000F043F80AA090E8000C82448344AAF17F
:100100000107DA4501D100F038F8AFF2090EBAE87C
:100110000F0013F0010F18BFFB1A43F0010318473B
:10012000AC5A0000CC5A0000103A24BF78C878C1FD
:10013000FAD8520724BF30C830C144BF04680C60ED
:10014000704700000023002400250026103A28BF35
:1001500078C1FBD8520728BF30C148BF0B60704739
:100160001FB59DE8030000F051F900F01DF91FBD17
:1001700010B5002000F080F910BD00F02AFA1146F9
:10018000FFF7EEFF04F004F800F04CFA03B4FFF7B9
:10019000EFFF03BC00F016FA094880470948004702
:1001A000FEE7FEE7FEE7FEE7FEE7FEE7FEE7FEE727
:1001B000FEE7FEE704480549054A064B7047000084
:1001C00001120008ED00000838040020380A002061
:1001D000380600203806002070B5064600F0F6F814
:1001E000056806F10B0020F00704B4429CBF002014
:1001F00070BD2B466A68BAB11068A04210D304F1F2
:10020000080188423CBF5068586007D351681019F4
:1002100041601168091B016058601460101D70BDB9
:1002200013465268002AE7D12146284600F0DAF842
:100230000028DED170BD70B50446051F00F0C6F879
:100240000068002C14BF446870BD002C18BFAC427D
:100250003CBF20466468F8D301680A18AA4218BF58
:10026000456003D12A680546114401602868411998
:10027000A1421CBF6C6070BD616869602168084460
:10028000286070BD53EA020C00F069802DE9F04B44
:100290004FF00006002B1FBFB3FA83F503FA05F4F5
:1002A00024FA05F65E4012BF1643B2FA82F502FA4E
:1002B00005F4C5F120051EBF22FA05FC44EA0C0432
:1002C000203556EA044C4FEA144418BF641C4FF022
:1002D00000084FF00009904271EB030C39D300295C
:1002E00019BFB1FA81F701FA07F6B0FA80F700FA00
:1002F00007F6C7F120071EBF20FA07FC46EA0C06E6
:100300002037B6FBF4FCA7EB0507103F07F01F0BE7
:10031000CBF120060CFA0BFB2CFA06F644BFB346D1
:100320000026202FA4BF5E464FF0000B5BEA060CB0
:1003300008BF4FF0010B19EB0B09ABFB027C48EB3C
:100340000608C01B06FB02CC0BFB03CC71EB0C01B7
:10035000C1E70B46024641464846BDE8F08B13B55F
:100360004FF000004FF00001AFF30080BDE81C40EB
:1003700070472DE9F041074615460E461020FFF75D
:100380002BFF04000AD06760C4E9026500F022F880
:100390000168216004600020BDE8F0810120FBE7D6
:1003A000704770477047000070B5064C7C44064D9E
:1003B0007D4403E0206820448047241DAC42F9D1ED
:1003C00070BD00003C5800005058000000487047C5
:1003D000DC030020004870470C0400207047704781
:1003E0007047704738B504460A4600206946AFF3A7
:1003F0000080002808BF38BD02460099204600F062
:100400006BF8012038BD012000F085B8F8B5AFF3D6
:100410000080054600200C46102000BF0646A819A3
:10042000A0420DD9324669460020AFF30080070094
:1004300008BF00F070F80098A04218BF0546C41924
:10044000FFF7C4FF05600746F01D20F007004619BE
:10045000284600F00AF8B44208BFF8BDA21B314696
:100460003868BDE8F84000F037B800210160C0E905
:1004700001107047102070472DE9F0410646FFF744
:10048000A9FF8046454613E016B1E068B0420ED1A0
:1004900020682860D4E90101D8F800708847204618
:1004A000FFF7C9FED8F80000B842EBD100E02546BE
:1004B0002C68002CE8D1BDE8F08110B500F032F8CE
:1004C000BDE8104000F022B800487047D403002077
:1004D0000048704708040020034640688C46002806
:1004E00018BF88423CBF03464068F8D318681844D8
:1004F000884207D00CF1030020F00700001D411ACC
:10050000521A0146081D0A60FFF795BE002801D067
:1005100000F058B8704710B500F0B2F8BDE81040D0
:10052000FFF7F4BF10B5002102A000F08FF8012002
:1005300010BD00005349475056464E3A2050757240
:1005400065207669727475616C20666E2063616CDB
:100550006C656400AFF3008010B500F00EF801691F
:1005600019B100220261884701E08068804700F0ED
:1005700062F8000010B500F05EF870B500F04EF8BB
:1005800004680546A4B92020FFF726FE040011D018
:10059000094900202C60C4E900010849A1602073CA
:1005A000206160610649A06109B100F091F8E06145
:1005B000204670BD00F03FF80000000075050008FF
:1005C0000000000001491820ABBEFEE72600020033
:1005D00070477546FFF778FFAE46050069465346FB
:1005E00020F00700854618B020B5FFF7E3FDBDE811
:1005F00020404FF000064FF000074FF000084FF08A
:10060000000B21F00701AC46ACE8C009ACE8C0091A
:10061000ACE8C009ACE8C0098D4670470048704797
:100620001004002010B50446AFF300802046BDE85A
:100630001040FFF7ABBD10B5002000F06EF8FFF7DB
:1006400097FDBDE810400120FFF7BCBF70B505461F
:100650000C460A2000E06D1C00F058F835B12878EF
:100660000028F8D102E0641C00F050F814B12078A2
:100670000028F8D1BDE870400A2000F047B800001B
:1006800010B5012805D0002103A0FFF7DFFF0120EE
:1006900010BD09A1F8E7000053494752544D454D9C
:1006A0003A204F7574206F662068656170206D6513
:1006B0006D6F7279000000003A2048656170206D0E
:1006C000656D6F727920636F727275707465640006
:1006D00010B58820FFF780FD002801D000210170AF
:1006E00010BD802902D808B1017809B100207047F7
:1006F000012100F8081B704718B100F1080291426F
:1007000001D00020704700210170704708B569468C
:100710008DF800000320ABBE08BD10B500F004F852
:10072000BDE81040FFF7F2BE10B5002102A0FFF7B0
:100730008DFF012010BD0000534947414252543AF9
:100740002041626E6F726D616C207465726D696EAE
:100750006174696F6E0000000029816814BF41F068
:10076000010121F00101816070470029816814BFF7
:1007700041F4807121F4807181607047014600204E
:10078000896811F0040F18BF01207047014600204E
:10079000896811F0080F18BF01207047426891F86E
:1007A00004C022F4807222F470220B6842EA0C2208
:1007B0001A43426082680B4B1A40D1E902C343EAF4
:1007C0000C0391F805C042EA4C021A438260C26AE7
:1007D000097C22F47002491EC9B242EA0151C16289
:1007E00070470000FDF7F1FF30B4072409290DD947
:1007F000C568A1F10A0C0CEB4C0C04FA0CF425EAC8
:10080000040403FA0CF32343C3600AE0056901EB17
:10081000410C04FA0CF425EA040403FA0CF3234314
:1008200003611F23072A0CD2D0F834C0521E02EBFA
:10083000820293402CEA030391401943416330BC88
:1008400070470D2A0CD2D0F830C0D21F02EB8202C2
:1008500093402CEA030391401943016330BC704775
:10086000D0F82CC00D3A02EB820293402CEA03032D
:1008700091401943C16230BC7047816841F0080162
:10088000816070470029816814BF41F4A00121F400
:10089000A00181607047816841F004018160704768
:1008A00070B5012190B0084600F0D2FB012148024A
:1008B00000F0F2FB454E304600F0C2F8444800908C
:1008C0000825444800240395CDE901048020CDE9A2
:1008D000044040000690800007902020089000020D
:1008E000CDE909046946304600F02CF90121304673
:1008F00000F09BF801208DF830008DF831000B944A
:100900004FF46020CDE90D048DF83C50324D0BA919
:100910002846FFF743FF4FF4404000F08FFB2F4C79
:1009200005230122E17B2846FFF75EFFE17F0523D7
:1009300002222846FFF758FF94F82F1005230322C0
:100940002846FFF751FF94F83F100523042228465C
:10095000FFF74AFF052394F84F101A462846FFF781
:1009600043FF94F85F10052306222846FFF73CFF5B
:1009700094F86F10052307222846FFF735FF94F8F7
:100980007F10052308222846FFF72EFF0121284665
:10099000FFF7EBFE01212846FFF7DEFE2846FFF7B2
:1009A0006CFF2C462046FFF7F1FE0028FAD12046C6
:1009B000FFF771FF2046FFF7E1FE0028FAD1012181
:1009C0002046FFF75FFF10B070BD00000800024036
:1009D0004C2401401403002000240140E05300088F
:1009E00010B50021084603F027FC0021012003F088
:1009F00023FC0021022003F01FFC0021032003F050
:100A00001BFC0021042003F017FC0021052003F04B
:100A100013FC0021062003F00FFC0021072003F047
:100A20000BFCBDE81040FFF73BBF0029016812BF77
:100A300041F001014FF6FE72114001607047000065
:100A400001684FF6FE7211400160002101604160B3
:100A50008160C1602E4A2F49904204BF486840F02F
:100A60000F0022D02C4A904204BF486840F0F000AA
:100A70001BD02A4A904204BF486840F4706014D0EA
:100A8000274A904204BF486840F470400DD0254A80
:100A9000904204BF486840F4702006D0224A904239
:100AA00004BF486840F4700001D1486070471F4A95
:100AB000904204D1486840F07060486070471C4A1A
:100AC000111F904204BF086840F00F0014D0194A6B
:100AD000904204BF086840F0F0000DD0164A9042E2
:100AE00004BF086840F4706006D0144A904204BF06
:100AF000086840F4704001D108607047104A904285
:100B000018BF7047086840F4702008607047000004
:100B100008000240000002401C0002403000024079
:100B200044000240580002406C0002408000024035
:100B3000080402401C040240300402404404024005
:100B40005804024010B40268D1F820C08B686FF3DB
:100B50000E1243EA0C03D1E904C44CEA040C43EA44
:100B60000C03D1F818C043EA0C03D1F81CC043EAC7
:100B70000C03D1F824C043EA0C03D1F828C043EA9F
:100B80000C031A430260CA6842600A6882604968BE
:100B9000C16010BC704700004FF0E0200449416183
:100BA00000218161016941F0070101617047000086
:100BB0004019010010B5012000F0E0F8002808BF3E
:100BC00010BD044800688047BDE81040012000F0D7
:100BD000CFB800001C00002010B54FF4806000F07A
:100BE000CDF8214C28B1A06A80474FF4806000F016
:100BF000BFF84FF4006000F0C1F828B1E06A804708
:100C00004FF4006000F0B4F84FF4805000F0B6F8F4
:100C100028B1206B80474FF4805000F0A9F84FF4C2
:100C2000005000F0ABF828B1606B80474FF40050E3
:100C300000F09EF84FF4804000F0A0F828B1A06BBF
:100C400080474FF4804000F093F84FF4004000F0EC
:100C500095F8002808BF10BDE06B8047BDE8104044
:100C60004FF4004000F084B81C00002010B50220B2
:100C700000F084F8002808BF10BD04484068804791
:100C8000BDE81040022000F073B800001C000020F6
:100C900010B5042000F072F8002808BF10BD044809
:100CA00080688047BDE81040042000F061B8000073
:100CB0001C00002010B5082000F060F8002808BFD4
:100CC00010BD0448C0688047BDE81040082000F00F
:100CD0004FB800001C00002010B5102000F04EF8A6
:100CE000002808BF10BD044800698047BDE81040D7
:100CF000102000F03DB800001C00002010B520209E
:100D000000F03CF8194C20B160698047202000F0C9
:100D10002FF8402000F032F820B1A0698047402031
:100D200000F026F8802000F029F820B1E069804723
:100D3000802000F01DF84FF4807000F01FF828B1FB
:100D4000206A80474FF4807000F012F84FF4007072
:100D500000F014F8002808BF10BD606A8047BDE8A5
:100D600010404FF4007000F003B800001C00002099
:100D7000014908607047000014040140054A002141
:100D80001268054B02401B6803421CBF002A012168
:100D90000846704700040140140401402DE9F001A9
:100DA000CB78002203F00F0C13F0100F1CBF8B78D0
:100DB00043EA0C0C0B784FF00F0613F0FF0F4FF0C7
:100DC000010518BF046819D00F8805FA02F31F4007
:100DD0009F420FD1970006FA07F824EA08040CFA9C
:100DE00007F73C43CF78282F08BF436102D0482F34
:100DF00008BF0361521C082AE6D304600A88FF2A50
:100E000087BF44680022BDE8F001704702F1080383
:100E10000F8805FA03F31F409F420FD1970006FA8F
:100E200007F824EA08040CFA07F73C43CF78282F88
:100E300008BF4361CF78482F08BF0361521C082ABE
:100E4000E4D34460BDE8F0017047000070B4194A73
:100E500010F0004F14BFD3695368C0F303444FF43C
:100E6000401C3CEA00054FEA505C4FEA0C1C86B27D
:100E700006FA0CFC16D010F4801F08BF23EA0C03FE
:100E800003D0032505FA04F4A34343F0706300295B
:100E900018BF4CEA030310F0004F14BFD361536036
:100EA00070BC7047546823F0706324F07064546021
:100EB000EDE7000000000140F8B50446A0F18040D5
:100EC0001E4615460F46B0F5843008BF04202AD0D0
:100ED000A4F18040B0F5863008BF082023D0A4F1EB
:100EE0008040B0F5883008BF10201CD0A4F18040AD
:100EF000B0F58A3008BF202015D0A4F18040B0F5AD
:100F00008C3008BF40200ED0A4F18040B0F58E3068
:100F100008BF802007D0A4F18040B0F590300CBF0E
:100F20004FF48070F8BD1C2D18BF182D0FD04FF056
:100F3000010100F0B1F800BFADF800708DF803506A
:100F40008DF8026069462046FFF728FFF8BD40F0A3
:100F50000100012100F0A0F8EEE70000014931F89E
:100F6000100070471403002010B4C27801784FF0CD
:100F70000F0C012322B3184A126801F1E02102F498
:100F8000E062C2F5E062120AC2F104042CFA02F235
:100F900090F801C00CFA04FC8478224042EA0C026A
:100FA000120181F80024007800F01F0103FA01F11A
:100FB0004009800000F1E020C0F8001110BC70472B
:100FC00001F01F0003FA00F04909890001F1E02156
:100FD000C1F8800110BC70470CED00E0034940F0FF
:100FE000FD7040F080600860704700000CED00E08C
:100FF00070B50D460F49164601EB0014A17B002980
:1010000004BF002070BD182103F016F90A48002122
:10101000B0FBF5F0B0FBF6F6606800F0C5F9701EA5
:1010200082B2681E81B2A37B606800F067FCA07B7F
:1010300070BD0000E053000800A24A0403494A685A
:1010400022F4404210434860704700000010024004
:10105000044A0029516914BF084321EA0000506185
:101060007047000000100240044A0029D16914BFF3
:10107000084321EA0000D0617047000000100240E0
:10108000044A0029116914BF084321EA00001061D5
:101090007047000000100240044A0029916914BF03
:1010A000084321EA000090617047000000100240F0
:1010B000044A0029D16814BF084321EA0000D06027
:1010C0007047000000100240254910B44A6812F031
:1010D0000C03244A18BF042B01D0082B01D0026056
:1010E00015E04A684B6802F470124FF0020C13F4DA
:1010F000803F0CEB924203D04B6813F4003F03D0C7
:10110000194B5A43026002E0164B5A4302604A6888
:101110000F2303EA1212154B9A5CD0F800C02CFA88
:1011200002F24260D1F804C0072404EA1C2C13F830
:101130000CC022FA0CFCC0F808C0D1F804C004EAC4
:10114000DC2C13F80C30DA40C2604968032303EA50
:101150009131074B595CB2FBF1F1016110BC704752
:101160000010024000127A0000093D00B400002087
:10117000B00000200029018814BF41F0400121F097
:101180004001018070470246002012890A4218BFC0
:1011900001207047808970478181704710B40288B0
:1011A0000B88B1F802C0CC8843EA0C03B1F804C044
:1011B00002F441524CEA040C43EA0C03B1F808C0B3
:1011C00043EA0C03B1F80AC043EA0C03B1F80CC0BF
:1011D00043EA0C03B1F80EC043EA0C031A43028041
:1011E000828B22F400628283098A018210BC7047DC
:1011F00002480168491C016070470000000000209F
:10120000374882B0016841F0010101604168354A08
:1012100011404160016821F4102121F080710160CA
:10122000016821F480210160416821F4FE014160E0
:101230004FF41F018160002201920092016841F485
:1012400080310160016801F4003100910199491C6D
:101250000191009919B90199B1F5A06FF2D1016816
:1012600011F4003F08BF009233D0012100911E49C4
:101270000A6842F010020A600A6822F003020A605B
:101280000A6842F002020A604168416041684160B8
:10129000416841F480614160416821F47C11416002
:1012A000416841F4E8114160016841F080710160DA
:1012B000016811F0007FFBD0416821F0030141601B
:1012C000416841F002014160416801F00C010829C8
:1012D000FAD106494FF00060086002B07047000084
:1012E000001002400000FFF80020024008ED00E07E
:1012F00010B5084C0121204600F07DF9002808BFF8
:1013000010BD0548016888472046BDE8104001210E
:1013100000F047B8002C01405C00002010B501210E
:10132000880700F068F9002808BF10BD044840682D
:1013300080470121BDE81040880700F032B8000066
:101340005C00002010B5084C0121204600F053F944
:10135000002808BF10BD0548816888472046BDE8C1
:101360001040012100F01DB8000400405C00002086
:1013700010B5084C0121204600F03DF9002808BFB7
:1013800010BD0548C16888472046BDE810400121CE
:1013900000F007B8000800405C000020C94301824B
:1013A0007047C943018270470029018814BF41F08A
:1013B000010121F00101018070470029B0F84410BB
:1013C00014BF41F40041C1F30E01A0F8441070476E
:1013D00010B5A0F18041B1F5963159D0B0F1804FF0
:1013E0006BD0A0F18041B1F580615CD0A0F180416B
:1013F000B1F500616BD0A0F18041B1F5406170D0D2
:10140000A0F18041B1F5805175D0A0F18041B1F5D6
:10141000A0517AD0A0F18041B1F59A317ED0A0F1EF
:101420008041B1F5A6317AD0A0F18041B1F5A83163
:1014300076D0A0F18041B1F5AA3172D0A0F18041FF
:10144000B1F5C0516ED0A0F18041B1F5E0516AD044
:10145000A0F18041B1F5005166D0A0F18041B1F515
:10146000A0317DD0A0F18041B1F5A23179D0A0F1B9
:101470008041B1F5A43118BF10BD01218804FFF7E8
:1014800017FEBDE8104000214FF48020FFF710BE8A
:101490000121C802FFF70CFEBDE8104000214FF407
:1014A0000060FFF705BE01210220FFF7E9FD0021E2
:1014B000BDE810400220FFF7E3BD01210846FFF719
:1014C000DFFD0021BDE810400120FFF7D9BD01215B
:1014D0000420FFF7D5FD0021BDE810400420FFF7F0
:1014E000CFBD01210820FFF7CBFD0021BDE8104052
:1014F0000820FFF7C5BD01211020FFF7C1FD002125
:10150000BDE810401020FFF7BBBD01212020FFF7F0
:10151000B7FD0021BDE81040202006E007E011E003
:101520001BE028E032E03BE044E0FFF7A9BD0121E9
:101530004803FFF7BDFDBDE8104000214FF4005007
:10154000FFF7B6BD0121C804FFF7B2FDBDE81040AA
:1015500000214FF40020FFF7ABBD0121080501E099
:1015600033E03DE0FFF7A4FDBDE8104000214FF45B
:101570008010FFF79DBD01214805FFF799FDBDE8EB
:10158000104000214FF40010FFF792BD01214020D0
:10159000FFF776FD0021BDE810404020FFF770BD49
:1015A00001218020FFF76CFD0021BDE81040802064
:1015B000FFF766BD01210802FFF762FDBDE810409C
:1015C00000214FF48070FFF75BBD01210804FFF795
:1015D0006FFDBDE8104000214FF48030FFF768BD7B
:1015E00001214804FFF764FDBDE8104000214FF4DD
:1015F0000030FFF75DBD038A002280890B4200EABC
:1016000001001CBF0028012210467047002A828971
:1016100014BF114322EA01018181704710B4028C8A
:1016200022F001020284028C8388B0F818C00C8872
:101630002CF0730C44EA0C0C0C8922F002022243B9
:101640004C882243A0F18044B4F596341CBFA0F12D
:101650008044B4F59A340DD0A0F18044B4F5A034A0
:101660001FBFA0F18044B4F5A234A0F18044B4F5CA
:10167000A4340DD14C8922F0080222438C8822F038
:10168000040222438C8923F440732343CC892343EF
:101690008380A0F818C0C9888186028410BC704776
:1016A000028B22F0080211430183704730B4028C90
:1016B00022F010020284038CB0F804C0028B0D8863
:1016C00022F4E6444FF6FF7202EA05252C430D8909
:1016D00023F0200302EA05152B434D8802EA051585
:1016E0002B43A0F18045B5F596351CBFA0F1804590
:1016F000B5F59A3517D14D8923F0800302EA051517
:101700002B438D8823F0400302EA05152B438D8976
:101710002CF4406C02EA850545EA0C0CCD8902EAFE
:10172000850242EA0C0CA0F804C00483C988018732
:10173000038430BC7047028B4FF6FF7322F40062C3
:1017400003EA012111430183704730B4028C22F473
:1017500080720284028C8388B0F81CC00C882CF044
:10176000730C44EA0C0422F4007C0D894FF6FF72DE
:1017700002EA052545EA0C0C4D8802EA052545EAF2
:101780000C0CA0F18045B5F596351CBFA0F1804545
:10179000B5F59A3517D14D892CF4006C02EA052570
:1017A00045EA0C0C8D882CF4806C02EA052545EA8C
:1017B0000C0C8D8923F4405302EA05152B43CD8987
:1017C00002EA0512134383808483C9888187A0F8C5
:1017D00020C030BC7047828B22F008021143818305
:1017E000704730B4028C22F480520284048C8288C8
:1017F000838B0D8823F4E64C4FF6FF7303EA05252F
:1018000045EA0C0C0D8924F4005403EA05352C43F9
:101810004D8803EA05352C43A0F18045B5F5963592
:101820001CBFA0F18045B5F59A3505D18D8922F40C
:10183000804203EA85131A438280A0F81CC0C9883D
:10184000A0F84010048430BC7047828B4FF6FF73C1
:1018500022F4006203EA01211143818370470000F2
:1018600010B40288234BDFF890C0984218BF60453F
:1018700011D0B0F1804F1CBFA0F18044B4F580645A
:1018800009D0A0F18044B4F500641CBFA0F18044ED
:10189000B4F5406403D14C8822F070022243A0F1D9
:1018A0008044B4F580541CBFA0F18044B4F5A0542A
:1018B00003D0CC8822F44072224302808A88828539
:1018C0000A880285984218BF60450DD0A0F1804279
:1018D000B2F5A0321FBFA0F18042B2F5A232A0F152
:1018E0008042B2F5A43201D1097A018601218182B8
:1018F00010BC7047002C0140003401402DE9F0413C
:101900003E4D88B01E46174688460446A84204D17C
:101910000121C014FFF7C0FB1AE0B4F1804F10D0D2
:10192000A4F18040B0F5806004BF012102200DD0F9
:10193000A4F18040B0F5006004BF0121042005D06F
:1019400006E001210846FFF78FFB01E0FFF78CFB63
:101950000020ADF81480ADF81070ADF81600ADF8A9
:10196000120004A92046FFF77BFF7020ADF80000AD
:101970000120ADF802000220ADF80800012E06D0CB
:10198000022E0DD0032E14D0042E1BD022E0694667
:101990002046FFF743FE08212046FFF781FE19E0AD
:1019A00069462046FFF782FE08212046FFF7C3FE66
:1019B00010E069462046FFF7C8FE08212046FFF7E1
:1019C0000AFF07E069462046FFF70BFF0821204683
:1019D000FFF73BFF01212046FFF7E6FCAC421FBFAB
:1019E000A4F18040B0F59A3008B0BDE8F081012143
:1019F0002046FFF7E2FC08B0BDE8F081002C014072
:101A000008B503230093002300F002F808BD00008E
:101A10002DE9F04F85B01F465F4BDFF880A1DDF860
:101A20003880044698424ED0B4F1804F47D05C4D88
:101A3000DFF87091AC4218BF4C4549D0A4F1804BFF
:101A4000BBF5406B1CBFA4F1804BBBF5805B3FD066
:101A5000A4F1804BBBF5A05B18BF544538D0A4F16E
:101A6000804BBBF5A63B1CBFA4F1804BBBF5A83B4C
:101A70002ED0A4F1804BBBF5AA3B1CBFA4F1804B38
:101A8000BBF5C05B24D0A4F1804BBBF5E05B1CBF71
:101A9000A4F1804BBBF5005B1AD0A4F1804BBBF5E1
:101AA000A03B1CBFA4F1804BBBF5A23B10D0A4F11E
:101AB0008045B5F5A43517D005B0BDE8F08F0120FD
:101AC00084461C2610E000204FF4006C19260BE021
:101AD000AC4203D1022084461D2605E04C4503D1CB
:101AE00003204FF0040C1E262F4D45F8202001EB5B
:101AF000C100C000B0F5076F38BF0A250CD32B49D1
:101B0000884234BF4FF47A7144F62061B0FBF1F59E
:101B100038BFB0FBF5F901D3B0FBF5F99C4218BF13
:101B200054454FF00101604602D1FFF7B5FA01E0DC
:101B3000FFF79AFA2046FFF74BFC691EADF8041038
:101B40000020A9F10101ADF800108DF80800ADF8F2
:101B50000600ADF8020069462046FFF781FE4FF40B
:101B6000C060FFF73BFA8DF80C608DF80D708DF8B2
:101B70000E8001208DF80F0003A8FFF7F5F9012171
:101B80002046FFF70BFC012211462046FFF73EFDE1
:101B900005B0BDE8F08F0000002C0140003401408A
:101BA00000040040000800405C00002018FCE7032F
:101BB00010B5144C40F22551204600F0A5F800283D
:101BC00008BF10BD204600F037F90F49C0B20A889F
:101BD000521C8B1D02F07F021B88934205D00B889C
:101BE000DFF828C00CF803000A800948094900689A
:101BF000884218BF804740F225512046BDE810407A
:101C000000F072B800380140040000209401002068
:101C1000100000203542000810B5144C40F2255148
:101C2000204600F071F8002808BF10BD204600F0E3
:101C300003F90F49C0B24A88521C8B1D02F07F0283
:101C40005B88934205D04B88DFF828C003F80C006E
:101C50004A80094809494068884218BF804740F2D5
:101C600025512046BDE8104000F03EB80044004039
:101C7000040000201402002010000020354200085B
:101C800010B5144C40F22551204600F03DF80028D4
:101C900008BF10BD204600F0CFF80F49C0B28A88B7
:101CA000521C8B1D02F07F029B88934205D08B88CB
:101CB000DFF828C003F80C008A80094809498068C9
:101CC000884218BF804740F225512046BDE81040A9
:101CD00000F00AB8004800400400002094020020F0
:101CE0001000002035420008090A012202FA01F121
:101CF000C943018070470029818914BF41F4005114
:101D000021F400518181704710B401F01F020124B9
:101D10000023C1F3421C04FA02F2BCF1010F04BF1C
:101D2000B0F80CC00CEA020208D0BCF1020F0CBFE4
:101D3000B0F810C0B0F814C00CEA0202090A00881A
:101D400004FA01F10840002A1CBF002801231846AC
:101D500010BC7047C1F3421301F01F014FF0010C9A
:101D60000CFA01F1012B08BF0C3003D0022B0CBF81
:101D700010301430002A026814BF114322EA010116
:101D80000160704730B50446008A85B00D464CF6B8
:101D9000FF710840E98808432082A0894EF6F311BC
:101DA0000840A9882A8911436A8910430843A08101
:101DB000A08A4FF6FF410840A9890843A0826846DF
:101DC000FFF782F9A4F18040B0F59C300CBF039876
:101DD0000298A18911F4004F00EBC00101EB001043
:101DE000296814BF49008900B0FBF1F0114A6FF077
:101DF000180CA2FB0031490909010B0903FB0CF384
:101E000000EB8300A38913F4004F4FF0320314BF9B
:101E100003EBC00003EB0010A2FB00204FEA5010C0
:101E200014BF00F0070000F00F000843208105B048
:101E300030BD00001F85EB518088C0F3080070475B
:101E4000C1F30801818070472DE9F04F8B46DFF820
:101E5000F480A0F1804187B0994692460746B1F5DB
:101E60009C310AD0A7F18041B1F5884110D0A7F18B
:101E70008041B1F5904118D024E0012144F20400E2
:101E8000FFF70AF94FF4007045004646252419E093
:101E900001214804FFF7E8F801210420FFF7FCF8CE
:101EA00004200825464626240CE001218804FFF77B
:101EB000DBF801210820FFF7EFF84FF480604500C0
:101EC000214E2724ADF8100003208DF812001820B1
:101ED0008DF8130004A93046FEF760FFADF81050EE
:101EE00004208DF8130004A93046FEF757FF8DF843
:101EF00014408DF815A08DF8169001208DF817006C
:101F000005A8FFF731F80020ADF80400ADF8060091
:101F1000ADF80800ADF80C000C20ADF80A00CDF8C3
:101F200000B069463846FFF72DFF012240F22551E7
:101F30003846FFF70FFF01213846FFF7DCFE07B0F8
:101F4000BDE8F08F00080140000C0140028812F04B
:101F5000400FFBD0FFF774BFF0B583B04FF4E13111
:101F60006A4801F08DF80121112002F065F948213D
:101F7000192002F061F90421182002F05DF9042112
:101F8000172002F059F910211C2002F055F9002108
:101F90001C2002F0F1F828210F2002F04DF9042155
:101FA000142002F049F91021152002F045F9102102
:101FB000162002F041F910212D2002F03DF90421F4
:101FC0002E2002F039F910212F2002F035F90521D9
:101FD0004F4801F04DFB00214D4801F0F1F800227F
:101FE0004FF4FC614A4800F0C3FC0021484800F06F
:101FF000BDFC0121464800F0B4FC32254FF6FF74C9
:10200000CDE900542B4608220021414800F060FF32
:10201000CDE90054322308224D213D4800F058FFFD
:102020003C4D02203C4E28700024B470042002F085
:1020300081F84FF47A77002340F6FF721946009733
:1020400002F0E6F8A880052002F074F8002340F6BC
:10205000FF721946009702F0DBF8E8802F4840F243
:10206000FF7140F6FF7244808180C280448181818B
:10207000C2812B4844808180C28044818181C28199
:10208000B07800281CBF03B0F0BD28781321B8B188
:10209000012827D002281CBF03B0F0BD3620CDE9AF
:1020A00000014E2337220C211E4801F0F1FC03B041
:1020B0001023BDE8F0401C4A01211A4801F060BD20
:1020C0003D20CDE900104E2317222D21154801F0A7
:1020D000DFFC03B01423BDE8F0400E4A0121114893
:1020E00001F04EBD0F215D20CDE9000141232E22DC
:1020F00057210C4801F0CCFC03B01023BDE8F040A0
:102100000A4A0121074801F03BBD0000C40000203D
:1021100044030020B4030020C8030020240300204F
:102120003403002088030020A4030020940300202F
:102130007047000070B5182002F012F8002814BF94
:1021400001260026174D184C6878B0430AD0172096
:1021500002F006F80028E0780CBF40F0010040F0E3
:102160000200E0706E70192001F0FAFF20B1A8782B
:102170000026012809D013E0A878012680B902F0D2
:1021800053F800F5FA70E8600AE002F04DF8E968EB
:102190008842E07834BF40F0080040F00400E0706E
:1021A000AE7070BD84000020B40300202DE9F84318
:1021B000012001F0BFFF554C00B24FF47A76B4F91C
:1021C0000C10B4F90AC0B4F90E20431A4FF00008FD
:1021D000C6F1000905D40023009602F019F800B2F8
:1021E00007E00A464B466146CDF8008002F010F841
:1021F00000B2474F2081F881032001F09BFF454D3D
:1022000000B2B5F90C10B5F90AC0B5F90E20431AA1
:1022100005D40023009601F0FBFF00B207E00A4658
:102220004B466146CDF8008001F0F2FF00B22881F4
:102230007882002001F07EFFB4F9041000B2B4F9F6
:1022400002C0B4F90620431A05D40023009601F019
:10225000DFFF00B207E00A464B466146CDF800803A
:1022600001F0D6FF00B22080B881022001F062FFA9
:10227000B5F9041000B2B5F902C0B5F90620431A49
:1022800005D40023009601F0C3FF00B207E00A4620
:102290004B466146CDF8008001F0BAFF00B22880BD
:1022A00038820F2001F05CFF00284FF0040016D0A8
:1022B00001F040FF002340F6FF721946009601F03E
:1022C000A7FFB880052001F035FF002340F6FF721C
:1022D0001946009601F09CFFF880BDE8F88301F0F4
:1022E00029FF4B4640F6FF720021009601F090FF57
:1022F0003881052001F01EFF4B4640F6FF72002199
:10230000009601F085FF7881BDE8F8832403002062
:10231000B40300203403002010B501F085FF01460E
:10232000BDE81040014801F02DBB00007C000020FA
:102330002DE9F84F00221146454800F02AFE454C91
:10234000434D0A222846616801F02EFD284642A12D
:1023500001F027FD424E2B204FF47A720090C2F11B
:10236000000AB6F900000623514601F051FF33255B
:1023700000F0FF090095B6F908000E2340424FF423
:102380007A72514601F044FFC7B2DFF8D880782056
:102390000090B8F9000053234FF47A72514601F0CF
:1023A00037FFC6B20095B8F908000E2340424FF43B
:1023B0007A72514601F02CFF2178C5B24FF6FF7AB0
:1023C0004FF00008894504BF6078874212D0CDF8ED
:1023D00000804FF0050362781D4800F091FA052354
:1023E0003A4649461A48CDF800A000F089FA84F828
:1023F00000906770A1788E4204BFE078854211D0CA
:10240000CDF800804FF00503E278114800F078FA2B
:1024100005232A4631460E48CDF800A000F070FA98
:10242000A670E570E068401CE06001F0FDFEA16868
:10243000884298BFBDE8F88FE068C4F80C806060FF
:1024400001F0F2FE00F57A70A060BDE8F88F0000A0
:102450004403002098000020465053200000000054
:1024600024030020340300202DE9F84F8B4FB7F9E7
:10247000040002F0DDFA8A4D294602F0FBF9894C8E
:1024800020600090B7F9060002F0D2FA294602F067
:10249000F1F9606097F800B08046BBF1000F08BF0B
:1024A000BDE8F88F8049DFF8049201F12C00D1E9F2
:1024B0000CC390F803A07E488C8D91F82E20B0F9C3
:1024C00008507C4EB9F90000BBF1010F24D0BBF1DC
:1024D000020F18BFBDE8F88F8C838A77764A15F50E
:1024E0007A7F82F803A0C1E908C39581D081B8BF83
:1024F000354604DBB5F57A7FC8BF4FF47A75958110
:1025000010F57A7F05DBB0F57A7FD4BF06464FF42D
:102510007A76D681BDE8F88F8C81684C8A7384F80E
:1025200003A0C1E904C3797821B1012916D0022999
:1025300048D098E0284602F07BFA009902F090FA21
:1025400002F05AFAA081B9F9080002F071FA414686
:1025500002F086FA02F050FAE08184E0002D17DBE9
:1025600002F066FA414602F07BFA0746284602F07E
:102570005FFA009902F074FA0546394602F018F93C
:1025800002F03AFAA0813946284602F035FB16E0FF
:1025900002F04EFA414602F063FA0746284602F07E
:1025A00047FA009902F05CFA0546394602F024FB2E
:1025B00002F022FAA0813946284602F0F9F802F02A
:1025C0001BFA4FE03A48002DB0F9000024DB02F07E
:1025D0002FFA009902F044FA02F0BEF84FF0FF32F1
:1025E00002F0B1FB07468846284602F021FA00991E
:1025F00002F036FA02F0B0F88946054643463A46FC
:1026000001F08CFE01F03AFFA0813A46434628468D
:10261000494601F0B7FF23E002F00AFA009902F000
:102620001FFA02F099F84FF0FF3202F08CFB0746D8
:102630008846284602F0FCF9009902F011FA02F0EF
:102640008BF88946054643463A4601F09BFF01F068
:1026500015FFA0813A4643462846494601F05EFEF2
:1026600001F00CFFE081B4F90C0010F57A7FB8BFDF
:10267000304604DBB0F57A7FC8BF4FF47A70A08192
:10268000B4F90E0010F57A7F05DBB0F57A7FD4BF80
:1026900006464FF47A76E681BDE8F88FB403002051
:1026A00000007A44A80000208803002034030020A2
:1026B0002403002018FCFFFFA40300209403002043
:1026C00010B5FFF773FDFFF735FD192001F048FD48
:1026D000164C28B1182001F043FD2178884208D01B
:1026E0004FF49670E08001F09FFD00F5FA70A06055
:1026F00006E001F099FDA168884284BF0020E080D7
:10270000A088E188884238BF143088BF0A3800D0DA
:10271000A0804FF0180001F023FD2070A188112047
:1027200001F0B0FDBDE8104000F038B88400002092
:1027300016488178491C817001781430807851B135
:10274000012913D0022918BF7047D0B110221049B7
:10275000104801F04BBB20B114220C490D4801F088
:1027600045BB0A49A1F12C0001F0CAB920B11022E1
:102770000949084801F03ABB0749A1F10C0001F0F2
:10278000BFB90349A1F11C0001F0BAB9B40300209C
:10279000A4030020C40000209403002070B5554815
:1027A000D0F85021B0F85C111161D0F86021B0F878
:1027B0006C115161B0F86C11D0F860010161012217
:1027C0001521142001F07AFD4B4EC5B24B4CF07828
:1027D00000283ED001F028FD316988427CD3002DCD
:1027E0007ED015F0100F03D0E07840F00100E070CB
:1027F000E80903D0E07840F00200E07015F0400FE7
:1028000003D0E07840F00800E07015F0200F03D00E
:10281000E07840F00400E07015F0020F03D0E0789B
:1028200040F01000E07015F0040F03D0E07840F0A5
:102830004000E07015F0010F03D0E07840F0200078
:10284000E07015F0080F50D0E07840F08000E070A4
:102850004BE0002D49D015F0100F03D0E07840F088
:102860000100E070E80903D0E07840F00200E07079
:1028700015F0400F03D0E07840F00800E07015F04C
:10288000200F03D0E07840F00400E07015F0020F54
:1028900003D0E07840F01000E07015F0040F03D092
:1028A000E07840F04000E07015F0010F03D0E078D0
:1028B00040F02000E07015F0080F03D0E07840F001
:1028C0008000E0700120F07001F0AEFC00F5FA70BD
:1028D00030610AE000E003E0F07830B115B104E0C7
:1028E000F07810B10020E070F070BDE87040FFF7A4
:1028F00021BC0000E053000884000020B403002045
:102900002DE9F0410446006884B0884601691D46FF
:1029100017460A9E20468847012000EB450003B277
:10292000781B02B2009620684146D0F81CC02046B1
:10293000E04700200321CDE900102B463A460296DD
:102940004146204600F07BF82068816A04B02046AA
:10295000BDE8F04108477047D0F800C0DCF80CC073
:102960006047002908BF01210176704781767047D2
:102970008182C28270472DE9F0410446006882B02E
:102980000E4601691F461546DDF82080204688471F
:10299000F019CDE90058401E03B220682A4631469E
:1029A000D0F824C02046E0472068816A02B0204663
:1029B000BDE8F04108472DE9F0410446006882B0C7
:1029C000154602691E460F46DDF8208020469047D6
:1029D000A819401E00B2CDE9000820683B462A46EF
:1029E000D0F824C019462046E0472068816A02B02A
:1029F0002046BDE8F041084710B582B0DDE9044C3F
:102A0000CDE9004CD0F800C0DCF83CC0E04702B093
:102A100010BD08B5DDF808C0CDF800C0D0F800C082
:102A2000DCF838C0E04708BD08B5DDF808C0CDF8CF
:102A300000C0D0F800C0DCF834C0E04708BD2DE984
:102A4000FF4F83B0C3F1010006B2C3EBC330DDE931
:102A500011A9400000B2DDF840B0002517464FF044
:102A6000010801901C1EDCBF07B0BDE8F08F002EEE
:102A700007DB601E04B20198801C00B20190304454
:102A800006B2681C05B208F102000FFA80F806EBE6
:102A9000080006B21BF0010F21D00AEB4400401CD5
:102AA00003B2381B02B20498CDF80090284401B25A
:102AB00003980068D0F81CC00398E0470AEB450073
:102AC000401C03B2781B02B20498CDF80090204459
:102AD00001B203980068D0F81CC00398E0471BF0CF
:102AE000020F21D00AEB4400401C03B2381B02B293
:102AF0000498CDF80090401B01B203980068D0F80C
:102B00001CC00398E0470AEB4500401C03B2781B49
:102B100002B20498CDF80090001B01B2039800683F
:102B2000D0F81CC00398E047A542A0DB07B0BDE881
:102B3000F08FF0B50446C069002283B0002849D068
:102B40000A297AD00D2942D0037A994224BF90F8FD
:102B500009C08C453BD3D0F804C0CB1A0CEBC3059D
:102B6000AB7895F803C0002B18BFBCF1000F27D03D
:102B700094F81AC095F90560BCF1000F11D0B4F9B2
:102B8000107094F818C033440CFB0373B4F90C6054
:102B9000B34206DD2282B4F91220807A0CFB0020B9
:102BA0006082E28A237EA08ACDE900020293B4F912
:102BB00010000B460146B4F91220204600F046F8FA
:102BC000B4F910002979227E01FB0200208203B0B3
:102BD0000120F0BD0A292AD00D29F8D0A07E78B1B5
:102BE000207EB4F9103000EB400C03EB4C03B4F939
:102BF0000CC0634504DD2282628A02EBC000608261
:102C0000E28A237EA08ACDE900020293B4F9100083
:102C10000B460146B4F91220204600F017F8217E39
:102C2000208A01EB410100EB4100CFE705E0228261
:102C3000608A217E00EBC10006E02282B4F9121006
:102C4000227E807A02FB00106082C0E72DE9FF4FF0
:102C50008BB0C169DDE919A4189F1E4605460029FD
:102C600048D0087A4A68181AC0B202EBC000096856
:102C70000A91B0F800A090F802B0C178059190F9DF
:102C8000051000914FF0000890F90660C146CDF89C
:102C90001080CDF80C80012C88BFCDE90361286835
:102CA000016928468847002002900598002840F2D4
:102CB000FB800D980C9930440890009808440990C6
:102CC0000026BBF1000F40F2E78002990898084403
:102CD00000B207900846039908440D9900FB0410C0
:102CE00000B2069019F0070F09F1010101F0FF0988
:102CF0007ED1ADE0B5F90C100C988142DCBF0FB06D
:102D0000BDE8F08FB5F90E100D988142DCBF0FB011
:102D1000BDE8F08F04EB44010C9800EB4100012862
:102D200044BF0FB0BDE8F08F0D9800EBC400012840
:102D300044BF0FB0BDE8F08FE87E18B9B02E24BFB5
:102D4000581CC6B2286801692846884706EB8600E9
:102D50004FF00009CDF80C0000EB09015B4800269C
:102D600010F801800C98484400B202900C9809FBBE
:102D700004000FFA80FB00BF18F0010F1AD0012CDD
:102D80000DD00D98CDE9004706FB040002B228687B
:102D900059462346D0F818C02846E0471BE00D9856
:102DA0000299304402B228683B46D0F814C0284645
:102DB000E04710E0BA450ED0012C31D00D98CDE996
:102DC000004A06FB040002B2286859462346D0F8A0
:102DD00018C02846E047701C46B24FEA5808082E33
:102DE000CADB09F101004FFA80F9B9F1050F00E0E3
:102DF00035E0B8BF0398AFDBBA4555D0012C1AD0E7
:102E0000E000CDE9000A0C9804EB8401084401B20B
:102E1000286823460D9AD0F818C02846E04743E0BA
:102E20000D980299304402B228685346D0F814C075
:102E30002846E047CFE7CDF800A028680823D0F85F
:102E40001CC0DDE90C02401D01B22846E0472BE022
:102E50000A9810F80A800AF101001FFA80FA18F0A7
:102E6000800F10D0012C26D00498CDE9004781199D
:102E70000C98069A01FB040001B228682346D0F89A
:102E800018C02846E0474FEA48604FEA1068701CB7
:102E9000C6B25E45FFF426AF02980599401CC0B249
:102EA00002908842FFF40CAF2868816A0FB0284670
:102EB000BDE8F04F08470998079A304401B22868E6
:102EC0003B46D0F814C02846E047DCE7D24D000866
:102ED0002DE9F843044600688946DDE90865016983
:102EE0001F46904620468847009520683B4642464C
:102EF000D0F820C049462046E04708EB0600401EB7
:102F000002B2009520683B464946D0F820C02046D2
:102F1000E0470095206833464246D0F81CC0494639
:102F20002046E04709EB0700401E01B200952068EB
:102F300033464246D0F81CC02046E0472068816AEC
:102F400001B02046BDE8F043084770472DE9F8433B
:102F5000054600680C46DDE9088701691E46914672
:102F6000284688472644A6420CDD00972868434639
:102F70004A46D0F81CC021462846E047601C04B2EF
:102F8000A642F2DC2868816A01B02846BDE8F04319
:102F900008470182428270472DE9F84F81460A981E
:102FA00014460E461D46021BA3EB060148BF5242C3
:102FB0000029B8BF49428A42D8BF4FF0000A06DD57
:102FC0003146264605464FF0010A0C461846AE42E9
:102FD00005DD31462E460D46214604460846A91B0E
:102FE0000FFA81F8011B48BF49420FFA81FB08EB39
:102FF000D8714F108442B4BF01204FF0FF300090D1
:10300000AE42C8BFBDE8F88FBAF1000FD9F8000092
:103010000B9BD0F814C004D0324621464846E04706
:1030200003E0224631464846E047A7EB0B0007B2D3
:10303000002F05DA0098204404B207EB080007B21D
:10304000701C06B2AE42DFDDBDE8F88F0023DFF86A
:103050002CC0C0E900C30181428189B2818191B253
:10306000C181437603824382012101764FF6FF72CC
:10307000C28282828176C376C3617047E85A0008B3
:10308000032300690122FEF7DFBE10B50C4600697C
:10309000FEF75CFF204610BD70B50446002084F8A2
:1030A000280084F8270084F829000E4684F82A00B6
:1030B00094F82300102101F0BFF894F92200B0F138
:1030C000FF3F04D094F82200102101F0B5F894F9E4
:1030D0002300384D05EB0010016821638089E087EB
:1030E00094F92200B0F1FF3F05D005EB0010016814
:1030F000E1628089A08794F8210030B10023012289
:103100002D492E4800F0ACFE25E094F82600102151
:1031100001F092F894F82500102101F08DF894F850
:103120002600002101F028F894F82500002101F084
:1031300023F894F9260005EB00100168A16380894B
:10314000A4F8420094F9250005EB001001686163C2
:103150008089A4F8400094F92400B0F1FF3F1FD00B
:1031600094F82400102101F067F894F8240001215C
:1031700001F002F84FF4FA7000F0E8FF94F8240030
:10318000002100F0F9FF4FF4FA7000F0DFFF94F82F
:103190002400012100F0F0FF4FF4FA7000F0D6FF98
:1031A000002E08BF70BD31462046BDE8704000F0DB
:1031B00017B80000E053000800127A002401002034
:1031C00000B583B0B0F90E20CDE9002101680022DE
:1031D000B0F90C30D1F83CC01146E04703B000BD57
:1031E0002DE9F041054611F8010B0C46411ECFB206
:1031F00038BFBDE8F08128462B6B14F8011BEA8F1D
:103200005A6100F035FB14F8010B00F0800820F043
:103210008000411ECEB20AD32B6B14F8011BEA8F3B
:1032200028461A6100F024FB711ECEB2F4D2B8F128
:10323000000F07D014F8010BFF2808BF4FF4FA70F5
:1032400000F084FF791ECFB2D5D2BDE8F081000036
:103250002DE9F041036B0D46C28F044636215A61B9
:1032600000F006FB15F0030060764FF080054FF08C
:10327000A0064FF050074FF0400820D0012850D052
:1032800002286ED0032818BFBDE8F08194F8200012
:1032900002281CBF04280528204674D0036BC28F67
:1032A0004FF068011A6100F0E3FA00BF94F82000C3
:1032B000012857D0042858D005287DD048E094F83C
:1032C000200002281CBF04280528204614D0036BC8
:1032D000C28F4FF0C8011A6100F0CAFA94F82000BA
:1032E000012808BFE58111D004280CD005281CBF97
:1032F000A681E58167D00AE0036BC28FC0211A6105
:1033000000F0B6FAEAE7E681A78100E0A58194F82B
:10331000270084F8290094F8280084F82A00BDE8E2
:10332000F08194F8200002281CBF042805282046BC
:1033300010D0036BC28F4FF0A8011A6100F098FA09
:1033400094F8200001280DD004280ED005284BD079
:10335000A6810DE0036BC28FA0211A6100F088FAEC
:10336000EEE711E0A581E58103E0A681E78100E0B9
:10337000E58194F8270084F82A0094F8280084F85E
:103380002900BDE8F08128E094F8200002281CBF45
:1033900004280528204619D0036BC28F4FF008017E
:1033A0001A6100F065FA00BF94F82000012804BFFC
:1033B000E581A581ABD000E016E00428A3D0052864
:1033C00018BFE681A2D1A4F80E809FE7036BC28FDD
:1033D00000211A6100F04CFAE6E7036BC28F60210E
:1033E0001A6100F045FA61E7A4F80C80C0E700001C
:1033F0002DE9F8430446B0F90C00089D9846884230
:10340000C6BFB4F90E309342BDE8F88301EB080360
:103410005B1E9842DCBF401A0FFA80F8D2B201EB73
:103420000800401EC3B200922068C9B2D0F854C050
:103430002046E047216BE08F2F0AEEB20861B8F119
:10344000010005B238BFBDE8F883394694F8210081
:10345000002808BF802011D01A4800F0E5FC94F83D
:1034600021003146002808BF802019D0154800F0FF
:10347000DBFC691E0DB2E8D2BDE8F883B4F8402049
:10348000636B014214BF1A615A61B4F84220A36B06
:103490001A61A36BB4F842205A614008EED1DEE70E
:1034A000B4F84020636B014214BF1A615A61B4F84A
:1034B0004230A26B1361A36BB4F842205A614008FA
:1034C000EED1D6E7240100202DE9F8430446B0F9F7
:1034D0000C00089D98468842C6BFB4F90E00904281
:1034E000BDE8F88302EB08035B1E9842DCBF801A3C
:1034F0000FFA80F802EB0800401EC0B2009020686E
:10350000CBB2D2B2D0F854C0C9B22046E047216B4A
:10351000E08F2F0AEEB20861B8F1010005B238BFA2
:10352000BDE8F883394694F82100002808BF8020C0
:1035300011D01D4800F078FC94F821003146002895
:1035400008BF802019D0184800F06EFC691E0DB22B
:10355000E8D2BDE8F883B4F84020636B014214BFA1
:103560001A615A61B4F84220A36B1A61A26BB4F8D5
:10357000423053614008EED1DEE701421DBFB4F88E
:103580004030626B1361B4F8402004BF636B5A6132
:10359000B4F84220A36B1A61A26BB4F842305361B5
:1035A0004008EAD1D2E70000240100202DE9F041D3
:1035B0001F46036B16468846C28F069D04462A2185
:1035C0005A6100F055F9236BE28F204600211A6101
:1035D00000F04EF994F82910236B4144E28F204605
:1035E000C9B21A6100F044F9236BE28F2046002132
:1035F0001A6100F03DF994F82910236B3944E28FE9
:103600002046C9B21A6100F033F9236BE28F2046DD
:103610002B215A6100F02CF9236BE28F2046002108
:103620001A6100F025F994F82A10236B3144E28FD7
:103630002046C9B21A6100F01BF9236BE28F2046C5
:1036400000211A6100F014F994F82A10236B294420
:10365000E28F2046C9B21A6100F00AF9236BE28FAB
:1036600020462C215A61BDE8F04100F001B900006C
:1036700070B50D4604463749FFF70EFD02268DB1A1
:103680008020012D1CD0042D2AD0052D3BD032499D
:103690002046FFF7A5FD31492046FFF7A1FD022D89
:1036A00041D04EE02E492046FFF79AFD84F827606E
:1036B000012084F8280029492046FFF791FD40E0C9
:1036C000E081A08127492046FFF78AFD84F8276022
:1036D000032084F8280021492046FFF781FD30E0CF
:1036E000A020E0815020A0811F492046FFF778FDEF
:1036F000182084F82700002084F828001749204665
:10370000FFF76EFD0FE04021E181A08117492046BF
:10371000FFF766FD84F82760432084F828000F49EE
:103720002046FFF75DFD236BE28F204636215A616C
:1037300000F09EF8236BE28F2046C0211A6100F052
:1037400097F884F8205020680021C26A2046BDE81E
:10375000704010473953000881530008B5530008E2
:10376000745300088E5300089B530008A8530008A8
:103770002DE9F8430446DDE90865B0F90C009846E8
:103780008842C6BFB4F90E309342BDE8F88301EB1E
:10379000080CACF1010C6045DCBF401A0FFA80F850
:1037A0009019401E9842A4BF981A06B29019401E64
:1037B000C0B2009001EB0800401EC3B22068D2B234
:1037C000C9B2D0F854C02046E047216BE08F2F0AE1
:1037D00005F0FF090861002ED8BFBDE8F88300BFDF
:1037E000B8F1000517DD94F821003946002808BF1C
:1037F000802016D01D4800F017FB94F821004946A0
:10380000002808BF80201ED0184800F00DFB681E5D
:1038100005B2002DE7DC701E06B2002EE0DCBDE82C
:10382000F883B4F84020636B014214BF1A615A61F7
:10383000B4F84220A36B1A61A36BB4F842205A611A
:103840004008EED1D9E7B4F84020636B014214BFC1
:103850001A615A61B4F84220A36B1A61A36BB4F8E1
:1038600042205A614008EED1D1E700002401002037
:1038700090F82120002A08BF802202D00D4800F0D5
:10388000D3BAB0F84030D0F834C0114214BFCCF8ED
:103890001030CCF81430B0F84230D0F838C0CCF842
:1038A0001030D0F838C0B0F84230CCF8143052089C
:1038B000E7D17047240100200029B8BF704738B510
:1038C0000446B0F90C001D468842D8BF38BD002A16
:1038D000A4BFB4F90E009042D8BF38BD501CC0B28E
:1038E0000090481CC3B22068D2B2C9B2D0F854C00C
:1038F0002046E047216BE08F0861290A2046FFF748
:10390000B7FFE9B22046BDE83840FFF7B1BF00007D
:103910002DE9F0411546DDE906780E461C464022A9
:103920008021FFF793FB0849016080F8226080F84E
:10393000235080F8254080F8267080F824800021EC
:1039400080F82110BDE8F081605B000810B40479B4
:10395000DDF804C08C429EBF4FF0FF3010BC7047B2
:10396000046804EB011422600424026804EB0114CF
:1039700002F804C00068082202EB0112835010BC58
:10398000084670472DE9F0470546007900240E46A9
:10399000002898BFBDE8F087DFF84C804FF004099D
:1039A0000C274FF0080A286800EB0411096841450C
:1039B00012D009EB0411415C71B107EB04114258BC
:1039C000B24209D80AEB04128258324442502868A5
:1039D00000EB041000688047601CC4B22879A04244
:1039E000E1D8BDE8F0870000312100082DE9F04161
:1039F000044600680D46002818BF00F0FFFA2801B1
:103A000000F000FB206000222571002D1AD9002053
:103A10000E4B04214FF0080C0C25266801EB021711
:103A200006EB021633602668F05526680CEB021789
:103A3000F051266805EB0217521CF0512679D2B2DC
:103A40009642EAD82046BDE8F08100003121000806
:103A50002DE9F0410546C07A0B4F144607EB0010E4
:103A6000828900684261094800F0B0FA06462146A2
:103A7000064800F0ABFAE87A07EB0010818900688D
:103A800001613046BDE8F081E053000824010020C8
:103A900010B4DDE9014C017042708370C47080F88D
:103AA00004C010BC704700002DE9F0478046C07A82
:103AB000114F154607EB00101E46828900684261CF
:103AC0000E4800F083FA00248146002E09D900BF79
:103AD00015F8011B094800F079FA601CC4B2A6422F
:103AE000F6D898F80B0007EB001081890068016197
:103AF0004846BDE8F0870000E0530008240100209C
:103B000070B50546C07A1C4C0E4604EB0010072128
:103B1000828900684261194800F058FA002117486C
:103B200000F054FAE97A04EB01118A8909680A6104
:103B3000044610F0200F0AD00022E1212846FFF7AA
:103B400087FF6B793246A0212846FFF7ADFF14F0BE
:103B5000100F0AD00022E1212846FFF779FF6B7988
:103B60003246A0212846FFF79FFF224627212846FC
:103B7000FFF76EFF204670BDE053000824010020CF
:103B800008B500210091012100F002F808BD0000F5
:103B90002DE9F0411D4690460F46044600230122C0
:103BA0001E491F48069E00F05BF901211D48FDF7E4
:103BB000E1FAA07A102100F03FFBE07A102100F03A
:103BC0003BFBA17A184800EB01118A8909684A6118
:103BD000E17A00EB011081890068016187B1012F52
:103BE00014D0022F08BFA67110D0032F18BFBDE854
:103BF000F081A67165712046BDE8F04100F016B86D
:103C0000A6712046BDE8F04100F010B8657141464C
:103C10002046BDE8F04100F03FB8000080969800D3
:103C20002401002000380040E053000870B504462D
:103C3000807A184D05EB00108189006841612246A9
:103C400005232A211046FFF72FFF012221212046BC
:103C5000FFF7FEFE012222212046FFF7F9FE28226F
:103C600025212046FFF7F4FEA27931212046FFF7F7
:103C7000EFFE072226212046FFF7EAFE0F22202131
:103C80002046FFF7E5FEA07A05EB00108189006869
:103C9000016170BDE053000870B50446807A1F4D85
:103CA0000E4605EB0010818900684161224605231C
:103CB00030211046FFF7F8FE224605232A21104640
:103CC000FFF7F2FE012221212046FFF7C1FE01226B
:103CD00022212046FFF7BCFE0E2220212046FFF7BE
:103CE000B7FE282225212046FFF7B2FE0722262113
:103CF0002046FFF7ADFE1A2224212046FFF7A8FE3A
:103D000063793246A0212046FFF7CEFEA07A05EB6C
:103D1000001081890068016170BD0000E053000857
:103D200010B4DDE9014CC17102724372847280F8F3
:103D30000BC010BC70472DE9F04190B0002419462B
:103D40000546DDF858809446274652EA010018BF20
:103D50006E461DD0424600236046FCF793FA32556A
:103D60008446641C0843F5D174B13119284611F812
:103D7000011C0A2934BF30313731C9B202681268D8
:103D800090470744641EF0D110B03846BDE8F0817A
:103D90002A68284630211268904710B00120BDE8FB
:103DA000F08102685268104708B532B1D2B2009271
:103DB0000A460023FFF7BFFF08BD0268C9B21268B8
:103DC00001B05DF804EB104770B5064608780C4664
:103DD000002548B1C1B23068641C02683046904783
:103DE00020786D1C0028F5D1284670BD2DE9F041E2
:103DF000002507460C46561E09D300BF386814F844
:103E0000011B0268384690476D1C761EF6D2284684
:103E1000BDE8F08103490160002180F8551080F869
:103E200056107047C45B0008F8B504460D460221E1
:103E30002068FDF7A8F90028F9D029462068FDF789
:103E4000ABF96E46002501212068FDF79CF900289A
:103E5000F9D02068FDF79EF970559DF80000F8BD77
:103E60002DE9F0411E4615460F46044600F058F86D
:103E70002A482146B0FBF7F080B2022898BF002004
:103E800017D9042898BF082013D9082898BF1020F4
:103E90000FD9102898BF18200BD9202898BF2020B0
:103EA00007D9402898BF282003D9802894BF302004
:103EB000382008820868211DFDF770F92146012D80
:103EC0000CBF0020802048820868211DFDF766F99C
:103ED000F7B200212068FDF74DF9002F08BF00263A
:103EE0000CD0012F08BF00260AD0022F08BF0226DF
:103EF00004D0032F08BF022602D002E0002500E014
:103F000001256681A581211D2068FDF747F92068FC
:103F1000BDE8F0410121FDF72DB9000000A24A04DF
:103F20002DE9F8430446006818260325A0F56050E3
:103F3000B0F1804011D0B0F5784F22D1012141F28B
:103F40000400FDF7A9F8E020ADF800008DF803604B
:103F50008DF8025069461B4811E001218803FDF7E6
:103F600083F801210820FDF797F84FF46040ADF881
:103F700000008DF803608DF8025069461248FCF786
:103F80000DFFD4F800904FF482784FF40077182694
:103F900000214846FDF7EEF80020A080A4F8068036
:103FA00020816081A081E78126826082A582211D17
:103FB0004846FDF7F3F801214846FDF7DBF8BDE878
:103FC000F883000000080140000C014070B50D4668
:103FD000044602212068FDF7D6F80028F9D02946CA
:103FE0002068FDF7D9F801212068FDF7CCF80028FA
:103FF000F9D02068FDF7CEF8C0B270BD10B5FCF75F
:104000001AF910BD10B500F001F810BD10B504008C
:1040100007D1012405E0FCF75BFA006800B9044809
:1040200080472046FCF7D8F80028F4D010BD0000E7
:10403000550500080020FCF740BA000000B583B029
:104040004FF0FF310820CDE9000113231022024870
:10405000FFF75EFC03B000BD4403002000B583B051
:104060000B210C20CDE900011D231E221F21024837
:10407000FFF756FE03B000BD880300201148DFF8AB
:1040800048C0124BC0F810C000214FF47A72036090
:10409000C0E9011201751830DFF834C0C0F810C053
:1040A0000360C0E901124FF0010C80F814C0183011
:1040B000DFF820C0C0F810C00360C0E9011202217F
:1040C00001757047C4000020003801403C5B0008C7
:1040D0000044004000480040034804490160183093
:1040E00003490160704700000C01002000300140CE
:1040F0000038004008481A221B21DFF820C00023A6
:10410000C0F800C080F8543080F8552080F8561070
:10411000034A0449FCF72DB93C010020C45B0008A8
:1041200000000008153E00080A210148FFF75EBCA8
:104130007C000020044901EB0010C07BFF2804BF75
:1041400000207047FCF70ABFE053000803490A68E3
:1041500010440A688242FCD370470000000000202F
:10416000044901EB0010016889688089084018BF84
:1041700001207047E0530008044A002902EB0010B8
:104180008289006814BF026142617047E0530008F1
:1041900082B0FCF701FD01210846FCF77DFF0121FB
:1041A0001548FCF753FEFCF71BFCFDF7D5FE012478
:1041B0000523124A002112480094FFF7C7FB05238C
:1041C000104A01210E480094FFF7C0FB0A230E4A53
:1041D00002210B480094FFF7B9FB4FF47A710B4AA8
:1041E000C806FDF70DFC01218807FDF7DDF800BFCB
:1041F000FEF79EF8FCE7000000023000C126000830
:104200007C000020692400083127000819230008D9
:10421000DDF800C0401AACEB030C00FB0CF0511AA7
:1042200090FBF1F0184470470148006870470000A7
:104230000000002070470000002918BF042914D096
:10424000282918BF482910D0142918BF10290CD0CC
:104250001C2918BF182908D0012918BF704744F637
:1042600020624FF47A71FCF7C3BE054A032302EBC8
:1042700000100A46B0F80CC000686146FCF71CBE8E
:10428000E05300080C4A02EB0010827B012A04BFB5
:10429000406881860ED0022A04BF4068018709D099
:1042A000032A04BF4068818704D0042A04BF406801
:1042B000A0F8401008467047E053000830B40346A9
:1042C000154C0020844604EB031304EB01110D6828
:1042D0008C892C611C68A4689D8904EA05049AB144
:1042E000002C18BF0124CCF10705AC402043C0B21C
:1042F0000D688C896C610CF1010C0CF0FF0CBCF1A9
:10430000080FE4D330BC7047002C18BF012404FA16
:104310000CF42043C0B2EBE7E053000810B591EA7B
:10432000030F48BF83F0004300F13481841A71EB1E
:10433000030C05D2121943EB0C03001B61EB0C01BB
:10434000DFF824E14FEA1154A4EB135C1EEA430F9B
:1043500018BF9EEA445F73D023EA0E03DCF1200EFF
:1043600021EA045143F4801332D322FA0CFE10EBFD
:104370000E0023FA0CFE41EB0E01CCF1200E03FAE5
:104380000EFE10EB0E0051F10001B1F5801FCCF1D3
:10439000200E32D201EB045112FA0EF2BDE81040A9
:1043A00058BF7047401C38BF5FEA420218BF7047D1
:1043B000002814BF20F0010041F100014FEA410341
:1043C00013F5001F38BF7047A1F1C04100F0D3B80A
:1043D000012A43EB0302ACF1200CDCF11F0E32BFCB
:1043E0004FF0000E23FA0CF310EB030041EB0451E5
:1043F000B4EB115FD0D0A1EB045101F58011490855
:104400005FEA300001EB04510ED350F1000038BFD9
:1044100012FA0EFE08D1BDE81040C9E7401C38BFB3
:104420005FEA4202CAD1C3E7BDE810404FEA410348
:1044300013F5001F38BF7047A1F1C04100F09BB8D1
:104440009EEA445F08D011EA5E0FBDE8104004BF49
:1044500001F0004100207047BDE8104070B500F049
:104460003CF800BF64FBBE3E0000E0FF02494FF095
:10447000000000F036BC00BF0000F87F4FEA4103A7
:104480004FEA5353A3F58063D3F11E03C8BFD3F1A2
:10449000210C0CDD4FF0004242EAC12242EA5052A8
:1044A00032FA03FC8CEAE17CACEBE1707047102B34
:1044B000C4BF0020704703F5787CBCF1FF3F04D0F7
:1044C0006FF0004282EA2100704770B500F005F8F5
:1044D0004992248000207047F2E70EF1020E2EF080
:1044E000030E5EF8046B364205D4012A43EB030544
:1044F00015F5001F12D8012841EB010C1CF5001F17
:104500000CD80ED14FEAD17C15F5001F0CEB4C0CEA
:104510000CF1020C08BF4CEBD37C04E04FF0080C0C
:1045200001E04FEAD37C0CEB4C0526FA05F606F0C9
:104530000706B6F1040C06D20EEB860CBDE87040FF
:104540004CF0010C6047DFE80CF0090B02024FF061
:1045500000414FF00000A1F5002170BD1946104642
:10456000012851EB010418BFD4F5001484BF0020CA
:1045700001F0004170BD0808A0F500114FEA3101BB
:104580007047000010B591EA030F48BF83F0004365
:104590003FF5CCAE841A71EB030C07D212198CF0E4
:1045A000004C43EB0C03001B61EB0C01DFF8A4E1B2
:1045B0004FEA1154A4EB135C1EEA430F18BF9EEAA6
:1045C000445F00F0B08023EA6E03524221EA0451B6
:1045D000C3EB6E0338BF5B1EDCF1200E25D322FA3D
:1045E0000CFE10EB0E0043FA0CFE41EB0E01CCF179
:1045F000200E03FA0EFE10EB0E0051F10001CCF17B
:10460000200E29D412FA0EF201EB0451BDE810403D
:1046100058BF7047401C1CBFB2F1004F70470028C4
:104620000CBF491C20F00100704712EB020E43EB57
:10463000030218BF4FF0010E4EEA4202ACF1200C0B
:10464000DCF11E0E54D943FA0CFE10EB0E0051F1B2
:10465000FF31CCF11E0ED5D50EF1010E12FA0EFE71
:10466000404141EB010101EB445C5FEA5C5C10D925
:1046700010EBDE7001EB045138BFBEF1004FBDE816
:10468000104018BF704700280CBF491C20F00100E3
:10469000704730D24FEAD42C11F5001124F4006495
:1046A0001BD0B1FA81F20B3AA41AA41ED2F1200356
:1046B000914030FA03F31943904001EBCC71002C88
:1046C00001EB0451BDE81040A8BF704701F1C041A3
:1046D0004FF0000001F000417047B0FA80F310FA8B
:1046E00003F100D110BDE41A173C4805C90AE4E7FC
:1046F00001EB045110BD491001EB0451BDE810401D
:104700004FEA300002E04FF0000170474A0008BF56
:104710000042F8D0B2F5001F28BF704701F00041F9
:104720004FF0000070479EEA445F07D011EA5E0F29
:10473000BDE8104004BF002100207047BDE81040D4
:1047400070B5FFF7CAFE00BF40DFF63E83F00041C0
:10475000104670470000E0FF43004FEAD30C4FEAD9
:104760003C0C43401FBF40070CF1605113F0FE4F5B
:1047700070471CF0006F03D100200CF0004170471F
:104780000CF0004343EA507010B540EACC0000F052
:10479000E8F900BF000000924FEA0001FFF7EBBE0E
:1047A0004FF000414FF00000A1F5002170470000DC
:1047B00090EA010F48BF81F0004100F12482421AC3
:1047C0003CBF801A89184FEAD0524FF07F4C1CEA48
:1047D000410FA2EBD15318BF9CEA026F00F03B805F
:1047E0004FF0004C4CEA00204CEA012121FA03FC76
:1047F00010EB0C0C1ED202F1FF325FEA1C2040EBE2
:10480000C25038BF70471CF07F0F4FEA400C18BFF2
:10481000BCF17F4F38BF7047C3F12003994008BFF8
:1048200020F00100BCF17F4F38BF7047A0F1C040BD
:1048300000F0DDB94FEA3C00000A40EBC25028BF4F
:104840001CF0FF0F4FEA400CE6D018BFBCF17F4FC1
:1048500038BF7047EAE79CEA026F05D010EA5C0FA8
:1048600008BF00F00040704710B500F07AF900BFB3
:1048700064FBBE3E4FF47F0C1CEAD0121EBF1CEA44
:10488000D11392EA0C0F93EA0C0F00F0858090EAA6
:10489000010F48BF42F4807240F4000C41F4000064
:1048A0002CF07F4120F07F4000B58142A2EB030253
:1048B0000FF2081CACEB504EC0F100009EF800E077
:1048C0004FEA4E0E00FB0EFC38BF49004FEA2C1C8D
:1048D00002F5FA020CFB0EF34FEACE1E4FEA112C42
:1048E0004FEAC1210EEB635E42EB22420EFB0CFC51
:1048F0004FEA1C5300FB03114FEA112C4FEA013120
:104900000EFB0CFC4FEADC4C00FB0C11C14228BF33
:1049100009184CEB03335DF804EB10EB410143EB5A
:10492000C250B2F57C0F38BF704729D512F0F00F96
:104930001CBF00F1C04000F000407047008182833E
:104940008485868788898B8C8D8E8F91929395969E
:1049500097999A9C9D9FA0A2A3A5A7A8AAACAEB028
:10496000B2B3B5B7B9BCBEC0C2C5C7C9CCCED1D42D
:10497000D7D9DCDFE2E6E9ECF0F3F7FAFE0000005D
:104980004FEA400C0CF1807CBCF17E4F28BF704791
:10499000B0F1C04000F02BB990EA010F0CEAD1133E
:1049A00048BF42F48072624538BF634507D213F4B2
:1049B0007F0F16D080EA010000F00040704710B56C
:1049C00000F0CFF8097EFC3E00F005B880EA010057
:1049D00000F00040704780EA010000F0004000F065
:1049E00006B912F47F0F04BF0248704780EA010045
:1049F00000F0FDB80000C07F41000B0ED3F19E0215
:104A000008D950F400034FEA032323FA02F048BF09
:104A10004042704710B500F0A4F800BF49922480CE
:104A2000002070476FF0004282EA200070470000CB
:104A300010F0004148BF4042B0FA80F310FA03F290
:104A4000C3F19D030BD051EAC35101EB1220530671
:104A500038BF704700F1010008BF20F00100704727
:104A60004FF47F0C1CEAD0121EBF1CEAD11392EA4D
:104A70000C0F93EA0C0F00F0478090EA010F48BF3B
:104A800042F480724FF0004C4CEA00204CEA0121C5
:104A900002EB0302A0FB0113A2F50002002918BFDC
:104AA00043F001035B0028BF4FEA330342EB22428D
:104AB0005FEA132C4CEBC2502EBFBCEB436FB2F538
:104AC0007C0F70474FEA036CBCF1004F08BF20F029
:104AD0000100B2F57C0F38BF70470BD582F0FF02A2
:104AE00012F5803FC8BF704700F1C040D8BF00F04A
:104AF0000040704700F5000C5FEA4C0C48BF70475F
:104B0000B0F1C04000F073B890EA010F0CEAD11385
:104B100048BF42F48072624538BF634504D280EAE0
:104B2000010000F00040704710B500F01AF800BF17
:104B30008900013E00F007B800F009B85FEA410CB7
:104B40005FEA1C6C08D080EA010000F050B85FEA10
:104B5000400C5FEA1C6CF6D14FF00040A0F58000DD
:104B600070470EF1020E2EF0030E5EF8044B244245
:104B700004D44FEA4102B2F17F4F11D84FEA40030B
:104B8000B3F17F4F0CD80ED14FEAD07CB2F17F4FFA
:104B90000CEB4C0C0CF1020C08BF4CEBD17C04E08C
:104BA0004FF0080C01E04FEAD17C0CEB4C0324FAE7
:104BB00003F404F00704B4F1040C06D20EEB840CE9
:104BC000BDE810404CF0010C6047DFE80CF007082E
:104BD00002024FF00040A0F5800010BD08464200E0
:104BE00018BFD2F1807288BF00F0004010BDFF21D5
:104BF00041EAD050C005704790EA010F48BF81F0EC
:104C000000413FF5DCAD421A04D882F00042A0EB2F
:104C1000020011444FEAD0524FF07F4C1CEA410F82
:104C2000A2EBD15318BF9CEA026F4AD04FF0004C60
:104C30004CEA00204CEA012121FA03FCB0EB0C0CF9
:104C40000FD412F0FE0F36D05FEA4C001DD50012D3
:104C500040EBC25038BF70471CF03F0F18BF704781
:104C60000BE0A2F101025FEA1C2040EBC25038BF0A
:104C700070471CF07F0F18BF7047C3F120039940A5
:104C800014BF401E20F00100704780084FEA122335
:104C900008BF7047B0FA80FCA2EB0C02CCF1280CE4
:104CA00060FA0CF093EA122F04BF00EBC250704779
:104CB0004FEAC3707047130A5FEADC1008BF704701
:104CC000F6E79CEA026F04D010EA5C0F08BF0020F0
:104CD000704710B5FFF745FF40DFF63E81F000401A
:104CE00070470CF00F03092B08BF082000F0598013
:104CF0000A2B0BD0082B18BF704708BF1CF0400FC1
:104D00000AD04FF000004FF0000170471CF0400F38
:104D100018BF4FF0004070471CF0100F08D020F073
:104D2000704300F07F4242EAD3014FEA437070477C
:104D300000F0604021F07F4242EA000201F07F4033
:104D400040EA727070474FF0FF0C4CF4E06C1CEAC4
:104D500011531CBF9CEA030C9445C2BFDA4201EB1D
:104D600002517047002B0DD0BCF1000F0FD0002A6C
:104D700001F00041A4BF41F0E04141F07F614FF0FC
:104D80000000704701F000414FF00000704750EA0A
:104D900001334FF09B0C18BF4CF0806C7FF466AB76
:104DA00070471CF4801F11D01CF4E02F03D06FEA71
:104DB000CC31490070474FF04050EFF3008222F0B1
:104DC000704242EA000282F3008870474FF0000010
:104DD000704700000000003E5B4F5B3E3E6B4F6B38
:104DE0003E1C3E7C3E1C183C7E3C181C577D571CCC
:104DF0001C5E7F5E1C00183C1800FFE7C3E7FF0045
:104E000018241800FFE7DBE7FF30483A060E262992
:104E1000792926407F050507407F05253F5A3CE755
:104E20003C5A7F3E1C1C08081C1C3E7F14227F221B
:104E3000145F5F005F5F06097F017F006689956AE6
:104E4000606060606094A2FFA29408047E04081071
:104E5000207E201008082A1C08081C2A08081E109A
:104E60001010100C1E0C1E0C30383E3830060E3E52
:104E70000E06000000000000005F000000070007B1
:104E800000147F147F14242A7F2A122313086462DB
:104E900036495620500008070300001C224100003C
:104EA00041221C002A1C7F1C2A08083E080800809A
:104EB0007030000808080808000060600020100832
:104EC00004023E5149453E00427F40007249494933
:104ED000462141494D331814127F10274545453965
:104EE0003C4A494931412111090736494949364669
:104EF0004949291E00001400000040340000000849
:104F000014224114141414140041221408020159EB
:104F100009063E415D594E7C1211127C7F49494978
:104F2000363E414141227F4141413E7F494949410D
:104F30007F090909013E414151737F0808087F003C
:104F4000417F41002040413F017F081422417F40C2
:104F50004040407F021C027F7F0408107F3E414199
:104F6000413E7F090909063E4151215E7F09192909
:104F700046264949493203017F01033F4040403FF3
:104F80001F2040201F3F4038403F63140814630334
:104F9000047804036159494D43007F4141410204B3
:104FA000081020004141417F0402010204404040BA
:104FB0004040000307080020545478407F284444B0
:104FC000383844444428384444287F3854545418CA
:104FD00000087E090218A4A49C787F0804047800C5
:104FE000447D40002040403D007F102844000041A7
:104FF0007F40007C047804787C08040478384444BA
:105000004438FC1824241818242418FC7C080404B0
:1050100008485454542404043F44243C4040207C19
:105020001C2040201C3C4030403C44281028444C6C
:105030009090907C4464544C440008364100000039
:10504000770000004136080002010204023C2623DA
:10505000263C1EA1A161123A4040207A3854545592
:10506000592155557941225454784221555478405C
:1050700020545579400C1E527212395555555939E4
:105080005454545939555454580000457C41000239
:10509000457D420001457C407D1211127DF028259E
:1050A00028F07C545545002054547C547C0A097FD8
:1050B0004932494949323A4444443A324A484830EC
:1050C0003A4141217A3A42402078009DA0A07D3D9E
:1050D0004242423D3D4040403D3C24FF2424487E26
:1050E0004943662B2FFC2F2BFF0929F620C0887E11
:1050F000090320545479410000447D413048484A16
:1051000032384040227A007A0A0A727D0D19317DC8
:105110002629292F28262929292630484D4020389C
:105120000808080808080808382F10C8ACBA2F105B
:105130002834FA00007B000008142A142222142AC2
:1051400014085500550055AA55AA55AAFF55FF55F4
:10515000FF000000FF00101010FF00141414FF00E7
:105160001010FF00FF1010F010F0141414FC0014C5
:1051700014F700FF0000FF00FF1414F404FC1414E3
:1051800017101F10101F101F1414141F00101010E0
:10519000F0000000001F101010101F10101010F071
:1051A00010000000FF101010101010101010FF1051
:1051B000000000FF140000FF00FF00001F10170098
:1051C00000FC04F414141710171414F404F4000071
:1051D000FF00F714141414141414F700F714141423
:1051E000171410101F101F141414F4141010F010C2
:1051F000F000001F101F0000001F14000000FC142E
:105200000000F010F01010FF10FF141414FF141021
:1052100010101F00000000F010FFFFFFFFFFF0F074
:10522000F0F0F0FFFFFF0000000000FFFF0F0F0F86
:105230000F0F3844443844FC4A4A4A347E0202067E
:1052400006027E027E0263554941633844443C04B1
:10525000407E201E2006027E020299A5E7A5991C29
:105260002A492A1C4C7201724C304A4D4D3030484C
:10527000784830BC625A463D3E494949007E0101AA
:10528000017E2A2A2A2A2A44445F444440514A443F
:105290004040444A51400000FF0103E080FF00000D
:1052A00008086B6B083612362436060F090F060005
:1052B0000018180000001010003040FF0101001F0E
:1052C00001011E00191D1712003C3C3C3C0000006F
:1052D0000000120180321180FF3A81050AB183007B
:1052E00006030A360108B6021502B40100C08202A4
:1052F000700AC10105C2020102C5823C380AFC02E3
:105300001115E01009160920211B131917151E2B62
:105310000405020EE1900B14081E221D181E1B1A14
:10532000242B0606020F0A2A04000200812B040027
:1053300002008113800A2980FF0F0180961180FFEF
:10534000B103012C2DB203012C2DB306012C2D012C
:105350002C2DB40107C003A20284C101C5C2020AF8
:1053600000C3028A2AC4028AEEC5010E200036015B
:10537000C83A0105022A04000200812B0400010042
:10538000A0022A040000007F2B040000009F022AD4
:10539000040000007F2B040000007F022A040000AC
:1053A000007F2B040000009F022A04004300822B90
:1053B000040002008104E010021C07123732292D7C
:1053C00029252B3900010310E110031D07062E2C9F
:1053D000292D2E2E373F0000021013800A298064E9
:1053E00000080140000000400024014001000100CD
:1053F00000080140000000400024014002000201BA
:1054000000080140000000400024014004000302A5
:10541000000801400000004000240140080004038F
:1054200000080140000000000024014010000004BA
:105430000008014000000000002401402000000599
:105440000008014000040040002401404000010623
:1054500000080140000400400024014080000207D1
:1054600000080140002C014000000000000101FF85
:1054700000080140002C014000000000000202FF73
:1054800000080140002C014000000000000403FF60
:1054900000080140002C014000000000000804FF4B
:1054A000000801400000000000000000001000FFA4
:1054B000000801400000000000000000002000FF84
:1054C000000801400000000000000000004000FF54
:1054D000000801400000000000000000008000FF04
:1054E000000C0140000400400024014001000308BA
:1054F000000C0140000400400024014002000409A7
:10550000000C01400000000000000000040000FF4B
:10551000000C01400000000000000000080000FF37
:10552000000C01400000000000000000100000FF1F
:10553000000C01400000000000000000200000FFFF
:10554000000C01400008004000000000400001FF86
:10555000000C01400008004000000000800002FF35
:10556000000C01400008004000000000000103FFA3
:10557000000C01400008004000000000000204FF91
:10558000000C01400000000000000000000400FFCB
:10559000000C01400000000000000000000800FFB7
:1055A000000C01400000000000000000001000FF9F
:1055B000000C01400000000000000000002000FF7F
:1055C000000C01400000000000000000004000FF4F
:1055D000000C01400000000000000000008000FFFF
:1055E0000010014000000000002401400100000AFA
:1055F0000010014000000000002401400200000BE8
:105600000010014000000000002401400400000CD4
:105610000010014000000000002401400800000DBF
:105620000010014000000000002401401000000EA6
:105630000010014000000000002401402000000F85
:10564000001001400034014000000000400001FF54
:10565000001001400034014000000000800002FF03
:10566000001001400034014000000000000103FF71
:10567000001001400034014000000000000204FF5F
:10568000001001400000000000000000000400FFC6
:10569000001001400000000000000000000800FFB2
:1056A000001001400000000000000000001000FF9A
:1056B000001001400000000000000000002000FF7A
:1056C000001001400000000000000000004000FF4A
:1056D000001001400000000000000000008000FFFA
:1056E000001401400000000000000000010000FF65
:1056F000001401400000000000000000020000FF54
:10570000001401400000000000000000040000FF41
:10571000001401400000000000000000080000FF2D
:10572000001401400000000000000000100000FF15
:10573000001401400000000000000000200000FFF5
:10574000001401400000000000000000400000FFC5
:10575000001401400000000000000000800000FF75
:10576000001401400000000000000000000100FFE4
:10577000001401400000000000000000000200FFD3
:10578000001401400000000000000000000400FFC1
:10579000001401400000000000000000000800FFAD
:1057A000001401400000000000000000001000FF95
:1057B000001401400000000000000000002000FF75
:1057C000001401400000000000000000004000FF45
:1057D000001401400000000000000000008000FFF5
:1057E000001801400000000000000000010000FF60
:1057F000001801400000000000000000020000FF4F
:10580000001801400000000000000000040000FF3C
:10581000001801400000000000000000080000FF28
:10582000001801400000000000000000100000FF10
:10583000001801400000000000000000200000FFF0
:10584000001801400000000000000000400000FFC0
:10585000001801400000000000000000800000FF70
:10586000001801400000000000000000000100FFDF
:10587000001801400000000000000000000200FFCE
:10588000001801400000000000000000000400FFBC
:10589000001801400000000000000000000800FFA8
:1058A000001801400000000000000000001000FF90
:1058B000001801400000000000000000002000FF70
:1058C000001801400000000000000000004000FF40
:1058D000001801400000000000000000008000FFF0
:1058E000001C01400000000000000000010000FF5B
:1058F000001C01400000000000000000020000FF4A
:10590000001C01400000000000000000040000FF37
:10591000001C01400000000000000000080000FF23
:10592000001C01400000000000000000100000FF0B
:10593000001C01400000000000000000200000FFEB
:10594000001C014000000000003C01404000000439
:10595000001C014000000000003C014080000005E8
:10596000001C014000000000003C01400001000656
:10597000001C014000000000003C01400002000744
:10598000001C014000000000003C01400004000831
:10599000001C01400000000000000000000800FFA3
:1059A000001C01400000000000000000001000FF8B
:1059B000001C01400000000000000000002000FF6B
:1059C000001C01400000000000000000004000FF3B
:1059D000001C01400000000000000000008000FFEB
:1059E000002001400000000000000000010000FF56
:1059F000002001400000000000000000020000FF45
:105A0000002001400000000000000000040000FF32
:105A1000002001400000000000000000080000FF1E
:105A2000002001400000000000000000100000FF06
:105A3000002001400000000000000000200000FFE6
:105A4000002001400000000000000000400000FFB6
:105A5000002001400000000000000000800000FF66
:105A6000002001400000000000000000000100FFD5
:105A7000002001400000000000000000000200FFC4
:105A8000002001400000000000000000000400FFB2
:105A9000002001400000000000000000000800FF9E
:105AA000002001400000000000000000001000FF86
:105AB000002001400000000000000000002000FF66
:105AC000002001400000000000000000004000FF36
:105AD000002001400000000000000000008000FFE6
