:020000040800F2
:1000000010910120650200086D02000869220008B5
:100010007102000873020008750200080000000069
:10002000000000000000000000000000A501000822
:10003000790200080000000001020008792B000886
:100040007F0200087F0200087F0200087F0200088C
:100050007F0200087F020008151E0008E91E000844
:10006000111F0008391F0008611F00087F020008E7
:100070007F0200087F0200087F0200087F0200085C
:100080007F0200087F0200087F0200087F0200084C
:100090007F0200087F0200087F020008891F000815
:1000A0007F0200082D2D00087F0200087F02000853
:1000B0005D2D0008892D0008B92D00087F02000879
:1000C0007F0200087F0200087F0200087F0200080C
:1000D0007F020008C13300081134000861340008B1
:1000E0003D1E00087F0200087F0200087F02000812
:1000F000492E00087F0200087F0200087F020008E6
:100100007F0200087F020008E92D00087F02000836
:100110007F0200087F0200087F020008192E0008F5
:100120007F0200087F0200087F0200087F020008AB
:100130007F0200087F0200087F0200087F0200089B
:100140007F0200087F0200087F0200087F0200088B
:100150007F0200087F0200087F0200087F0200087B
:100160007F0200087F0200087F0200087F0200086B
:100170007F0200087F0200087F0200087F0200085B
:100180007F0200087F020008DFF814D001F0CAF8EF
:1001900000F03AFC004800476918030800F093FF9C
:1001A000109101202C4B19680868B0E8F04F80F3DB
:1001B0000988BFF36F8F4FF0000080F311887047FC
:1001C0000000000008480068006880F308884FF0CD
:1001D000000080F3148862B661B6BFF34F8FBFF39F
:1001E0006F8F00DF00BF00BF08ED00E0DFF80C00FC
:1001F000016841F470010160704700BF88ED00E0C4
:10020000EFF30980BFF36F8F134B1A681EF0100FC6
:1002100008BF20ED108A20E9F04F106009B44FF0BC
:10022000500080F31188BFF34F8FBFF36F8F3AF008
:100230006FFB4FF0000080F3118809BC1968086853
:10024000B0E8F04F1EF0100F08BFB0EC108A80F33A
:100250000988BFF36F8F7047AC0A0020EFF3058069
:10026000704700000648804706480047FEE7FEE763
:10027000FEE7FEE7FEE7FEE7FEE7FEE7FEE7FEE756
:10028000292C0008890100080C49087820B1401E7B
:100290000870491C085C704700210720ABBE7047FE
:1002A000064A1178022902D34FF0FF307047034B02
:1002B0005B1C5854491C1170704700000C0B002047
:1002C0002DE9F05F0546002092469B46884606468B
:1002D000814640241BE0284641464746224600F01E
:1002E00023FE53465A46C01A914110D31146184670
:1002F000224600F00AFE2D1A67EB01084F462246FF
:100300000120002100F001FE17EB00094E41201EE4
:10031000A4F10104DFDC484631462A464346BDE8E5
:10032000F09F0000004870478CC9040810B50446CF
:10033000FFF7F8FF0068005D00F0010010BDA0F1BC
:100340006101192900D820387047A0F1410119290D
:1003500000D82030704700000649074A086850431B
:1003600043F23902104408604008704701490860B0
:1003700070470000000700106D4EC64100487047EE
:1003800014CA040838B5D0E90221491E01EB410125
:1003900002EBC1014268C1EB011102EB810102686D
:1003A000C1EB011102EB8102D0E9043101EB410103
:1003B00003EB81013023A1F5527191FBF3F4174D4A
:1003C0006C4302EBC41291FBF3F403FB1411009293
:1003D0001A2902DB124B1A4400920C2291FBF2F311
:1003E000104C6343009C04EBC313009391FBF2F3A6
:1003F00002FB13110C4A08E0491E40F2A324535C8F
:100400006343009C04EBC31300930029F4DC014612
:10041000684600F0B1FD009838BD00003F0C0F00A9
:100420008051010067C2030090C9040870B50546F9
:1004300001B90721541A241DB4F5B67F09DD2868D7
:1004400000F036F9A04204DC2868401C2860012036
:1004500070BD002C05DA2868401E286000F028F9DD
:100460000444072094FBF0F0401C70BD2DE9F04FD0
:1004700089B01D468A468046002401AF4FF0070B25
:100480000192079057F8241011F8010B47F8241037
:1004900048B125280DD0BAF1010F06D908F8010B93
:1004A000AAF1010A5CE0641E5AE0002009B0BDE830
:1004B000F08F11F8010B47F824100028F3D0022622
:1004C0004FF030095A284BD020DC4D2873D014DC73
:1004D000442871D008DC2528DDD041282AD04228C4
:1004E0002ED043283CD130E0462847D0472857D06B
:1004F000482862D0492833D161E0523808282FD2E9
:10050000DFE800F0787AA6838A97A6A861381928D0
:1005100026D2DFE800F00D1318202E253513255CB8
:10052000252560642566256D257375258B9BA000A8
:100530006AA000E070A0A9690091B4E07DA000E08D
:1005400088482969F8E788A007E06969642091FB79
:10055000F0F0133082E0E86880E0641C47F8240083
:10056000002C8FDA002088F800000799A8EB010022
:100570009CE7E8684FF02009009070E07EA0ECE76F
:10058000686900F26C700090D5E906126846FFF7C2
:100590004DFF0099642091FBF0F200FB12105DE02A
:1005A0006869042600F26C700090D5E9061268466E
:1005B000FFF73CFF53E010E048E0A8684EE0A86871
:1005C0000C21173090FBF1F201FB120001E0E86909
:1005D0000326401C42E02869FBE768683EE069A00A
:1005E000BBE7A8680C2801DA67A0B6E767A0B4E704
:1005F00067A0B2E769A0B0E728682FE069A0ACE780
:10060000A869012608BB072028E0D5E90610401A92
:10061000C01D90FBFBF021E0686900F26C70009057
:10062000D5E906126846FFF701FF17E00126A86921
:1006300014E0A9695846891D91FBF0F20BFB1211D9
:10064000EA69511AC91D91FBFBF007E056A084E747
:1006500058A082E70426686900F26C7000900021BF
:100660008DF8181006A80A2113E0009A92FBF1F306
:1006700001FB1322303200F8012D009A92FBF1F2B7
:10068000009232B901E000F8019D321EA6F1010688
:10069000F9DC321EA6F10106E7DC5EE710F8011B6B
:1006A0000029FBD100994A1E00920029F6DC54E78C
:1006B00081070CD1642190FBF1F201FB120151B9C9
:1006C0004FF4C87190FBF1F201FB120018B1002049
:1006D00000F26D1070470120FAE7000053756E00BC
:1006E0004D6F6E0054756500576564005468750061
:1006F000467269005361740053756E646179004DF0
:100700006F6E646179005475657364617900576533
:10071000646E65736461790054687572736461799D
:10072000004672696461790053617475726461791D
:10073000000000004A616E00466562004D61720073
:10074000417072004D6179004A756E004A756C0007
:1007500041756700536570004F6374004E6F7600FB
:10076000446563009CC90408256120256220256535
:10077000202554202559000025592D256D2D25644F
:10078000000000000A000000414D0000504D000034
:1007900025493A254D3A25532025700025483A250C
:1007A0004D00000009000000256D2F25642F2579DC
:1007B0000000000025483A254D3A2553000000006E
:1007C00010B5431A934209D28318881803E010F831
:1007D000011D03F8011D521EF9D210BD40EA0103AC
:1007E0009B0703D009E008C9121F08C0042AFAD2E7
:1007F00003E011F8013B00F8013B521EF9D210BD95
:10080000D2B201E000F8012B491EFBD27047002252
:10081000F6E710B513460A4604461946FFF7F0FFFF
:10082000204610BD30B505462A460B4612F8010B8E
:1008300013F8014B08B1A042F8D01CB1002802D037
:100840006D1CF1E7284630BDCAB2401E10F8011FEA
:100850008A4202D00029F9D100207047421C10F8CA
:10086000011B0029FBD1801A704710B5002200E05F
:10087000521C835C8C5CA34201D1002BF8D1D8B20E
:10088000E1B2401A10BDCBB203E00178994203D027
:10089000401C521EF9D20020704730B5044600209B
:1008A000034600E05B1C934203D2E05CCD5C401B3E
:1008B000F8D030BDFFF7D9BF034611F8012B00F87F
:1008C000012B002AF9D11846704730B505460020A3
:1008D000034600E05B1C934205D2EC5CC85C201A26
:1008E00001D1002CF6D130BD30B503461D783DB1A5
:1008F0000A4612F8014B1CB1AC42FAD15B1CF5E779
:10090000181A30BD10B508E00A4602E0A34208D02C
:10091000521C1378002BF9D1401C0478002CF3D121
:10092000002010BD07280FD2DFE800F00406080EF3
:100930000E0C0A0005A070470AA0704713A070476C
:100940001DA0704722A070472BA070474E6F2065F6
:1009500072726F7220286572726E6F203D2030298E
:100960000000000045444F4D202D2066756E6374D5
:10097000696F6E20617267756D656E74206F757436
:10098000206F662072616E67650000004552414E1F
:100990004745202D2066756E6374696F6E20726501
:1009A00073756C74206E6F742072657072657365F8
:1009B0006E7461626C650000454E4F4D454D202DB3
:1009C000206F7574206F66206D656D6F7279000001
:1009D00045494E56414C202D20696E76616C696404
:1009E00020617267756D656E7420746F2066756E18
:1009F0006374696F6E000000556E6B6E6F776E20CA
:100A00006572726F7200000070B5054C054D03E011
:100A1000206820448047241DAC42F9D170BD0000FD
:100A2000FCD504081CD604082DE9F04107461546FC
:100A30000E46102009F0CEFC04000AD06760C4E91D
:100A4000026500F03BFB0168216004600020BDE806
:100A5000F0810120FBE72DE9FE4F804681EA03008B
:100A6000C00F0C46009021F0004123F00045B8EB88
:100A70000200A94105D24046214690461C460B463D
:100A8000024623F00040104347D0270DC7F30A0069
:100A9000C3F30A510290401A019040286BDAC3F365
:100AA000130040F4801B0098924620B10023D2EB43
:100AB000030A63EB0B0B01985946C0F14002504604
:100AC00000F023FA06460D4650465946019A00F0BA
:100AD0003BFA10EB08006141002487EA115284EAD6
:100AE000E7731A4340D0009A62B3019A012A4FEA91
:100AF000075215DC001B61EB02014FF0004202EAD5
:100B00000752CDE90042001C41F5801132462B46C8
:100B100000F069FB03B0BDE8F08F40462146F9E7DD
:100B2000001B61EB0201001C41F5801300185B41C2
:100B30002018A2F5001747EB030140EAD570B6195B
:100B40006D4111E06D084FEA360645EAC0754FEA7F
:100B50000752001B61EB0201001C41F5801149089E
:100B60004FEA30000019514132462B4603B0BDE830
:100B7000F04F00F029BB0098012240000023D0EB89
:100B8000020263EBE073009821464FEAE074B8EB91
:100B9000000061EB0401E9E783F000435BE781F0CB
:100BA000004158E72DE9FE4F81EA030404F00044B8
:100BB00021F0004100944FF0000B23F0004350EA75
:100BC00001045ED052EA03045BD0C3F30A54C1F3BC
:100BD0000A552C44A4F2F3340194A0FB0254C1F34F
:100BE000130141F48011C3F3130343F4801301FB99
:100BF000024400FB034E840A970A44EA815447EA00
:100C00008357A4FB076802958D0A05FB07854FEA09
:100C1000932C04FB0C542705029D4FEA065847EA23
:100C20001637B5EB08056EEB070C870E920E47EAF8
:100C3000811742EA8312A7FB0201B6EB0B0164EBBA
:100C400000042B0D43EA0C335E1844EB1C50DA46CB
:100C50005146E7FB0201C5F313044FEA0B3343EAA5
:100C600014534FEA0432019C43EA0603A4F10C0436
:100C70000294009CCDE900B400F0B5FA03B0BDE8E1
:100C8000F08F00200146F9E72DE9F04D81EA0304D9
:100C900004F0004B21F0004514464FF0000A23F009
:100CA000004150EA050220D054EA01021DD0C5F3EC
:100CB0000A570246C5F31303C1F31300C1F30A56E2
:100CC00040F4801543F48013A7EB0608101BD646AA
:100CD00008F2FD3873EB050002D308F1010801E0CA
:100CE00092185B41B8F1000F03DA00200146BDE81D
:100CF000F08D00204FF48011064684460EE0171B4D
:100D000073EB050705D3121B63EB050306434CEA9F
:100D1000010C49084FEA300092185B4150EA010784
:100D2000EDD152EA030012D082EA040083EA050101
:100D3000084305D0101BAB4106D20122002306E078
:100D400000224FF0004302E06FF0010253101AEB53
:100D500006004CEB085110EB0A0041EB0B01BDE81B
:100D6000F04D00F031BA0EB5C10F80EAE0700844D2
:100D7000CA07002140F233438DE80E000A460B46B5
:100D800000F031FA03B000BD0EB540F233410291DC
:100D90000021CDE900110A460B4600F024FA03B009
:100DA00000BD70B5C1F30A5201F000450024C1F343
:100DB000130140F2FF3341F480119A4201DA00201E
:100DC00070BD40F233439A42A2F2334203DC5242F6
:100DD00000F0AAF800E090402C43F1D0404270BDF2
:100DE00000F0004230F000400AD0C10D01F5607102
:100DF000C0F3160042EA0151C20840071143704790
:100E0000002001467047000030B5041E71F1000457
:100E100004DB4FF00044404264EB0101141E73F107
:100E2000000405DB1C464FF00043524263EB040311
:100E30008B4208BF824230BD30B5041E71F1000400
:100E400004DB4FF00044404264EB0101141E73F1D7
:100E5000000405DB1C464FF00043524263EB0403E1
:100E6000994208BF904230BD01F0004330B421F0F8
:100E7000004150EA010206D00A0DA2F56072C1F3EA
:100E80001301002A02DC30BC00207047440F44EA02
:100E9000C104C100E01830BC00EBC25000F034B90E
:100EA000A0E8004FF0C040F804DB01B5AFF30080CC
:100EB000BDE8024001C10020704700F12C080C463B
:100EC00058F8040DAFF3008058F8040D8546200053
:100ED00008BF012038E9F00018E9004F704730B52D
:100EE0000B46014600202022012409E021FA02F5E8
:100EF0009D4205D303FA02F5491B04FA02F5284482
:100F0000151EA2F10102F1DC30BD202A04DB203ADB
:100F100000FA02F1002070479140C2F1200320FA4C
:100F200003F3194390407047202A04DB203A21FA4A
:100F300002F00021704721FA02F3D040C2F12002F2
:100F40009140084319467047202A06DBCB17203A08
:100F500041FA02F043EAE07306E041FA02F3D040BE
:100F6000C2F120029140084319467047014900F040
:100F700003B80000E08C012010B500683C22B0FBF3
:100F8000F2F302FB1303B0FBF2F00B60B0FBF2F3E1
:100F900002FB1303B0FBF2F018224B60B0FBF2F33C
:100FA00002FB1303B0FBF2F0021D8B600723B2FBC0
:100FB000F3F403FB1422800040F2B55300F66C30CA
:100FC0008A61B0FBF3F2B0FBF3F403FB140044328C
:100FD00080084A61C8613B2802D3920700D0401CB8
:100FE0000022074C13460A61E25C824203D8801A51
:100FF0005B1C0B61F8E7401CC860084610BD000090
:101000004CCA04080FB4002300B589B00CA90091A4
:101010000B996FF00042CB601E4B06931E4B07935B
:101020000423CDE901321D4A089202466B46002096
:1010300000F01EFA09B05DF814FB70B586B00646E4
:101040004FF0FF300091CDE90101002015460C461C
:1010500004903246694604A8FFF7D4FF024604987C
:10106000211825B108B1084600E020462860049800
:1010700000280DD0002A02DD0098884208D0081B05
:101080000094CDE901043246694604A8FFF7BAFF8F
:1010900006B070BDA9160008C71600082D03000889
:1010A0007CB50023CDE9003305466846FFF7C5FF50
:1010B0006946284609F0DEF97CBD0000004870470B
:1010C0000807001070472DE9F0410646FFF7F6FFCC
:1010D0008046454613E016B1E068B0420ED1206864
:1010E0002860D4E90101D8F800708847204607F04D
:1010F000CDFCD8F80000B842EBD100E025462C68C2
:10110000002CE8D1BDE8F0810029A8BF7047401C41
:10111000490008BF20F00100704710B4B0FA80FC0D
:1011200000FA0CF050EA010404BF10BC704749B14A
:10113000CCF1200421FA04F411FA0CF118BF0121BA
:1011400021430843A3EB0C01CB1D4FEA00614FEA9A
:10115000102042BF002010BC704700EBC350104469
:101160000029A4BF10BC7047401C490008BF20F0F4
:10117000010010BC7047F0B400F0004221F00041C3
:1011800020F00040CE0DC30DC1F3160141F4000163
:10119000C0F316004C42154640F40000761E09E0EC
:1011A00010EB440002D582F0004240428842F7D85A
:1011B00040005B1EB342F9DA18B1F0BC0021FFF722
:1011C000ACBF2846F0BC704710B5141E73F1000484
:1011D00008DA401C41F1000192185B411A4301D129
:1011E00020F0010010BD2DE9F04D92469B4611B153
:1011F000B1FA81F202E0B0FA80F220329046FFF7B5
:1012000084FE04460F4640EA0A0041EA0B015346B9
:101210005A46084313D0114653EA010019D0C8F1C9
:1012200040025046FFF780FE05460E46504659469E
:101230004246FFF76AFE084305D0012004E020463D
:101240003946BDE8F08D0020054346EAE0762C43A0
:1012500037430A986305E40AA0EB08000022FD0A60
:1012600044EA47540A3002D500200146E9E7010567
:1012700010196941DDE9084500196941BDE8F04DE3
:10128000A2E7C1F30A52C1F3130140F2FF3341F464
:1012900080119A4202DA00200146704740F233433F
:1012A0009A42A2F2334202DC5242FFF73DBEFFF700
:1012B0002CBE00207047AFF3008010B500F00DF891
:1012C000016919B100220261884701E08068804706
:1012D000AFF3008010B5AFF3008070B500F008FAEE
:1012E00004680546A4B9202009F074F8040011D060
:1012F000094900202C60C4E900010849A16020735D
:10130000206160610649A06109B100F0F9F9E0616E
:10131000204670BDAFF3008000000000D512000829
:1013200000000000064C074D06E0E06840F00103B5
:1013300094E8070098471034AC42F6D3FEF728FF34
:10134000BCD50408FCD504082DE9FF4F087883B00C
:101350009946FF2805D0491C2D2804D000240020E0
:1013600008E000200BE00124F9E700EB800003EB2C
:101370004000491C0B78FF2BF7D104B140420023F9
:101380000293147819461D462D2C01D02B2C04D124
:10139000521C2D2C13D000240294AA461478FF2C42
:1013A0000FD00A25A3FB057801FB05814FF0000C47
:1013B00003FB0C11521CE3194AEB0101EEE7012477
:1013C000EAE7814453EA010002D019F5C87F06DA42
:1013D00003980021C0E9001107B0BDE8F08F002597
:1013E000AE4E2F46DFF8B882184600F0A7F9CDE9D7
:1013F0000001B9F1000002DAC9F1000400E004467E
:101400000023A74A1AEB030B42EB045A12E0E00751
:1014100007D02A46334638464146FFF7C3FB074606
:1014200088462A46334610461946FFF7BBFB054659
:101430000E466410002CEAD1DDE90001B9F1000F7D
:101440005A46534606DAFFF71FFC3A464346FFF773
:101450001BFC05E0FFF7A6FB3A464346FFF7A2FB5D
:10146000029A0AB181F00041039AC2E90001B3E790
:101470002DE9FF4F1F468DB0D7E901464FF0FF38E9
:101480002E2045464FF000090B90B9696D1C0E984F
:101490008847396A824688470028F6D1BAF1FF3F6B
:1014A0000AD024F4D064002E11DDBAF12B0F08D03D
:1014B000BAF12D0F0BD102E0404611B08DE744F494
:1014C0008064B9696D1C0E9888478246761E69460D
:1014D000600501D52D2000E02B208DF8000001F1E2
:1014E000010B0DF1200809E0B9696D1C0E988847C1
:1014F00082460F9844F40074761E0560002E02DDCB
:10150000BAF1300FF0D00B998A453ED144F08004F7
:1015100006E00F99681CA9F1010944F40074086001
:10152000B9696D1C761E0E98884782463028F0D027
:101530002BE00B998A4505D1200603D444F08004A2
:10154000761E18E0504609F0E1F908B30DF11301D9
:10155000761E44F400748B4508D2AAF130000BF8D3
:10156000010B200607D5A9F1010003E0200602D4F3
:1015700009F101008146A00502D50F99681C086099
:10158000B9696D1C0E9888478246002ED1DC53E065
:10159000002E51DDBAF1650F02D0BAF1450F4BD1E3
:1015A000A00549D5B9696D1C24F44074761E0E98C7
:1015B00088478246002E0CDD2B2804D0BAF12D0F6F
:1015C00007D144F48074B9696D1C0E98884782462F
:1015D000761EE00501D52D2100E02B2108F8011B26
:1015E000CDF82C8021E00DF12901761E44F4007421
:1015F00088450CD2AAF1300010F0FF0088F80000F6
:1016000002D10B99884509D908F1010806E0E005E7
:1016100001D5244801E042F20F708146B9696D1C82
:101620000E98884782460F980560002E04DD5046CC
:1016300009F06CF90028D6D1F9690E988847FF2087
:101640008BF8000088F800000020069007904B46B9
:101650006A4608A906A8FFF777FEA00502D46FF036
:1016600001002AE714F0240F0AD0E00714D1DDE9C5
:1016700006123868031D3B600068C0E900120BE0E9
:10168000DDE90601FFF7F0FB0146E00704D1386809
:10169000021D3A600068016028460EE70000144011
:1016A0000000F03FF1D8FFFF426842B1016811F835
:1016B000013B23B1521EC0E90012184670470121B8
:1016C000C160881E704742685AB1C368016843B957
:1016D00083688B4205D0491E521CC0E900120020CD
:1016E00070474FF0FF307047704700000348704765
:1016F0000248001D011F8860001D70470C07001084
:1017000010B5882008F066FE002801D00021017085
:1017100010BD802902D808B1017809B100207047B6
:10172000012100F8081B704718B100F1080291422E
:1017300001D0002070470021017070470EB540F2C3
:10174000334202920022CDE900221346FFF74BFDFF
:1017500003B000BD70B58C1810F8015B15F00703DD
:1017600001D110F8013B2A1106D110F8012B03E03A
:1017700010F8016B01F8016B5B1EF9D12B0705D442
:101780000023521E0DD401F8013BFAE710F8013B8B
:10179000CB1A921C03E013F8015B01F8015B521EA7
:1017A000F9D5A142D8D3002070BD0029816814BFAB
:1017B00041F0010121F00101816070470849D1F831
:1017C0000423084B1A40D0E9003C43EA0C03D0E95B
:1017D00002C04CEA000018431043C1F804037047EC
:1017E00000200140E030FCFF30B42E4C2E4B6178DD
:1017F00061B9991E09224FF0FF0C00BFA1F802C089
:1018000021F804CF521EF9D101216170002818BFC0
:10181000012825D0022818BF032821D0042818BF8A
:1018200005281DD0062818BF072819D0082818BF7A
:10183000092815D00A2818BF0B2811D00C2818BF6A
:101840000D280DD00E2818BF0F2809D0102818BF5A
:10185000112805D012281EBF4FF0FF3030BC704752
:1018600000212278002A0FD933F8115001F101012B
:10187000854206D100291EBF6FF0010030BC7047C1
:1018800002E0C9B29142EFD3122A22BF6FF00200E8
:1018900030BC704723F81200501CC0B2207030BC1E
:1018A000401E7047100000104C0D0020C06C80B22C
:1018B00070470246002012680A4218BF0120704794
:1018C00010B4426891F804C022F4807222F0407291
:1018D0000B6842EA0C221A43426082680C4B4C7936
:1018E0001A40D1E903C343EA0C03D1F808C04CEA1B
:1018F000440C43EA0C031A438260C26A097D22F455
:101900007002491EC9B242EA0151C16210BC70475F
:10191000FDF7FFC030B4072409290DD9C568A1F12E
:101920000A0C0CEB4C0C04FA0CF425EA040403FA40
:101930000CF32343C3600AE0056901EB410C04FA90
:101940000CF425EA040403FA0CF3234303611F2378
:10195000072A0CD2D0F834C0521E02EB8202934008
:101960002CEA030391401943416330BC70470D2AB0
:101970000CD2D0F830C0D21F02EB820293402CEA86
:10198000030391401943016330BC7047D0F82CC069
:101990000D3A02EB820293402CEA03039140194373
:1019A000C16230BC7047816841F0804181607047FE
:1019B00030B50546A0F180408BB0B0F5903009D02D
:1019C0001F48854210D10021401501F075F8012112
:1019D000480215E000214FF4807001F06DF80121FC
:1019E000080201F05DF80DE0A5F18040B0F59130FE
:1019F00008D100214FF4806001F05EF801218802D7
:101A000001F04EF8002406944FF480300994CDE99B
:101A1000070406A8FFF7D2FE009401208DF80440C9
:101A20008DF814008DF80540029404946946284608
:101A3000FFF746FF01212846FFF7B7FE0BB030BD88
:101A40000021014010B501F0ADF80C484FF47A7157
:101A50000B4A0068B0FBF1F0431E0021B3F1807F18
:101A600008D24FF0E0204361F02382F8143D8161F9
:101A70000723036182F8141D10BD0000F80A00203E
:101A80000FE000E02DE9F84F0546D068144620B974
:101A9000A86C884218BF114601D11146002000F001
:101AA00071F9686A009020696946042220B9D4E976
:101AB000000CA368E0472061A86A0090206969468D
:101AC000042220B9D4E9000CA368E0472061A8797A
:101AD0008DF8000020696946012220B9D4E9000C84
:101AE000A368E0472061E8798DF800002069694625
:101AF000012220B9D4E9000CA368E0472061287ACC
:101B00008DF8000020696946012220B9D4E9000C53
:101B1000A368E04720616869009020696946042253
:101B200020B9D4E9000CA368E04720616869296BFB
:101B30008200206928B922B1D4E9000CA368E047EB
:101B40002061D5F81080CDF8008020696946042214
:101B500020B9D4E9000CA368E04720610027B8F160
:101B6000000F45DDE86A694600EBC70601223079BF
:101B700000F03F008DF80000206920B9D4E9000C86
:101B8000A368E0472061307900F03F00042828D0A6
:101B900005DC28B3012807D003280DD025E0132841
:101BA00013D014281DD020E030788DF80000206973
:101BB00069460122A0B90EE096ED000A69468DED56
:101BC000000A2069042258B905E0306800902069B5
:101BD0006946042220B9D4E9000CA368E0472061DB
:101BE00003E02146306800F0CDF87F1C4745B9DBA3
:101BF000EF68009720696946042220B9D4E9000CF7
:101C0000A368E047206100264FF00409002FC8BFF9
:101C10004FF0050821DD00BF286C09EBC601012249
:101C2000405C8DF800002069694620B9D4E9000CB9
:101C3000A368E0472061296C08EBC6000122085C1C
:101C40008DF800002069694620B9D4E9000CA3682A
:101C5000E0472061761CBE42DEDB2146284600F0CC
:101C600073F8E068002814BF0026AE696946009644
:101C70002069042220B9D4E9000CA368E047206160
:101C8000A96BB20028B922B1D4E9000CA368E047DF
:101C90002061E068002814BF00272F6A694600977A
:101CA0002069042220B9D4E9000CA368E047206130
:101CB0000026002FC8BF4FF0080A26DDE86B06EBB0
:101CC0004608214650F8280000F05CF8E86B09EB64
:101CD00088010422405800902069694620B9D4E95F
:101CE000000CA368E0472061E86B0AEB880104223E
:101CF000405800902069694620B9D4E9000CA368D7
:101D0000E0472061761CBE42D8DBE068002814BFA3
:101D10000027EF68694600972069042220B9D4E9BA
:101D2000000CA368E04720610026002FD8BFBDE863
:101D3000F88F286C214650F8360000F023F8761C06
:101D4000B742F6DCBDE8F88FF8B50D46C769064620
:101D5000009728696946042220B9D5E9000CAB68D0
:101D6000E04728610024002FD8BFF8BD706B2A46D9
:101D7000B16C50F82400FFF785FE641CA742F5DC27
:101D8000F8BD000030B50B6983B00C4680B1017915
:101D900004290CBFC179C168491C00F110050091EC
:101DA000FF2916D28DF8041001A901222BBB1FE0D8
:101DB000002001228DF800006946002B1CBF03B0F3
:101DC00030BD00BFD4E9000CA368E047206103B038
:101DD00030BDFF208DF8040001A9012223B9D4E908
:101DE000000CA368E047206120696946042220B9FD
:101DF000D4E9000CA368E047206100982946421E00
:101E0000206900281CBF03B030BD002ADAD103B01E
:101E100030BD000010B5012000F000F9002808BF17
:101E200010BD05480068002818BF80470120BDE8A4
:101E3000104000F0EDB800006C07001010B54FF432
:101E4000806000F0EBF8274C38B1A06A002818BF7A
:101E500080474FF4806000F0DBF84FF4006000F042
:101E6000DDF838B1E06A002818BF80474FF4006001
:101E700000F0CEF84FF4805000F0D0F838B1206B6D
:101E8000002818BF80474FF4805000F0C1F84FF48D
:101E9000005000F0C3F838B1606B002818BF8047CD
:101EA0004FF4005000F0B4F84FF4804000F0B6F862
:101EB00038B1A06B002818BF80474FF4804000F075
:101EC000A7F84FF4004000F0A9F8002808BF10BDA3
:101ED000E06B002818BF80474FF40040BDE8104079
:101EE00000F096B86C07001010B5022000F096F8CC
:101EF000002808BF10BD05484068002818BF80476B
:101F00000220BDE8104000F083B800006C0700100C
:101F100010B5042000F082F8002808BF10BD054865
:101F20008068002818BF80470420BDE8104000F0FA
:101F30006FB800006C07001010B5082000F06EF8B4
:101F4000002808BF10BD0548C068002818BF80479A
:101F50000820BDE8104000F05BB800006C070010DE
:101F600010B5102000F05AF8002808BF10BD054831
:101F70000069002818BF80471020BDE8104000F01D
:101F800047B800006C07001010B5202000F046F89C
:101F90001E4C30B16069002818BF8047202000F037
:101FA00037F8402000F03AF830B1A069002818BF97
:101FB0008047402000F02CF8802000F02FF830B14E
:101FC000E069002818BF8047802000F021F84FF416
:101FD000807000F023F838B1206A002818BF8047CD
:101FE0004FF4807000F014F84FF4007000F016F811
:101FF000002808BF10BD606A002818BF80474FF452
:102000000070BDE8104000F003B800006C0700103D
:102010000149086070470000143C0140034A014632
:10202000002012680A4218BF01207047143C01408A
:102030002DE9F001002201255FF00306D1F800C070
:1020400005FA02F30CEA030C9C4537D107684FEA06
:10205000420C06FA0CF4A74307600F79D0F8008011
:1020600007FA0CF747EA080707600F79012F18BF36
:10207000022F17D1876827EA040787604F79D0F8C5
:10208000088007FA0CF747EA08078760476827EADD
:102090000303436043688F7907FA02F7BFB243EA4C
:1020A00007034360C36823EA0403C360CB7903FAE0
:1020B0000CF3D0F80CC043EA0C03C36002F1010238
:1020C000102ABBD3BDE8F00170474B07DB0E9A40E6
:1020D000C90800EB8100016A4FF00F0C0CFA03F302
:1020E00099430162016A11430162704730B50446A9
:1020F000A0F1804083B0B0F5003008BF012049D086
:10210000A4F18040B0F5013008BF022042D0A4F114
:102110008040B0F5023008BF04203BD0A4F18040DD
:10212000B0F5033008BF082034D0A4F18040B0F5EA
:10213000043008BF10202DD0A4F18040B0F5053048
:1021400008BF202026D0A4F18040B0F5063008BF9B
:1021500040201FD0A4F18040B0F5073008BF802098
:1021600018D0A4F18040B0F5083008BF4FF480705B
:1021700010D0A4F18040B0F5093008BF4FF40070D2
:1021800008D0A4F18040B0F50A300EBF4FF4806053
:1021900003B030BD002A04BF4FF0000C624623D0CC
:1021A000012A04BF4FF0000C01221DD0022A04BFF7
:1021B0004FF0000C022217D0032A08BF4FF0030C87
:1021C00011D0052A08BF4FF0010C0BD0062A04BF1E
:1021D0004FF0010C654606D0072A0EBF4FF0020CE7
:1021E00003B030BD002500228DF804C08DF8053005
:1021F00000918DF806508DF80720012100F038FC81
:1022000069462046FFF714FF03B030BD10B5044601
:1022100006230122FFF77EFB2046FFF7C4FB0221C5
:102220002046FFF746FB0028F9D02046BDE81040C5
:10223000FFF73CBB0021012804D9491C400889B2A2
:102240000128FAD8C8B27047064901EB00100021F6
:102250008089012804D9491C400889B20128FAD88C
:10226000C8B2704718BD030882B019A002F01AFD69
:102270001A484FF47A710068B0FBF1F042F2107125
:1022800048431749A1FB0010800800900028D8BFE0
:10229000002104DD10F001011CBF421E0092401A13
:1022A000002804DD811E801E00910028FADC0098C1
:1022B000401E0090BFF34F8F0A4801680A4A01F49C
:1022C000E06111430160BFF34F8F00BFFDE70000E5
:1022D000666174616C206572726F7200F80A00208A
:1022E000CDCCCCCC0CED00E00400FA0538B50446AA
:1022F00069460122406819F0FAF950B1064BA2680C
:1023000003F10C01206815F000FE0321206811F094
:1023100013FF9DF8000038BD842800082DE9F84F10
:1023200016460C46054600F05BFAA064002808BF7C
:10233000A664284600F0FAF96062284600F0F6F933
:10234000A0622846FFF7D2FFA0712846FFF7CEFF14
:10235000E0712846FFF7CAFF2072284600F0E6F930
:102360000746401CB0F1804F24BF286815F0C8FB19
:10237000BE00002233461146286815F095FB6761C0
:1023800020636B6801463246184619F0B0F950B127
:10239000E44BAA6803F10C01286815F0B6FD03218F
:1023A000286811F0C9FE284600F0C0F90746401C15
:1023B000B0F1005F24BF286815F0A2FBFB000022EB
:1023C0001146286815F070FB276102464FF000099E
:1023D0004FF0040AE062002F17DD002117F0010022
:1023E0001CBFC2F804900121B8420EDAE26A0AEB7F
:1023F000C103491C42F803900AEBC103E26A801C46
:10240000491C42F80390B842F0DB4FF00008002F5F
:10241000C8BF4FF0130B76DDE06A694600EBC806D3
:102420000122686819F063F950B1BE4BAA6803F144
:102430000C01286815F069FD0321286811F07CFE65
:102440009DF80000042852D009DC002808BFC6F817
:10245000049054D0012807D003281CD04FE0132843
:1024600030D0142843D04AE069460122686819F048
:102470003EF950B1AB4BAA6803F10C01286815F086
:1024800044FD0321286811F057FE9DF800003060DC
:102490000120706033E069460422686819F027F96A
:1024A00050B1A04BAA6803F10C01286815F02DFD6E
:1024B0000321286811F040FE9DED000A032086EDFF
:1024C000000A1BE069460422686819F010F950B14F
:1024D000944BAA6803F10C01286815F016FD03213E
:1024E000286811F029FE0098C6E9000B07E028468D
:1024F00000F076F93060007940F04000706008F13B
:102500000108B84588DB284600F010F90646401C53
:10251000B0F1005F24BF286815F0F2FAF300002242
:102520001146286815F0C0FAE66002462064002EC5
:1025300013DD002116F001001CBFC2F8009001213C
:10254000B0420ADA226C801C42F83190226C491C9D
:1025500042F83190491CB042F4DB0027002EC8BF7E
:102560004FF0050830DD69460122686819F0BFF8B0
:1025700050B16C4BAA6803F10C01286815F0C5FC3A
:102580000321286811F0D8FD206C0AEBC7019DF8E3
:102590000020425469460122686819F0A8F850B139
:1025A000604BAA6803F10C01286815F0AEFC03210A
:1025B000286811F0C1FD08EBC702216C9DF80000EE
:1025C0007F1C8854B742CEDB2146284600F0C6F86F
:1025D000284600F0ABF80646401CB0F1804F24BFFF
:1025E000286815F08DFAB70000223B46114628688E
:1025F00015F05AFAA661A0636B6801463A46184680
:1026000019F075F850B1474BAA6803F10C0128681E
:1026100015F07BFC0321286811F08EFD284600F0A0
:1026200085F806464049401C884284BF286815F05A
:1026300067FA06EB4600830000221146286815F071
:1026400033FA26620246E063002E18DD002116F000
:1026500001001CBFC2F800900121B0420FDA00BF98
:10266000E26B01EB4103491C42F8239001EB41026C
:10267000E36B801C491C43F82290B042F0DB00273A
:10268000002EC8BF4FF0080937DD284600F0A8F833
:102690000146E06B07EB4708042240F82810694622
:1026A000686819F024F850B11E4BAA6803F10C01B8
:1026B000286815F02AFC0321286811F03DFDE16B24
:1026C0000AEB88030098C85052466946686819F0BA
:1026D0000EF850B1134BAA6803F10C01286815F0ED
:1026E00014FC0321286811F027FDE26B09EB880038
:1026F00000997F1C1150B742C7DB284600F016F83E
:10270000071E4FF00006D8BFBDE8F88F284600F03E
:1027100067F8216C41F83600761CB742F6DCBDE85C
:10272000F88F0000842800085555551538B5044623
:1027300069460422406818F0DAFF50B1064BA268DF
:1027400003F10C01206815F0E0FB0321206811F073
:10275000F3FC009838BD0000842800082DE9F04102
:102760000D460746FFF7E2FF0446401CB0F1804FDC
:1027700024BF386815F0C4F9A30000221146386858
:1027800015F092F9EC6103466863002C13DD00221A
:1027900014F0010011461CBF19600122A0420ADAA0
:1027A0006B6B801C43F822106B6B521C43F8221099
:1027B000521CA042F4DB0026002CD8BFBDE8F081FB
:1027C000386811F087FE696B41F8260001463846EB
:1027D000AA6CFFF7A3FD761CB442F1DCBDE8F081E2
:1027E00030B58DB00446FFF781FD0090FF280FD172
:1027F00069460422606818F07AFF48B121A324A139
:10280000A268206815F081FB0321206811F094FC78
:102810000098002804BF0DB030BD411E009128294A
:1028200017D802AB0A461946606818F060FF48B135
:1028300014A317A1A268206815F067FB0321206884
:1028400011F07AFC206802A9009A15F0BDFE0DB0C7
:1028500030BD206815F0FFFD054600F11001009A1B
:10286000606818F044FF48B106A309A1A268206877
:1028700015F04BFB0321206811F05EFC0DB02846DB
:1028800030BD00007472756E636174656400000091
:1028900025733A20257320707265636F6D70696CC3
:1028A0006564206368756E6B0000000010B4C27828
:1028B00001780F244FF0010C0AB3174A126801F196
:1028C000E02102F4E062C2F5E062C2F30722C2F145
:1028D0000403D44042789A40837823401A4312017B
:1028E00081F80024007800F01F010CFA01F1400982
:1028F000800000F1E020C0F8001110BC704701F02A
:102900001F000CFA00F04909890001F1E021C1F82B
:10291000800110BC704700000CED00E0034940F05E
:10292000FD7040F080600860704700000CED00E032
:102930002DE9F04717460E468046B02814D2484885
:1029400000EB0815686800281CBFA87B00280BD086
:10295000002E18BF002F07D0DFF8089106FB07F004
:10296000D9F80010884202D90020BDE8F08707217D
:10297000404630F04BFC3C4A68680024811A904283
:1029800034D018DC394AA0EB0201904228D00BDC8D
:10299000B0F1804F21D0A0F58060B0F1804018BF29
:1029A000B0F5806F1CD023E0B1F5406F18BFB1F5D2
:1029B000805F1DD11AE0B1F5903F14D006DCB1F56F
:1029C000604F0AD0B1F5644F0DD011E0B1F5923FE0
:1029D00018BFB1F5943F0BD105E04FF0010407E0BB
:1029E0004FF0020404E04FF0030401E04FF009044B
:1029F0004046FFF729FC2B68014622461846FFF7A0
:102A000064FBD9F80000B0FBF6F0B0FBF7F468689F
:102A1000A0F18041B1F580311CBFA0F18041B1F53A
:102A200082310FD0A0F18041B1F5A0311CBFA0F1DF
:102A30008041B1F5A23105D0A0F18041B1F5A431BA
:102A400018BF6408002100F02AFA601E82B2701ECE
:102A500081B2AB7B686800F093FBA87BBDE8F08790
:102A600018BD0308F80A002000200040000C0040B8
:102A7000044A0029116814BF084321EA00001060CD
:102A80007047000030380240044A0029116814BF22
:102A9000084321EA000010607047000040380240FF
:102AA000044A0029116814BF084321EA000010609D
:102AB0007047000044380240044A0029116814BFDE
:102AC000084321EA000010607047000024380240EB
:102AD000254A30B41168254B11F00C0106D05C106A
:102AE000042908BF046002D008291ED003601168C1
:102AF0000F2303EA11111E4B595CD0F800C02CFAC9
:102B000001F14160D2F800C0072404EA9C2C13F8BC
:102B10000CC021FA0CFCC0F808C0126804EA52325A
:102B20009A5CD140C16030BC70471249D1F800C0F6
:102B3000CCF38055D1F800C0002D0CF03F0C14BF31
:102B4000B4FBFCF3B3FBFCF3D1F800C00968CCF391
:102B5000881C03FB0CF3C1F30141491C4900B3FB82
:102B6000F1F10160C3E70000083802400024F400DE
:102B7000E80A00200438024010B5502080F3118884
:102B8000BFF34F8FBFF36F8F38F080FB18B104494C
:102B90004FF080500860002080F3118810BD0000C5
:102BA00004ED00E0DFF86CC030B4DCF800001A4B34
:102BB00010F00C01194806D05C10042908BF04600D
:102BC00002D008290CD00360DCF80010144AC1F3CD
:102BD0000311515C026822FA01F1016030BC7047B8
:102BE00010490A68C2F380550A68002D02F03F02BE
:102BF00014BFB4FBF2F2B3FBF2F20B680968C3F343
:102C000088135A43C1F30141491C4900B2FBF1F159
:102C10000160D9E7083802400024F400F80A0020D7
:102C2000FC0A002004380240374882B0016841F4B1
:102C3000700101603548016841F0010101603449CB
:102C400000230B60026822F4102222F080720260DE
:102C500000F1040C2F4ACCF80020026822F48022F4
:102C600002600A1D136001930093026842F48032EF
:102C70000260026802F400320092019A521C019232
:102C8000009A1AB9019AB2F5A04FF2D1026812F473
:102C9000003F08BF009331D0012200921E4A136802
:102CA00043F0805313601D4A136843F4404313609C
:102CB0000A680A600A6842F400420A600A6842F43C
:102CC000A0520A60164ACCF80020026842F08072D6
:102CD0000260026812F0007FFBD0124A40F20570D9
:102CE0001060086820F003000860086840F00200E7
:102CF0000860086800F00C000828FAD10A494FF073
:102D00000060086002B0704788ED00E000380240C3
:102D10000838024010300024403802400070004063
:102D2000086C4007003C024008ED00E010B5094C7B
:102D30000121204600F0C7F8002808BF10BD064852
:102D40000168002918BF884701212046BDE81040CE
:102D500000F0A2B800000140AC07001010B501213E
:102D6000880700F0B0F8002808BF10BD054840688B
:102D7000002818BF80470121BDE81040880700F0F7
:102D80008BB80000AC07001010B5094C012120469B
:102D900000F099F8002808BF10BD06488168002996
:102DA00018BF884701212046BDE8104000F074B8E4
:102DB00000040040AC07001010B5094C012120466A
:102DC00000F081F8002808BF10BD0648C16800293E
:102DD00018BF884701212046BDE8104000F05CB8CC
:102DE00000080040AC07001010B5094C0121204636
:102DF00000F069F8002808BF10BD064801690029E5
:102E000018BF884701212046BDE8104000F044B8B3
:102E1000000C0040AC07001010B5094C0121204601
:102E200000F051F8002808BF10BD0648816900294C
:102E300018BF884701212046BDE8104000F02CB89B
:102E400000140040AC07001070B5104D0121284659
:102E500000F039F80E4C38B1E169002918BF8847F5
:102E60000121284600F018F80A4D0121284600F0FB
:102E70002AF8002808BF70BD216B002918BF8847B9
:102E800001212846BDE8704000F006B8000401406A
:102E9000AC070010001C0040C943018270470029A4
:102EA000018814BF41F0010121F001010180704748
:102EB0000029B0F8441014BF41F40041C1F30E01E1
:102EC000A0F844107047038A002280890B4200EA70
:102ED00001001CBF002801221046704710B4028C6C
:102EE00022F001020284038C8288B0F818C00C889A
:102EF0002CF0730C44EA0C0C8C8923F0020323435E
:102F00004C882343A0F18044B4F580341CBFA0F169
:102F10008044B4F582340DD1CC8923F008032343D7
:102F20008C8823F0040323430C8A22F4407222434A
:102F30004C8A22438280A0F818C0896841630384C8
:102F400010BC7047028B22F00802114301837047C6
:102F500030B4028C22F010020284038CB0F804C05A
:102F6000028B0D8822F4E6444FF6FF7202EA052533
:102F70002C438D8923F0200302EA05152B434D884D
:102F800002EA05152B43A0F18045B5F580351CBF3D
:102F9000A0F18045B5F5823517D1CD8923F08003A6
:102FA00002EA05152B438D8823F0400302EA05153C
:102FB0002B430D8A2CF4406C02EA850545EA0C0C83
:102FC0004D8A02EA850242EA0C0CA0F804C0048390
:102FD00089688163038430BC7047028B4FF6FF73AE
:102FE00022F4006203EA012111430183704730B4E7
:102FF000028C22F480720284028C8388B0F81CC098
:103000000C882CF0730C44EA0C0422F4007C8D89AB
:103010004FF6FF7202EA052545EA0C0C4D8802EADC
:10302000052545EA0C0CA0F18045B5F580351CBF9F
:10303000A0F18045B5F5823517D1CD892CF4006C0F
:1030400002EA052545EA0C0C8D882CF4806C02EA16
:10305000052545EA0C0C0D8A23F4405302EA0515B8
:103060002B434D8A02EA05121343838084838968C7
:10307000C163A0F820C030BC7047828B22F00802E8
:1030800011438183704730B4028C22F48052028451
:10309000048C8288838B0D8823F4E64C4FF6FF73F3
:1030A00003EA052545EA0C0C8D8924F4005403EA53
:1030B00005352C434D8803EA05352C43A0F18045A6
:1030C000B5F580351CBFA0F18045B5F5823505D139
:1030D0000D8A22F4804203EA85131A438280A0F805
:1030E0001CC089680164048430BC7047828B4FF631
:1030F000FF7322F4006203EA0121114381837047C8
:1031000010B402881C4BDFF874C0984218BF6045A9
:1031100011D0B0F1804F1CBFA0F18044B4F58064A1
:1031200009D0A0F18044B4F500641CBFA0F1804434
:10313000B4F5406403D14C8822F070022243A0F120
:103140008044B4F580541CBFA0F18044B4F5A05471
:1031500003D00C8922F44072224302804A68C26282
:103160000A880285984212BF6045897A01864FF02D
:103170000101818210BC7047000001400004014041
:103180002DE9FF4F4F4D504E504FDFF84481DFF88F
:10319000449189B092468B460446A84218BFB4F1C8
:1031A000804F31D0A4F18040B0F580601CBFA4F105
:1031B0008040B0F5006027D0A4F18040B0F54060B9
:1031C0001CBFA4F18040B0F580501DD0A4F1804018
:1031D000B0F5A05018BFB44216D0BC4218BF444549
:1031E00012D04C451CBFA4F18040B0F5C0500BD0AC
:1031F000A4F18040B0F5E0501FBFA4F18040B0F5CD
:1032000000500DB0BDE8F08F0121204600F064F8B9
:103210000020ADF814A0ADF81C00ADF81600CDF8F4
:1032200018B005A92046FFF76BFF7020ADF800002D
:103230000120ADF802000220ADF80C000C98012826
:1032400006D002280DD0032814D004281BD022E079
:1032500069462046FFF742FE08212046FFF772FE2E
:1032600019E069462046FFF773FE08212046FFF764
:10327000B4FE10E069462046FFF7B9FE082120465B
:10328000FFF7FBFE07E069462046FFF7FCFE08213A
:103290002046FFF72BFF01212046FFF700FEAC423E
:1032A00018BFB44206D0BC421FBF44454C450DB0C8
:1032B000BDE8F08F4FF001012046FFF7F9FD0DB09A
:1032C000BDE8F08F000001400004014000400140D3
:1032D0000044014000480140A0F18042B2F5803234
:1032E00043D0B0F1804F46D0A0F18042B2F5806269
:1032F0003ED0A0F18042B2F500623FD0A0F1804202
:10330000B2F540623DD0A0F18042B2F580523BD090
:10331000A0F18042B2F5A05239D0A0F18042B2F5BE
:10332000823237D0A0F18042B2F5A03235D0A0F180
:103330008042B2F5A23234D0A0F18042B2F5A4327C
:1033400033D0A0F18042B2F5C05232D0A0F1804219
:10335000B2F5E05230D0A0F18042B2F5005218BF71
:1033600070474FF48070FFF78FBB0120FFF798BBC9
:103370000220FFF789BB0120FFF786BB0420FFF77F
:1033800083BB0820FFF780BB1020FFF77DBB202008
:10339000FFF77ABB0220FFF783BB4FF48030FFF7C3
:1033A0007FBB4FF40030FFF77BBB4FF48020FFF76B
:1033B00077BB4020FFF768BB8020FFF765BB0000AC
:1033C00010B5124C40F22551206900F081F8002818
:1033D00008BF10BD206900F015F9C1B2208B628BC7
:1033E000401C00F07F00824204D0228B04F11C03B9
:1033F000D15420836069002818BF804740F22551CE
:103400002069BDE8104000F053B80000200B0020F8
:1034100010B5124C40F22551206900F059F80028EF
:1034200008BF10BD206900F0EDF8C1B2208B628B9F
:10343000401C00F07F00824204D0228B04F11C0368
:10344000D15420836069002818BF804740F225517D
:103450002069BDE8104000F02BB80000BC0B002034
:1034600010B5124C40F22551206900F031F80028C7
:1034700008BF10BD206900F0C5F8C1B2208B628B77
:10348000401C00F07F00824204D0228B04F11C0318
:10349000D15420836069002818BF804740F225512D
:1034A0002069BDE8104000F003B80000580C00206F
:1034B000090A012202FA01F1C9430180704700297B
:1034C000818914BF41F4005121F40051818170477A
:1034D00010B401F01F0201240023C1F3421C04FABE
:1034E00002F2BCF1010F04BFB0F80CC00CEA0202FA
:1034F00008D0BCF1020F0CBFB0F810C0B0F814C077
:103500000CEA0202090A008804FA01F10840002AC4
:103510001CBF00280123184610BC7047C1F342139A
:1035200001F01F014FF0010C0CFA01F1012B08BF53
:103530000C3003D0022B0CBF10301430002A02686C
:1035400014BF114322EA01010160704730B50446FF
:10355000008A85B00D46C98820F440500843208277
:10356000A089A9882A8920F4037011436A8920F46C
:10357000A05010430843A081A08AA98920F440707C
:103580000843A0826846FFF7A3FAA4F18040B0F593
:1035900088301BBFA4F18040B0F58A3003980298B0
:1035A000A18911F4004F00EBC00101EB0010296864
:1035B00014BF49008900B0FBF1F0114A6FF0180CFC
:1035C000A2FB0031490909010B0903FB0CF300EBD5
:1035D0008300A38913F4004F4FF0320314BF03EBB1
:1035E000C00003EB0010A2FB00204FEA501014BFF4
:1035F00000F0070000F00F000843208105B030BD47
:103600001F85EB518088C0F308007047C1F30801A3
:1036100081807047F8B500F099F91D493220B1F862
:103620008C20D1F880104A8309F0F6FD04256E46FF
:1036300000F002FC00F000FCBA2001F087F98120C4
:1036400001F084F9402001F081F900F0F5FB14202D
:1036500009F0ECFDBB2001F079F900246F1EBC429B
:1036600004D1002001F010F9305503E0012001F0F1
:103670000BF93055601CC4B2AC42F0D300F07EF9B7
:103680009DF80000392814BF00200120F8BD00007B
:1036900018BD03082DE9F04F9B4F9C498BB038783B
:1036A0009B4E401CC0B2A1FB0021C908494201EB5E
:1036B00081014FF0000B387010EB410102D00A2855
:1036C00080F005814FF02A08E94600F0B5FB00F0D4
:1036D000B3FBBA2001F03AF9812001F037F94E200E
:1036E00001F034F900F0A8FB142009F09FFDBB2085
:1036F00001F02CF90024A8F1010A07E0544505D196
:10370000002001F0C1F809F8040004E0012001F0F4
:10371000BBF809F80400601CC4B24445EED300F0C5
:103720002DF99DF8000010F0800F17D000F00F0069
:10373000062813D200252C4600F07EFB00F07CFB0F
:10374000BA2001F003F9812001F000F94E2001F0C8
:10375000FDF8204601F0FAF800F010F99DF800207D
:1037600012F00F0F74D002F00F00062870D212F082
:103770000F0FEC464FF0010312D00CF101010020B5
:1037800002F00F0201E0042804DC0C7803FA04F4D0
:103790002C43E5B2401C0831521E12F0FF02F2D158
:1037A00045F0C00096F81C80307730893082708AEE
:1037B00070830CF10300574D06F1080106F1120960
:1037C00000224FF0050C347F03FA02FA14EA0A0FC4
:1037D00051D02C7834B1012C11D0022C21D0032CE3
:1037E00037D048E010F8014C90F800A004EB0A2410
:1037F0000C80447890F802A004EB0A2425E010F82D
:10380000014C90F800A004EB0A24B5F808A0AAEB3C
:103810000404A9F80040447890F802A004EB0A24BC
:1038200028E010F8014C90F800A004EB0A24B5F849
:1038300004A0AAEB04040C80447890F802A004EBE6
:103840000A24B5F808A0AAEB0404A9F8004012E085
:103850003DE010F8014C90F800A004EB0A24A9F810
:103860000040447890F802A004EB0A24B5F804A0C4
:10387000AAEB04040C800830891C521CACF1010C2A
:1038800009F102091CF0FF0C9DD131896A68002002
:103890004FF0010B914205DC718AAA689142D8BFB2
:1038A000387014DD9DF8001001F00F01012905D9D1
:1038B00071893181B18A7182387008E0308A308133
:1038C000708B708280208DF8000086F81C809DF837
:1038D000000000F08F0080280DD1307F10F0800FA5
:1038E00018BF20F0800005D14FF6FF713181718241
:1038F00000F0E00030773878F02884BF0A20387074
:1039000058460BB0BDE8F08F00000010CDCCCCCCF9
:10391000080000200400001010B504462EF05AFFE5
:1039200000EE100A2046B8EE400A18F082FF01208F
:1039300010BD10B504462EF06BFF00EE100A2046B5
:10394000B8EE400A18F075FF012010BD10B5052132
:1039500013202FF05BFC052132202FF057FC064886
:10396000D0F83021B0F83C111183B0F82C13D0F806
:103970002003018310BD000018BD030810B501200D
:1039800000F01AFB0D4CD4F82013B4F82C03488334
:10399000D4F83011B4F83C014883012009F046FC0A
:1039A000D4F82013B4F82C030883012009F03EFC5E
:1039B000D4F83011B4F83C01088310BD18BD0308D9
:1039C00010B5104A10A1124804F044FF114A12A188
:1039D0000F4804F03FFF134A13A10D4804F03AFFCB
:1039E000154A16A10A4804F035FF174A17A10848DE
:1039F00004F030FFBDE81040174A18A1044804F055
:103A000029BF0000B53A000870696E4D6F6465000B
:103A10001410001009400008746F67676C655069E6
:103A20006E0000007D4B00086469676974616C5723
:103A30007269746500000000714600086469676976
:103A400074616C526561640045450008616E616C8B
:103A50006F67577269746500A1420008616E616CFE
:103A60006F6752656164000010B5084A08A10A48F2
:103A700004F0F0FE094A0AA1074804F0EBFEBDE895
:103A80001040094A09A1044804F0E4BE3339000893
:103A90006D696C6C6973000014100010193900080E
:103AA0006D6963726F730000D162000864656C61B8
:103AB0007900000070B584B0064618F08DFB03282D
:103AC00006D053A1304618F0BDFE304617F095FFE2
:103AD0000121304618F0E9FB30B95CA1304618F0FE
:103AE000B1FE304617F089FF0221304618F0DDFBA9
:103AF00030B95AA1304618F0A5FE304617F07DFFC8
:103B00000321304618F0EAFB30B958A1304618F0CE
:103B100099FE304617F071FF00220121304619F05E
:103B2000A3FBBDEEC00A0022022110EE105A30465F
:103B300019F09AFBBDEEC00A681E072810EE104A65
:103B400006D34EA1304618F07DFE304617F055FFE3
:103B5000102C06D351A1304618F074FE304617F0F1
:103B60004CFF28011038044400220321304619F08C
:103B700049FB0146684604F093FB684604F059FB94
:103B80004BA1684604F0D7FE00281CBFE0B2052117
:103B900003D000BF2FF03AFB33E047A1684604F0A2
:103BA000CAFE00281CBFE0B20021F3D144A1684640
:103BB00004F0C1FE00281CBFE0B20121EAD144A1FB
:103BC000684604F0B8FE00281CBFE0B20221E1D133
:103BD00043A1684604F0AFFE00281CBFE0B20321F9
:103BE000D8D143A1684604F0A6FE00281CBFE0B26D
:103BF0000821CFD13F49304618F024FE304617F057
:103C0000FCFE684604F05FFB04B0002070BD0000BD
:103C10004572726F7221204578616D706C653A2033
:103C200070696E4D6F646528312C312C224F5554CC
:103C30005055542229202D3E20504131204F5554BB
:103C4000505554204D6F6465000000004572726F3E
:103C500072204750494F7820210000004572726F52
:103C6000722050696E782021000000004572726F4A
:103C700072204D6F64652021000000004572726F54
:103C800072204750494F782069732741272D3E31D4
:103C9000207E2747272D3E37210000004572726F96
:103CA000722050696E7820697320307E3135210092
:103CB0004F55545055540000494E50555400000083
:103CC000494E5055545F50554C4C55500000000023
:103CD000494E5055545F50554C4C444F574E000080
:103CE000494E5055545F414E414C4F470000000033
:103CF00050574D0044CD04082DE9F843884604464A
:103D00001746484948482AF00BFBBDF8000000253B
:103D100065F3040065F34A1065F3CF20ADF80000A9
:103D200080B2424E0090BDF80000F087BDF8000060
:103D30003C4965F3040065F34A1065F3CF20ADF804
:103D4000000080B20090BDF80000A6F8400006F127
:103D50003C0005723C302AF0E3FABDF800001F2356
:103D600063F304003F2161F34A1063F3CF20ADF801
:103D7000000080B20090BDF80000A6F87A00BDF8FF
:103D8000000063F3040061F34A1063F3CF20ADF841
:103D9000000080B20090BDF80000A6F87C0006F19B
:103DA00078017F2008721DF0ABFF1DF0DAFF0021C3
:103DB0001AF09EFB1E49206028F0B7F800201DF085
:103DC000A5FF45F2565110FB01F00114A1EBE07084
:103DD00001B2206828F0D7F91649009500233A4629
:103DE0002068496827F014F906F13C020021206898
:103DF0001AF09CFD06F17802012120681AF096FD68
:103E00000021206824F076FE414625F06DFDC82192
:103E100020681AF069FD2068BDE8F843C8211AF04F
:103E200069BD0000300A0010CC0C0010900C00108E
:103E3000595100086C06001010B5012000F0BCF8C4
:103E40000D4CD4F83011B4F83C010883D4F8201399
:103E5000B4F82C030883012009F0E8F9D4F83011F4
:103E6000B4F83C014883012009F0E0F9D4F82013AC
:103E7000B4F82C03488310BD18BD030870B5144C6A
:103E800005462078002808BF70BDB5EEC00AF1EEE7
:103E900010FA38BF9FED0F0A06D310EE100AB0F1EA
:103EA0007E5FC8BFB7EE000ADFED0B0A20EE200AE6
:103EB000BCEEC00A10EE100A81B2002007F066F9CD
:103EC000012060702EF0A4FC2844606070BD0000EA
:103ED000800A00200000000000007A44194802F027
:103EE00070FD0021174802F0D7FA17480068804794
:103EF00044F620624FF47A711920FEF719FD4FF451
:103F0000FA71192030F094F800F022F802F016F956
:103F1000012001F00BF8022001F0FCFB032001F06E
:103F2000E3FB042001F00EFC0121084802F01AFA1C
:103F30002CF0F4FE054802F04EFA0A2036F050FB51
:103F4000F6E70000340C001008000020840C00107C
:103F500000B58FB024F0C4FA13494FF4C8530022BF
:103F6000A1F11C001DF024FE68461DF02EFE4FF44A
:103F7000A070ADF800004FF4F070ADF802000B48EF
:103F800003900B48019068461DF042FE08A823F0FC
:103F900085FD01208DF820000648099008A823F02F
:103FA00091FD0FB000BD0000682800204D420008C0
:103FB0004C280020E14E000870B5114D04462879C8
:103FC00010F0010F0BD1281D04F054FD38B1002C66
:103FD0000CBF0120002028700A48AFF30080287829
:103FE000844208BF70BD24B1052113202FF00EF9C3
:103FF00003E0002113202FF009F92C7070BD0000A0
:10400000000000200400002070B5064618F0E4F817
:10401000022806D024A1304618F014FC304617F0D0
:10402000ECFC01242146304618F03FF930B92BA1B1
:10403000304618F007FC304617F0DFFC641C022CF9
:10404000F0DD00220121304619F00EF9BDEEC00A64
:104050000022022110EE105A304619F005F9BDEE8B
:10406000C00A681E0B2810EE104A06D321A1304664
:1040700018F0E8FB304617F0C0FC102C06D325A141
:10408000304618F0DFFB304617F0B7FC2801103837
:104090002549204401EB0011086842698989514093
:1040A0004161002070BD00004572726F7221204591
:1040B00078616D706C653A20746F67676C655069E4
:1040C0006E28312C3129202D3E746F67676C652076
:1040D0005041312053746174650000004572726F65
:1040E00072206E756D626572206F662056616C7508
:1040F000652100004572726F72204750494F782049
:1041000069732741272D3E31207E274B272D3E31D5
:10411000312100004572726F722050696E782069FB
:104120007320307E3135210018BD030810B50621FB
:1041300012202FF06BF80121122009F011F9322022
:1041400036F04EFA0021122009F00AF9322036F03A
:1041500047FA0121122009F003F9322036F040FA23
:104160000021122009F0FCF8322036F039FA012142
:10417000122009F0F5F80021BDE8104012202FF0C0
:1041800045B8000010B5002304461A46194618F039
:1041900045FE05490979002908BF10BD03A1204645
:1041A000BDE8104012F038BC141000106C7561208E
:1041B00073637269707420627265616B0000000045
:1041C0000E2918BF704710B529F0F3FE81B2BDE883
:1041D0001040192006F0DABF10B50C4601460B4816
:1041E000006825F0A5FF062C18BF10BD012806D0D9
:1041F000062818BF10BDBDE81040FFF797BFBDE807
:1042000010400321024802F0ADB80000C4060010BF
:10421000840C0010062918BF704770B5094D06467A
:10422000002400BFC4EBC40055F82010B14205D1F2
:1042300005EB8000017A044802F094F8641C032C1A
:10424000F0DB70BD180A0020840C001010B5134676
:104250000446C888B1F90220B1F804C0B1F90010D1
:10426000801AACEB010C82B0401C0CF1010C00B2C6
:104270000FFA8CFCCDE900C0044802F070FB02B0DC
:104280002046BDE810401DF027BD0000340C001092
:1042900002494860086836F00FBA0000E0060010D6
:1042A00070B5064617F098FF022806D025A13046C3
:1042B00018F0C8FA304617F0A0FB0124214630461A
:1042C00017F0F3FF30B92BA1304618F0BBFA304697
:1042D00017F093FB641C022CF0DD00220121304614
:1042E00018F0C2FFBDEEC00A0022022110EE105AE3
:1042F000304618F0B9FFBDEEC00A681E072810EE60
:10430000104A06D321A1304618F09CFA304617F027
:1043100074FB102C06D325A1304618F093FA3046D2
:1043200017F06BFB280110382044C0B206F01CFFC8
:1043300000EE100A3046B8EE400A18F07AFA012072
:1043400070BD00004572726F7221204578616D70FA
:104350006C653A20616E616C6F67526561642831EB
:104360002C3129202D3E526561642050413120417D
:10437000444300004572726F72206E756D62657203
:10438000206F662056616C75652100004572726F62
:1043900072204750494F782069732741272D3E31BD
:1043A000207E2747272D3E37210000004572726F7F
:1043B000722050696E7820697320307E313521007B
:1043C0000B4804F069FAFFF74FFBFFF7F9FA00F02A
:1043D0009FFD084C206808B136F0F0F961680029AB
:1043E0001CBF034804F068FA20680028F6D0F3E701
:1043F00014100010E0060010F8B54A494A4829F0A8
:104400008FFFBDF80000002161F3040061F34A1042
:1044100061F3CF20ADF8000080B2434C0090BDF8AE
:1044200000006080BDF80000102161F3040020222C
:1044300062F34A1061F3CF20ADF8000080B2009023
:10444000BDF80000A08047F61845E580BDF80000E3
:104450001F2161F304003F2262F34A1061F3CF2071
:10446000ADF8000080B20090BDF8000060812F49D7
:1044700004F13C0029F054FF04F13C000821C58000
:104480004182E18FA4F84C10032141838183C182D2
:10449000018324493C3029F043FF04F17800B22124
:1044A000C58001720A25C58205831DF029FC1DF017
:1044B00058FC002129F0C0FA1D4C60621D4890F89C
:1044C0009E11D0F8940135F0A9F80646164A00214D
:1044D000606A29F07DFD184A0121606A29F078FDA3
:1044E000164A0221606A29F073FD4FF47A720A219C
:1044F000606A19F035FF31B20122606A19F072FF6B
:104500001422C821606A27F0D0FD0095D4E9090182
:1045100000230D2226F07CFD606ABDE8F8400849C2
:1045200027F003BD6C0A0010385F0020A80A0010B5
:104530008806001018BD0308745F0020B05F0020DB
:10454000C14100082DE9F041064617F045FE032859
:1045500006D027A1304618F075F9304617F04DFA0D
:1045600001242146304617F0A0FE30B92DA1304677
:1045700018F068F9304617F040FA641C032CF0DD9F
:1045800000220121304618F06FFEBDEEC00A002265
:10459000022110EE105A304618F066FEBDEEC00A39
:1045A0000022032110EE104A304618F05DFEBDEEE9
:1045B000C00A681E072810EE107A06D31FA13046E5
:1045C00018F040F9304617F018FA102C06D323A142
:1045D000304618F037F9304617F00FFA2801103836
:1045E0002044B9B2C0B206F0D1FD0020BDE8F08190
:1045F0004572726F7221204578616D706C653A204A
:10460000616E616C6F67577269746528312C312C4B
:1046100035303029202D3E5041312050574D203526
:10462000302500004572726F72206E756D62657282
:10463000206F662056616C75652100004572726FAF
:1046400072204750494F782069732741272D3E310A
:10465000207E2747272D3E37210000004572726FCC
:10466000722050696E7820697320307E31352100C8
:1046700070B5064617F0B0FD022806D025A13046D9
:1046800018F0E0F8304617F0B8F90124214630461A
:1046900017F00BFE30B92CA1304618F0D3F8304695
:1046A00017F0ABF9641C022CF0DD0022012130462A
:1046B00018F0DAFDBDEEC00A0022022110EE105AF9
:1046C000304618F0D1FDBDEEC00A681E0B2810EE72
:1046D000104A06D322A1304618F0B4F8304617F03D
:1046E0008CF9102C06D326A1304618F0ABF83046D2
:1046F00017F083F9280110382044C0B208F020FEDA
:1047000000EE100A3046B8EE400A18F092F8012088
:1047100070BD00004572726F7221204578616D7026
:104720006C653A206469676974616C5265616428DC
:10473000312C3129202D3E526561642050413120B9
:1047400053746174650000004572726F72206E755B
:104750006D626572206F662056616C756521000080
:104760004572726F72204750494F78206973274114
:10477000272D3E31207E274B272D3E313121000051
:104780004572726F722050696E7820697320307E96
:104790003135210070B52C482DED028B90B090ED95
:1047A000008AB5EEC08AF1EE10FACCBFB0EE480A2E
:1047B000B1EE480ADFED250A9FED251A254C20EEC3
:1047C000200A2548C0EE011A9FED241ABDEEE10A29
:1047D00084ED0D0A90ED000A10EE100A30EE411A39
:1047E00061EE200A9FED1E1AC0EE811AFDEEE10A6D
:1047F000C4ED0E0AFCF7F4FA05460E4618EE100A50
:10480000FCF7EEFA41EC100BCDE9005653EC102BFF
:1048100014A102A804F0E4F802A9A06A2BF038FA67
:10482000A08E02B2D4E904011CF0E5F9208FA16941
:1048300002B220691CF0DFF920691CF0DAF910B02F
:10484000BDEC028B70BD0000D00600100000C84215
:1048500000803B4588060010D406001000802245E9
:104860000000C84443757272656E743A25302E326A
:10487000666D410A566F6C746167653A25302E3259
:10488000666D5620000000002DE9F0410746002526
:104890002846FFF791FB2C4C002600BFD4F82013CC
:1048A000B4F82C034883052008F0C0FCD4F820138A
:1048B000B4F82C0308836806050ED4F830010069AB
:1048C000B4F83C1108421CBF681CC5B2701CC6B2CB
:1048D000082EE3D3D4F82013B4F82C0348834FF008
:1048E0000100CFB1FFF768FBD4F83011B4F83C01F8
:1048F0004883012008F09AFCD4F82013B4F82C0364
:104900000883012008F092FCD4F82013B4F82C039B
:1049100048832846BDE8F081FFF74EFBD4F83011FC
:10492000B4F83C010883012008F080FCD4F820137F
:10493000B4F82C030883012008F078FCD4F8201385
:10494000B4F82C034883E4E718BD030870B50546A6
:104950000120FFF731FB374CD4F82013B4F82C03B7
:1049600048830026B4F83C01D4F8301115F0800FCC
:1049700014BF088348836806D4F82013050EB4F8E2
:104980002C030883012008F051FCD4F82013B4F85C
:104990002C034883012008F049FC701CC6B2082E85
:1049A000E0D300252846FFF707FBD4F83011B4F810
:1049B0003C010883012008F039FCD4F82013B4F836
:1049C0002C030883012008F031FCD4F83001006981
:1049D000B4F83C11084227D0681CC5B2FA2D1DD985
:1049E0000120FFF7E9FAD4F82013B4F82C03488328
:1049F000D4F83011B4F83C014883012008F016FCCB
:104A0000D4F82013B4F82C030883012008F00EFC1E
:104A1000D4F83011B4F83C01088370BDD4F83001EB
:104A2000006989B20842D7D1D4F82013B4F82C0316
:104A3000488370BD18BD030810B50A4C0146606874
:104A4000002808BF10BD2AF017FB60682AF0DAFDC5
:104A5000C82898BF10BD04A16068BDE810402BF0C5
:104A600017B900006C0A00200000000010B50446D1
:104A70002DED028B17F0B0FB022806D01BA12046BB
:104A800017F0E0FE204616F0B8FF0121204617F08F
:104A900015FC30B924A1204617F0D4FE204616F0AC
:104AA000ACFF0221204617F000FC30B928A12046B7
:104AB00017F0C8FE204616F0A0FF00220121204674
:104AC00018F0D2FBB0EE408A00220221204618F0F6
:104AD000CBFBBCEEC00A10EE100AB0EE480AFFF79E
:104AE000CDF9BDEC028B002010BD00004572726F45
:104AF0007221204578616D706C653A206D6F746F1E
:104B00007228312E302C2035302920312E30202DA6
:104B10003E2050574D20313030252C203530202D6F
:104B20003E2035306D7300004572726F7221205542
:104B3000736520666C6F617420746F206374726C8F
:104B4000206D6F746F7220706F77657200000000C7
:104B50004572726F72212055736520696E746765A6
:104B60007220746F206374726C206D6F746F72208A
:104B700064656C61792074696D6500002DE9F04110
:104B8000064617F029FB032806D027A1304617F068
:104B900059FE304616F031FF01242146304617F009
:104BA00084FB30B92CA1304617F04CFE304616F08D
:104BB00024FF641C032CF0DD00220121304618F094
:104BC00053FBBDEEC00A0022022110EE105A3046FF
:104BD00018F04AFBBDEEC00A0022032110EE104A75
:104BE000304618F041FBBDEEC00A681E0B2810EEDF
:104BF000107A06D31EA1304617F024FE304616F078
:104C0000FCFE102C06D322A1304617F01BFE3046C6
:104C100016F0F3FE280110382044F9B2C0B208F0B3
:104C20009FFB0020BDE8F0814572726F7221204524
:104C300078616D706C653A206469676974616C575E
:104C40007269746528312C312C3129202D3E504158
:104C500031206973203100004572726F72206E75C9
:104C60006D626572206F662056616C75652100006B
:104C70004572726F72204750494F782069732741FF
:104C8000272D3E31207E274B272D3E31312100003C
:104C90004572726F722050696E7820697320307E81
:104CA0003135210010B504461F21324801F0F4FBD4
:104CB0004FF6FF712F4802F076FD2F492D4802F084
:104CC0003BFE02212B4802F069FD502200212948B9
:104CD00002F0F7FC29A1274803F03CF90021254800
:104CE00002F02AFE0221234802F058FD214803F079
:104CF0001FFE00EBD0706FF00F0202EB600002B2FB
:104D000000211C4802F0DDFC21461A4803F022F97C
:104D10001BA1184803F0F4F8164803F009FE6238A6
:104D200002B20021134802F0CCFC1BA1114803F091
:104D300011F91C4802681CA10E4803F0F6F81E4841
:104D400002681EA10B4803F0F0F81F4802681FA17B
:104D5000084803F0EAF82048026820A1054803F05B
:104D6000E4F821480268BDE8104020A1014803F0A2
:104D7000DCB80000340C00102C0604083A280000AF
:104D800053796574656D2077696C6C207265626F0C
:104D90006F742E2E2E0000004572726F7220636FAA
:104DA00064653A0034ED00E04D4D4641523D3078A7
:104DB00025780D0A0000000038ED00E0424641521F
:104DC0003D307825780D0A0028ED00E04346535227
:104DD0003D307825780D0A002CED00E0484653520E
:104DE0003D307825780D0A0030ED00E044465352FE
:104DF0003D307825780D0A0010B5324CB7EE000A28
:104E00002DED028B94ED0D1AD4ED020AF8EEC11AC5
:104E1000F4EEE10AF1EE10FA38BF70EE800A09D321
:104E2000B8EEC11AF4EEC10AF1EE10FAC8BF70EE86
:104E3000C00A01DDC4ED020A94ED0E1AD4ED030A96
:104E4000F8EEC11AF4EEE10AF1EE10FA38BF30EED6
:104E5000800A09D3B8EEC11AF4EEC10AF1EE10FAD5
:104E6000C8BF30EEC00A01DD84ED030A94ED020AEA
:104E7000F3EE0E0A9FED148A20EE200A0021C0EE08
:104E8000080ABDEEE00A10EE100A02B2E06921F055
:104E90002DFC94ED030AF3EE000A002120EE200A17
:104EA000C0EE080AB3EE0A0A30EE800ABDEEC00A70
:104EB00010EE100A02B2206ABDEC028BBDE8104071
:104EC00021F014BC880600100000C84210B500682C
:104ED00026F068FC01490020886010BD6C0A0020A3
:104EE00070B5094C0D4660688047207FC1090748AE
:104EF000A97303D021890180618A418001882980BA
:104F000040886880002070BD0800002084060010E2
:104F1000024A03A1044803F09DBC00006D4A00084A
:104F20006D6F746F720000001410001000B583B034
:104F3000054B064ACDE9002301460023044A0548F3
:104F400001F01CFA03B000BD1159000861580008B7
:104F500089590008840C001010B5124CA07878B95B
:104F6000052104202EF052F94FF47A7211460020E8
:104F7000FDF7DEFC0021084606F008F90120A070CC
:104F80006078002808BF10BD2DF042FC616888429F
:104F900038BF10BD0021084606F0F8F80020607008
:104FA00010BD0000800A002010B50C4C207828B9F4
:104FB0007521601C03F034F901202070084802F0CC
:104FC000DFFF84ED010A064803F042F884ED020A8F
:104FD000034803F0B1F884ED030A10BDCC060010BD
:104FE000CD06001030B589B00C4623F09BFB7CB198
:104FF0002A4D112C14D0122C27D0042C1CBF09B020
:1050000030BD27A1286809B0BDE830402AF040BE75
:1050100009B01420BDE83040B7EE000AFEF72EBFFD
:105020002049214803F025FC28682AF0F9FAFFF707
:105030002FF901221146E8682BF026FC686809B0B8
:105040001AA1BDE830402AF017B8174803F014FC45
:10505000A868009026F067FE04901CF051FE1CF03A
:1050600089FE059012480190124802901248039060
:105070000020ADF81A004FF49671ADF818109DF8A5
:105080002010ADF81C0021F00301ADF81E008DF8D2
:105090002010684618F0DEFD09B030BD6C0A002013
:1050A00000000000394A0008141000100A3E2000D9
:1050B000A3C1020855DD0108CD4E0008F8B51CF06B
:1050C0001FFE1CF04EFE00211AF03CFE214C9622E1
:1050D000C821206126F0E9FF0A20009000230D225C
:1050E000616A206925F094FF052120691BF054FFB7
:1050F000B22120691BF02FFF022120691BF03CFF29
:105100006422002120691BF011FF142120691BF08B
:1051100011FEBDF80000002565F3040065F34A1098
:105120001F2666F3CF20ADF8000081B220691AF087
:10513000D9FD6061BDF8000066F3040065F34A1014
:1051400065F3CF20ADF8000081B220691AF0CAFDE6
:10515000A061F8BD8806001070B50D46044606290A
:1051600007D10748C068844203D10121054801F0F6
:10517000F9F822462946BDE87040024801F01EB900
:105180006C060010840C00102DE9F04F83B0002055
:105190001CF0BCFD074600201CF0ECFD0446FE4858
:1051A000006826F0BFFC241AFC48006826F0BAFC10
:1051B000201A06B2FA49FB4829F0B2F8BDF80000FF
:1051C000162161F304001F2565F34A10092161F3DC
:1051D000CF20ADF8000080B20090F248BDF800107A
:1051E00000244180BDF80000162161F3040065F33E
:1051F0004A10092161F3CF20ADF8000080B2009081
:10520000E848BDF800108180C4820483E6493C3040
:1052100029F086F8E548E649047284813C3029F09B
:105220007FF8E4484FF07F083F21C48080F8088071
:10523000BDF80000202265F3040061F34A1065F315
:10524000CF20ADF8000080B20090D648BDF8001025
:10525000A0F87A10BDF800003F2165F3040061F367
:105260004A1065F3CF20ADF8000080B20090CD4821
:10527000BDF80010A0F87C10783010218481BDF8B2
:10528000000061F3040062F34A1061F3CF20ADF82F
:10529000000080B20090C348BDF80010A0F898103C
:1052A00000201CF05EFD00212BF00EF9C249002306
:1052B0000D22C860B8490094096825F0A9FEBE48CF
:1052C00032463946C06826F0F0FEBB48BBA1C06834
:1052D0002AF0D8FF0746B848BAA1C0682AF0D2FF22
:1052E0000290B548AF4A0221C0682BF06BFAB24871
:1052F000AB4A0121C0682BF065FAAF48AB4A0321E5
:10530000C0682BF05FFAAC48AA4A0421C0682BF0B1
:1053100059FAA948A54A0521C0682BF053FAA648B6
:10532000A44A0621C0682BF04DFAA84A002138464D
:1053300027F07CFFA54A0121384627F077FF02219C
:10534000384627F04AFFA249A24828F0E9FFA148C1
:105350004FF04C09042680F80890C480BDF8040082
:105360004FF0080A66F304006AF34A1066F3CF2090
:10537000ADF8040080B201908A48BDF80410A0F88E
:10538000D4100021384629F06DFF8B49086038465B
:1053900026F0C8FB8346384627F097FA26F0A9FC8A
:1053A00001460BEBDB7042108348006826F07DFE5F
:1053B0008148884A002100682AF033FC7E488649EB
:1053C00000682AF065FC7C488449006826F0ADFD41
:1053D0007349834828F0A4FF7748012100682AF028
:1053E000EDFC7F49FF200872BDF8000064F3040063
:1053F00064F34A1064F3CF20ADF8000080B200904F
:10540000A1F59670BDF80020A0F82E21BDF800008F
:1054100064F3040064F34A1064F3CF20ADF8000095
:1054200080B20090A1F59670BDF80020A0F8302160
:105430004C838C83CC820C83CC83594900F5B470A7
:1054400028F06EFF67484FF0010B18270472C480E4
:10545000A0F80CB0BDF80010302267F3040162F32D
:105460004A1167F3CF21ADF8001089B20091A0F581
:10547000B471BDF80020A1F8722180F80F80BDF84A
:10548000000064F3040064F34A1064F3CF20ADF825
:10549000000080B200900846BDF80010A0F86A1124
:1054A000BDF8000064F3040064F34A1064F3CF20F5
:1054B000ADF8000080B200903A48BDF80010A0F8A6
:1054C0006C11BDF800003F2165F3040061F34A1040
:1054D00065F3CF20ADF8000080B200903148BDF8F0
:1054E0000010A0F88811324900F5D27028F018FF9A
:1054F0003D493F22CC8081F80880BDF8000065F36B
:10550000040062F34A1065F3CF20ADF8000080B2CA
:105510000090A1F5D270BDF80020A0F8A621BDF83A
:1055200000003F2265F3040062F34A1065F3CF20C8
:10553000ADF8000080B20090A1F5D270BDF8002057
:10554000A0F8A821A1F80CB0BDF80000302167F345
:10555000040061F34A1067F3CF20ADF8000080B279
:1055600000901048BDF80010184AA0F8AE11029F34
:105570000021384627F05AFE144A0121384627F008
:1055800055FE0221384627F028FE1149174828F019
:10559000C7FE16482CE000006C06001070060010D4
:1055A000F4090010340E0010E40A0010700E001010
:1055B000200B0010AC0E00106C0A0020496E7075B4
:1055C000740000004F757470757400007C09001041
:1055D0006C0A0010E80E0010B0BC040875570008F3
:1055E000600F00109C0F0010D80F0010240F001047
:1055F00080F80890C480BDF8040066F304006AF3E4
:105600004A1066F3CF20ADF8040080B201901C4828
:10561000BDF80410A0F810110021384629F022FE30
:1056200018494860384626F07DFA00EE100ADFED92
:10563000160AB8EEC00A20EE200ABDEEC00A10EE2F
:10564000100A04B2384627F040F926F052FB014612
:105650000C482246406826F028FD0A480B4A0021E3
:1056600040682AF0DEFA0748002140682AF04AFA2A
:10567000044807A1406803B0BDE8F04F2AF008BB1A
:10568000340E00106C0A0020CDCC4C3F240F0010CB
:105690000000000000B5DFF844C087B00DF1040E33
:1056A0009CE80F108EE80F10052000900C48002396
:1056B00041F2680290ED000A40F62821BDEEC00AD2
:1056C00010EE100A2CF076F901A951F820100548C7
:1056D000406924F009F907B000BD0000380604084D
:1056E000D80600106C06001000B583B0054B064AC2
:1056F000CDE9002301460023044A054800F03EFEA0
:1057000003B000BD49590008BD580008015C0008FD
:10571000840C001000B583B0054B064ACDE9002388
:105720000146054B054A064800F028FE03B000BDBF
:1057300069590008F55800080F5900081D5E000857
:10574000840C001000B583B0054B064ACDE9002358
:105750000146054B054A064800F010FE03B000BDA7
:1057600015590008995800080D590008FD5B0008FC
:10577000840C001070B5334C8AB00E46206826F0B9
:10578000FAF926F0F8F90546062E07BFA0680028AA
:105790000AB070BD4FF00001284622F035FFA0602E
:1057A000284626F0C5F90646284626F0A8FA0146FE
:1057B00006EBD6704210A06826F077FC0025009515
:1057C0002B460D222168A06825F022FC2168A068E4
:1057D00023F016F91C4A0021A06823F0F7F81B4AB1
:1057E0000121A06823F0F2F8194A0221A06823F0F1
:1057F000EDF81849A06826F098FBA06801901CF00D
:105800007FFA1CF0B7FA0590A06826F08CFA069093
:10581000114802901148CDE90305ADF81E504FF430
:105820009670ADF81C009DF82400ADF8205020F0D3
:1058300003008DF82400ADF8225001A818F00AFAF0
:105840000AB070BD6C0A0020600F00109C0F0010A1
:10585000D80F0010E54F0008A3C1020855DD01086C
:105860002DE9F04100240B4DA04600BFC4EBC40657
:1058700055F8260025F096FF05EB8607786825F099
:1058800091FFC7F80480641C45F82680032CEDDBEB
:10589000BDE8F081180A002010B5064802F0ECFFC0
:1058A000054CE06825F07EFF0020A060E0606060AD
:1058B000206010BD141000106C0A002010B50C4CB4
:1058C000206925F06FFFE06925F06CFF206A25F064
:1058D00069FF606A25F066FFA06A25F063FFE06A51
:1058E0002BF004FA206BBDE810402BF0FFB900004C
:1058F0008806001010B5044C206825F053FF0020E6
:105900006060206010BD0000C40600107047704742
:1059100070470000062818BF704708480068814299
:1059200018BF70470648806818B10022122120F085
:10593000EDB90448417800F015BD00007C06001068
:105940006C0A0020840C0010062818BF7047044819
:105950000068814218BF70470248417800F002BDDC
:105960007C060010840C0010062818BF70470448FD
:105970000068814218BF70470121024800F0F2BC64
:105980007C060010840C00102DE9F84F904F002683
:10599000904D3878DFF840B24FF01F0807F1080942
:1059A000002870D18D4905F1780028F0B9FCBDF8C8
:1059B00000003F2168F3040061F34A1068F3CF2030
:1059C000ADF8000080B20090BDF80000A5F87A00A4
:1059D000BDF80000102161F30400202262F34A1098
:1059E00061F3CF20ADF8000080B20090BDF8000058
:1059F000A5F87C001CF084F91CF0B3F900212AF012
:105A000063FD3C1D206000201CF0B4F98246DBF8E9
:105A1000000026F087F8AAEB000A7148006826F01B
:105A200081F8AAEB00000FFA80FADBF8000026F0FC
:105A300060F9236801465246184626F036FB009668
:105A400000230D222068DBF8001025F0E1FA05F1B3
:105A50007802002120682AF0B5FE012120682AF092
:105A6000A3FE012120682AF091FE5EA120682AF0A1
:105A700009FCC9F800005CA120682AF003FCC9F801
:105A800004000120387000275849C7EBC70001EB1C
:105A9000800452494F48D9F800A028F041FCBDF8D5
:105AA00000003F2168F3040061F34A1068F3CF203F
:105AB000ADF8000080B20090BDF800006880BDF82D
:105AC000000068F3040061F34A1068F3CF20ADF8DA
:105AD000000080B20090BDF80000A880BDF8000072
