:020000040800F2
:10000000A08E0120650200086D020008AD210008E5
:100010007102000873020008750200080000000069
:10002000000000000000000000000000A501000822
:10003000790200080000000001020008412B0008BE
:100040007F0200087F0200087F0200087F0200088C
:100050007F0200087F020008591D00082D1E0008BD
:10006000551E00087D1E0008A51E00087F0200081E
:100070007F0200087F0200087F0200087F0200085C
:100080007F0200087F0200087F0200087F0200084C
:100090007F0200087F0200087F020008CD1E0008D2
:1000A0007F020008F52C00087F0200087F0200088C
:1000B000252D0008512D0008812D00087F02000821
:1000C0007F0200087F0200087F0200087F0200080C
:1000D0007F02000889330008D9330008293400085A
:1000E000811D00087F0200087F0200087F020008CF
:1000F000112E00087F0200087F0200087F0200081E
:100100007F0200087F020008B12D00087F0200086E
:100110007F0200087F0200087F020008E12D00082E
:100120007F0200087F0200087F0200087F020008AB
:100130007F0200087F0200087F0200087F0200089B
:100140007F0200087F0200087F0200087F0200088B
:100150007F0200087F0200087F0200087F0200087B
:100160007F0200087F0200087F0200087F0200086B
:100170007F0200087F0200087F0200087F0200085B
:100180007F0200087F020008DFF814D001F094F825
:1001900000F03AFC00480047C1B7020800F093FFA6
:1001A000A08E01202C4B19680868B0E8F04F80F34E
:1001B0000988BFF36F8F4FF0000080F311887047FC
:1001C0000000000008480068006880F308884FF0CD
:1001D000000080F3148862B661B6BFF34F8FBFF39F
:1001E0006F8F00DF00BF00BF08ED00E0DFF80C00FC
:1001F000016841F470010160704700BF88ED00E0C4
:10020000EFF30980BFF36F8F134B1A681EF0100FC6
:1002100008BF20ED108A20E9F04F106009B44FF0BC
:10022000500080F31188BFF34F8FBFF36F8F34F00E
:1002300051F84FF0000080F3118809BC1968086874
:10024000B0E8F04F1EF0100F08BFB0EC108A80F33A
:100250000988BFF36F8F704768060010EFF30580C1
:10026000704700000648804706480047FEE7FEE763
:10027000FEE7FEE7FEE7FEE7FEE7FEE7FEE7FEE756
:10028000F12B0008890100080C49087820B1401EB4
:100290000870491C085C704700210720ABBE7047FE
:1002A000064A1178022902D34FF0FF307047034B02
:1002B0005B1C5854491C117070470000C8060010A0
:1002C0002DE9F05F0546002092469B46884606468B
:1002D000814640241BE0284641464746224600F01E
:1002E00023FE53465A46C01A914110D31146184670
:1002F000224600F00AFE2D1A67EB01084F462246FF
:100300000120002100F001FE17EB00094E41201EE4
:10031000A4F10104DFDC484631462A464346BDE8E5
:10032000F09F00000048704784AC030810B50446F5
:10033000FFF7F8FF0068005D00F0010010BDA0F1BC
:100340006101192900D820387047A0F1410119290D
:1003500000D82030704700000649074A086850431B
:1003600043F23902104408604008704701490860B0
:10037000704700005C0900206D4EC6410048704780
:100380000CAD030838B5D0E90221491E01EB41014B
:1003900002EBC1014268C1EB011102EB810102686D
:1003A000C1EB011102EB8102D0E9043101EB410103
:1003B00003EB81013023A1F5527191FBF3F4174D4A
:1003C0006C4302EBC41291FBF3F403FB1411009293
:1003D0001A2902DB124B1A4400920C2291FBF2F311
:1003E000104C6343009C04EBC313009391FBF2F3A6
:1003F00002FB13110C4A08E0491E40F2A324535C8F
:100400006343009C04EBC31300930029F4DC014612
:10041000684600F0B1FD009838BD00003F0C0F00A9
:100420008051010067C2030088AC030870B505461F
:1004300001B90721541A241DB4F5B67F09DD2868D7
:1004400000F036F9A04204DC2868401C2860012036
:1004500070BD002C05DA2868401E286000F028F9DD
:100460000444072094FBF0F0401C70BD2DE9F04FD0
:1004700089B01D468A468046002401AF4FF0070B25
:100480000192079057F8241011F8010B47F8241037
:1004900048B125280DD0BAF1010F06D908F8010B93
:1004A000AAF1010A5CE0641E5AE0002009B0BDE830
:1004B000F08F11F8010B47F824100028F3D0022622
:1004C0004FF030095A284BD020DC4D2873D014DC73
:1004D000442871D008DC2528DDD041282AD04228C4
:1004E0002ED043283CD130E0462847D0472857D06B
:1004F000482862D0492833D161E0523808282FD2E9
:10050000DFE800F0787AA6838A97A6A861381928D0
:1005100026D2DFE800F00D1318202E253513255CB8
:10052000252560642566256D257375258B9BA000A8
:100530006AA000E070A0A9690091B4E07DA000E08D
:1005400088482969F8E788A007E06969642091FB79
:10055000F0F0133082E0E86880E0641C47F8240083
:10056000002C8FDA002088F800000799A8EB010022
:100570009CE7E8684FF02009009070E07EA0ECE76F
:10058000686900F26C700090D5E906126846FFF7C2
:100590004DFF0099642091FBF0F200FB12105DE02A
:1005A0006869042600F26C700090D5E9061268466E
:1005B000FFF73CFF53E010E048E0A8684EE0A86871
:1005C0000C21173090FBF1F201FB120001E0E86909
:1005D0000326401C42E02869FBE768683EE069A00A
:1005E000BBE7A8680C2801DA67A0B6E767A0B4E704
:1005F00067A0B2E769A0B0E728682FE069A0ACE780
:10060000A869012608BB072028E0D5E90610401A92
:10061000C01D90FBFBF021E0686900F26C70009057
:10062000D5E906126846FFF701FF17E00126A86921
:1006300014E0A9695846891D91FBF0F20BFB1211D9
:10064000EA69511AC91D91FBFBF007E056A084E747
:1006500058A082E70426686900F26C7000900021BF
:100660008DF8181006A80A2113E0009A92FBF1F306
:1006700001FB1322303200F8012D009A92FBF1F2B7
:10068000009232B901E000F8019D321EA6F1010688
:10069000F9DC321EA6F10106E7DC5EE710F8011B6B
:1006A0000029FBD100994A1E00920029F6DC54E78C
:1006B00081070CD1642190FBF1F201FB120151B9C9
:1006C0004FF4C87190FBF1F201FB120018B1002049
:1006D00000F26D1070470120FAE7000053756E00BC
:1006E0004D6F6E0054756500576564005468750061
:1006F000467269005361740053756E646179004DF0
:100700006F6E646179005475657364617900576533
:10071000646E65736461790054687572736461799D
:10072000004672696461790053617475726461791D
:10073000000000004A616E00466562004D61720073
:10074000417072004D6179004A756E004A756C0007
:1007500041756700536570004F6374004E6F7600FB
:100760004465630094AC030825612025622025655B
:10077000202554202559000025592D256D2D25644F
:10078000000000000A000000414D0000504D000034
:1007900025493A254D3A25532025700025483A250C
:1007A0004D00000009000000256D2F25642F2579DC
:1007B0000000000025483A254D3A2553000000006E
:1007C00010B5431A934209D28318881803E010F831
:1007D000011D03F8011D521EF9D210BD40EA0103AC
:1007E0009B0703D009E008C9121F08C0042AFAD2E7
:1007F00003E011F8013B00F8013B521EF9D210BD95
:10080000D2B201E000F8012B491EFBD27047002252
:10081000F6E710B513460A4604461946FFF7F0FFFF
:10082000204610BD30B505462A460B4612F8010B8E
:1008300013F8014B08B1A042F8D01CB1002802D037
:100840006D1CF1E7284630BDCAB2401E10F8011FEA
:100850008A4202D00029F9D100207047421C10F8CA
:10086000011B0029FBD1801A704710B5002200E05F
:10087000521C835C8C5CA34201D1002BF8D1D8B20E
:10088000E1B2401A10BDCBB203E00178994203D027
:10089000401C521EF9D20020704730B5044600209B
:1008A000034600E05B1C934203D2E05CCD5C401B3E
:1008B000F8D030BDFFF7D9BF034611F8012B00F87F
:1008C000012B002AF9D11846704730B505460020A3
:1008D000034600E05B1C934205D2EC5CC85C201A26
:1008E00001D1002CF6D130BD30B503461D783DB1A5
:1008F0000A4612F8014B1CB1AC42FAD15B1CF5E779
:10090000181A30BD10B508E00A4602E0A34208D02C
:10091000521C1378002BF9D1401C0478002CF3D121
:10092000002010BD07280FD2DFE800F00406080EF3
:100930000E0C0A0005A070470AA0704713A070476C
:100940001DA0704722A070472BA070474E6F2065F6
:1009500072726F7220286572726E6F203D2030298E
:100960000000000045444F4D202D2066756E6374D5
:10097000696F6E20617267756D656E74206F757436
:10098000206F662072616E67650000004552414E1F
:100990004745202D2066756E6374696F6E20726501
:1009A00073756C74206E6F742072657072657365F8
:1009B0006E7461626C650000454E4F4D454D202DB3
:1009C000206F7574206F66206D656D6F7279000001
:1009D00045494E56414C202D20696E76616C696404
:1009E00020617267756D656E7420746F2066756E18
:1009F0006374696F6E000000556E6B6E6F776E20CA
:100A00006572726F7200000070B5054C054D03E011
:100A1000206820448047241DAC42F9D170BD0000FD
:100A2000ECB8030808B903082DE9F041074615465C
:100A30000E4610200AF0E6F804000AD06760C4E908
:100A4000026500F03BFB0168216004600020BDE806
:100A5000F0810120FBE72DE9FE4F804681EA03008B
:100A6000C00F0C46009021F0004123F00045B8EB88
:100A70000200A94105D24046214690461C460B463D
:100A8000024623F00040104347D0270DC7F30A0069
:100A9000C3F30A510290401A019040286BDAC3F365
:100AA000130040F4801B0098924620B10023D2EB43
:100AB000030A63EB0B0B01985946C0F14002504604
:100AC00000F023FA06460D4650465946019A00F0BA
:100AD0003BFA10EB08006141002487EA115284EAD6
:100AE000E7731A4340D0009A62B3019A012A4FEA91
:100AF000075215DC001B61EB02014FF0004202EAD5
:100B00000752CDE90042001C41F5801132462B46C8
:100B100000F069FB03B0BDE8F08F40462146F9E7DD
:100B2000001B61EB0201001C41F5801300185B41C2
:100B30002018A2F5001747EB030140EAD570B6195B
:100B40006D4111E06D084FEA360645EAC0754FEA7F
:100B50000752001B61EB0201001C41F5801149089E
:100B60004FEA30000019514132462B4603B0BDE830
:100B7000F04F00F029BB0098012240000023D0EB89
:100B8000020263EBE073009821464FEAE074B8EB91
:100B9000000061EB0401E9E783F000435BE781F0CB
:100BA000004158E72DE9FE4F81EA030404F00044B8
:100BB00021F0004100944FF0000B23F0004350EA75
:100BC00001045ED052EA03045BD0C3F30A54C1F3BC
:100BD0000A552C44A4F2F3340194A0FB0254C1F34F
:100BE000130141F48011C3F3130343F4801301FB99
:100BF000024400FB034E840A970A44EA815447EA00
:100C00008357A4FB076802958D0A05FB07854FEA09
:100C1000932C04FB0C542705029D4FEA065847EA23
:100C20001637B5EB08056EEB070C870E920E47EAF8
:100C3000811742EA8312A7FB0201B6EB0B0164EBBA
:100C400000042B0D43EA0C335E1844EB1C50DA46CB
:100C50005146E7FB0201C5F313044FEA0B3343EAA5
:100C600014534FEA0432019C43EA0603A4F10C0436
:100C70000294009CCDE900B400F0B5FA03B0BDE8E1
:100C8000F08F00200146F9E72DE9F04D81EA0304D9
:100C900004F0004B21F0004514464FF0000A23F009
:100CA000004150EA050220D054EA01021DD0C5F3EC
:100CB0000A570246C5F31303C1F31300C1F30A56E2
:100CC00040F4801543F48013A7EB0608101BD646AA
:100CD00008F2FD3873EB050002D308F1010801E0CA
:100CE00092185B41B8F1000F03DA00200146BDE81D
:100CF000F08D00204FF48011064684460EE0171B4D
:100D000073EB050705D3121B63EB050306434CEA9F
:100D1000010C49084FEA300092185B4150EA010784
:100D2000EDD152EA030012D082EA040083EA050101
:100D3000084305D0101BAB4106D20122002306E078
:100D400000224FF0004302E06FF0010253101AEB53
:100D500006004CEB085110EB0A0041EB0B01BDE81B
:100D6000F04D00F031BA0EB5C10F80EAE0700844D2
:100D7000CA07002140F233438DE80E000A460B46B5
:100D800000F031FA03B000BD0EB540F233410291DC
:100D90000021CDE900110A460B4600F024FA03B009
:100DA00000BD70B5C1F30A5201F000450024C1F343
:100DB000130140F2FF3341F480119A4201DA00201E
:100DC00070BD40F233439A42A2F2334203DC5242F6
:100DD00000F0AAF800E090402C43F1D0404270BDF2
:100DE00000F0004230F000400AD0C10D01F5607102
:100DF000C0F3160042EA0151C20840071143704790
:100E0000002001467047000030B5041E71F1000457
:100E100004DB4FF00044404264EB0101141E73F107
:100E2000000405DB1C464FF00043524263EB040311
:100E30008B4208BF824230BD30B5041E71F1000400
:100E400004DB4FF00044404264EB0101141E73F1D7
:100E5000000405DB1C464FF00043524263EB0403E1
:100E6000994208BF904230BD01F0004330B421F0F8
:100E7000004150EA010206D00A0DA2F56072C1F3EA
:100E80001301002A02DC30BC00207047440F44EA02
:100E9000C104C100E01830BC00EBC25000F034B90E
:100EA000A0E8004FF0C040F804DB01B5AFF30080CC
:100EB000BDE8024001C10020704700F12C080C463B
:100EC00058F8040DAFF3008058F8040D8546200053
:100ED00008BF012038E9F00018E9004F704730B52D
:100EE0000B46014600202022012409E021FA02F5E8
:100EF0009D4205D303FA02F5491B04FA02F5284482
:100F0000151EA2F10102F1DC30BD202A04DB203ADB
:100F100000FA02F1002070479140C2F1200320FA4C
:100F200003F3194390407047202A04DB203A21FA4A
:100F300002F00021704721FA02F3D040C2F12002F2
:100F40009140084319467047202A06DBCB17203A08
:100F500041FA02F043EAE07306E041FA02F3D040BE
:100F6000C2F120029140084319467047014900F040
:100F700003B80000740E001010B500683C22B0FBEE
:100F8000F2F302FB1303B0FBF2F00B60B0FBF2F3E1
:100F900002FB1303B0FBF2F018224B60B0FBF2F33C
:100FA00002FB1303B0FBF2F0021D8B600723B2FBC0
:100FB000F3F403FB1422800040F2B55300F66C30CA
:100FC0008A61B0FBF3F2B0FBF3F403FB140044328C
:100FD00080084A61C8613B2802D3920700D0401CB8
:100FE0000022074C13460A61E25C824203D8801A51
:100FF0005B1C0B61F8E7401CC860084610BD000090
:1010000044AD03080FB4002300B589B00CA90091CA
:101010000B996FF00042CB601E4B06931E4B07935B
:101020000423CDE901321D4A089202466B46002096
:1010300000F0E8F909B05DF814FB70B586B006461B
:101040004FF0FF300091CDE90101002015460C461C
:1010500004903246694604A8FFF7D4FF024604987C
:10106000211825B108B1084600E020462860049800
:1010700000280DD0002A02DD0098884208D0081B05
:101080000094CDE901043246694604A8FFF7BAFF8F
:1010900006B070BD3D1600085B1600082D03000861
:1010A0007CB50023CDE9003305466846FFF7C5FF50
:1010B0006946284609F0F6FD7CBD000000487047EF
:1010C0006409002070472DE9F0410646FFF7F6FF5E
:1010D0008046454613E016B1E068B0420ED1206864
:1010E0002860D4E90101D8F800708847204608F04C
:1010F000E3F8D8F80000B842EBD100E025462C68B0
:10110000002CE8D1BDE8F0810029A8BF7047401C41
:10111000490008BF20F00100704710B4B0FA80FC0D
:1011200000FA0CF050EA010404BF10BC704749B14A
:10113000CCF1200421FA04F411FA0CF118BF0121BA
:1011400021430843A3EB0C01CB1D4FEA00614FEA9A
:10115000102042BF002010BC704700EBC350104469
:101160000029A4BF10BC7047401C490008BF20F0F4
:10117000010010BC7047F0B400F0004221F00041C3
:1011800020F00040CE0DC30DC1F3160141F4000163
:10119000C0F316004C42154640F40000761E09E0EC
:1011A00010EB440002D582F0004240428842F7D85A
:1011B00040005B1EB342F9DA18B1F0BC0021FFF722
:1011C000ACBF2846F0BC704710B5141E73F1000484
:1011D00008DA401C41F1000192185B411A4301D129
:1011E00020F0010010BD2DE9F04D92469B4611B153
:1011F000B1FA81F202E0B0FA80F220329046FFF7B5
:1012000084FE04460F4640EA0A0041EA0B015346B9
:101210005A46084313D0114653EA010019D0C8F1C9
:1012200040025046FFF780FE05460E46504659469E
:101230004246FFF76AFE084305D0012004E020463D
:101240003946BDE8F08D0020054346EAE0762C43A0
:1012500037430A986305E40AA0EB08000022FD0A60
:1012600044EA47540A3002D500200146E9E7010567
:1012700010196941DDE9084500196941BDE8F04DE3
:10128000A2E7C1F30A52C1F3130140F2FF3341F464
:1012900080119A4202DA00200146704740F233433F
:1012A0009A42A2F2334202DC5242FFF73DBEFFF700
:1012B0002CBE002070470000064C074D06E0E06899
:1012C00040F0010394E8070098471034AC42F6D38D
:1012D000FEF75EFFACB80308ECB803082DE9FF4F3A
:1012E000087883B09946FF2805D0491C2D2804D0E2
:1012F0000024002008E000200BE00124F9E700EBC7
:10130000800003EB4000491C0B78FF2BF7D104B1A0
:10131000404200230293147819461D462D2C01D01B
:101320002B2C04D1521C2D2C13D000240294AA463D
:101330001478FF2C0FD00A25A3FB057801FB05814B
:101340004FF0000C03FB0C11521CE3194AEB010196
:10135000EEE70124EAE7814453EA010002D019F5DF
:10136000C87F06DA03980021C0E9001107B0BDE884
:10137000F08F0025AE4E2F46DFF8B882184600F0F9
:101380007EF9CDE90001B9F1000002DAC9F10004EB
:1013900000E004460023A74A1AEB030B42EB045A71
:1013A00012E0E00707D02A46334638464146FFF7A9
:1013B000F9FB074688462A46334610461946FFF78A
:1013C000F1FB05460E466410002CEAD1DDE9000170
:1013D000B9F1000F5A46534606DAFFF755FC3A4674
:1013E0004346FFF751FC05E0FFF7DCFB3A46434676
:1013F000FFF7D8FB029A0AB181F00041039AC2E9D3
:101400000001B3E72DE9FF4F1F468DB0D7E9014634
:101410004FF0FF382E2045464FF000090B90B96978
:101420006D1C0E988847396A824688470028F6D195
:10143000BAF1FF3F0AD024F4D064002E11DDBAF1D6
:101440002B0F08D0BAF12D0F0BD102E0404611B09E
:101450008DE744F48064B9696D1C0E988847824614
:10146000761E6946600501D52D2000E02B208DF801
:10147000000001F1010B0DF1200809E0B9696D1CB4
:101480000E98884782460F9844F40074761E0560D3
:10149000002E02DDBAF1300FF0D00B998A453ED113
:1014A00044F0800406E00F99681CA9F1010944F496
:1014B00000740860B9696D1C761E0E9888478246D4
:1014C0003028F0D02BE00B998A4505D1200603D4B3
:1014D00044F08004761E18E0504609F02DFE08B353
:1014E0000DF11301761E44F400748B4508D2AAF165
:1014F00030000BF8010B200607D5A9F1010003E02D
:10150000200602D409F101008146A00502D50F99F9
:10151000681C0860B9696D1C0E9888478246002EC9
:10152000D1DC53E0002E51DDBAF1650F02D0BAF1E3
:10153000450F4BD1A00549D5B9696D1C24F4407401
:10154000761E0E9888478246002E0CDD2B2804D08C
:10155000BAF12D0F07D144F48074B9696D1C0E984F
:1015600088478246761EE00501D52D2100E02B211B
:1015700008F8011BCDF82C8021E00DF12901761E21
:1015800044F4007488450CD2AAF1300010F0FF003A
:1015900088F8000002D10B99884509D908F10108A3
:1015A00006E0E00501D5244801E042F20F708146D3
:1015B000B9696D1C0E98884782460F980560002E09
:1015C00004DD504609F0B8FD0028D6D1F9690E981F
:1015D0008847FF208BF8000088F800000020069064
:1015E00007904B466A4608A906A8FFF777FEA005B4
:1015F00002D46FF001002AE714F0240F0AD0E007AC
:1016000014D1DDE906123868031D3B600068C0E9AB
:1016100000120BE0DDE90601FFF726FC0146E007BA
:1016200004D13868021D3A600068016028460EE760
:10163000000014400000F03FF1D8FFFF426842B1C3
:10164000016811F8013B23B1521EC0E9001218468F
:1016500070470121C160881E704742685AB1C36853
:10166000016843B983688B4205D0491E521CC0E90A
:101670000012002070474FF0FF30704770470EB5E2
:1016800040F2334202920022CDE900221346FFF7D6
:10169000AAFD03B000BD70B58C1810F8015B15F001
:1016A000070301D110F8013B2A1106D110F8012BD4
:1016B00003E010F8016B01F8016B5B1EF9D12B07F9
:1016C00005D40023521E0DD401F8013BFAE710F8AF
:1016D000013BCB1A921C03E013F8015B01F8015B9C
:1016E000521EF9D5A142D8D3002070BD00298168CF
:1016F00014BF41F0010121F0010181607047000039
:101700000849D1F80423084B1A40D0E9003C43EAC9
:101710000C03D0E902C04CEA000018431043C1F8A2
:101720000403704700200140E030FCFF30B42E4C31
:101730002E4B617861B9991E09224FF0FF0C00BF52
:10174000A1F802C021F804CF521EF9D10121617025
:10175000002818BF012825D0022818BF032821D04F
:10176000042818BF05281DD0062818BF072819D03F
:10177000082818BF092815D00A2818BF0B2811D02F
:101780000C2818BF0D280DD00E2818BF0F2809D01F
:10179000102818BF112805D012281EBF4FF0FF30A7
:1017A00030BC704700212278002A0FD933F811503D
:1017B00001F10101854206D100291EBF6FF0010031
:1017C00030BC704702E0C9B29142EFD3122A22BF67
:1017D0006FF0020030BC704723F81200501CC0B2FA
:1017E000207030BC401E704738000010940B002061
:1017F000C06C80B270470246002012680A4218BFCF
:101800000120704710B4426891F804C022F480723D
:1018100022F040720B6842EA0C221A43426082684E
:101820000C4B4C791A40D1E903C343EA0C03D1F8BD
:1018300008C04CEA440C43EA0C031A438260C26AB3
:10184000097D22F47002491EC9B242EA0151C16207
:1018500010BC7047FDF7FFC030B4072409290DD92B
:10186000C568A1F10A0C0CEB4C0C04FA0CF425EA47
:10187000040403FA0CF32343C3600AE0056901EB97
:10188000410C04FA0CF425EA040403FA0CF3234394
:1018900003611F23072A0CD2D0F834C0521E02EB7A
:1018A000820293402CEA030391401943416330BC08
:1018B00070470D2A0CD2D0F830C0D21F02EB820242
:1018C00093402CEA030391401943016330BC7047F5
:1018D000D0F82CC00D3A02EB820293402CEA0303AD
:1018E00091401943C16230BC7047816841F080412A
:1018F0008160704730B50546A0F180408BB0B0F5EF
:10190000903009D01F48854210D10021401501F0C8
:1019100083F80121480215E000214FF4807001F0A6
:101920007BF80121080201F06BF80DE0A5F1804081
:10193000B0F5913008D100214FF4806001F06CF8CF
:101940000121880201F05CF8002406944FF48030F5
:101950000994CDE9070406A8FFF7D2FE0094012000
:101960008DF804408DF814008DF80540029404941D
:1019700069462846FFF746FF01212846FFF7B6FED5
:101980000BB030BD0021014010B501F0EFF80C485C
:101990004FF47A710B4A0068B0FBF1F0431E00214E
:1019A000B3F1807F08D24FF0E0204361F02382F84A
:1019B000143D81610723036182F8141D10BD0000EE
:1019C000440900200FE000E02DE9F84F0546D068FB
:1019D000144620B9A86C884218BF114601D111469F
:1019E000002000F071F9686A0090206969460422BD
:1019F00020B9D4E9000CA368E0472061A86A0090F0
:101A000020696946042220B9D4E9000CA368E047A4
:101A10002061A8798DF8000020696946012220B96B
:101A2000D4E9000CA368E0472061E8798DF8000054
:101A300020696946012220B9D4E9000CA368E04777
:101A40002061287A8DF8000020696946012220B9BA
:101A5000D4E9000CA368E047206168690090206920
:101A60006946042220B9D4E9000CA368E04720614C
:101A70006869296B8200206928B922B1D4E9000C79
:101A8000A368E0472061D5F81080CDF80080206978
:101A90006946042220B9D4E9000CA368E04720611C
:101AA0000027B8F1000F45DDE86A694600EBC7067C
:101AB0000122307900F03F008DF80000206920B944
:101AC000D4E9000CA368E0472061307900F03F00C2
:101AD000042828D005DC28B3012807D003280DD01E
:101AE00025E0132813D014281DD020E030788DF87D
:101AF0000000206969460122A0B90EE096ED000AB7
:101B000069468DED000A2069042258B905E0306865
:101B1000009020696946042220B9D4E9000CA3682A
:101B2000E047206103E02146306800F0CDF87F1CDB
:101B30004745B9DBEF68009720696946042220B960
:101B4000D4E9000CA368E047206100264FF00409A7
:101B5000002FC8BF4FF0050821DD00BF286C09EB3E
:101B6000C6010122405C8DF800002069694620B959
:101B7000D4E9000CA368E0472061296C08EBC6009B
:101B80000122085C8DF800002069694620B9D4E97B
:101B9000000CA368E0472061761CBE42DEDB2146D4
:101BA000284600F073F8E068002814BF0026AE69EC
:101BB000694600962069042220B9D4E9000CA36884
:101BC000E0472061A96BB20028B922B1D4E9000C2A
:101BD000A368E0472061E068002814BF00272F6A4F
:101BE000694600972069042220B9D4E9000CA36853
:101BF000E04720610026002FC8BF4FF0080A26DD0D
:101C0000E86B06EB4608214650F8280000F05CF827
:101C1000E86B09EB8801042240580090206969466E
:101C200020B9D4E9000CA368E0472061E86B0AEB17
:101C300088010422405800902069694620B9D4E9FF
:101C4000000CA368E0472061761CBE42D8DBE06848
:101C5000002814BF0027EF68694600972069042216
:101C600020B9D4E9000CA368E04720610026002FCA
:101C7000D8BFBDE8F88F286C214650F8360000F038
:101C800023F8761CB742F6DCBDE8F88FF8B50D46B0
:101C9000C7690646009728696946042220B9D5E934
:101CA000000CAB68E04728610024002FD8BFF8BDC6
:101CB000706B2A46B16C50F82400FFF785FE641C57
:101CC000A742F5DCF8BD000030B50B6983B00C46C7
:101CD00080B1017904290CBFC179C168491C00F1A8
:101CE00010050091FF2916D28DF8041001A90122D8
:101CF0002BBB1FE0002001228DF800006946002B5D
:101D00001CBF03B030BD00BFD4E9000CA368E0479E
:101D1000206103B030BDFF208DF8040001A901222D
:101D200023B9D4E9000CA368E04720612069694623
:101D3000042220B9D4E9000CA368E0472061009890
:101D40002946421E206900281CBF03B030BD002A6E
:101D5000DAD103B030BD000010B5012000F000F969
:101D6000002808BF10BD05480068002818BF80473C
:101D70000120BDE8104000F0EDB800003007001071
:101D800010B54FF4806000F0EBF8274C38B1A06A32
:101D9000002818BF80474FF4806000F0DBF84FF454
:101DA000006000F0DDF838B1E06A002818BF804715
:101DB0004FF4006000F0CEF84FF4805000F0D0F8FF
:101DC00038B1206B002818BF80474FF4805000F0D6
:101DD000C1F84FF4005000F0C3F838B1606B002830
:101DE00018BF80474FF4005000F0B4F84FF4804023
:101DF00000F0B6F838B1A06B002818BF80474FF448
:101E0000804000F0A7F84FF4004000F0A9F8002847
:101E100008BF10BDE06B002818BF80474FF400409A
:101E2000BDE8104000F096B83007001010B5022051
:101E300000F096F8002808BF10BD0548406800284B
:101E400018BF80470220BDE8104000F083B80000B2
:101E50003007001010B5042000F082F8002808BFF9
:101E600010BD05488068002818BF80470420BDE8E1
:101E7000104000F06FB800003007001010B50820C7
:101E800000F06EF8002808BF10BD0548C0680028A3
:101E900018BF80470820BDE8104000F05BB8000084
:101EA0003007001010B5102000F05AF8002808BFC5
:101EB00010BD05480069002818BF80471020BDE804
:101EC000104000F047B800003007001010B5202087
:101ED00000F046F81E4C30B16069002818BF8047FA
:101EE000202000F037F8402000F03AF830B1A06927
:101EF000002818BF8047402000F02CF8802000F018
:101F00002FF830B1E069002818BF8047802000F02A
:101F100021F84FF4807000F023F838B1206A0028CF
:101F200018BF80474FF4807000F014F84FF4007031
:101F300000F016F8002808BF10BD606A002818BF1E
:101F400080474FF40070BDE8104000F003B8000077
:101F5000300700100149086070470000143C014040
:101F6000034A0146002012680A4218BF0120704748
:101F7000143C01402DE9F001002201255FF0030629
:101F8000D1F800C005FA02F30CEA030C9C4537D1E6
:101F900007684FEA420C06FA0CF4A74307600F7972
:101FA000D0F8008007FA0CF747EA080707600F79B6
:101FB000012F18BF022F17D1876827EA040787600F
:101FC0004F79D0F8088007FA0CF747EA08078760CE
:101FD000476827EA0303436043688F7907FA02F7EB
:101FE000BFB243EA07034360C36823EA0403C36044
:101FF000CB7903FA0CF3D0F80CC043EA0C03C360AE
:1020000002F10102102ABBD3BDE8F00170474B0773
:10201000DB0E9A40C90800EB8100016A4FF00F0CFB
:102020000CFA03F399430162016A1143016270479C
:1020300030B50446A0F1804083B0B0F5003008BF51
:10204000012049D0A4F18040B0F5013008BF022042
:1020500042D0A4F18040B0F5023008BF04203BD04C
:10206000A4F18040B0F5033008BF082034D0A4F1BB
:102070008040B0F5043008BF10202DD0A4F180407E
:10208000B0F5053008BF202026D0A4F18040B0F57F
:10209000063008BF40201FD0A4F18040B0F50730C3
:1020A00008BF802018D0A4F18040B0F5083008BFE8
:1020B0004FF4807010D0A4F18040B0F5093008BF13
:1020C0004FF4007008D0A4F18040B0F50A300EBF84
:1020D0004FF4806003B030BD002A04BF4FF0000C05
:1020E000624623D0012A04BF4FF0000C01221DD00C
:1020F000022A04BF4FF0000C022217D0032A08BFA7
:102100004FF0030C11D0052A08BF4FF0010C0BD083
:10211000062A04BF4FF0010C654606D0072A0EBF01
:102120004FF0020C03B030BD002500228DF804C032
:102130008DF8053000918DF806508DF807200121AB
:1021400000F03AFC69462046FFF714FF03B030BDAB
:1021500010B5044606230122FFF77EFB2046FFF759
:10216000C4FB02212046FFF746FB0028F9D0204699
:10217000BDE81040FFF73CBB0021012804D9491CF1
:10218000400889B20128FAD8C8B27047064901EB65
:10219000001000218089012804D9491C400889B217
:1021A0000128FAD8C8B270473456030882B019A083
:1021B00002F010FB1B484FF47A710068B0FBF1F09D
:1021C00042F2107148431849A1FB001080080090AA
:1021D0000028D8BF002104DD10F001011CBF421E01
:1021E0000092401A002804DD811E801E0091002804
:1021F000FADC0098401E0090BFF34F8F0B48016837
:102200000B4A01F4E06111430160BFF34F8F00BF3F
:10221000FDE7000068617264776172652066617530
:102220006C74000044090020CDCCCCCC0CED00E057
:102230000400FA0538B5044669460122406819F0E1
:1022400086F850B1064BA26803F10C01206815F026
:102250008CFC0321206811F09FFD9DF8000038BD23
:10226000CC2700082DE9F84F16460C46054600F02D
:102270005BFAA064002808BFA664284600F0FAF9BB
:102280006062284600F0F6F9A0622846FFF7D2FF08
:10229000A0712846FFF7CEFFE0712846FFF7CAFF7E
:1022A0002072284600F0E6F90746401CB0F1804F46
:1022B00024BF286815F054FABE00002233461146A8
:1022C000286815F021FA676120636B680146324681
:1022D000184619F03CF850B1E44BAA6803F10C0120
:1022E000286815F042FC0321286811F055FD2846A6
:1022F00000F0C0F90746401CB0F1005F24BF286819
:1023000015F02EFAFB0000221146286815F0FCF9A2
:10231000276102464FF000094FF0040AE062002FE7
:1023200017DD002117F001001CBFC2F80490012145
:10233000B8420EDAE26A0AEBC103491C42F8039084
:102340000AEBC103E26A801C491C42F80390B842C0
:10235000F0DB4FF00008002FC8BF4FF0130B76DD05
:10236000E06A694600EBC8060122686818F0EFFFD2
:1023700050B1BE4BAA6803F10C01286815F0F5FBBB
:102380000321286811F008FD9DF80000042852D0B0
:1023900009DC002808BFC6F8049054D0012807D0F3
:1023A00003281CD04FE0132830D0142843D04AE033
:1023B00069460122686818F0CAFF50B1AB4BAA68A1
:1023C00003F10C01286815F0D0FB0321286811F0F7
:1023D000E3FC9DF8000030600120706033E0694646
:1023E0000422686818F0B3FF50B1A04BAA6803F14B
:1023F0000C01286815F0B9FB0321286811F0CCFC0A
:102400009DED000A032086ED000A1BE069460422C8
:10241000686818F09CFF50B1944BAA6803F10C0156
:10242000286815F0A2FB0321286811F0B5FC00987C
:10243000C6E9000B07E0284600F076F93060007925
:1024400040F04000706008F10108B84588DB28467C
:1024500000F010F90646401CB0F1005F24BF286868
:1024600015F07EF9F30000221146286815F04CF9AA
:10247000E66002462064002E13DD002116F0010004
:102480001CBFC2F800900121B0420ADA226C801C05
:1024900042F83190226C491C42F83190491CB042FC
:1024A000F4DB0027002EC8BF4FF0050830DD694679
:1024B0000122686818F04BFF50B16C4BAA6803F119
:1024C0000C01286815F051FB0321286811F064FC09
:1024D000206C0AEBC7019DF8002042546946012296
:1024E000686818F034FF50B1604BAA6803F10C0122
:1024F000286815F03AFB0321286811F04DFC08EB21
:10250000C702216C9DF800007F1C8854B742CEDBC7
:102510002146284600F0C6F8284600F0ABF80646EB
:10252000401CB0F1804F24BF286815F019F9B7009E
:1025300000223B461146286815F0E6F8A661A06324
:102540006B6801463A46184618F001FF50B1474BF8
:10255000AA6803F10C01286815F007FB032128681D
:1025600011F01AFC284600F085F806464049401C48
:10257000884284BF286815F0F3F806EB4600830014
:1025800000221146286815F0BFF826620246E06373
:10259000002E18DD002116F001001CBFC2F80090CB
:1025A0000121B0420FDA00BFE26B01EB4103491C8D
:1025B00042F8239001EB4102E36B801C491C43F875
:1025C0002290B042F0DB0027002EC8BF4FF0080970
:1025D00037DD284600F0A8F80146E06B07EB470816
:1025E000042240F828106946686818F0B0FE50B11F
:1025F0001E4BAA6803F10C01286815F0B6FA0321F6
:10260000286811F0C9FBE16B0AEB88030098C850F9
:1026100052466946686818F09AFE50B1134BAA6892
:1026200003F10C01286815F0A0FA0321286811F0C5
:10263000B3FBE26B09EB880000997F1C1150B74295
:10264000C7DB284600F016F8071E4FF00006D8BF7B
:10265000BDE8F88F284600F067F8216C41F8360095
:10266000761CB742F6DCBDE8F88F0000CC270008E6
:102670005555551538B5044669460422406818F08A
:1026800066FE50B1064BA26803F10C01206815F0FC
:102690006CFA0321206811F07FFB009838BD000020
:1026A000CC2700082DE9F0410D460746FFF7E2FF71
:1026B0000446401CB0F1804F24BF386815F050F834
:1026C000A30000221146386815F01EF8EC6103469D
:1026D0006863002C13DD002214F0010011461CBFBA
:1026E00019600122A0420ADA6B6B801C43F82210A9
:1026F0006B6B521C43F82210521CA042F4DB0026E4
:10270000002CD8BFBDE8F081386811F013FD696B6B
:1027100041F8260001463846AA6CFFF7A3FD761C57
:10272000B442F1DCBDE8F08130B58DB00446FFF76E
:1027300081FD0090FF280FD169460422606818F0DF
:1027400006FE48B121A324A1A268206815F00DFA65
:102750000321206811F020FB0098002804BF0DB071
:1027600030BD411E0091282917D802AB0A461946F0
:10277000606818F0ECFD48B114A317A1A2682068A6
:1027800015F0F3F90321206811F006FB206802A977
:10279000009A15F049FD0DB030BD206815F08BFC96
:1027A000054600F11001009A606818F0D0FD48B1AC
:1027B00006A309A1A268206815F0D7F903212068B3
:1027C00011F0EAFA0DB0284630BD00007472756E43
:1027D000636174656400000025733A2025732070DE
:1027E0007265636F6D70696C6564206368756E6B8C
:1027F0000000000010B4C27801780F244FF0010CE3
:102800000AB3174A126801F1E02102F4E062C2F54E
:10281000E062C2F30722C2F10403D44042789A4036
:10282000837823401A43120181F80024007800F0D5
:102830001F010CFA01F14009800000F1E020C0F80E
:10284000001110BC704701F01F000CFA00F049099C
:10285000890001F1E021C1F8800110BC704700003F
:102860000CED00E0034940F0FD7040F0806008602E
:10287000704700000CED00E02DE9F04717460E46CA
:102880008046B02814D2484800EB08156868002834
:102890001CBFA87B00280BD0002E18BF002F07D02C
:1028A000DFF8089106FB07F0D9F80010884202D93A
:1028B0000020BDE8F087072140462AF06FFC3C4A23
:1028C00068680024811A904234D018DC394AA0EBA1
:1028D0000201904228D00BDCB0F1804F21D0A0F54E
:1028E0008060B0F1804018BFB0F5806F1CD023E04D
:1028F000B1F5406F18BFB1F5805F1DD11AE0B1F599
:10290000903F14D006DCB1F5604F0AD0B1F5644FAA
:102910000DD011E0B1F5923F18BFB1F5943F0BD146
:1029200005E04FF0010407E04FF0020404E04FF02F
:10293000030401E04FF009044046FFF727FC2B6831
:10294000014622461846FFF762FBD9F80000B0FBAB
:10295000F6F0B0FBF7F46868A0F18041B1F5803182
:102960001CBFA0F18041B1F582310FD0A0F18041B0
:10297000B1F5A0311CBFA0F18041B1F5A23105D065
:10298000A0F18041B1F5A43118BF6408002100F026
:102990006AFA601E82B2701E81B2AB7B686800F07A
:1029A000D3FBA87BBDE8F087345603084409002018
:1029B00000200040000C0040044A0029116814BFA8
:1029C000084321EA000010607047000030380240E0
:1029D000044A0029116814BF084321EA000010606E
:1029E0007047000040380240044A0029116814BFB3
:1029F000084321EA000010607047000020380240C0
:102A0000044A0029116814BF084321EA000010603D
:102A10007047000044380240044A0029116814BF7E
:102A2000084321EA0000106070470000243802408B
:102A3000254A30B41168254B11F00C0106D05C100A
:102A4000042908BF046002D008291ED00360116861
:102A50000F2303EA11111E4B595CD0F800C02CFA69
:102A600001F14160D2F800C0072404EA9C2C13F85D
:102A70000CC021FA0CFCC0F808C0126804EA5232FB
:102A80009A5CD140C16030BC70471249D1F800C097
:102A9000CCF38055D1F800C0002D0CF03F0C14BFD2
:102AA000B4FBFCF3B3FBFCF3D1F800C00968CCF332
:102AB000881C03FB0CF3C1F30141491C4900B3FB23
:102AC000F1F10160C3E70000083802400024F4007F
:102AD000B8060010043802400029018814BF41F0F4
:102AE000400121F040010180704710B402880B883A
:102AF000B1F802C0CC8843EA0C03B1F804C002F478
:102B000041524CEA040C43EA0C03B1F808C043EA12
:102B10000C03B1F80AC043EA0C03B1F80CC043EA55
:102B20000C03B1F80EC043EA0C031A430280828BF7
:102B300022F400628283098A018210BC704700007F
:102B400010B5502080F31188BFF34F8FBFF36F8F04
:102B500032F07EF818B104494FF080500860002030
:102B600080F3118810BD000004ED00E0DFF86CC0B8
:102B700030B4DCF800001A4B10F00C01194806D0F4
:102B80005C10042908BF046002D008290CD003603F
:102B9000DCF80010144AC1F30311515C026822FAF8
:102BA00001F1016030BC704710490A68C2F38055DA
:102BB0000A68002D02F03F0214BFB4FBF2F2B3FB2F
:102BC000F2F20B680968C3F388135A43C1F3014159
:102BD000491C4900B2FBF1F10160D9E70838024015
:102BE0000024F40044090020480900200438024071
:102BF000374882B0016841F47001016035480168CE
:102C000041F001010160344900230B60026822F4A5
:102C1000102222F08072026000F1040C2F4ACCF8DE
:102C20000020026822F4802202600A1D13600193D2
:102C30000093026842F480320260026802F40032BB
:102C40000092019A521C0192009A1AB9019AB2F5A7
:102C5000A04FF2D1026812F4003F08BF009331D0B8
:102C6000012200921E4A136843F0805313601D4AEC
:102C7000136843F4404313600A680A600A6842F428
:102C800000420A600A6842F4A0520A60164ACCF870
:102C90000020026842F080720260026812F0007F39
:102CA000FBD0124A40F205701060086820F0030063
:102CB0000860086840F002000860086800F00C0036
:102CC0000828FAD10A494FF00060086002B0704746
:102CD00088ED00E00038024008380240103000243F
:102CE0004038024000700040086C4007003C024041
:102CF00008ED00E010B5094C0121204600F0C7F8AE
:102D0000002808BF10BD06480168002918BF884781
:102D100001212046BDE8104000F0A2B800000140AB
:102D2000DC0B002010B50121880700F0B0F8002866
:102D300008BF10BD05484068002818BF8047012122
:102D4000BDE81040880700F08BB80000DC0B0020C5
:102D500010B5094C0121204600F099F8002808BF61
:102D600010BD06488168002918BF88470121204608
:102D7000BDE8104000F074B800040040DC0B0020F7
:102D800010B5094C0121204600F081F8002808BF49
:102D900010BD0648C168002918BF88470121204698
:102DA000BDE8104000F05CB800080040DC0B0020DB
:102DB00010B5094C0121204600F069F8002808BF31
:102DC00010BD06480169002918BF88470121204627
:102DD000BDE8104000F044B8000C0040DC0B0020BF
:102DE00010B5094C0121204600F051F8002808BF19
:102DF00010BD06488169002918BF88470121204677
:102E0000BDE8104000F02CB800140040DC0B00209E
:102E100070B5104D0121284600F039F80E4C38B13C
:102E2000E169002918BF88470121284600F018F8F9
:102E30000A4D0121284600F02AF8002808BF70BD7D
:102E4000216B002918BF884701212846BDE8704042
:102E500000F006B800040140DC0B0020001C00401C
:102E6000C943018270470029018814BF41F0010164
:102E700021F00101018070470029B0F8441014BF0F
:102E800041F40041C1F30E01A0F844107047038AD9
:102E9000002280890B4200EA01001CBF00280122A9
:102EA0001046704710B4028C22F001020284038C99
:102EB0008288B0F818C00C882CF0730C44EA0C0C13
:102EC0008C8923F0020323434C882343A0F18044E0
:102ED000B4F580341CBFA0F18044B4F582340DD128
:102EE000CC8923F0080323438C8823F00403234375
:102EF0000C8A22F4407222434C8A22438280A0F83A
:102F000018C089684163038410BC7047028B22F0AB
:102F1000080211430183704730B4028C22F0100282
:102F20000284038CB0F804C0028B0D8822F4E644BE
:102F30004FF6FF7202EA05252C438D8923F020030A
:102F400002EA05152B434D8802EA05152B43A0F133
:102F50008045B5F580351CBFA0F18045B5F58235BB
:102F600017D1CD8923F0800302EA05152B438D8804
:102F700023F0400302EA05152B430D8A2CF4406C24
:102F800002EA850545EA0C0C4D8A02EA850242EA0E
:102F90000C0CA0F804C0048389688163038430BCEE
:102FA0007047028B4FF6FF7322F4006203EA01219F
:102FB00011430183704730B4028C22F48072028482
:102FC000028C8388B0F81CC00C882CF0730C44EA87
:102FD0000C0422F4007C8D894FF6FF7202EA05256D
:102FE00045EA0C0C4D8802EA052545EA0C0CA0F1D7
:102FF0008045B5F580351CBFA0F18045B5F582351B
:1030000017D1CD892CF4006C02EA052545EA0C0C99
:103010008D882CF4806C02EA052545EA0C0C0D8A9B
:1030200023F4405302EA05152B434D8A02EA0512A8
:103030001343838084838968C163A0F820C030BCB7
:103040007047828B22F0080211438183704730B4AD
:10305000028C22F480520284048C8288838B0D8837
:1030600023F4E64C4FF6FF7303EA052545EA0C0C02
:103070008D8924F4005403EA05352C434D8803EA76
:1030800005352C43A0F18045B5F580351CBFA0F176
:103090008045B5F5823505D10D8A22F4804203EAD8
:1030A00085131A438280A0F81CC0896801640484D7
:1030B00030BC7047828B4FF6FF7322F4006203EA44
:1030C000012111438183704710B402881C4BDFF843
:1030D00074C0984218BF604511D0B0F1804F1CBF3A
:1030E000A0F18044B4F5806409D0A0F18044B4F527
:1030F00000641CBFA0F18044B4F5406403D14C8847
:1031000022F070022243A0F18044B4F580541CBF29
:10311000A0F18044B4F5A05403D00C8922F440728D
:10312000224302804A68C2620A880285984212BF1E
:103130006045897A01864FF00101818210BC704799
:1031400000000140000401402DE9FF4F4F4D504E5B
:10315000504FDFF84481DFF8449189B092468B46A6
:103160000446A84218BFB4F1804F31D0A4F180408A
:10317000B0F580601CBFA4F18040B0F5006027D09E
:10318000A4F18040B0F540601CBFA4F18040B0F5D0
:1031900080501DD0A4F18040B0F5A05018BFB442BB
:1031A00016D0BC4218BF444512D04C451CBFA4F1F8
:1031B0008040B0F5C0500BD0A4F18040B0F5E05095
:1031C0001FBFA4F18040B0F500500DB0BDE8F08FF6
:1031D0000121204600F064F80020ADF814A0ADF8FD
:1031E0001C00ADF81600CDF818B005A92046FFF771
:1031F0006BFF7020ADF800000120ADF80200022046
:10320000ADF80C000C98012806D002280DD0032838
:1032100014D004281BD022E069462046FFF742FE66
:1032200008212046FFF772FE19E069462046FFF7A5
:1032300073FE08212046FFF7B4FE10E069462046E1
:10324000FFF7B9FE08212046FFF7FBFE07E06946BD
:103250002046FFF7FCFE08212046FFF72BFF012147
:103260002046FFF700FEAC4218BFB44206D0BC4275
:103270001FBF44454C450DB0BDE8F08F4FF0010134
:103280002046FFF7F9FD0DB0BDE8F08F00000140CA
:10329000000401400040014000440140004801405A
:1032A000A0F18042B2F5803243D0B0F1804F46D0D9
:1032B000A0F18042B2F580623ED0A0F18042B2F52A
:1032C00000623FD0A0F18042B2F540623DD0A0F153
:1032D0008042B2F580523BD0A0F18042B2F5A052BC
:1032E00039D0A0F18042B2F5823237D0A0F18042CD
:1032F000B2F5A03235D0A0F18042B2F5A23234D07E
:10330000A0F18042B2F5A43233D0A0F18042B2F5F0
:10331000C05232D0A0F18042B2F5E05230D0A0F1DC
:103320008042B2F5005218BF70474FF48070FFF72B
:103330004FBB0120FFF764BB0220FFF749BB012010
:10334000FFF746BB0420FFF743BB0820FFF740BB55
:103350001020FFF73DBB2020FFF73ABB0220FFF70C
:103360004FBB4FF48030FFF74BBB4FF40030FFF7FB
:1033700047BB4FF48020FFF743BB4020FFF728BB3B
:103380008020FFF725BB000010B5124C40F22551FC
:10339000206900F081F8002808BF10BD206900F006
:1033A00015F9C1B2208B628B401C00F07F00824275
:1033B00004D0228B04F11C03D154208360690028BF
:1033C00018BF804740F225512069BDE8104000F049
:1033D00053B800006809002010B5124C40F2255186
:1033E000206900F059F8002808BF10BD206900F0DE
:1033F000EDF8C1B2208B628B401C00F07F0082424E
:1034000004D0228B04F11C03D1542083606900286E
:1034100018BF804740F225512069BDE8104000F0F8
:103420002BB80000040A002010B5124C40F22551C0
:10343000206900F031F8002808BF10BD206900F0B5
:10344000C5F8C1B2208B628B401C00F07F00824225
:1034500004D0228B04F11C03D1542083606900281E
:1034600018BF804740F225512069BDE8104000F0A8
:1034700003B80000A00A0020090A012202FA01F1A3
:10348000C943018070470029818914BF41F400516C
:1034900021F400518181704710B401F01F02012412
:1034A0000023C1F3421C04FA02F2BCF1010F04BF75
:1034B000B0F80CC00CEA020208D0BCF1020F0CBF3D
:1034C000B0F810C0B0F814C00CEA0202090A008873
:1034D00004FA01F10840002A1CBF00280123184605
:1034E00010BC7047C1F3421301F01F014FF0010CF3
:1034F0000CFA01F1012B08BF0C3003D0022B0CBFDA
:1035000010301430002A026814BF114322EA01016E
:103510000160704730B50446008A85B00D46C98801
:1035200020F4405008432082A089A9882A8920F4E9
:10353000037011436A8920F4A05010430843A0810E
:10354000A08AA98920F440700843A0826846FFF74A
:103550006FFAA4F18040B0F588301BBFA4F1804021
:10356000B0F58A3003980298A18911F4004F00EB5E
:10357000C00101EB0010296814BF49008900B0FBAD
:10358000F1F0114A6FF0180CA2FB00314909090152
:103590000B0903FB0CF300EB8300A38913F4004F2A
:1035A0004FF0320314BF03EBC00003EB0010A2FB8B
:1035B00000204FEA501014BF00F0070000F00F0089
:1035C0000843208105B030BD1F85EB518088C0F3D2
:1035D00008007047C1F3080181807047F8B500F01A
:1035E00099F91D493220B1F88C20D1F880104A8316
:1035F0000AF028FA04256E4600F074FB00F072FB16
:10360000BA2000F0C7FF812000F0C4FF402000F086
:10361000C1FF00F067FB14200AF01EFABB2000F087
:10362000B9FF00246F1EBC4204D1002000F050FFFF
:10363000305503E0012000F04BFF3055601CC4B250
:10364000AC42F0D300F07EF99DF80000392814BF99
:1036500000200120F8BD0000345603082DE9F04F8A
:103660009B4F9C498BB038789B4E401CC0B2A1FB4D
:103670000021C908494201EB81014FF0000B38706D
:1036800010EB410102D00A2880F005814FF02A0892
:10369000E94600F027FB00F025FBBA2000F07AFF96
:1036A000812000F077FF4E2000F074FF00F01AFB3D
:1036B00014200AF0D1F9BB2000F06CFF0024A8F11F
:1036C000010A07E0544505D1002000F001FF09F888
:1036D000040004E0012000F0FBFE09F80400601C77
:1036E000C4B24445EED300F02DF99DF8000010F06F
:1036F000800F17D000F00F00062813D200252C46AB
:1037000000F0F0FA00F0EEFABA2000F043FF81205A
:1037100000F040FF4E2000F03DFF204600F03AFF51
:1037200000F010F99DF8002012F00F0F74D002F095
:103730000F00062870D212F00F0FEC464FF0010375
:1037400012D00CF10101002002F00F0201E0042868
:1037500004DC0C7803FA04F42C43E5B2401C083175
:10376000521E12F0FF02F2D145F0C00096F81C8004
:10377000307730893082708A70830CF10300574DA6
:1037800006F1080106F1120900224FF0050C347F02
:1037900003FA02FA14EA0A0F51D02C7834B1012C42
:1037A00011D0022C21D0032C37D048E010F8014C66
:1037B00090F800A004EB0A240C80447890F802A052
:1037C00004EB0A2425E010F8014C90F800A004EB6B
:1037D0000A24B5F808A0AAEB0404A9F8004044782C
:1037E00090F802A004EB0A2428E010F8014C90F8AD
:1037F00000A004EB0A24B5F804A0AAEB04040C8092
:10380000447890F802A004EB0A24B5F808A0AAEBCB
:103810000404A9F8004012E03DE010F8014C90F8D3
:1038200000A004EB0A24A9F80040447890F802A014
:1038300004EB0A24B5F804A0AAEB04040C800830B9
:10384000891C521CACF1010C09F102091CF0FF0C9F
:103850009DD131896A6800204FF0010B914205DC4F
:10386000718AAA689142D8BF387014DD9DF80010A3
:1038700001F00F01012905D971893181B18A718265
:10388000387008E0308A3081708B708280208DF82B
:10389000000086F81C809DF8000000F08F00802852
:1038A0000DD1307F10F0800F18BF20F0800005D1BF
:1038B0004FF6FF713181718200F0E0003077387887
:1038C000F02884BF0A20387058460BB0BDE8F08F4E
:1038D00000000010CDCCCCCC18000010040000106B
:1038E00010B5044628F03EFF00EE100A2046B8EE60
:1038F000400A18F0CEFD012010BD10B5044628F096
:103900004FFF00EE100A2046B8EE400A18F0C1FD45
:10391000012010BD10B50521132029F03FFC052121
:10392000322029F03BFC0648D0F83021B0F83C1199
:103930001183B0F82C13D0F82003018310BD0000D0
:103940003456030810B5012000F04EFA0D4CD4F89F
:103950002013B4F82C034883D4F83011B4F83C0198
:10396000488301200AF078F8D4F82013B4F82C0327
:10397000088301200AF070F8D4F83011B4F83C0143
:10398000088310BD3456030810B5104A10A1124820
:1039900005F000F8114A12A10F4804F0FBFF134A8A
:1039A00013A10D4804F0F6FF154A16A10A4804F0C9
:1039B000F1FF174A17A1084804F0ECFFBDE81040DA
:1039C000174A18A1044804F0E5BF00007D3A00083A
:1039D00070696E4D6F646500A00D0010393E0008DF
:1039E000746F67676C6550696E000000AD46000833
:1039F0006469676974616C577269746500000000DE
:103A00006D4200086469676974616C5265616400A5
:103A100041410008616E616C6F675772697465009F
:103A2000ED3F0008616E616C6F6752656164000074
:103A300010B5084A08A10A4804F0ACFF094A0AA1D7
:103A4000074804F0A7FFBDE81040094A09A104484F
:103A500004F0A0BFFB3800086D696C6C697300004E
:103A6000A00D0010E13800086D6963726F730000EB
:103A70003152000864656C617900000070B584B053
:103A8000064618F0D9F9032806D053A1304618F09D
:103A900009FD304617F0E1FD0121304618F035FAF6
:103AA00030B95CA1304618F0FDFC304617F0D5FD6A
:103AB0000221304618F029FA30B95AA1304618F0E0
:103AC000F1FC304617F0C9FD0321304618F036FAF4
:103AD00030B958A1304618F0E5FC304617F0BDFD6E
:103AE00000220121304619F0EFF9BDEEC00A002294
:103AF000022110EE105A304619F0E6F9BDEEC00A68
:103B0000681E072810EE104A06D34EA1304618F062
:103B1000C9FC304617F0A1FD102C06D351A1304648
:103B200018F0C0FC304617F098FD28011038044406
:103B300000220321304619F095F90146684603F04A
:103B4000C8F9684603F08EF94BA1684605F00BFBF7
:103B500000281CBFE0B2052103D000BF29F01EFBE6
:103B600033E047A1684605F0FEFA00281CBFE0B22A
:103B70000021F3D144A1684605F0F5FA00281CBFE6
:103B8000E0B20121EAD144A1684605F0ECFA002830
:103B90001CBFE0B20221E1D143A1684605F0E3FA7F
:103BA00000281CBFE0B20321D8D143A1684605F02C
:103BB000DAFA00281CBFE0B20821CFD13F493046D5
:103BC00018F070FC304617F048FD684603F094F991
:103BD00004B0002070BD00004572726F7221204554
:103BE00078616D706C653A2070696E4D6F64652800
:103BF000312C312C224F55545055542229202D3E22
:103C000020504131204F5554505554204D6F64651C
:103C1000000000004572726F72204750494F7820B3
:103C2000210000004572726F722050696E78202169
:103C3000000000004572726F72204D6F6465202194
:103C4000000000004572726F72204750494F782083
:103C500069732741272D3E31207E2747272D3E3788
:103C6000210000004572726F722050696E782069E1
:103C70007320307E313521004F555450555400008B
:103C8000494E505554000000494E5055545F505510
:103C90004C4C555000000000494E5055545F505553
:103CA0004C4C444F574E0000494E5055545F414EC6
:103CB000414C4F470000000050574D0034B00308FE
:103CC000DFF818C010B508460023DCF8001003F038
:103CD00033FD002814BF00200C2010BD3C0900203B
:103CE0000020704710B5012000F07EF80D4CD4F88C
:103CF0003011B4F83C010883D4F82013B4F82C0335
:103D00000883012009F0A8FED4F83011B4F83C0172
:103D10004883012009F0A0FED4F82013B4F82C0346
:103D2000488310BD34560308104801F08CFD002173
:103D30000E4801F0F3FA0E480068804744F620620E
:103D40004FF47A711920FEF797FD4FF4FA7119209C
:103D50002AF036F900F014F800F01AFB00F06AFEC1
:103D600026F0FAFF0A2030F01DF9F9E7CC260020F2
:103D70001800001010B5084603F03AFE002010BDF0
:103D800000B58FB020F08EFB13494FF4C8530022CA
:103D9000A1F11C001BF006FC68461BF010FC4FF460
:103DA000A070ADF800004FF4F070ADF802000B48C1
:103DB00003900B48019068461BF024FC08A81FF0F4
:103DC00050FE01208DF820000648099008A81FF039
:103DD0005BFE0FB000BD000064270020993F000883
:103DE000482700203D49000870B5114D0446287948
:103DF00010F0010F0BD1281D05F052FA38B1002C3C
:103E00000CBF0120002028700A48AFF300802878FA
:103E1000844208BF70BD24B10521132029F0BEF9EA
:103E200003E00021132029F0B9F92C7070BD0000C7
:103E3000100000101400001070B5064617F0FCFFCB
:103E4000022806D024A1304618F02CFB304617F08B
:103E500004FC01242146304618F057F830B92BA154
:103E6000304618F01FFB304617F0F7FB641C022C9D
:103E7000F0DD00220121304619F026F8BDEEC00A1F
:103E80000022022110EE105A304619F01DF8BDEE46
:103E9000C00A681E0B2810EE104A06D321A1304636
:103EA00018F000FB304617F0D8FB102C06D325A1E4
:103EB000304618F0F7FA304617F0CFFB28011038DB
:103EC0002549204401EB0011086842698989514065
:103ED0004161002070BD00004572726F7221204563
:103EE00078616D706C653A20746F67676C655069B6
:103EF0006E28312C3129202D3E746F67676C652048
:103F00005041312053746174650000004572726F36
:103F100072206E756D626572206F662056616C75D9
:103F2000652100004572726F72204750494F78201A
:103F300069732741272D3E31207E274B272D3E31A7
:103F4000312100004572726F722050696E782069CD
:103F50007320307E313521003456030810B500231C
:103F600004461A46194618F089FD054909790029C1
:103F700008BF10BD03A12046BDE8104012F07CBB75
:103F8000A00D00106C7561207363726970742062FB
:103F90007265616B0000000010B513460446C888C6
:103FA000B1F90220B1F804C0B1F90010801AACEBED
:103FB000010C82B0401C0CF1010C00B20FFA8CFC19
:103FC000CDE900C0044801F00CFC02B02046BDE879
:103FD00010401BF07BBB0000CC260020024948604B
:103FE000086830F04BB800004806001070B506466F
:103FF00017F022FF022806D025A1304618F052FA09
:10400000304617F02AFB01242146304617F07DFF89
:1040100030B92BA1304618F045FA304617F01DFB99
:10402000641C022CF0DD00220121304618F04CFF08
:10403000BDEEC00A0022022110EE105A304618F0E0
:1040400043FFBDEEC00A681E072810EE104A06D3D3
:1040500021A1304618F026FA304617F0FEFA102C4F
:1040600006D325A1304618F01DFA304617F0F5FAB0
:10407000280110382044C0B207F08CFC00EE100A72
:104080003046B8EE400A18F004FA012070BD000076
:104090004572726F7221204578616D706C653A20AF
:1040A000616E616C6F675265616428312C31292023
:1040B0002D3E52656164205041312041444300004F
:1040C0004572726F72206E756D626572206F662028
:1040D00056616C75652100004572726F7220475001
:1040E000494F782069732741272D3E31207E27478D
:1040F000272D3E37210000004572726F72205069F3
:104100006E7820697320307E313521000A4804F032
:1041100063FCFFF78DFCFFF737FC084C206808B103
:1041200030F02EF8616800291CBF034804F064FCDD
:1041300020680028F6D0F3E7A00D00104806001014
:104140002DE9F041064617F077FE032806D027A197
:10415000304618F0A7F9304617F07FFA01242146BF
:10416000304617F0D2FE30B92DA1304618F09AF93A
:10417000304617F072FA641C032CF0DD0022012196
:10418000304618F0A1FEBDEEC00A0022022110EE5A
:10419000105A304618F098FEBDEEC00A00220321E6
:1041A00010EE104A304618F08FFEBDEEC00A681EB1
:1041B000072810EE107A06D31FA1304618F072F9C6
:1041C000304617F04AFA102C06D323A1304618F0D7
:1041D00069F9304617F041FA280110382044B9B285
:1041E000C0B207F0E9FB0020BDE8F0814572726FB4
:1041F0007221204578616D706C653A20616E616C4A
:104200006F67577269746528312C312C353030292D
:10421000202D3E5041312050574D20353025000093
:104220004572726F72206E756D626572206F6620C6
:1042300056616C75652100004572726F722047509F
:10424000494F782069732741272D3E31207E27472B
:10425000272D3E37210000004572726F7220506991
:104260006E7820697320307E3135210070B50646A6
:1042700017F0E2FD022806D025A1304618F012F909
:10428000304617F0EAF901242146304617F03DFE8A
:1042900030B92CA1304618F005F9304617F0DDF999
:1042A000641C022CF0DD00220121304618F00CFEC7
:1042B000BDEEC00A0022022110EE105A304618F05E
:1042C00003FEBDEEC00A681E0B2810EE104A06D38E
:1042D00022A1304618F0E6F8304617F0BEF9102C4F
:1042E00006D326A1304618F0DDF8304617F0B5F9B0
:1042F000280110382044C0B209F038FC00EE100A42
:104300003046B8EE400A18F0C4F8012070BD000035
:104310004572726F7221204578616D706C653A202C
:104320006469676974616C5265616428312C312954
:10433000202D3E52656164205041312053746174D8
:10434000650000004572726F72206E756D62657255
:10435000206F662056616C75652100004572726F92
:1043600072204750494F782069732741272D3E31ED
:10437000207E274B272D3E31312100004572726F80
:10438000722050696E7820697320307E31352100AB
:1043900070B501228EB03A4C3A4D002362F30F0003
:1043A00063F3174009950A930B960C900D970998A3
:1043B0000A990B9BDDF830C004AD85E80B109DF821
:1043C00034008DF82000084619466346DDF820C009
:1043D0008DE80B1004F58E6104F58C60049B04F0ED
:1043E000F7FCF8B104F58C6020602438054603F032
:1043F000FFFA0121204604F023F920B900212046CC
:1044000004F01EF970B101262846214603F0C5FECE
:1044100000281CBF287810F0700F03D01A480560E0
:104420001A4806701A481EF0DFFC19482C214180FA
:1044300053210170174981601749C1601749016113
:10444000174981611749C1611749016217494162E2
:10445000174941631749C16217494161174901630F
:1044600017498162202181801649016416498163C0
:104470001649C1630EB0BDE870401EF0B9BC000023
:104480006459002080F0FA023C0900201C09002039
:10449000F05D0020C95100085D50000891510008EE
:1044A000CD500008E551000841510008895100082D
:1044B0005950000881510008C5520008DD5200081B
:1044C000D5510008753D0008C13C0008E13C0008DA
:1044D0002DE9F041074600252846FFF785FC2C4CC6
:1044E000002600BFD4F82013B4F82C03488305201D
:1044F00009F0B2FAD4F82013B4F82C030883680644
:10450000050ED4F830010069B4F83C1108421CBF14
:10451000681CC5B2701CC6B2082EE3D3D4F82013B1
:10452000B4F82C0348834FF00100CFB1FFF75CFCD7
:10453000D4F83011B4F83C014883012009F08CFA1A
:10454000D4F82013B4F82C030883012009F084FA6E
:10455000D4F82013B4F82C0348832846BDE8F08132
:10456000FFF742FCD4F83011B4F83C010883012075
:1045700009F072FAD4F82013B4F82C030883012050
:1045800009F06AFAD4F82013B4F82C034883E4E75E
:104590003456030870B505460120FFF725FC374C5B
:1045A000D4F82013B4F82C0348830026B4F83C0157
:1045B000D4F8301115F0800F14BF088348836806C3
:1045C000D4F82013050EB4F82C030883012009F059
:1045D00043FAD4F82013B4F82C034883012009F0DF
:1045E0003BFA701CC6B2082EE0D300252846FFF720
:1045F000FBFBD4F83011B4F83C010883012009F02A
:104600002BFAD4F82013B4F82C030883012009F006
:1046100023FAD4F830010069B4F83C11084227D0DD
:10462000681CC5B2FA2D1DD90120FFF7DDFBD4F8B7
:104630002013B4F82C034883D4F83011B4F83C01AB
:104640004883012009F008FAD4F82013B4F82C03A9
:104650000883012009F000FAD4F83011B4F83C01C5
:10466000088370BDD4F83001006989B20842D7D1FF
:10467000D4F82013B4F82C03488370BD34560308D3
:1046800010B5084C0146606824F048FD606825F0CC
:104690000BF8C82898BF10BD03A16068BDE81040A2
:1046A00025F048BB20090020000000002DE9F04162
:1046B000064617F0C1FB032806D027A1304617F0A5
:1046C000F1FE304616F0C9FF01242146304617F0AE
:1046D0001CFC30B92CA1304617F0E4FE304616F031
:1046E000BCFF641C032CF0DD00220121304618F0D1
:1046F000EBFBBDEEC00A0022022110EE105A30463C
:1047000018F0E2FBBDEEC00A0022032110EE104AB1
:10471000304618F0D9FBBDEEC00A681E0B2810EE1B
:10472000107A06D31EA1304617F0BCFE304616F0B4
:1047300094FF102C06D322A1304617F0B3FE30466A
:1047400016F08BFF280110382044F9B2C0B209F0EE
:104750001DFA0020BDE8F0814572726F722120457C
:1047600078616D706C653A206469676974616C5733
:104770007269746528312C312C3129202D3E50412D
:1047800031206973203100004572726F72206E759E
:104790006D626572206F662056616C756521000040
:1047A0004572726F72204750494F782069732741D4
:1047B000272D3E31207E274B272D3E313121000011
:1047C0004572726F722050696E7820697320307E56
:1047D0003135210010B504461F21324800F09EFDFE
:1047E0004FF6FF712F4801F020FF2F492D4801F0AF
:1047F000E5FF02212B4801F013FF50220021294838
:1048000001F0A1FE29A1274802F018FB002125484C
:1048100001F0D4FF0221234801F002FF214804F0F7
:104820009FFC00EBD0706FF00F0202EB600002B251
:1048300000211C4801F087FE21461A4802F0FEFACA
:104840001BA1184802F0D0FA164804F089FC62381F
:1048500002B20021134801F076FE1BA1114802F0BC
:10486000EDFA1C4802681CA10E4802F0D2FA1E485C
:1048700002681EA10B4802F0CCFA1F4802681FA173
:10488000084802F0C6FA2048026820A1054802F054
:10489000C0FA21480268BDE8104020A1014802F09A
:1048A000B8BA0000CC260020489F03083A28000030
:1048B00053796574656D2077696C6C207265626FE1
:1048C0006F742E2E2E0000004572726F7220636F7F
:1048D00064653A0034ED00E04D4D4641523D30787C
:1048E00025780D0A0000000038ED00E042464152F4
:1048F0003D307825780D0A0028ED00E043465352FC
:104900003D307825780D0A002CED00E048465352E2
:104910003D307825780D0A0030ED00E044465352D2
:104920003D307825780D0A0010B5006821F0E8FECA
:1049300001490020886010BD2009002070B5094C95
:104940000D4660688047207FC1090748A97303D0DE
:1049500021890180618A418001882980408868809E
:10496000002070BD180000101809002030B5294C37
:1049700089B00D46A0681FF0B7FE112D0CD0122D86
:104980001FD0042D1CBF09B030BD23A1206809B081
:10499000BDE8304025F0CEB92049214804F009F89F
:1049A000206824F08FFEFFF719FB01221146E06812
:1049B00025F0A0FF606809B01AA1BDE8304024F0DE
:1049C000ADBB174803F0F8FFA068009022F0D0F8C4
:1049D00004901AF08FFE1AF0C7FE0590124801905D
:1049E00012480290124803900020ADF81A004FF4CC
:1049F0009671ADF818109DF82010ADF81C0021F04C
:104A00000301ADF81E008DF82010684618F052FF23
:104A100009B030BD200900200000000081460008D8
:104A2000A00D00100A3E2000DD6F0208B5D9010874
:104A3000294900082DE9F04F83B000201AF060FEEC
:104A4000804600201AF090FE0746FE49FE4823F0FB
:104A50001BFEBDF80800162161F304001F2565F355
:104A60004A10092161F3CF20ADF8080080B202900E
:104A7000F548BDF8081000244180BDF80800162153
:104A800061F3040065F34A10092161F3CF20ADF80A
:104A9000080080B20290EC48BDF808108180C48202
:104AA0000483EA493C3023F0EFFDE948E949047208
:104AB00084813C3023F0E8FDE7484FF07F093F2632
:104AC000C48080F80890BDF8080065F3040066F320
:104AD0004A1065F3CF20ADF8080080B20290DA48A2
:104AE000BDF80810A0F87A10BDF8080065F30400BE
:104AF00066F34A1065F3CF20ADF8080080B202904B
:104B0000D148BDF80810A0F87C10783010218481BD
:104B1000BDF8080061F30400202161F34A10102160
:104B200061F3CF20ADF8080080B20290C648BDF80E
:104B30000810A0F8981000201AF00DFE002125F0B2
:104B400015FDC6493A46C860414622F0CBF9C34834
:104B5000C3A1C06825F0E8FB8046C048C2A1C06878
:104B600025F0E2FB0290BD48B74A0221C06825F05B
:104B70005FFEBA48B34A0121C06825F059FEB74824
:104B8000B34A0321C06825F053FEB448B24A042159
:104B9000C06825F04DFEB148AD4A0521C06825F03A
:104BA00047FEAE48AC4A0621C06825F041FEB04A37
:104BB0000021404623F062F9AD4A0121404623F02E
:104BC0005DF90021404623F030F9AA49AA4823F0B4
:104BD0005BFDA9484FF04C0A042780F808A0C48068
:104BE000BDF80400082167F3040061F34A1067F37D
:104BF000CF20ADF8040080B201909348BDF80410B6
:104C0000A0F8D4100021404624F07EFB93490860B0
:104C1000404621F035FF8346404622F08FFC21F0CC
:104C20008DFF01460BEBDB7042108C48006822F0D0
:104C300059F98A48904A0021006825F044F88748CD
:104C40008E49006825F076F884488D49006822F086
:104C500089F87C498B4823F017FD804801210068C2
:104C600025F0FEF88749FF200872BDF8000064F3C4
:104C7000040064F34A1064F3CF20ADF8000080B262
:104C80000090A1F59670BDF80020A0F82E21BDF887
:104C90000000A1F5967264F3040064F34A1064F313
:104CA000CF20ADF8000080B20090BDF80000A2F85F
:104CB00030014C838C83CC820C83CC83614902F518
:104CC000B47023F0E1FC704901204FF018080C7219
:104CD000CC808881BDF800004FF0300B68F30400F1
:104CE0006BF34A1068F3CF20ADF8000080B200905B
:104CF000A1F5B470BDF80020A0F8722181F80F90E2
:104D0000BDF8000064F3040064F34A1064F3CF209C
:104D1000ADF8000080B20090A1F5B470BDF80010AD
:104D2000A0F86A11BDF8000064F3040064F34A10AF
:104D300064F3CF20ADF8000080B200904248BDF887
:104D40000010A0F86C11BDF8000065F3040066F3D4
:104D50004A1065F3CF20ADF8000080B200903A48C9
:104D6000BDF80010A0F888113A4900F5D27023F080
:104D70008BFC4649CC8081F80890BDF8000065F3B3
:104D8000040066F34A1065F3CF20ADF8000080B24E
:104D90000090A1F5D270BDF80020A0F8A621BDF8C2
:104DA000000065F3040066F34A1065F3CF20ADF808
:104DB000000080B20090A1F5D270BDF80020A0F8EC
:104DC000A82101208881BDF80000294A68F3040069
:104DD0006BF34A1068F3CF20ADF8000080B200906A
:104DE000A1F5D270BDF80010A0F8AE11029D00210F
:104DF000284623F043F81E4A0121284623F03EF8B6
:104E00000021284623F011F81A49214823F03CFCE0
:104E10001F48082180F808A0C480BDF8040067F38B
:104E2000040061F34A1067F3CF20ADF8040080B2AC
:104E300001900548BDF80410A0F810110021284683
:104E400028E0000080090010C00B0010700A00105C
:104E5000FC0B0010AC0A0010380C001020090020D8
:104E6000496E7075740000004F75747075740000A1
:104E700008090010F8090010740C0010549F030872
:104E8000E54E0008EC0C0010280D0010640D001019
:104E9000B00C001024F038FA0F494860284621F081
:104EA000EFFD0446284622F049FB21F047FE01466B
:104EB00009482246406822F015F80748074A0021B1
:104EC000406824F000FF044805A1406803B0BDE835
:104ED000F04F24F02FBF000020090020B00C00107C
:104EE0000000000070B5334C8AB00E46206821F0F7
:104EF000F0FD21F0EEFD0546062E07BFA068002854
:104F00000AB070BD4FF0000128461FF05FFBA060A3
:104F1000284621F0BBFD0646284621F015FE014635
:104F200006EBD6704210A06821F0DCFF002500954A
:104F30002B460D222168A06821F018F82168A0688E
:104F40001FF040FD1C4A0021A0681FF021FD1B4AF4
:104F50000121A0681FF01CFD194A0221A0681FF062
:104F600017FD1849A06821F0FDFEA06801901AF015
:104F7000C1FB1AF0F9FB0590A06821F0F9FD06903D
:104F8000114802901148CDE90305ADF81E504FF4C9
:104F90009670ADF81C009DF82400ADF8205020F06C
:104FA00003008DF82400ADF8225001A818F082FC0F
:104FB0000AB070BD20090020EC0C0010280D001074
:104FC000640D00106D490008DD6F0208B5D90108B5
:104FD00010B582B04FF4E1310D4801F0D9FD002445
:104FE0000220CDE90004C20223460AA10D482FF099
:104FF00053FD0D480023CDE9004042F210720BA191
:105000000E482FF049FD02B0BDE810402FF07CB8EB
:10501000680900205461736B5F44697370616C7937
:1050200000000000293D0008480600105461736B21
:105030005F4C756153637269707400000D41000824
:1050400010B5FEF7CBFA034901484860002010BDB7
:105050005D3600081800001009207047F0B50020E8
:105060008BB00C46012B0CBF0120022B02D0032B6E
:1050700008BF032000218DF8081003468DF80910A1
:10508000019111480F49009101686D4602A802F094
:1050900053FB002802BF0C200BB0F0BD002105F12E
:1050A000080003F02BF80DF1080E9EE8EF1004F154
:1050B000080E8EE8EF100A98A062019860600BB0AD
:1050C0000020F0BD48AE03083C0900202DE9F04364
:1050D00001F11405144695E8E003D1E902028BB012
:1050E000D1F810C0CDE9020205A8CDF810C080E8C3
:1050F000E003886A0A9010480090486801900F48C1
:1051000000909DF80800C0F3C00080B1A9EB070033
:10511000EC46B0F1004F00D248B11A4621460CF1DE
:10512000080002F05EFB0BB00020BDE8F0830BB07E
:105130000C20BDE8F083000034AE030848AE03083D
:105140002DE9F04101F108008CB090E8F9110DF162
:10515000080E8EE8F911886A0A900748009048689E
:10516000019006480090114602A802F0C7FF0CB05B
:105170000020BDE8F081000034AE030848AE03080B
:10518000486A106000207047C869106000207047AE
:10519000F0B501F108008BB090E8FD100DF1080E9C
:1051A0008EE8FD10886A0A900548009048680190D2
:1051B0000448009002A802F01BFC0BB00020F0BDD8
:1051C00034AE030848AE0308014800787047000079
:1051D0001C09002010B501F1080002F0BBFB002003
:1051E00010BD00002DE9F04301F10800904690E861
:1051F000F5128BB00DF1080E8EE8F512886A0A9050
:105200000948009048680190084800901A464146B5
:1052100002A802F0FBFCB0F1FF3F14BF00200C20FD
:105220000BB0BDE8F083000034AE030848AE0308BD
:1052300010B5044616F000FE012806D00FA1204646
:1052400017F030F9204616F008FA0121204616F032
:105250005CFE30B914A1204617F024F9204616F060
:10526000FCF900220121204617F02EFEBCEEC00AF8
:1052700010EE100A08F0E6FB002010BD4572726FB8
:105280007221204578616D706C653A2064656C61AF
:1052900079283130303029202D3E2064656C6179C9
:1052A00020313030306D73004572726F722120559D
:1052B000736520496E746567657220746F2064653C
:1052C0006C61790010B50924034802F083FD0028C1
:1052D00018BF0024204610BDA05D002030B5154643
:1052E00089B00A4600218DF800108DF801100A4996
:1052F00000230C46684602F01FFA48B121462A46B0
:10530000684602F028FE00281EBF002009B030BD0C
:105310000C2009B030BD0000A05D002038B5044667
:10532000C0890D46401E00B20090A089401E03B205
:10533000206800221146D0F84CC02046E047A189E1
:10534000E289002011FB02F1002998BF38BD00BF9F
:10535000626BB4F846105183A26BB4F84810118305
:10536000216A0D60E26BB4F84A105183E26BB4F825
:105370004A101183626BB4F846101183A189E28947
:1053800011FB02F1401C8142E2D838BD11F0030349
:1053900043764FF4A0714FF4F07237D0012B66D0F2
:1053A000022B7DD0032B18BF70478281C181436BD4
:1053B000B0F8462036215A83836BB0F848205A83D0
:1053C000026A1160C26BB0F84A105183C26BB0F828
:1053D0004A101183426BB0F846101183436BB0F84A
:1053E0004620A8215A83836BB0F848201A83026AAA
:1053F0001160C26BB0F84A105183C26BB0F84A100A
:105400001183B0F84610406B018370478181C281DF
:10541000436BB0F8462036215A83836BB0F848209E
:105420005A83026A1160C26BB0F84A105183C26B92
:10543000B0F84A101183426BB0F846101183436BE9
:10544000B0F8462008215A83836BB0F848201A83AD
:10545000026A1160C26BB0F84A105183C26BB0F897
:105460004A101183B0F84610406B01837047828167
:10547000C181436BB0F8462036215A83836BB0F864
:1054800048205A83026A1160C26BB0F84A105183F7
:10549000C26BB0F84A101183B0F84610426B00E0BE
:1054A00018E01183436BB0F8462068215A83836B60
:1054B000B0F848201A83026A1160C26BB0F84A1033
:1054C0005183C26BB0F84A101183B0F84610406B9C
:1054D000018370478181C281436BB0F84620362139
:1054E0005A83836BB0F848205A83026A1160C26BFA
:1054F000B0F84A105183C26BB0F84A101183426B66
:10550000B0F846101183436BB0F84620C8215A8387
:10551000836BB0F848201A83026A1160C26BB0F83E
:105520004A105183C26BB0F84A101183B0F846108C
:10553000406B018370470000F8B50446B0F90C00D9
:10554000069E1D468842C6BFB4F90E009042F8BDC3
:10555000012DB8BFF8BD53195B1E8342A4BF801A4A
:1055600005B20029B8BF0021002AB8BF0022501997
:10557000401E00B2009020680B46D0F84CC0204678
:10558000E047681E00B238BFF8BD00BF626BB4F8D8
:1055900046105183A26BB4F848101183216A0E6043
:1055A000E26BB4F84A105183E26BB4F84A101183ED
:1055B000626BB4F846101183401E00B2E6D2F8BD0B
:1055C0000029A6BF002A002B704770B4DDF80CC07C
:1055D000BCF1000FBCBF70BC70472A24466BB0F80A
:1055E00046507583866BB0F848507583056A2C6009
:1055F000C56BB0F84A406C83C56BB0F84A402C8349
:10560000456BB0F846402C83466BB0F84650C1F36A
:105610000F247583866BB0F848503583056A2C607B
:10562000C56BB0F84A406C83C56BB0F84A402C8318
:10563000456BB0F846402C83456BB0F84640C9B284
:105640006C83856BB0F848402C83046A2160C46B7E
:10565000B0F84A106183C46BB0F84A102183446BE0
:10566000B0F846102183456BB0F84640C3F30F21D4
:105670006C83856BB0F848402C83046A2160C46B4E
:10568000B0F84A106183C46BB0F84A102183446BB0
:10569000B0F846102183446BD9B2B0F8463063832A
:1056A000846BB0F848302383036A1960C36BB0F889
:1056B0004A105983C36BB0F84A101983436BB0F892
:1056C00046101983446BB0F846302B216383846BFA
:1056D000B0F848306383036A1960C36BB0F84A10AE
:1056E0005983C36BB0F84A101983436BB0F8461066
:1056F0001983446BB0F84630C2F30F216383846B87
:10570000B0F848302383036A1960C36BB0F84A10BD
:105710005983C36BB0F84A101983436BB0F8461035
:105720001983436BD1B2B0F846205A83836BB0F82B
:1057300048201A83026A1160C26BB0F84A10518384
:10574000C26BB0F84A101183426BB0F84610118357
:10575000436BB0F84620CCF30F215A83836BB0F82B
:1057600048201A83026A1160C26BB0F84A10518354
:10577000C26BB0F84A101183426BB0F84610118327
:10578000436BB0F846200CF0FF015A83836BB0F8EE
:1057900048201A83026A1160C26BB0F84A10518324
:1057A000C26BB0F84A101183426BB0F846101183F7
:1057B000436BB0F846202C215A83836BB0F8482005
:1057C0005A83026A1160C26BB0F84A105183C26BEF
:1057D000B0F84A101183B0F84610406B018370BCDA
:1057E0007047F8B50446DDE906769019401E00B210
:1057F0000090C8191D46401E03B22068D0F84CC066
:105800002046E047626BB4F8460007FB06F1508380
:10581000A26BB4F848001083002000290ED9236A37
:1058200035F810201A60E36BB4F84A205A83E36B12
:10583000B4F84A201A83401C8142F0D8616BB4F856
:1058400046000883F8BD70B590F82450044605F171
:105850001000A8420AD9E8B2052127F09FFC681C75
:1058600085B294F824001030A842F4D894F82500AA
:10587000052127F093FC94F82600052127F08EFCE3
:1058800094F82700052127F089FC94F828000521C9
:1058900027F084FC94F82900052127F07FFC216C77
:1058A000B4F84C000883216BB4F8440048836420AA
:1058B00008F0C8F8216BB4F844000883322008F0DF
:1058C000C1F8626BB4F84610F7205183A26BB4F8AC
:1058D00048105183216A0860E16BB4F84A0048839C
:1058E000E16BB4F84A000883616BB4F846000883A2
:1058F000626BB4F84610A9205183A26BB4F848102B
:105900001183216A0860E16BB4F84A004883E16BB7
:10591000B4F84A000883616BB4F846000883626BF0
:10592000B4F8461051205183A26BB4F8481011838B
:10593000216A0860E16BB4F84A004883E16BB4F86F
:105940004A000883616BB4F846000883626BB4F8C0
:1059500046102C205183A26BB4F848101183216AA1
:105960000860E16BB4F84A004883E16BB4F84A0080
:105970000883616BB4F846000883626BB4F8461084
:1059800082205183A26BB4F848101183216A086009
:10599000E16BB4F84A004883E16BB4F84A0008832D
:1059A000616BB4F846000883626BB4F84610C020FF
:1059B0005183A26BB4F848105183216A0860E16BEF
:1059C000B4F84A004883E16BB4F84A000883616B7D
:1059D000B4F846000883626BB4F846101120518376
:1059E000A26BB4F848101183216A0860E16BB4F827
:1059F0004A004883E16BB4F84A000883616BB4F84D
:105A000046000883626BB4F8461009205183A26BEC
:105A1000B4F848101183216A0860E16BB4F84A00B9
:105A20004883E16BB4F84A000883616BB4F8460020
:105A30000883626BB4F84610C1205183A26BB4F89E
:105A400048105183216A0860E16BB4F84A0048832A
:105A5000E16BB4F84A000883616BB4F84600088330
:105A6000626BB4F8461041205183A26BB4F8481021
:105A70001183216A0860E16BB4F84A004883E16B46
:105A8000B4F84A000883616BB4F846000883626B7F
:105A9000B4F84610C5205183A26BB4F84810518366
:105AA000216A0860E16BB4F84A004883E16BB4F8FE
:105AB0004A000883616BB4F846000883626BB4F84F
:105AC000461000205183A26BB4F848101183216A5C
:105AD0000860E16BB4F84A004883E16BB4F84A000F
