:020000040800F2
:1000000060910120650200086D0200086922000865
:100010007102000873020008750200080000000069
:10002000000000000000000000000000A501000822
:10003000790200080000000001020008792B000886
:100040007F0200087F0200087F0200087F0200088C
:100050007F0200087F020008151E0008E91E000844
:10006000111F0008391F0008611F00087F020008E7
:100070007F0200087F0200087F0200087F0200085C
:100080007F0200087F0200087F0200087F0200084C
:100090007F0200087F0200087F020008891F000815
:1000A0007F0200082D2D00087F0200087F02000853
:1000B0005D2D0008892D0008B92D00087F02000879
:1000C0007F0200087F0200087F0200087F0200080C
:1000D0007F020008C13300081134000861340008B1
:1000E0003D1E00087F0200087F0200087F02000812
:1000F000492E00087F0200087F0200087F020008E6
:100100007F0200087F020008E92D00087F02000836
:100110007F0200087F0200087F020008192E0008F5
:100120007F0200087F0200087F0200087F020008AB
:100130007F0200087F0200087F0200087F0200089B
:100140007F0200087F0200087F0200087F0200088B
:100150007F0200087F0200087F0200087F0200087B
:100160007F0200087F0200087F0200087F0200086B
:100170007F0200087F0200087F0200087F0200085B
:100180007F0200087F020008DFF814D001F0CAF8EF
:1001900000F03AFC00480047E118030800F093FF24
:1001A000609101202C4B19680868B0E8F04F80F38B
:1001B0000988BFF36F8F4FF0000080F311887047FC
:1001C0000000000008480068006880F308884FF0CD
:1001D000000080F3148862B661B6BFF34F8FBFF39F
:1001E0006F8F00DF00BF00BF08ED00E0DFF80C00FC
:1001F000016841F470010160704700BF88ED00E0C4
:10020000EFF30980BFF36F8F134B1A681EF0100FC6
:1002100008BF20ED108A20E9F04F106009B44FF0BC
:10022000500080F31188BFF34F8FBFF36F8F3AF008
:10023000ABFB4FF0000080F3118809BC1968086817
:10024000B0E8F04F1EF0100F08BFB0EC108A80F33A
:100250000988BFF36F8F704734070010EFF30580F4
:10026000704700000648804706480047FEE7FEE763
:10027000FEE7FEE7FEE7FEE7FEE7FEE7FEE7FEE756
:10028000292C0008890100080C49087820B1401E7B
:100290000870491C085C704700210720ABBE7047FE
:1002A000064A1178022902D34FF0FF307047034B02
:1002B0005B1C5854491C117070470000DC0A002078
:1002C0002DE9F05F0546002092469B46884606468B
:1002D000814640241BE0284641464746224600F01E
:1002E00023FE53465A46C01A914110D31146184670
:1002F000224600F00AFE2D1A67EB01084F462246FF
:100300000120002100F001FE17EB00094E41201EE4
:10031000A4F10104DFDC484631462A464346BDE8E5
:10032000F09F00000048704708CA040810B5044652
:10033000FFF7F8FF0068005D00F0010010BDA0F1BC
:100340006101192900D820387047A0F1410119290D
:1003500000D82030704700000649074A086850431B
:1003600043F23902104408604008704701490860B0
:1003700070470000980700106D4EC6410048704756
:1003800090CA040838B5D0E90221491E01EB4101A9
:1003900002EBC1014268C1EB011102EB810102686D
:1003A000C1EB011102EB8102D0E9043101EB410103
:1003B00003EB81013023A1F5527191FBF3F4174D4A
:1003C0006C4302EBC41291FBF3F403FB1411009293
:1003D0001A2902DB124B1A4400920C2291FBF2F311
:1003E000104C6343009C04EBC313009391FBF2F3A6
:1003F00002FB13110C4A08E0491E40F2A324535C8F
:100400006343009C04EBC31300930029F4DC014612
:10041000684600F0B1FD009838BD00003F0C0F00A9
:100420008051010067C203000CCA040870B505467C
:1004300001B90721541A241DB4F5B67F09DD2868D7
:1004400000F036F9A04204DC2868401C2860012036
:1004500070BD002C05DA2868401E286000F028F9DD
:100460000444072094FBF0F0401C70BD2DE9F04FD0
:1004700089B01D468A468046002401AF4FF0070B25
:100480000192079057F8241011F8010B47F8241037
:1004900048B125280DD0BAF1010F06D908F8010B93
:1004A000AAF1010A5CE0641E5AE0002009B0BDE830
:1004B000F08F11F8010B47F824100028F3D0022622
:1004C0004FF030095A284BD020DC4D2873D014DC73
:1004D000442871D008DC2528DDD041282AD04228C4
:1004E0002ED043283CD130E0462847D0472857D06B
:1004F000482862D0492833D161E0523808282FD2E9
:10050000DFE800F0787AA6838A97A6A861381928D0
:1005100026D2DFE800F00D1318202E253513255CB8
:10052000252560642566256D257375258B9BA000A8
:100530006AA000E070A0A9690091B4E07DA000E08D
:1005400088482969F8E788A007E06969642091FB79
:10055000F0F0133082E0E86880E0641C47F8240083
:10056000002C8FDA002088F800000799A8EB010022
:100570009CE7E8684FF02009009070E07EA0ECE76F
:10058000686900F26C700090D5E906126846FFF7C2
:100590004DFF0099642091FBF0F200FB12105DE02A
:1005A0006869042600F26C700090D5E9061268466E
:1005B000FFF73CFF53E010E048E0A8684EE0A86871
:1005C0000C21173090FBF1F201FB120001E0E86909
:1005D0000326401C42E02869FBE768683EE069A00A
:1005E000BBE7A8680C2801DA67A0B6E767A0B4E704
:1005F00067A0B2E769A0B0E728682FE069A0ACE780
:10060000A869012608BB072028E0D5E90610401A92
:10061000C01D90FBFBF021E0686900F26C70009057
:10062000D5E906126846FFF701FF17E00126A86921
:1006300014E0A9695846891D91FBF0F20BFB1211D9
:10064000EA69511AC91D91FBFBF007E056A084E747
:1006500058A082E70426686900F26C7000900021BF
:100660008DF8181006A80A2113E0009A92FBF1F306
:1006700001FB1322303200F8012D009A92FBF1F2B7
:10068000009232B901E000F8019D321EA6F1010688
:10069000F9DC321EA6F10106E7DC5EE710F8011B6B
:1006A0000029FBD100994A1E00920029F6DC54E78C
:1006B00081070CD1642190FBF1F201FB120151B9C9
:1006C0004FF4C87190FBF1F201FB120018B1002049
:1006D00000F26D1070470120FAE7000053756E00BC
:1006E0004D6F6E0054756500576564005468750061
:1006F000467269005361740053756E646179004DF0
:100700006F6E646179005475657364617900576533
:10071000646E65736461790054687572736461799D
:10072000004672696461790053617475726461791D
:10073000000000004A616E00466562004D61720073
:10074000417072004D6179004A756E004A756C0007
:1007500041756700536570004F6374004E6F7600FB
:100760004465630018CA04082561202562202565B8
:10077000202554202559000025592D256D2D25644F
:10078000000000000A000000414D0000504D000034
:1007900025493A254D3A25532025700025483A250C
:1007A0004D00000009000000256D2F25642F2579DC
:1007B0000000000025483A254D3A2553000000006E
:1007C00010B5431A934209D28318881803E010F831
:1007D000011D03F8011D521EF9D210BD40EA0103AC
:1007E0009B0703D009E008C9121F08C0042AFAD2E7
:1007F00003E011F8013B00F8013B521EF9D210BD95
:10080000D2B201E000F8012B491EFBD27047002252
:10081000F6E710B513460A4604461946FFF7F0FFFF
:10082000204610BD30B505462A460B4612F8010B8E
:1008300013F8014B08B1A042F8D01CB1002802D037
:100840006D1CF1E7284630BDCAB2401E10F8011FEA
:100850008A4202D00029F9D100207047421C10F8CA
:10086000011B0029FBD1801A704710B5002200E05F
:10087000521C835C8C5CA34201D1002BF8D1D8B20E
:10088000E1B2401A10BDCBB203E00178994203D027
:10089000401C521EF9D20020704730B5044600209B
:1008A000034600E05B1C934203D2E05CCD5C401B3E
:1008B000F8D030BDFFF7D9BF034611F8012B00F87F
:1008C000012B002AF9D11846704730B505460020A3
:1008D000034600E05B1C934205D2EC5CC85C201A26
:1008E00001D1002CF6D130BD30B503461D783DB1A5
:1008F0000A4612F8014B1CB1AC42FAD15B1CF5E779
:10090000181A30BD10B508E00A4602E0A34208D02C
:10091000521C1378002BF9D1401C0478002CF3D121
:10092000002010BD07280FD2DFE800F00406080EF3
:100930000E0C0A0005A070470AA0704713A070476C
:100940001DA0704722A070472BA070474E6F2065F6
:1009500072726F7220286572726E6F203D2030298E
:100960000000000045444F4D202D2066756E6374D5
:10097000696F6E20617267756D656E74206F757436
:10098000206F662072616E67650000004552414E1F
:100990004745202D2066756E6374696F6E20726501
:1009A00073756C74206E6F742072657072657365F8
:1009B0006E7461626C650000454E4F4D454D202DB3
:1009C000206F7574206F66206D656D6F7279000001
:1009D00045494E56414C202D20696E76616C696404
:1009E00020617267756D656E7420746F2066756E18
:1009F0006374696F6E000000556E6B6E6F776E20CA
:100A00006572726F7200000070B5054C054D03E011
:100A1000206820448047241DAC42F9D170BD0000FD
:100A2000C0D60408E0D604082DE9F0410746154673
:100A30000E46102009F00AFD04000AD06760C4E9E0
:100A4000026500F03BFB0168216004600020BDE806
:100A5000F0810120FBE72DE9FE4F804681EA03008B
:100A6000C00F0C46009021F0004123F00045B8EB88
:100A70000200A94105D24046214690461C460B463D
:100A8000024623F00040104347D0270DC7F30A0069
:100A9000C3F30A510290401A019040286BDAC3F365
:100AA000130040F4801B0098924620B10023D2EB43
:100AB000030A63EB0B0B01985946C0F14002504604
:100AC00000F023FA06460D4650465946019A00F0BA
:100AD0003BFA10EB08006141002487EA115284EAD6
:100AE000E7731A4340D0009A62B3019A012A4FEA91
:100AF000075215DC001B61EB02014FF0004202EAD5
:100B00000752CDE90042001C41F5801132462B46C8
:100B100000F069FB03B0BDE8F08F40462146F9E7DD
:100B2000001B61EB0201001C41F5801300185B41C2
:100B30002018A2F5001747EB030140EAD570B6195B
:100B40006D4111E06D084FEA360645EAC0754FEA7F
:100B50000752001B61EB0201001C41F5801149089E
:100B60004FEA30000019514132462B4603B0BDE830
:100B7000F04F00F029BB0098012240000023D0EB89
:100B8000020263EBE073009821464FEAE074B8EB91
:100B9000000061EB0401E9E783F000435BE781F0CB
:100BA000004158E72DE9FE4F81EA030404F00044B8
:100BB00021F0004100944FF0000B23F0004350EA75
:100BC00001045ED052EA03045BD0C3F30A54C1F3BC
:100BD0000A552C44A4F2F3340194A0FB0254C1F34F
:100BE000130141F48011C3F3130343F4801301FB99
:100BF000024400FB034E840A970A44EA815447EA00
:100C00008357A4FB076802958D0A05FB07854FEA09
:100C1000932C04FB0C542705029D4FEA065847EA23
:100C20001637B5EB08056EEB070C870E920E47EAF8
:100C3000811742EA8312A7FB0201B6EB0B0164EBBA
:100C400000042B0D43EA0C335E1844EB1C50DA46CB
:100C50005146E7FB0201C5F313044FEA0B3343EAA5
:100C600014534FEA0432019C43EA0603A4F10C0436
:100C70000294009CCDE900B400F0B5FA03B0BDE8E1
:100C8000F08F00200146F9E72DE9F04D81EA0304D9
:100C900004F0004B21F0004514464FF0000A23F009
:100CA000004150EA050220D054EA01021DD0C5F3EC
:100CB0000A570246C5F31303C1F31300C1F30A56E2
:100CC00040F4801543F48013A7EB0608101BD646AA
:100CD00008F2FD3873EB050002D308F1010801E0CA
:100CE00092185B41B8F1000F03DA00200146BDE81D
:100CF000F08D00204FF48011064684460EE0171B4D
:100D000073EB050705D3121B63EB050306434CEA9F
:100D1000010C49084FEA300092185B4150EA010784
:100D2000EDD152EA030012D082EA040083EA050101
:100D3000084305D0101BAB4106D20122002306E078
:100D400000224FF0004302E06FF0010253101AEB53
:100D500006004CEB085110EB0A0041EB0B01BDE81B
:100D6000F04D00F031BA0EB5C10F80EAE0700844D2
:100D7000CA07002140F233438DE80E000A460B46B5
:100D800000F031FA03B000BD0EB540F233410291DC
:100D90000021CDE900110A460B4600F024FA03B009
:100DA00000BD70B5C1F30A5201F000450024C1F343
:100DB000130140F2FF3341F480119A4201DA00201E
:100DC00070BD40F233439A42A2F2334203DC5242F6
:100DD00000F0AAF800E090402C43F1D0404270BDF2
:100DE00000F0004230F000400AD0C10D01F5607102
:100DF000C0F3160042EA0151C20840071143704790
:100E0000002001467047000030B5041E71F1000457
:100E100004DB4FF00044404264EB0101141E73F107
:100E2000000405DB1C464FF00043524263EB040311
:100E30008B4208BF824230BD30B5041E71F1000400
:100E400004DB4FF00044404264EB0101141E73F1D7
:100E5000000405DB1C464FF00043524263EB0403E1
:100E6000994208BF904230BD01F0004330B421F0F8
:100E7000004150EA010206D00A0DA2F56072C1F3EA
:100E80001301002A02DC30BC00207047440F44EA02
:100E9000C104C100E01830BC00EBC25000F034B90E
:100EA000A0E8004FF0C040F804DB01B5AFF30080CC
:100EB000BDE8024001C10020704700F12C080C463B
:100EC00058F8040DAFF3008058F8040D8546200053
:100ED00008BF012038E9F00018E9004F704730B52D
:100EE0000B46014600202022012409E021FA02F5E8
:100EF0009D4205D303FA02F5491B04FA02F5284482
:100F0000151EA2F10102F1DC30BD202A04DB203ADB
:100F100000FA02F1002070479140C2F1200320FA4C
:100F200003F3194390407047202A04DB203A21FA4A
:100F300002F00021704721FA02F3D040C2F12002F2
:100F40009140084319467047202A06DBCB17203A08
:100F500041FA02F043EAE07306E041FA02F3D040BE
:100F6000C2F120029140084319467047014900F040
:100F700003B80000348D012010B500683C22B0FB9E
:100F8000F2F302FB1303B0FBF2F00B60B0FBF2F3E1
:100F900002FB1303B0FBF2F018224B60B0FBF2F33C
:100FA00002FB1303B0FBF2F0021D8B600723B2FBC0
:100FB000F3F403FB1422800040F2B55300F66C30CA
:100FC0008A61B0FBF3F2B0FBF3F403FB140044328C
:100FD00080084A61C8613B2802D3920700D0401CB8
:100FE0000022074C13460A61E25C824203D8801A51
:100FF0005B1C0B61F8E7401CC860084610BD000090
:10100000C8CA04080FB4002300B589B00CA9009128
:101010000B996FF00042CB601E4B06931E4B07935B
:101020000423CDE901321D4A089202466B46002096
:1010300000F01EFA09B05DF814FB70B586B00646E4
:101040004FF0FF300091CDE90101002015460C461C
:1010500004903246694604A8FFF7D4FF024604987C
:10106000211825B108B1084600E020462860049800
:1010700000280DD0002A02DD0098884208D0081B05
:101080000094CDE901043246694604A8FFF7BAFF8F
:1010900006B070BDA9160008C71600082D03000889
:1010A0007CB50023CDE9003305466846FFF7C5FF50
:1010B0006946284609F01AFA7CBD000000487047CE
:1010C000A007001070472DE9F0410646FFF7F6FF34
:1010D0008046454613E016B1E068B0420ED1206864
:1010E0002860D4E90101D8F800708847204607F04D
:1010F00009FDD8F80000B842EBD100E025462C6885
:10110000002CE8D1BDE8F0810029A8BF7047401C41
:10111000490008BF20F00100704710B4B0FA80FC0D
:1011200000FA0CF050EA010404BF10BC704749B14A
:10113000CCF1200421FA04F411FA0CF118BF0121BA
:1011400021430843A3EB0C01CB1D4FEA00614FEA9A
:10115000102042BF002010BC704700EBC350104469
:101160000029A4BF10BC7047401C490008BF20F0F4
:10117000010010BC7047F0B400F0004221F00041C3
:1011800020F00040CE0DC30DC1F3160141F4000163
:10119000C0F316004C42154640F40000761E09E0EC
:1011A00010EB440002D582F0004240428842F7D85A
:1011B00040005B1EB342F9DA18B1F0BC0021FFF722
:1011C000ACBF2846F0BC704710B5141E73F1000484
:1011D00008DA401C41F1000192185B411A4301D129
:1011E00020F0010010BD2DE9F04D92469B4611B153
:1011F000B1FA81F202E0B0FA80F220329046FFF7B5
:1012000084FE04460F4640EA0A0041EA0B015346B9
:101210005A46084313D0114653EA010019D0C8F1C9
:1012200040025046FFF780FE05460E46504659469E
:101230004246FFF76AFE084305D0012004E020463D
:101240003946BDE8F08D0020054346EAE0762C43A0
:1012500037430A986305E40AA0EB08000022FD0A60
:1012600044EA47540A3002D500200146E9E7010567
:1012700010196941DDE9084500196941BDE8F04DE3
:10128000A2E7C1F30A52C1F3130140F2FF3341F464
:1012900080119A4202DA00200146704740F233433F
:1012A0009A42A2F2334202DC5242FFF73DBEFFF700
:1012B0002CBE00207047AFF3008010B500F00DF891
:1012C000016919B100220261884701E08068804706
:1012D000AFF3008010B5AFF3008070B500F008FAEE
:1012E00004680546A4B9202009F0B0F8040011D024
:1012F000094900202C60C4E900010849A16020735D
:10130000206160610649A06109B100F0F9F9E0616E
:10131000204670BDAFF3008000000000D512000829
:1013200000000000064C074D06E0E06840F00103B5
:1013300094E8070098471034AC42F6D3FEF728FF34
:1013400080D60408C0D604082DE9FF4F087883B082
:101350009946FF2805D0491C2D2804D000240020E0
:1013600008E000200BE00124F9E700EB800003EB2C
:101370004000491C0B78FF2BF7D104B140420023F9
:101380000293147819461D462D2C01D02B2C04D124
:10139000521C2D2C13D000240294AA461478FF2C42
:1013A0000FD00A25A3FB057801FB05814FF0000C47
:1013B00003FB0C11521CE3194AEB0101EEE7012477
:1013C000EAE7814453EA010002D019F5C87F06DA42
:1013D00003980021C0E9001107B0BDE8F08F002597
:1013E000AE4E2F46DFF8B882184600F0A7F9CDE9D7
:1013F0000001B9F1000002DAC9F1000400E004467E
:101400000023A74A1AEB030B42EB045A12E0E00751
:1014100007D02A46334638464146FFF7C3FB074606
:1014200088462A46334610461946FFF7BBFB054659
:101430000E466410002CEAD1DDE90001B9F1000F7D
:101440005A46534606DAFFF71FFC3A464346FFF773
:101450001BFC05E0FFF7A6FB3A464346FFF7A2FB5D
:10146000029A0AB181F00041039AC2E90001B3E790
:101470002DE9FF4F1F468DB0D7E901464FF0FF38E9
:101480002E2045464FF000090B90B9696D1C0E984F
:101490008847396A824688470028F6D1BAF1FF3F6B
:1014A0000AD024F4D064002E11DDBAF12B0F08D03D
:1014B000BAF12D0F0BD102E0404611B08DE744F494
:1014C0008064B9696D1C0E9888478246761E69460D
:1014D000600501D52D2000E02B208DF8000001F1E2
:1014E000010B0DF1200809E0B9696D1C0E988847C1
:1014F00082460F9844F40074761E0560002E02DDCB
:10150000BAF1300FF0D00B998A453ED144F08004F7
:1015100006E00F99681CA9F1010944F40074086001
:10152000B9696D1C761E0E98884782463028F0D027
:101530002BE00B998A4505D1200603D444F08004A2
:10154000761E18E0504609F01DFA08B30DF113019C
:10155000761E44F400748B4508D2AAF130000BF8D3
:10156000010B200607D5A9F1010003E0200602D4F3
:1015700009F101008146A00502D50F99681C086099
:10158000B9696D1C0E9888478246002ED1DC53E065
:10159000002E51DDBAF1650F02D0BAF1450F4BD1E3
:1015A000A00549D5B9696D1C24F44074761E0E98C7
:1015B00088478246002E0CDD2B2804D0BAF12D0F6F
:1015C00007D144F48074B9696D1C0E98884782462F
:1015D000761EE00501D52D2100E02B2108F8011B26
:1015E000CDF82C8021E00DF12901761E44F4007421
:1015F00088450CD2AAF1300010F0FF0088F80000F6
:1016000002D10B99884509D908F1010806E0E005E7
:1016100001D5244801E042F20F708146B9696D1C82
:101620000E98884782460F980560002E04DD5046CC
:1016300009F0A8F90028D6D1F9690E988847FF204B
:101640008BF8000088F800000020069007904B46B9
:101650006A4608A906A8FFF777FEA00502D46FF036
:1016600001002AE714F0240F0AD0E00714D1DDE9C5
:1016700006123868031D3B600068C0E900120BE0E9
:10168000DDE90601FFF7F0FB0146E00704D1386809
:10169000021D3A600068016028460EE70000144011
:1016A0000000F03FF1D8FFFF426842B1016811F835
:1016B000013B23B1521EC0E90012184670470121B8
:1016C000C160881E704742685AB1C368016843B957
:1016D00083688B4205D0491E521CC0E900120020CD
:1016E00070474FF0FF307047704700000348704765
:1016F0000248001D011F8860001D7047A4070010EC
:1017000010B5882008F0A2FE002801D00021017049
:1017100010BD802902D808B1017809B100207047B6
:10172000012100F8081B704718B100F1080291422E
:1017300001D0002070470021017070470EB540F2C3
:10174000334202920022CDE900221346FFF74BFDFF
:1017500003B000BD70B58C1810F8015B15F00703DD
:1017600001D110F8013B2A1106D110F8012B03E03A
:1017700010F8016B01F8016B5B1EF9D12B0705D442
:101780000023521E0DD401F8013BFAE710F8013B8B
:10179000CB1A921C03E013F8015B01F8015B521EA7
:1017A000F9D5A142D8D3002070BD0029816814BFAB
:1017B00041F0010121F00101816070470849D1F831
:1017C0000423084B1A40D0E9003C43EA0C03D0E95B
:1017D00002C04CEA000018431043C1F804037047EC
:1017E00000200140E030FCFF30B42E4C2E4B6178DD
:1017F00061B9991E09224FF0FF0C00BFA1F802C089
:1018000021F804CF521EF9D101216170002818BFC0
:10181000012825D0022818BF032821D0042818BF8A
:1018200005281DD0062818BF072819D0082818BF7A
:10183000092815D00A2818BF0B2811D00C2818BF6A
:101840000D280DD00E2818BF0F2809D0102818BF5A
:10185000112805D012281EBF4FF0FF3030BC704752
:1018600000212278002A0FD933F8115001F101012B
:10187000854206D100291EBF6FF0010030BC7047C1
:1018800002E0C9B29142EFD3122A22BF6FF00200E8
:1018900030BC704723F81200501CC0B2207030BC1E
:1018A000401E70470000001008080010C06C80B295
:1018B00070470246002012680A4218BF0120704794
:1018C00010B4426891F804C022F4807222F0407291
:1018D0000B6842EA0C221A43426082680C4B4C7936
:1018E0001A40D1E903C343EA0C03D1F808C04CEA1B
:1018F000440C43EA0C031A438260C26A097D22F455
:101900007002491EC9B242EA0151C16210BC70475F
:10191000FDF7FFC030B4072409290DD9C568A1F12E
:101920000A0C0CEB4C0C04FA0CF425EA040403FA40
:101930000CF32343C3600AE0056901EB410C04FA90
:101940000CF425EA040403FA0CF3234303611F2378
:10195000072A0CD2D0F834C0521E02EB8202934008
:101960002CEA030391401943416330BC70470D2AB0
:101970000CD2D0F830C0D21F02EB820293402CEA86
:10198000030391401943016330BC7047D0F82CC069
:101990000D3A02EB820293402CEA03039140194373
:1019A000C16230BC7047816841F0804181607047FE
:1019B00030B50546A0F180408BB0B0F5903009D02D
:1019C0001F48854210D10021401501F075F8012112
:1019D000480215E000214FF4807001F06DF80121FC
:1019E000080201F05DF80DE0A5F18040B0F59130FE
:1019F00008D100214FF4806001F05EF801218802D7
:101A000001F04EF8002406944FF480300994CDE99B
:101A1000070406A8FFF7D2FE009401208DF80440C9
:101A20008DF814008DF80540029404946946284608
:101A3000FFF746FF01212846FFF7B7FE0BB030BD88
:101A40000021014010B501F0ADF80C484FF47A7157
:101A50000B4A0068B0FBF1F0431E0021B3F1807F18
:101A600008D24FF0E0204361F02382F8143D8161F9
:101A70000723036182F8141D10BD000080070010C9
:101A80000FE000E02DE9F84F0546D068144620B974
:101A9000A86C884218BF114601D11146002000F001
:101AA00071F9686A009020696946042220B9D4E976
:101AB000000CA368E0472061A86A0090206969468D
:101AC000042220B9D4E9000CA368E0472061A8797A
:101AD0008DF8000020696946012220B9D4E9000C84
:101AE000A368E0472061E8798DF800002069694625
:101AF000012220B9D4E9000CA368E0472061287ACC
:101B00008DF8000020696946012220B9D4E9000C53
:101B1000A368E04720616869009020696946042253
:101B200020B9D4E9000CA368E04720616869296BFB
:101B30008200206928B922B1D4E9000CA368E047EB
:101B40002061D5F81080CDF8008020696946042214
:101B500020B9D4E9000CA368E04720610027B8F160
:101B6000000F45DDE86A694600EBC70601223079BF
:101B700000F03F008DF80000206920B9D4E9000C86
:101B8000A368E0472061307900F03F00042828D0A6
:101B900005DC28B3012807D003280DD025E0132841
:101BA00013D014281DD020E030788DF80000206973
:101BB00069460122A0B90EE096ED000A69468DED56
:101BC000000A2069042258B905E0306800902069B5
:101BD0006946042220B9D4E9000CA368E0472061DB
:101BE00003E02146306800F0CDF87F1C4745B9DBA3
:101BF000EF68009720696946042220B9D4E9000CF7
:101C0000A368E047206100264FF00409002FC8BFF9
:101C10004FF0050821DD00BF286C09EBC601012249
:101C2000405C8DF800002069694620B9D4E9000CB9
:101C3000A368E0472061296C08EBC6000122085C1C
:101C40008DF800002069694620B9D4E9000CA3682A
:101C5000E0472061761CBE42DEDB2146284600F0CC
:101C600073F8E068002814BF0026AE696946009644
:101C70002069042220B9D4E9000CA368E047206160
:101C8000A96BB20028B922B1D4E9000CA368E047DF
:101C90002061E068002814BF00272F6A694600977A
:101CA0002069042220B9D4E9000CA368E047206130
:101CB0000026002FC8BF4FF0080A26DDE86B06EBB0
:101CC0004608214650F8280000F05CF8E86B09EB64
:101CD00088010422405800902069694620B9D4E95F
:101CE000000CA368E0472061E86B0AEB880104223E
:101CF000405800902069694620B9D4E9000CA368D7
:101D0000E0472061761CBE42D8DBE068002814BFA3
:101D10000027EF68694600972069042220B9D4E9BA
:101D2000000CA368E04720610026002FD8BFBDE863
:101D3000F88F286C214650F8360000F023F8761C06
:101D4000B742F6DCBDE8F88FF8B50D46C769064620
:101D5000009728696946042220B9D5E9000CAB68D0
:101D6000E04728610024002FD8BFF8BD706B2A46D9
:101D7000B16C50F82400FFF785FE641CA742F5DC27
:101D8000F8BD000030B50B6983B00C4680B1017915
:101D900004290CBFC179C168491C00F110050091EC
:101DA000FF2916D28DF8041001A901222BBB1FE0D8
:101DB000002001228DF800006946002B1CBF03B0F3
:101DC00030BD00BFD4E9000CA368E047206103B038
:101DD00030BDFF208DF8040001A9012223B9D4E908
:101DE000000CA368E047206120696946042220B9FD
:101DF000D4E9000CA368E047206100982946421E00
:101E0000206900281CBF03B030BD002ADAD103B01E
:101E100030BD000010B5012000F000F9002808BF17
:101E200010BD05480068002818BF80470120BDE8A4
:101E3000104000F0EDB80000180D002010B54FF470
:101E4000806000F0EBF8274C38B1A06A002818BF7A
:101E500080474FF4806000F0DBF84FF4006000F042
:101E6000DDF838B1E06A002818BF80474FF4006001
:101E700000F0CEF84FF4805000F0D0F838B1206B6D
:101E8000002818BF80474FF4805000F0C1F84FF48D
:101E9000005000F0C3F838B1606B002818BF8047CD
:101EA0004FF4005000F0B4F84FF4804000F0B6F862
:101EB00038B1A06B002818BF80474FF4804000F075
:101EC000A7F84FF4004000F0A9F8002808BF10BDA3
:101ED000E06B002818BF80474FF40040BDE8104079
:101EE00000F096B8180D002010B5022000F096F80A
:101EF000002808BF10BD05484068002818BF80476B
:101F00000220BDE8104000F083B80000180D00204A
:101F100010B5042000F082F8002808BF10BD054865
:101F20008068002818BF80470420BDE8104000F0FA
:101F30006FB80000180D002010B5082000F06EF8F2
:101F4000002808BF10BD0548C068002818BF80479A
:101F50000820BDE8104000F05BB80000180D00201C
:101F600010B5102000F05AF8002808BF10BD054831
:101F70000069002818BF80471020BDE8104000F01D
:101F800047B80000180D002010B5202000F046F8DA
:101F90001E4C30B16069002818BF8047202000F037
:101FA00037F8402000F03AF830B1A069002818BF97
:101FB0008047402000F02CF8802000F02FF830B14E
:101FC000E069002818BF8047802000F021F84FF416
:101FD000807000F023F838B1206A002818BF8047CD
:101FE0004FF4807000F014F84FF4007000F016F811
:101FF000002808BF10BD606A002818BF80474FF452
:102000000070BDE8104000F003B80000180D00207B
:102010000149086070470000143C0140034A014632
:10202000002012680A4218BF01207047143C01408A
:102030002DE9F001002201255FF00306D1F800C070
:1020400005FA02F30CEA030C9C4537D107684FEA06
:10205000420C06FA0CF4A74307600F79D0F8008011
:1020600007FA0CF747EA080707600F79012F18BF36
:10207000022F17D1876827EA040787604F79D0F8C5
:10208000088007FA0CF747EA08078760476827EADD
:102090000303436043688F7907FA02F7BFB243EA4C
:1020A00007034360C36823EA0403C360CB7903FAE0
:1020B0000CF3D0F80CC043EA0C03C36002F1010238
:1020C000102ABBD3BDE8F00170474B07DB0E9A40E6
:1020D000C90800EB8100016A4FF00F0C0CFA03F302
:1020E00099430162016A11430162704730B50446A9
:1020F000A0F1804083B0B0F5003008BF012049D086
:10210000A4F18040B0F5013008BF022042D0A4F114
:102110008040B0F5023008BF04203BD0A4F18040DD
:10212000B0F5033008BF082034D0A4F18040B0F5EA
:10213000043008BF10202DD0A4F18040B0F5053048
:1021400008BF202026D0A4F18040B0F5063008BF9B
:1021500040201FD0A4F18040B0F5073008BF802098
:1021600018D0A4F18040B0F5083008BF4FF480705B
:1021700010D0A4F18040B0F5093008BF4FF40070D2
:1021800008D0A4F18040B0F50A300EBF4FF4806053
:1021900003B030BD002A04BF4FF0000C624623D0CC
:1021A000012A04BF4FF0000C01221DD0022A04BFF7
:1021B0004FF0000C022217D0032A08BF4FF0030C87
:1021C00011D0052A08BF4FF0010C0BD0062A04BF1E
:1021D0004FF0010C654606D0072A0EBF4FF0020CE7
:1021E00003B030BD002500228DF804C08DF8053005
:1021F00000918DF806508DF80720012100F038FC81
:1022000069462046FFF714FF03B030BD10B5044601
:1022100006230122FFF77EFB2046FFF7C4FB0221C5
:102220002046FFF746FB0028F9D02046BDE81040C5
:10223000FFF73CBB0021012804D9491C400889B2A2
:102240000128FAD8C8B27047064901EB00100021F6
:102250008089012804D9491C400889B20128FAD88C
:10226000C8B2704790BD030882B019A002F0AEFC5E
:102270001A484FF47A710068B0FBF1F042F2107125
:1022800048431749A1FB0010800800900028D8BFE0
:10229000002104DD10F001011CBF421E0092401A13
:1022A000002804DD811E801E00910028FADC0098C1
:1022B000401E0090BFF34F8F0A4801680A4A01F49C
:1022C000E06111430160BFF34F8F00BFFDE70000E5
:1022D000666174616C206572726F72008007001015
:1022E000CDCCCCCC0CED00E00400FA0538B50446AA
:1022F00069460122406819F036FA50B1064BA268CF
:1023000003F10C01206815F03CFE0321206811F058
:102310004FFF9DF8000038BD842800082DE9F84FD4
:1023200016460C46054600F05BFAA064002808BF7C
:10233000A664284600F0FAF96062284600F0F6F933
:10234000A0622846FFF7D2FFA0712846FFF7CEFF14
:10235000E0712846FFF7CAFF2072284600F0E6F930
:102360000746401CB0F1804F24BF286815F004FCDC
:10237000BE00002233461146286815F0D1FB676184
:1023800020636B6801463246184619F0ECF950B1EB
:10239000E44BAA6803F10C01286815F0F2FD032153
:1023A000286811F005FF284600F0C0F90746401CD8
:1023B000B0F1005F24BF286815F0DEFBFB000022AF
:1023C0001146286815F0ACFB276102464FF0000962
:1023D0004FF0040AE062002F17DD002117F0010022
:1023E0001CBFC2F804900121B8420EDAE26A0AEB7F
:1023F000C103491C42F803900AEBC103E26A801C46
:10240000491C42F80390B842F0DB4FF00008002F5F
:10241000C8BF4FF0130B76DDE06A694600EBC806D3
:102420000122686819F09FF950B1BE4BAA6803F108
:102430000C01286815F0A5FD0321286811F0B8FEED
:102440009DF80000042852D009DC002808BFC6F817
:10245000049054D0012807D003281CD04FE0132843
:1024600030D0142843D04AE069460122686819F048
:102470007AF950B1AB4BAA6803F10C01286815F04A
:1024800080FD0321286811F093FE9DF80000306064
:102490000120706033E069460422686819F063F92E
:1024A00050B1A04BAA6803F10C01286815F069FD32
:1024B0000321286811F07CFE9DED000A032086EDC3
:1024C000000A1BE069460422686819F04CF950B113
:1024D000944BAA6803F10C01286815F052FD032102
:1024E000286811F065FE0098C6E9000B07E0284651
:1024F00000F076F93060007940F04000706008F13B
:102500000108B84588DB284600F010F90646401C53
:10251000B0F1005F24BF286815F02EFBF300002205
:102520001146286815F0FCFAE66002462064002E89
:1025300013DD002116F001001CBFC2F8009001213C
:10254000B0420ADA226C801C42F83190226C491C9D
:1025500042F83190491CB042F4DB0027002EC8BF7E
:102560004FF0050830DD69460122686819F0FBF874
:1025700050B16C4BAA6803F10C01286815F001FDFD
:102580000321286811F014FE206C0AEBC7019DF8A6
:102590000020425469460122686819F0E4F850B1FD
:1025A000604BAA6803F10C01286815F0EAFC0321CE
:1025B000286811F0FDFD08EBC702216C9DF80000B2
:1025C0007F1C8854B742CEDB2146284600F0C6F86F
:1025D000284600F0ABF80646401CB0F1804F24BFFF
:1025E000286815F0C9FAB70000223B461146286852
:1025F00015F096FAA661A0636B6801463A46184644
:1026000019F0B1F850B1474BAA6803F10C012868E2
:1026100015F0B7FC0321286811F0CAFD284600F028
:1026200085F806464049401C884284BF286815F05A
:10263000A3FA06EB4600830000221146286815F035
:102640006FFA26620246E063002E18DD002116F0C4
:1026500001001CBFC2F800900121B0420FDA00BF98
:10266000E26B01EB4103491C42F8239001EB41026C
:10267000E36B801C491C43F82290B042F0DB00273A
:10268000002EC8BF4FF0080937DD284600F0A8F833
:102690000146E06B07EB4708042240F82810694622
:1026A000686819F060F850B11E4BAA6803F10C017C
:1026B000286815F066FC0321286811F079FDE16BAC
:1026C0000AEB88030098C85052466946686819F0BA
:1026D0004AF850B1134BAA6803F10C01286815F0B1
:1026E00050FC0321286811F063FDE26B09EB8800C0
:1026F00000997F1C1150B742C7DB284600F016F83E
:10270000071E4FF00006D8BFBDE8F88F284600F03E
:1027100067F8216C41F83600761CB742F6DCBDE85C
:10272000F88F0000842800085555551538B5044623
:1027300069460422406819F016F850B1064BA268A9
:1027400003F10C01206815F01CFC0321206811F036
:102750002FFD009838BD0000842800082DE9F041C5
:102760000D460746FFF7E2FF0446401CB0F1804FDC
:1027700024BF386815F000FAA3000022114638681B
:1027800015F0CEF9EC6103466863002C13DD0022DE
:1027900014F0010011461CBF19600122A0420ADAA0
:1027A0006B6B801C43F822106B6B521C43F8221099
:1027B000521CA042F4DB0026002CD8BFBDE8F081FB
:1027C000386811F0C3FE696B41F8260001463846AF
:1027D000AA6CFFF7A3FD761CB442F1DCBDE8F081E2
:1027E00030B58DB00446FFF781FD0090FF280FD172
:1027F00069460422606818F0B6FF48B121A324A1FD
:10280000A268206815F0BDFB0321206811F0D0FC00
:102810000098002804BF0DB030BD411E009128294A
:1028200017D802AB0A461946606818F09CFF48B1F9
:1028300014A317A1A268206815F0A3FB0321206848
:1028400011F0B6FC206802A9009A15F0F9FE0DB04F
:1028500030BD206815F03BFE054600F11001009ADE
:10286000606818F080FF48B106A309A1A26820683B
:1028700015F087FB0321206811F09AFC0DB0284663
:1028800030BD00007472756E636174656400000091
:1028900025733A20257320707265636F6D70696CC3
:1028A0006564206368756E6B0000000010B4C27828
:1028B00001780F244FF0010C0AB3174A126801F196
:1028C000E02102F4E062C2F5E062C2F30722C2F145
:1028D0000403D44042789A40837823401A4312017B
:1028E00081F80024007800F01F010CFA01F1400982
:1028F000800000F1E020C0F8001110BC704701F02A
:102900001F000CFA00F04909890001F1E021C1F82B
:10291000800110BC704700000CED00E0034940F05E
:10292000FD7040F080600860704700000CED00E032
:102930002DE9F04717460E468046B02814D2484885
:1029400000EB0815686800281CBFA87B00280BD086
:10295000002E18BF002F07D0DFF8089106FB07F004
:10296000D9F80010884202D90020BDE8F08707217D
:10297000404630F087FC3C4A68680024811A904247
:1029800034D018DC394AA0EB0201904228D00BDC8D
:10299000B0F1804F21D0A0F58060B0F1804018BF29
:1029A000B0F5806F1CD023E0B1F5406F18BFB1F5D2
:1029B000805F1DD11AE0B1F5903F14D006DCB1F56F
:1029C000604F0AD0B1F5644F0DD011E0B1F5923FE0
:1029D00018BFB1F5943F0BD105E04FF0010407E0BB
:1029E0004FF0020404E04FF0030401E04FF009044B
:1029F0004046FFF729FC2B68014622461846FFF7A0
:102A000064FBD9F80000B0FBF6F0B0FBF7F468689F
:102A1000A0F18041B1F580311CBFA0F18041B1F53A
:102A200082310FD0A0F18041B1F5A0311CBFA0F1DF
:102A30008041B1F5A23105D0A0F18041B1F5A431BA
:102A400018BF6408002100F02AFA601E82B2701ECE
:102A500081B2AB7B686800F093FBA87BBDE8F08790
:102A600090BD03088007001000200040000C0040CB
:102A7000044A0029116814BF084321EA00001060CD
:102A80007047000030380240044A0029116814BF22
:102A9000084321EA000010607047000040380240FF
:102AA000044A0029116814BF084321EA000010609D
:102AB0007047000044380240044A0029116814BFDE
:102AC000084321EA000010607047000024380240EB
:102AD000254A30B41168254B11F00C0106D05C106A
:102AE000042908BF046002D008291ED003601168C1
:102AF0000F2303EA11111E4B595CD0F800C02CFAC9
:102B000001F14160D2F800C0072404EA9C2C13F8BC
:102B10000CC021FA0CFCC0F808C0126804EA52325A
:102B20009A5CD140C16030BC70471249D1F800C0F6
:102B3000CCF38055D1F800C0002D0CF03F0C14BF31
:102B4000B4FBFCF3B3FBFCF3D1F800C00968CCF391
:102B5000881C03FB0CF3C1F30141491C4900B3FB82
:102B6000F1F10160C3E70000083802400024F400DE
:102B7000700700100438024010B5502080F311880F
:102B8000BFF34F8FBFF36F8F38F0BCFB18B1044910
:102B90004FF080500860002080F3118810BD0000C5
:102BA00004ED00E0DFF86CC030B4DCF800001A4B34
:102BB00010F00C01194806D05C10042908BF04600D
:102BC00002D008290CD00360DCF80010144AC1F3CD
:102BD0000311515C026822FA01F1016030BC7047B8
:102BE00010490A68C2F380550A68002D02F03F02BE
:102BF00014BFB4FBF2F2B3FBF2F20B680968C3F343
:102C000088135A43C1F30141491C4900B2FBF1F159
:102C10000160D9E7083802400024F4008007001062
:102C20008407001004380240374882B0016841F43C
:102C3000700101603548016841F0010101603449CB
:102C400000230B60026822F4102222F080720260DE
:102C500000F1040C2F4ACCF80020026822F48022F4
:102C600002600A1D136001930093026842F48032EF
:102C70000260026802F400320092019A521C019232
:102C8000009A1AB9019AB2F5A04FF2D1026812F473
:102C9000003F08BF009331D0012200921E4A136802
:102CA00043F0805313601D4A136843F4404313609C
:102CB0000A680A600A6842F400420A600A6842F43C
:102CC000A0520A60164ACCF80020026842F08072D6
:102CD0000260026812F0007FFBD0124A40F20570D9
:102CE0001060086820F003000860086840F00200E7
:102CF0000860086800F00C000828FAD10A494FF073
:102D00000060086002B0704788ED00E000380240C3
:102D10000838024010300024403802400070004063
:102D2000086C4007003C024008ED00E010B5094C7B
:102D30000121204600F0C7F8002808BF10BD064852
:102D40000168002918BF884701212046BDE81040CE
:102D500000F0A2B800000140580D002010B501217C
:102D6000880700F0B0F8002808BF10BD054840688B
:102D7000002818BF80470121BDE81040880700F0F7
:102D80008BB80000580D002010B5094C01212046D9
:102D900000F099F8002808BF10BD06488168002996
:102DA00018BF884701212046BDE8104000F074B8E4
:102DB00000040040580D002010B5094C01212046A8
:102DC00000F081F8002808BF10BD0648C16800293E
:102DD00018BF884701212046BDE8104000F05CB8CC
:102DE00000080040580D002010B5094C0121204674
:102DF00000F069F8002808BF10BD064801690029E5
:102E000018BF884701212046BDE8104000F044B8B3
:102E1000000C0040580D002010B5094C012120463F
:102E200000F051F8002808BF10BD0648816900294C
:102E300018BF884701212046BDE8104000F02CB89B
:102E400000140040580D002070B5104D0121284697
:102E500000F039F80E4C38B1E169002918BF8847F5
:102E60000121284600F018F80A4D0121284600F0FB
:102E70002AF8002808BF70BD216B002918BF8847B9
:102E800001212846BDE8704000F006B8000401406A
:102E9000580D0020001C0040C943018270470029E2
:102EA000018814BF41F0010121F001010180704748
:102EB0000029B0F8441014BF41F40041C1F30E01E1
:102EC000A0F844107047038A002280890B4200EA70
:102ED00001001CBF002801221046704710B4028C6C
:102EE00022F001020284038C8288B0F818C00C889A
:102EF0002CF0730C44EA0C0C8C8923F0020323435E
:102F00004C882343A0F18044B4F580341CBFA0F169
:102F10008044B4F582340DD1CC8923F008032343D7
:102F20008C8823F0040323430C8A22F4407222434A
:102F30004C8A22438280A0F818C0896841630384C8
:102F400010BC7047028B22F00802114301837047C6
:102F500030B4028C22F010020284038CB0F804C05A
:102F6000028B0D8822F4E6444FF6FF7202EA052533
:102F70002C438D8923F0200302EA05152B434D884D
:102F800002EA05152B43A0F18045B5F580351CBF3D
:102F9000A0F18045B5F5823517D1CD8923F08003A6
:102FA00002EA05152B438D8823F0400302EA05153C
:102FB0002B430D8A2CF4406C02EA850545EA0C0C83
:102FC0004D8A02EA850242EA0C0CA0F804C0048390
:102FD00089688163038430BC7047028B4FF6FF73AE
:102FE00022F4006203EA012111430183704730B4E7
:102FF000028C22F480720284028C8388B0F81CC098
:103000000C882CF0730C44EA0C0422F4007C8D89AB
:103010004FF6FF7202EA052545EA0C0C4D8802EADC
:10302000052545EA0C0CA0F18045B5F580351CBF9F
:10303000A0F18045B5F5823517D1CD892CF4006C0F
:1030400002EA052545EA0C0C8D882CF4806C02EA16
:10305000052545EA0C0C0D8A23F4405302EA0515B8
:103060002B434D8A02EA05121343838084838968C7
:10307000C163A0F820C030BC7047828B22F00802E8
:1030800011438183704730B4028C22F48052028451
:10309000048C8288838B0D8823F4E64C4FF6FF73F3
:1030A00003EA052545EA0C0C8D8924F4005403EA53
:1030B00005352C434D8803EA05352C43A0F18045A6
:1030C000B5F580351CBFA0F18045B5F5823505D139
:1030D0000D8A22F4804203EA85131A438280A0F805
:1030E0001CC089680164048430BC7047828B4FF631
:1030F000FF7322F4006203EA0121114381837047C8
:1031000010B402881C4BDFF874C0984218BF6045A9
:1031100011D0B0F1804F1CBFA0F18044B4F58064A1
:1031200009D0A0F18044B4F500641CBFA0F1804434
:10313000B4F5406403D14C8822F070022243A0F120
:103140008044B4F580541CBFA0F18044B4F5A05471
:1031500003D00C8922F44072224302804A68C26282
:103160000A880285984212BF6045897A01864FF02D
:103170000101818210BC7047000001400004014041
:103180002DE9FF4F4F4D504E504FDFF84481DFF88F
:10319000449189B092468B460446A84218BFB4F1C8
:1031A000804F31D0A4F18040B0F580601CBFA4F105
:1031B0008040B0F5006027D0A4F18040B0F54060B9
:1031C0001CBFA4F18040B0F580501DD0A4F1804018
:1031D000B0F5A05018BFB44216D0BC4218BF444549
:1031E00012D04C451CBFA4F18040B0F5C0500BD0AC
:1031F000A4F18040B0F5E0501FBFA4F18040B0F5CD
:1032000000500DB0BDE8F08F0121204600F064F8B9
:103210000020ADF814A0ADF81C00ADF81600CDF8F4
:1032200018B005A92046FFF76BFF7020ADF800002D
:103230000120ADF802000220ADF80C000C98012826
:1032400006D002280DD0032814D004281BD022E079
:1032500069462046FFF742FE08212046FFF772FE2E
:1032600019E069462046FFF773FE08212046FFF764
:10327000B4FE10E069462046FFF7B9FE082120465B
:10328000FFF7FBFE07E069462046FFF7FCFE08213A
:103290002046FFF72BFF01212046FFF700FEAC423E
:1032A00018BFB44206D0BC421FBF44454C450DB0C8
:1032B000BDE8F08F4FF001012046FFF7F9FD0DB09A
:1032C000BDE8F08F000001400004014000400140D3
:1032D0000044014000480140A0F18042B2F5803234
:1032E00043D0B0F1804F46D0A0F18042B2F5806269
:1032F0003ED0A0F18042B2F500623FD0A0F1804202
:10330000B2F540623DD0A0F18042B2F580523BD090
:10331000A0F18042B2F5A05239D0A0F18042B2F5BE
:10332000823237D0A0F18042B2F5A03235D0A0F180
:103330008042B2F5A23234D0A0F18042B2F5A4327C
:1033400033D0A0F18042B2F5C05232D0A0F1804219
:10335000B2F5E05230D0A0F18042B2F5005218BF71
:1033600070474FF48070FFF78FBB0120FFF798BBC9
:103370000220FFF789BB0120FFF786BB0420FFF77F
:1033800083BB0820FFF780BB1020FFF77DBB202008
:10339000FFF77ABB0220FFF783BB4FF48030FFF7C3
:1033A0007FBB4FF40030FFF77BBB4FF48020FFF76B
:1033B00077BB4020FFF768BB8020FFF765BB0000AC
:1033C00010B5124C40F22551206900F081F8002818
:1033D00008BF10BD206900F015F9C1B2208B628BC7
:1033E000401C00F07F00824204D0228B04F11C03B9
:1033F000D15420836069002818BF804740F22551CE
:103400002069BDE8104000F053B80000F00A002029
:1034100010B5124C40F22551206900F059F80028EF
:1034200008BF10BD206900F0EDF8C1B2208B628B9F
:10343000401C00F07F00824204D0228B04F11C0368
:10344000D15420836069002818BF804740F225517D
:103450002069BDE8104000F02BB800008C0B002064
:1034600010B5124C40F22551206900F031F80028C7
:1034700008BF10BD206900F0C5F8C1B2208B628B77
:10348000401C00F07F00824204D0228B04F11C0318
:10349000D15420836069002818BF804740F225512D
:1034A0002069BDE8104000F003B80000280C00209F
:1034B000090A012202FA01F1C9430180704700297B
:1034C000818914BF41F4005121F40051818170477A
:1034D00010B401F01F0201240023C1F3421C04FABE
:1034E00002F2BCF1010F04BFB0F80CC00CEA0202FA
:1034F00008D0BCF1020F0CBFB0F810C0B0F814C077
:103500000CEA0202090A008804FA01F10840002AC4
:103510001CBF00280123184610BC7047C1F342139A
:1035200001F01F014FF0010C0CFA01F1012B08BF53
:103530000C3003D0022B0CBF10301430002A02686C
:1035400014BF114322EA01010160704730B50446FF
:10355000008A85B00D46C98820F440500843208277
:10356000A089A9882A8920F4037011436A8920F46C
:10357000A05010430843A081A08AA98920F440707C
:103580000843A0826846FFF7A3FAA4F18040B0F593
:1035900088301BBFA4F18040B0F58A3003980298B0
:1035A000A18911F4004F00EBC00101EB0010296864
:1035B00014BF49008900B0FBF1F0114A6FF0180CFC
:1035C000A2FB0031490909010B0903FB0CF300EBD5
:1035D0008300A38913F4004F4FF0320314BF03EBB1
:1035E000C00003EB0010A2FB00204FEA501014BFF4
:1035F00000F0070000F00F000843208105B030BD47
:103600001F85EB518088C0F308007047C1F30801A3
:1036100081807047F8B500F099F91D493220B1F862
:103620008C20D1F880104A8309F032FE04256E46C2
:1036300000F002FC00F000FCBA2001F01BF9812030
:1036400001F018F9402001F015F900F0F5FB142005
:1036500009F028FEBB2001F00DF900246F1EBC42CA
:1036600004D1002001F0A4F8305503E0012001F05E
:103670009FF83055601CC4B2AC42F0D300F07EF924
:103680009DF80000392814BF00200120F8BD00007B
:1036900090BD03082DE9F04F9B4F9C498BB03878C3
:1036A0009B4E401CC0B2A1FB0021C908494201EB5E
:1036B00081014FF0000B387010EB410102D00A2855
:1036C00080F005814FF02A08E94600F0B5FB00F0D4
:1036D000B3FBBA2001F0CEF8812001F0CBF84E20E8
:1036E00001F0C8F800F0A8FB142009F0DBFDBB20B6
:1036F00001F0C0F80024A8F1010A07E0544505D103
:10370000002001F055F809F8040004E0012001F060
:103710004FF809F80400601CC4B24445EED300F031
:103720002DF99DF8000010F0800F17D000F00F0069
:10373000062813D200252C4600F07EFB00F07CFB0F
:10374000BA2001F097F8812001F094F84E2001F0A2
:1037500091F8204601F08EF800F010F99DF8002055
:1037600012F00F0F74D002F00F00062870D212F082
:103770000F0FEC464FF0010312D00CF101010020B5
:1037800002F00F0201E0042804DC0C7803FA04F4D0
:103790002C43E5B2401C0831521E12F0FF02F2D158
:1037A00045F0C00096F81C80307730893082708AEE
:1037B00070830CF10300574D06F1080106F1120960
:1037C00000224FF0050C347F03FA02FA14EA0A0FC4
:1037D00051D02C7834B1012C11D0022C21D0032CE3
:1037E00037D048E010F8014C90F800A004EB0A2410
:1037F0000C80447890F802A004EB0A2425E010F82D
:10380000014C90F800A004EB0A24B5F808A0AAEB3C
:103810000404A9F80040447890F802A004EB0A24BC
:1038200028E010F8014C90F800A004EB0A24B5F849
:1038300004A0AAEB04040C80447890F802A004EBE6
:103840000A24B5F808A0AAEB0404A9F8004012E085
:103850003DE010F8014C90F800A004EB0A24A9F810
:103860000040447890F802A004EB0A24B5F804A0C4
:10387000AAEB04040C800830891C521CACF1010C2A
:1038800009F102091CF0FF0C9DD131896A68002002
:103890004FF0010B914205DC718AAA689142D8BFB2
:1038A000387014DD9DF8001001F00F01012905D9D1
:1038B00071893181B18A7182387008E0308A308133
:1038C000708B708280208DF8000086F81C809DF837
:1038D000000000F08F0080280DD1307F10F0800FA5
:1038E00018BF20F0800005D14FF6FF713181718241
:1038F00000F0E00030773878F02884BF0A20387074
:1039000058460BB0BDE8F08F00000020CDCCCCCCE9
:10391000180000200400002010B504462EF096FF89
:1039200000EE100A2046B8EE400A18F0BEFF012053
:1039300010BD10B504462EF0A7FF00EE100A204679
:10394000B8EE400A18F0B1FF012010BD10B50521F6
:1039500013202FF097FC052132202FF093FC06480E
:10396000D0F83021B0F83C111183B0F82C13D0F806
:103970002003018310BD000090BD030810B5012095
:1039800000F0EEFA0D4CD4F82013B4F82C03488361
:10399000D4F83011B4F83C014883012009F082FCCE
:1039A000D4F82013B4F82C030883012009F07AFC22
:1039B000D4F83011B4F83C01088310BD90BD030861
:1039C00010B5104A10A1124804F080FF114A12A14C
:1039D0000F4804F07BFF134A13A10D4804F076FF53
:1039E000154A16A10A4804F071FF174A17A10848A2
:1039F00004F06CFFBDE81040174A18A1044804F019
:103A000065BF0000B53A000870696E4D6F646500CF
:103A100024100010B13F0008746F67676C6550692F
:103A20006E000000A54A00086469676974616C57FC
:103A300072697465000000007D450008646967696B
:103A400074616C526561640051440008616E616C80
:103A50006F6757726974650079420008616E616C26
:103A60006F6752656164000010B5084A08A10A48F2
:103A700004F02CFF094A0AA1074804F027FFBDE81B
:103A80001040094A09A1044804F020BF3339000856
:103A90006D696C6C697300002410001019390008FE
:103AA0006D6963726F7300004D63000864656C613B
:103AB0007900000070B584B0064618F0C9FB0328F1
:103AC00006D053A1304618F0F9FE304617F0D1FF6A
:103AD0000121304618F025FC30B95CA1304618F0C1
:103AE000EDFE304617F0C5FF0221304618F019FCF4
:103AF00030B95AA1304618F0E1FE304617F0B9FF50
:103B00000321304618F026FC30B958A1304618F091
:103B1000D5FE304617F0ADFF00220121304619F0E6
:103B2000DFFBBDEEC00A0022022110EE105A304623
:103B300019F0D6FBBDEEC00A681E072810EE104A29
:103B400006D34EA1304618F0B9FE304617F091FF6B
:103B5000102C06D351A1304618F0B0FE304617F0B5
:103B600088FF28011038044400220321304619F050
:103B700085FB0146684604F0CFFB684604F095FBE0
:103B80004BA1684604F013FF00281CBFE0B20521DA
:103B900003D000BF2FF076FB33E047A1684604F066
:103BA00006FF00281CBFE0B20021F3D144A1684603
:103BB00004F0FDFE00281CBFE0B20121EAD144A1BF
:103BC000684604F0F4FE00281CBFE0B20221E1D1F7
:103BD00043A1684604F0EBFE00281CBFE0B20321BD
:103BE000D8D143A1684604F0E2FE00281CBFE0B231
:103BF0000821CFD13F49304618F060FE304617F01B
:103C000038FF684604F09BFB04B0002070BD000044
:103C10004572726F7221204578616D706C653A2033
:103C200070696E4D6F646528312C312C224F5554CC
:103C30005055542229202D3E20504131204F5554BB
:103C4000505554204D6F6465000000004572726F3E
:103C500072204750494F7820210000004572726F52
:103C6000722050696E782021000000004572726F4A
:103C700072204D6F64652021000000004572726F54
:103C800072204750494F782069732741272D3E31D4
:103C9000207E2747272D3E37210000004572726F96
:103CA000722050696E7820697320307E3135210092
:103CB0004F55545055540000494E50555400000083
:103CC000494E5055545F50554C4C55500000000023
:103CD000494E5055545F50554C4C444F574E000080
:103CE000494E5055545F414E414C4F470000000033
:103CF00050574D000CCE04082DE9F8438846044681
:103D00001746484948482AF047FBBDF800000025FF
:103D100065F3040065F34A1065F3CF20ADF80000A9
:103D200080B2424E0090BDF80000F087BDF8000060
:103D30003C4965F3040065F34A1065F3CF20ADF804
:103D4000000080B20090BDF80000A6F8400006F127
:103D50003C0005723C302AF01FFBBDF800001F2319
:103D600063F304003F2161F34A1063F3CF20ADF801
:103D7000000080B20090BDF80000A6F87A00BDF8FF
:103D8000000063F3040061F34A1063F3CF20ADF841
:103D9000000080B20090BDF80000A6F87C0006F19B
:103DA00078017F2008721DF0E7FF1EF016F8002151
:103DB0001AF0DAFB1E49206028F0F3F800201DF00D
:103DC000E1FF45F2565110FB01F00114A1EBE07048
:103DD00001B2206828F013FA1649009500233A46EC
:103DE0002068496827F050F906F13C02002120685C
:103DF0001AF0D8FD06F17802012120681AF0D2FDF0
:103E00000021206824F0B2FE414625F0A9FDC8211A
:103E100020681AF0A5FD2068BDE8F843C8211AF013
:103E2000A5BD00009C0A0010DC0C0010A00C0010C6
:103E300085500008F805001010B5012000F090F83A
:103E40000D4CD4F83011B4F83C010883D4F8201399
:103E5000B4F82C030883012009F024FAD4F83011B7
:103E6000B4F83C014883012009F01CFAD4F820136F
:103E7000B4F82C03488310BD90BD03081B4802F022
:103E8000DEFD0021194802F045FB19480068804713
:103E900044F620624FF47A711920FEF749FD4FF481
:103EA000FA71192030F000F900F026F802F084F9D8
:103EB000012000F0CFFF022001F0C2FB042001F03E
:103EC000A9FB052001F0D4FB032001F0E9FB01214F
:103ED000084802F085FA00BF2CF05CFF054802F0AC
:103EE000B8FA0A2036F0B8FBF6E7000048280020B0
:103EF000180000209828002000B58FB024F02CFB7B
:103F000013494FF4C8530022A1F11C001DF08CFE90
:103F100068461DF096FE4FF4A070ADF800004FF417
:103F2000F070ADF802000B4803900B480190684612
:103F30001DF0AAFE08A823F0EDFD01208DF8200059
:103F40000648099008A823F0F9FD0FB000BD000055
:103F5000C028002025420008A4280020094E00089F
:103F600070B5114D0446287910F0010F0BD1281DB2
:103F700004F0BCFD38B1002C0CBF012000202870DB
:103F80000A48AFF300802878844208BF70BD24B18E
:103F9000052113202FF076F903E0002113202FF0E4
:103FA00071F92C7070BD000010000020140000207A
:103FB00070B5064618F04CF9022806D024A1304608
:103FC00018F07CFC304617F054FD012421463046A1
:103FD00018F0A7F930B92BA1304618F06FFC304625
:103FE00017F047FD641C022CF0DD00220121304651
:103FF00019F076F9BDEEC00A0022022110EE105A27
:10400000304619F06DF9BDEEC00A681E0B2810EE9F
:10401000104A06D321A1304618F050FC304617F064
:1040200028FD102C06D325A1304618F047FC304659
:1040300017F01FFD280110382549204401EB00111D
:1040400008684269898951404161002070BD0000C3
:104050004572726F7221204578616D706C653A20EF
:10406000746F67676C6550696E28312C3129202D7B
:104070003E746F67676C65205041312053746174E2
:10408000650000004572726F72206E756D62657218
:10409000206F662056616C75652100004572726F55
:1040A00072204750494F782069732741272D3E31B0
:1040B000207E274B272D3E31312100004572726F43
:1040C000722050696E7820697320307E313521006E
:1040D00090BD030870B5144C05462078002808BF31
:1040E00070BDB5EEC00AF1EE10FA38BF9FED0F0AB1
:1040F00006D310EE100AB0F17E5FC8BFB7EE000A1B
:10410000DFED0B0A20EE200ABCEEC00A10EE100A0A
:1041100081B2002007F076F8012060702EF0B4FB29
:104120002844606070BD00002807001000000000F7
:1041300000007A4410B5002304461A46194618F0C8
:10414000A9FE05490979002908BF10BD03A1204631
:10415000BDE8104012F09CBC241000106C7561206A
:1041600073637269707420627265616B0000000095
:1041700010B50C4601460D48006826F015F8062CCF
:1041800018BF10BD0A4901EB0010017A012906D0C1
:10419000022918BF10BDC068BDE810400047017B70
:1041A000BDE81040034802F01BB90000C006001033
:1041B000C8060010982800200E2918BF704710B5B7
:1041C00029F033FF04460246074805A1406801F084
:1041D000F5FAA1B2BDE81040192007F013B80000AD
:1041E00025642525000000007C0A0020062918BF50
:1041F000704770B5094D0646002400BFC4EBC400EB
:1042000055F82010B14205D105EB8000017A044831
:1042100002F0E6F8641C032CF0DB70BD24060010ED
:104220009828002010B513460446C888B1F902202A
:10423000B1F804C0B1F90010801AACEB010C82B0E7
:10424000401C0CF1010C00B20FFA8CFCCDE900C04F
:10425000044802F0C2FB02B02046BDE810401DF049
:1042600077BD00004828002002494860086836F001
:104270005FBA00009C0A002070B5064617F0E8FF00
:10428000022806D025A1304618F018FB304617F05A
:10429000F0FB01242146304618F043F830B92BA139
:1042A000304618F00BFB304617F0E3FB641C022C81
:1042B000F0DD00220121304619F012F8BDEEC00AEF
:1042C0000022022110EE105A304619F009F8BDEE16
:1042D000C00A681E072810EE104A06D321A13046F6
:1042E00018F0ECFA304617F0C4FB102C06D325A1C9
:1042F000304618F0E3FA304617F0BBFB28011038BF
:104300002044C0B206F06CFF00EE100A3046B8EE52
:10431000400A18F0CAFA012070BD00004572726FA1
:104320007221204578616D706C653A20616E616C18
:104330006F675265616428312C3129202D3E52650A
:104340006164205041312041444300004572726F46
:1043500072206E756D626572206F662056616C7595
:10436000652100004572726F72204750494F7820D6
:1043700069732741272D3E31207E2747272D3E3761
:10438000210000004572726F722050696E782069BA
:104390007320307E3135210010B5062112202EF019
:1043A00071FF0121122009F017F8322036F054F97C
:1043B0000021122009F010F8322036F04DF90121C9
:1043C000122009F009F8322036F046F900211220B7
:1043D00009F002F8322036F03FF90121122008F0EE
:1043E000FBFF0021BDE8104012202EF04BBF000063
:1043F0000B4804F08DFAFFF737FBFFF7E1FA00F006
:104400001BFD084C206808B136F014FA61680029D9
:104410001CBF034804F08CFA20680028F6D0F3E7AC
:10442000241000109C0A002070B5084C0546227824
:104430002AB9052111202EF025FF012222702946DC
:10444000BDE87040112008F0C7BF0000840A0020BA
:104450002DE9F041064617F0FBFE032806D027A100
:10446000304618F02BFA304617F003FB01242146A2
:10447000304617F056FF30B92DA1304618F01EFA1D
:10448000304617F0F6FA641C032CF0DD00220121FF
:10449000304618F025FFBDEEC00A0022022110EEC2
:1044A000105A304618F01CFFBDEEC00A002203214E
:1044B00010EE104A304618F013FFBDEEC00A681E19
:1044C000072810EE107A06D31FA1304618F0F6F92F
:1044D000304617F0CEFA102C06D323A1304618F040
:1044E000EDF9304617F0C5FA280110382044B9B26A
:1044F000C0B206F087FE0020BDE8F0814572726F01
:104500007221204578616D706C653A20616E616C36
:104510006F67577269746528312C312C353030291A
:10452000202D3E5041312050574D20353025000080
:104530004572726F72206E756D626572206F6620B3
:1045400056616C75652100004572726F722047508C
:10455000494F782069732741272D3E31207E274718
:10456000272D3E37210000004572726F722050697E
:104570006E7820697320307E3135210070B5064693
:1045800017F066FE022806D025A1304618F096F9ED
:10459000304617F06EFA01242146304617F0C1FE6E
:1045A00030B92CA1304618F089F9304617F061FA7D
:1045B000641C022CF0DD00220121304618F090FE30
:1045C000BDEEC00A0022022110EE105A304618F04B
:1045D00087FEBDEEC00A681E0B2810EE104A06D3F7
:1045E00022A1304618F06AF9304617F042FA102C32
:1045F00006D326A1304618F061F9304617F039FA93
:10460000280110382044C0B208F0D6FE00EE100A8F
:104610003046B8EE400A18F048F9012070BD00009D
:104620004572726F7221204578616D706C653A2019
:104630006469676974616C5265616428312C312941
:10464000202D3E52656164205041312053746174C5
:10465000650000004572726F72206E756D62657242
:10466000206F662056616C75652100004572726F7F
:1046700072204750494F782069732741272D3E31DA
:10468000207E274B272D3E31312100004572726F6D
:10469000722050696E7820697320307E3135210098
:1046A00070B52C482DED028B90B090ED008AB5EEE0
:1046B000C08AF1EE10FACCBFB0EE480AB1EE480A5B
:1046C000DFED250A9FED251A254C20EE200A25480E
:1046D000C0EE011A9FED241ABDEEE10A84ED0C0A2A
:1046E00090ED000A10EE100A30EE411A61EE200A39
:1046F0009FED1E1AC0EE811AFDEEE10AC4ED0D0A0F
:10470000FCF76EFB05460E4618EE100AFCF768FB38
:1047100041EC100BCDE9005653EC102B14A102A86C
:1047200004F09AF902A9606A2BF0EEFA208E02B228
:10473000D4E904011CF09BFAA08EA16902B22069A1
:104740001CF095FA20691CF090FA10B0BDEC028BB9
:1047500070BD00008C0A00200000C84200803B456C
:1047600088060010900A0020008022450000C844FE
:1047700043757272656E743A25302E32666D410A49
:10478000566F6C746167653A25302E32666D56201F
:104790000000000010B5044600202168002908BF71
:1047A00010BD084627F03AF800202060012010BD17
:1047B0002DE9F041074600252846FFF7D1FB2C4C98
:1047C000002600BFD4F82013B4F82C03488305203A
:1047D00008F068FDD4F82013B4F82C0308836806A9
:1047E000050ED4F830010069B4F83C1108421CBF32
:1047F000681CC5B2701CC6B2082EE3D3D4F82013CF
:10480000B4F82C0348834FF00100CFB1FFF7A8FBA9
:10481000D4F83011B4F83C014883012008F042FD7F
:10482000D4F82013B4F82C030883012008F03AFDD3
:10483000D4F82013B4F82C0348832846BDE8F0814F
:10484000FFF78EFBD4F83011B4F83C010883012047
:1048500008F028FDD4F82013B4F82C0308830120B5
:1048600008F020FDD4F82013B4F82C034883E4E7C3
:1048700090BD030870B505460120FFF771FB374C6A
:10488000D4F82013B4F82C0348830026B4F83C0174
:10489000D4F8301115F0800F14BF088348836806E0
:1048A000D4F82013050EB4F82C030883012008F077
:1048B000F9FCD4F82013B4F82C034883012008F045
:1048C000F1FC701CC6B2082EE0D300252846FFF785
:1048D00047FBD4F83011B4F83C010883012008F0FC
:1048E000E1FCD4F82013B4F82C030883012008F06D
:1048F000D9FCD4F830010069B4F83C11084227D043
:10490000681CC5B2FA2D1DD90120FFF729FBD4F888
:104910002013B4F82C034883D4F83011B4F83C01C8
:104920004883012008F0BEFCD4F82013B4F82C030F
:104930000883012008F0B6FCD4F83011B4F83C012B
:10494000088370BDD4F83001006989B20842D7D11C
:10495000D4F82013B4F82C03488370BD90BD03082D
:1049600010B50A4C01466068002808BF10BD2AF047
:10497000BFFB60682AF082FEC82898BF10BD04A162
:104980006068BDE810402BF0BFB900007806001049
:104990000000000010B504462DED028B17F058FC06
:1049A000022806D01BA1204617F088FF204617F0EA
:1049B00060F80121204617F0BDFC30B924A1204643
:1049C00017F07CFF204617F054F80221204617F01C
:1049D000A8FC30B928A1204617F070FF204617F038
:1049E00048F800220121204618F07AFCB0EE408AF7
:1049F00000220221204618F073FCBCEEC00A10EE23
:104A0000100AB0EE480AFFF765FBBDEC028B0020F0
:104A100010BD00004572726F7221204578616D7083
:104A20006C653A206D6F746F7228312E302C2035F2
:104A3000302920312E30202D3E2050574D2031304E
:104A400030252C203530202D3E2035306D73000070
:104A50004572726F72212055736520666C6F6174A8
:104A600020746F206374726C206D6F746F7220708D
:104A70006F776572000000004572726F72212055D9
:104A8000736520696E7467657220746F2063747239
:104A90006C206D6F746F722064656C61792074692D
:104AA0006D6500002DE9F041064617F0D1FB0328A3
:104AB00006D027A1304617F001FF304616F0D9FF87
:104AC00001242146304617F02CFC30B92CA1304689
:104AD00017F0F4FE304616F0CCFF641C032CF0DD1A
:104AE00000220121304618F0FBFBBDEEC00A002277
:104AF000022110EE105A304618F0F2FBBDEEC00A4B
:104B00000022032110EE104A304618F0E9FBBDEEFA
:104B1000C00A681E0B2810EE107A06D31EA130467C
:104B200017F0CCFE304616F0A4FF102C06D322A1BD
:104B3000304617F0C3FE304616F09BFF28011038B0
:104B40002044F9B2C0B208F047FC0020BDE8F08173
:104B50004572726F7221204578616D706C653A20E4
:104B60006469676974616C577269746528312C31A6
:104B70002C3129202D3E5041312069732031000015
:104B80004572726F72206E756D626572206F66205D
:104B900056616C75652100004572726F7220475036
:104BA000494F782069732741272D3E31207E274BBE
:104BB000272D3E31312100004572726F72205069FD
:104BC0006E7820697320307E3135210010B504469F
:104BD0001F21324801F09EFC4FF6FF712F4802F072
:104BE00020FE2F492D4802F0E5FE02212B4802F05D
:104BF00013FE50220021294802F0A1FD29A12748D7
:104C000003F0E6F90021254802F0D4FE02212348F2
:104C100002F002FE214803F0C7FE00EBD0706FF0F7
:104C20000F0202EB600002B200211C4802F087FD77
:104C300021461A4803F0CCF91BA1184803F09EF94D
:104C4000164803F0B1FE623802B20021134802F0A8
:104C500076FD1BA1114803F0BBF91C4802681CA19A
:104C60000E4803F0A0F91E4802681EA10B4803F08D
:104C70009AF91F4802681FA1084803F094F92048D8
:104C8000026820A1054803F08EF921480268BDE8BA
:104C9000104020A1014803F086B9000048280020F8
:104CA000BC0604083A28000053796574656D2077C6
:104CB000696C6C207265626F6F742E2E2E0000007E
:104CC0004572726F7220636F64653A0034ED00E0E4
:104CD0004D4D4641523D307825780D0A00000000C8
:104CE00038ED00E0424641523D307825780D0A000B
:104CF00028ED00E0434653523D307825780D0A00F8
:104D00002CED00E0484653523D307825780D0A00DE
:104D100030ED00E0444653523D307825780D0A00CE
:104D200010B5324CB7EE000A2DED028B94ED0C1A43
:104D3000D4ED020AF8EEC11AF4EEE10AF1EE10FA2F
:104D400038BF70EE800A09D3B8EEC11AF4EEC10A7A
:104D5000F1EE10FAC8BF70EEC00A01DDC4ED020A20
:104D600094ED0D1AD4ED030AF8EEC11AF4EEE10A3F
:104D7000F1EE10FA38BF30EE800A09D3B8EEC11A4E
:104D8000F4EEC10AF1EE10FAC8BF30EEC00A01DD40
:104D900084ED030A94ED020AF3EE0E0A9FED148AE5
:104DA00020EE200A0021C0EE080ABDEEE00A10EE57
:104DB000100A02B2E06921F0D5FC94ED030AF3EE8B
:104DC000000A002120EE200AC0EE080AB3EE0A0A0B
:104DD00030EE800ABDEEC00A10EE100A02B2206A60
:104DE000BDEC028BBDE8104021F0BCBC8806001071
:104DF0000000C84210B5006826F010FD01490020EF
:104E0000886010BD7806001070B5094C0D466068CA
:104E10008047207FC1090748A97303D021890180F9
:104E2000618A41800188298040886880002070BDA7
:104E30001800002010060010024A03A1044803F0E5
:104E400045BD0000954900086D6F746F7200000049
:104E50002410001000B583B0054B064ACDE90023AD
:104E600001460023044A054801F0C6FA03B000BD1C
:104E70008F580008E5570008255900089828002099
:104E800010B5134CA07890B9052104202EF0FAF942
:104E90004FF47A7211460020FDF74AFD00210846C2
:104EA00006F0B0F90020FFF7BFFA0120A07060788B
:104EB000002808BF10BD2DF0E7FC6168884238BFAC
:104EC00010BD0021084606F09DF90020607010BD5D
:104ED0002807001010B50C4C207828B97521601CEB
:104EE00003F0DAF901202070084803F085F884ED1A
:104EF000010A064803F0E8F884ED020A034803F0CB
:104F000057F984ED030A10BD880A0020890A0020A1
:104F100030B589B00C4623F041FC7CB12A4D112CF0
:104F200014D0122C27D0042C1CBF09B030BD27A1EF
:104F3000286809B0BDE830402AF0E6BE09B0142068
:104F4000BDE83040B7EE000AFFF7C4B82049214859
:104F500003F0CBFC28682AF09FFBFFF785F90122BC
:104F60001146E8682BF0CCFC686809B01AA1BDE8CE
:104F700030402AF0BDB8174803F0BAFCA86800908A
:104F800026F00DFF04901CF0F7FE1CF02FFF05909B
:104F90001248019012480290124803900020ADF888
:104FA0001A004FF49671ADF818109DF82010ADF866
:104FB0001C0021F00301ADF81E008DF8201068469A
:104FC00018F084FE09B030BD780600100000000023
:104FD00061490008241000100A3E20001BC202088C
:104FE000CDDD0108F54D0008F8B51CF0C5FE1CF03C
:104FF000F4FE00211AF0E2FE214C9622C821206125
:1050000027F08FF80A20009000230D22616A2069A2
:1050100026F03AF8052120691BF0FAFFB221206939
:105020001BF0D5FF022120691BF0E2FF6422002162
:1050300020691BF0B7FF142120691BF0B7FEBDF8F3
:105040000000002565F3040065F34A101F2666F38F
:10505000CF20ADF8000081B220691AF07FFE6061B8
:10506000BDF8000066F3040065F34A1065F3CF2035
:10507000ADF8000081B220691AF070FEA061F8BDA1
:105080008806001070B50D460446062907D107486A
:10509000C068844203D10121054801F0A1F92246EC
:1050A0002946BDE87040024801F0C6B9F805001075
:1050B000982800202DE9F04F83B000201CF062FEFC
:1050C000074600201CF092FE0446FE48006826F0C9
:1050D00065FD241AFC48006826F060FD201A06B21F
:1050E000FA49FB4829F058F9BDF80000162161F390
:1050F00004001F2565F34A10092161F3CF20ADF8A4
:10510000000080B20090F248BDF8001000244180F9
:10511000BDF80000162161F3040065F34A1009216F
:1051200061F3CF20ADF8000080B20090E848BDF8F0
:1051300000108180C4820483E6493C3029F02CF9B8
:10514000E548E649047284813C3029F025F9E448B9
:105150004FF07F083F21C48080F80880BDF8000030
:10516000202265F3040061F34A1065F3CF20ADF807
:10517000000080B20090D648BDF80010A0F87A1068
:10518000BDF800003F2165F3040061F34A1065F3A8
:10519000CF20ADF8000080B20090CD48BDF80010DF
:1051A000A0F87C10783010218481BDF8000061F3F4
:1051B000040062F34A1061F3CF20ADF8000080B222
:1051C0000090C348BDF80010A0F8981000201CF013
:1051D00004FE00212BF0B4F9C24900230D22C8605F
:1051E000B8490094096825F04FFFBE483246394659
:1051F000C06826F096FFBB48BBA1C0682BF07EF8C4
:105200000746B848BAA1C0682BF078F80290B548B4
:10521000AF4A0221C0682BF011FBB248AB4A012112
:10522000C0682BF00BFBAF48AB4A0321C0682BF0E2
:1052300005FBAC48AA4A0421C0682BF0FFFAA94834
:10524000A54A0521C0682BF0F9FAA648A44A062110
:10525000C0682BF0F3FAA84A0021384628F022F85B
:10526000A54A0121384628F01DF80221384627F0CA
:10527000F0FFA249A24829F08FF8A1484FF04C094D
:10528000042680F80890C480BDF804004FF0080A96
:1052900066F304006AF34A1066F3CF20ADF8040009
:1052A00080B201908A48BDF80410A0F8D410002103
:1052B00038462AF013F88B490860384626F06EFC11
:1052C0008346384627F03DFB26F04FFD01460BEBA9
:1052D000DB7042108348006826F023FF8148884A2B
:1052E000002100682AF0D9FC7E48864900682AF02F
:1052F0000BFD7C488449006826F053FE73498348BF
:1053000029F04AF87748012100682AF093FD7F4987
:10531000FF200872BDF8000064F3040064F34A1033
:1053200064F3CF20ADF8000080B20090A1F5967034
:10533000BDF80020A0F82E21BDF8000064F30400A1
:1053400064F34A1064F3CF20ADF8000080B20090FF
:10535000A1F59670BDF80020A0F830214C838C8315
:10536000CC820C83CC83594900F5B47029F014F831
:1053700067484FF0010B18270472C480A0F80CB0E6
:10538000BDF80010302267F3040162F34A1167F39D
:10539000CF21ADF8001089B20091A0F5B471BDF82D
:1053A0000020A1F8722180F80F80BDF8000064F39E
:1053B000040064F34A1064F3CF20ADF8000080B21B
:1053C00000900846BDF80010A0F86A11BDF8000072
:1053D00064F3040064F34A1064F3CF20ADF80000D6
:1053E00080B200903A48BDF80010A0F86C11BDF8EA
:1053F00000003F2165F3040061F34A1065F3CF20FC
:10540000ADF8000080B200903148BDF80010A0F85F
:105410008811324900F5D27028F0BEFF3D493F2285
:10542000CC8081F80880BDF8000065F3040062F3C9
:105430004A1065F3CF20ADF8000080B20090A1F5CE
:10544000D270BDF80020A0F8A621BDF800003F22D0
:1054500065F3040062F34A1065F3CF20ADF8000055
:1054600080B20090A1F5D270BDF80020A0F8A8216C
:10547000A1F80CB0BDF80000302167F3040061F31F
:105480004A1067F3CF20ADF8000080B200901048BA
:10549000BDF80010184AA0F8AE11029F002138464E
:1054A00027F000FF144A0121384627F0FBFE0221B5
:1054B000384627F0CEFE1149174828F06DFF1648F0
:1054C0002CE00000F8050010FC050010600A001038
:1054D000440E0010500B0010800E00108C0B0010BA
:1054E000BC0E001078060010496E70757400000044
:1054F0004F75747075740000E8090010D80A001028
:10550000F80E00102CBD0408D1560008700F0010D2
:10551000AC0F0010E80F0010340F001080F8089056
:10552000C480BDF8040066F304006AF34A1066F311
:10553000CF20ADF8040080B201901C48BDF80410E3
:10554000A0F810110021384629F0C8FE184948601B
:10555000384626F023FB00EE100ADFED160AB8EEFF
:10556000C00A20EE200ABDEEC00A10EE100A04B2F6
:10557000384627F0E6F926F0F8FB01460C482246AB
:10558000406826F0CEFD0A480B4A002140682AF008
:1055900084FB0748002140682AF0F0FA044807A17C
:1055A000406803B0BDE8F04F2AF0AEBB440E0010D7
:1055B00078060010CDCC4C3F340F001000000000E6
:1055C00000B5DFF844C087B00DF1040E9CE80F1061
:1055D0008EE80F10052000900C48002341F268026D
:1055E00090ED000A40F62821BDEEC00A10EE100A28
:1055F0002CF01CFA01A951F820100548406924F04C
:10560000AFF907B000BD000094ED0308940A002034
:10561000F805001000B583B0054B064ACDE900231C
:1056200001460023044A054800F0E6FE03B000BD31
:10563000C5580008315800089D5B000898280020D4
:1056400000B583B0054B064ACDE900230146054B62
:10565000054A064800F0D0FE03B000BDE55800083A
:10566000615800088B5800089D5D000898280020AC
:1056700000B583B0054B064ACDE900230146054B32
:10568000054A064800F0B8FE03B000BD9158000876
:105690000D58000889580008995B000898280020D8
:1056A00000B583B0054B064ACDE900230146054B02
:1056B000054A064800F0A0FE03B000BD05590008E9
:1056C0006D5800088D580008F15E000898280020E9
:1056D00070B5334C8AB00E46206826F088FA26F062
:1056E00086FA0546062E07BFA06800280AB070BDDE
:1056F0004FF00001284622F0C3FFA060284626F0A4
:1057000053FA0646284626F036FB014606EBD670CD
:105710004210A06826F005FD002500952B460D22BD
:105720002168A06825F0B0FC2168A06823F0A4F9E6
:105730001C4A0021A06823F085F91B4A0121A068BA
:1057400023F080F9194A0221A06823F07BF9184957
:10575000A06826F026FCA06801901CF00DFB1CF050
:1057600045FB0590A06826F01AFB069011480290B0
:105770001148CDE90305ADF81E504FF49670ADF811
:105780001C009DF82400ADF8205020F003008DF897
:105790002400ADF8225001A818F098FA0AB070BDA4
:1057A00078060010700F0010AC0F0010E80F00100A
:1057B000114F00081BC20208CDDD01080FB43221D1
:1057C00030B58DB0044612AB6846119A03F058F913
:1057D00005466946204624F0C3F80DB0284630BC83
:1057E0005DF814FB70B5084E002400BFC4EBC40084
:1057F00006EB80052846FEF7CDFF281DFEF7CAFF01
:10580000641C032CF2DB70BD2406001010B50648A2
:1058100003F06EF8054CE06826F000F80020A06068
:10582000E0606060206010BD241000107806001059
:1058300010B50A4C206925F0F1FFE06925F0EEFF74
:10584000206A25F0EBFF606A25F0E8FFA06A2BF0E4
:1058500089FAE06ABDE810402BF084BA880600108F
:105860000148FEF797BF0000C006001010B50448BD
:10587000FEF790FFBDE810400248FEF78BBF000026
:105880007C0A0020800A00207047704770477047EC
:10589000062818BF704708480068814218BF704743
:1058A0000648806818B10022122120F06BBA044823
:1058B000417800F095BD0000080600107806001041
:1058C00098280020062818BF7047044800688142C5
:1058D00018BF70470248417800F082BD08060010EA
:1058E00098280020062818BF7047044800688142A5
:1058F00018BF70470121024800F072BD0806001071
:1059000098280020062818BF704704480068814284
:1059100018BF70470248417800F062BD08060010C9
:10592000982800202DE9F84F904F0026904D3878A8
:10593000DFF840B24FF01F0807F10809002870D1C6
:105940008D4905F1780028F027FDBDF800003F21C2
:1059500068F3040061F34A1068F3CF20ADF800004B
:1059600080B20090BDF80000A5F87A00BDF80000F4
:10597000102161F30400202262F34A1061F3CF206A
:10598000ADF8000080B20090BDF80000A5F87C00E2
:105990001CF0F2F91CF021FA00212AF0D1FD3C1D87
:1059A000206000201CF022FA8246DBF8000026F07E
:1059B000F5F8AAEB000A7148006826F0EFF8AAEBA8
:1059C00000000FFA80FADBF8000026F0CEF9236819
:1059D00001465246184626F0A4FB009600230D22ED
:1059E0002068DBF8001025F04FFB05F1780200215C
:1059F00020682AF023FF012120682AF011FF0121ED
:105A000020682AF0FFFE5EA120682AF077FCC9F822
:105A100000005CA120682AF071FCC9F80400012094
:105A2000387000275849C7EBC70001EB8004524982
:105A30004F48D9F800A028F0AFFCBDF800003F2186
:105A400068F3040061F34A1068F3CF20ADF800005A
:105A500080B20090BDF800006880BDF8000068F3D7
:105A6000040061F34A1068F3CF20ADF8000080B263
:105A70000090BDF80000A880BDF8000068F30400A5
:105A800061F34A1068F3CF20ADF8000080B20090B7
:105A9000BDF8000028867F2085F83200BDF80000A0
:105AA000002166F3040066F34A1066F3CF20ADF8D8
:105AB000000080B20090BDF800002884504621F01C
:105AC00035FF20600021E26821F0A9FF0121E26892
:105AD000206821F0A4FF264A0121206821F0CBFF95
