:020000040800F2
:10000000E0070020CD380008D5380008D7380008B0
:10001000D9380008DB380008DD380008000000008F
:10002000000000000000000000000000DF380008B1
:10003000E138000800000000E3380008A1120008C1
:10004000E7380008E7380008E7380008E738000814
:10005000E7380008E7380008E7380008E738000804
:10006000E738000805160008E7380008E7380008F8
:10007000E7380008E7380008E7380008E7380008E4
:10008000E7380008E7380008E7380008E7380008D4
:10009000E7380008E7380008E73800083716000896
:1000A000E7380008E7380008E7380008E7380008B4
:1000B000E7380008DF160008E7380008E7380008CE
:1000C000E7380008E7380008E7380008E738000894
:1000D000E7380008ED140008E7380008E7380008A2
:1000E000E7380008E7380008E7380008E738000874
:1000F000E7380008E7380008E7380008E738000864
:10010000E7380008E7380008E7380008E738000853
:10011000E7380008E7380008E7380008E738000843
:10012000E7380008E7380008E7380008E738000833
:1001300000F002F800F041F80AA090E8000C8244B8
:100140008344AAF10107DA4501D100F036F8AFF295
:10015000090EBAE80F0013F0010F18BFFB1A43F0A5
:1001600001031847C04A0000E04A0000103A24BFCB
:1001700078C878C1FAD8520724BF30C830C144BF0C
:1001800004680C607047000000230024002500264E
:10019000103A28BF78C1FBD8520728BF30C148BFEA
:1001A0000B607047642903F0E384002070471FB59B
:1001B00003F01CFD1FBD10B510BD03F0B1FD1146CD
:1001C000FFF7F5FF00F045F903F0CFFD03B4FFF7AB
:1001D000F2FF03BC01F02EF970B504460D4604F0A1
:1001E0000F0301229A4091B224F00F002A4601F039
:1001F000C9F870BD70B504460D464DB104F00F034B
:1002000001229A4091B224F00F0001F0FAFB08E0BD
:1002100004F00F0301229A4091B224F00F0001F084
:10022000F2FB70BD10B5044604F00F0301229A40A2
:1002300091B224F00F0001F0CAFB10BDC2684A4021
:10024000C26070472DE9F04780460C4616461F46AF
:1002500000212046FFF7CEFF00251FE00EB92846FB
:1002600001E0C5F10700814647FA09F000F00101FD
:100270004046FFF7BFFF04F00F0301229A4091B2FE
:1002800024F00F00FFF7DAFF04F00F0301229A4079
:1002900091B224F00F00FFF7D1FF6D1C082DDDDBBC
:1002A000BDE8F0872DE9F04180460E46174600254F
:1002B000002419E001213046FFF79CFF37B9404682
:1002C000FFF7B0FFA0402843C5B207E04046FFF764
:1002D000A9FFC4F1070188402843C5B20021304678
:1002E000FFF788FF601CC4B2082CE3DB2846BDE89A
:1002F000F08170B50446049D601AEE1A7043561AD8
:1003000090FBF6F0184470BD2DE9F04F89B0064619
:100310000F4614461D46DDE9148922462B46DDE9C9
:10032000120104F083F942464B46CDE90401DDE9B0
:10033000160104F07BF982468B4622462B46304656
:10034000394604F073F952465B46CDE9000104F0EA
:100350002DF8CDE90201DDE9042303F065FE4246F4
:100360004B46CDE9060103F0ABFD09B0BDE8F08FC7
:1003700003468B4201DA08467047934201DD10467E
:10038000FAE71846F8E72DE9F04704460D46164609
:100390001F46DDE9088932463B462046294603F0E0
:1003A000C9FF03D230463946BDE8F08742464B4686
:1003B0002046294604F0F8F802D240464946F3E7C1
:1003C00020462946F0E7000000B587B04FF4E13041
:1003D00001F03EF80021324800F022FD00213048B3
:1003E00000F027FD01200A2115221623CDE9003255
:1003F000CDE902100D230B2240F2E17105A800F0B7
:100400006DFC2748DDE9051200F047FE07B000BD8E
:1004100000B587B0224905A800F08EFD9DF81400B4
:100420009DF815109DF816209DF81930CDE9003281
:10043000CDE902109DF817309DF81820BDF81A106C
:1004400018A003F055FB4FF47A7000F04DFF07B091
:1004500000BD00F00FFF00F0F9FEFFF7B5FF01E06F
:10046000FFF7D6FFFCE71CB51A48411E1A4B5A1C71
:10047000CDE90010511C194800F038F81648801ECC
:10048000411E174B9A1ECDE90010D11C154800F0F3
:100490002DF8154B5A1C511C014800F03DFC1CBDA9
:1004A00098000020596561723A2564202C204D6F18
:1004B0006E3A2564202C20446174653A2564202C12
:1004C000205765656B3A2564202C2025643A256405
:1004D0003A256400072001400D0C01406000002017
:1004E0000E1801407C0000200A10014030B5DDE903
:1004F00003458160C26003614461856130BD70B5B0
:1005000004460D4600261EE005F0800020B10121C2
:10051000A068FFF76FFE03E00021A068FFF76AFE06
:1005200001212069FFF766FE6806050EE068FFF707
:1005300079FE012801D145F0010500212069FFF76E
:1005400059FE701CC6B2082EDEDB284670BD2DE9B0
:10055000F0470446884615461E460021A069FFF76D
:1005600049FE41462046FFF7CAFF8146002706E0C4
:1005700015F8011B2046FFF7C2FF781CC7B2B7422F
:10058000F6DB0121A069FFF735FE4846BDE8F0879C
:100590002DE9F04104460E4615460021A069FFF7FB
:1005A00029FE31462046FFF7AAFF07462946204686
:1005B000FFF7A5FF0121A069FFF71CFE3846BDE843
:1005C000F08170B504460D4600216069FFF712FE08
:1005D0000523224630212046FFF7B9FF0523224696
:1005E0002A212046FFF7B3FF012221212046FFF7F1
:1005F000CFFF012222212046FFF7CAFF0E22202131
:100600002046FFF7C5FF282225212046FFF7C0FF1F
:10061000072226212046FFF7BBFF1A22242120466D
:10062000FFF7B6FF63792A46A0212046FFF78FFF28
:1006300001216069FFF7DEFD70BD10B504460021A1
:100640006069FFF7D7FD052322462A212046FFF7E0
:100650007EFF012221212046FFF79AFF012222215D
:100660002046FFF795FF282225212046FFF790FF1F
:10067000A27931212046FFF78BFF07222621204651
:10068000FFF786FF0F2220212046FFF781FF01217F
:100690006069FFF7AFFD10BD2DE9F04104460E463D
:1006A00017461D46DDF8188010216069FFF794FD9C
:1006B0001021A069FFF790FD1021A068FFF78CFDC5
:1006C0000421E068FFF788FD10212069FFF784FD11
:1006D00000216069FFF78EFD0121A069FFF78AFD07
:1006E00026B1012E08D0022E14D10BE084F806802A
:1006F0002046FFF7A2FF0DE0657139462046FFF75F
:1007000060FF07E084F80680657139462046FFF7F0
:1007100058FF00BF00BFBDE8F0810246002003E0A3
:100720000B5C1354431CD8B20528F9DB704770B535
:1007300004460D460021A069FFF75CFD29462046CE
:10074000FFF7DDFE00212046FFF7D9FE0646012116
:10075000A069FFF74FFD304670BD10B50446072174
:100760002046FFF7E4FF10BD70B505460E46072191
:100770002846FFF7DCFF044604F0200050B10022B9
:10078000E1212846FFF704FF6B793246A021284675
:10079000FFF7DDFE04F0100050B10022E1212846F1
:1007A000FFF7F6FE6B793246A0212846FFF7CFFE11
:1007B000224627212846FFF7EBFE204670BD2DE993
:1007C000F0470446884616461F460021A069FFF7F9
:1007D00011FD41462046FFF792FE8146002506E0C6
:1007E00000212046FFF78BFE7055681CC5B2BD4244
:1007F000F6DB0121A069FFF7FDFC4846BDE8F08764
:1008000070B505460E4607212846FFF790FF0446BF
:1008100004F0400050B1AB79324661212846FFF721
:10082000CEFF0022E2212846FFF7B2FE2246272112
:100830002846FFF7ADFE204670BD70B505460E4652
:10084000144620480078F8B131462846FFF78CFF5F
:10085000202809D031462846FFF786FF102803D00C
:1008600019480078052809D12846FFF7E6FE002040
:100870001649087013490870134908701248007827
:10088000401C114908701AE021462846FFF7B8FFBE
:10089000402803D00E48007805280BD13146284661
:1008A000FFF78FFE012009490870064908700020F3
:1008B0000749087006480078401C0549087003483D
:1008C000007870BD1E0000201C0000201F000020CA
:1008D0001D00002070B504460D4616462560666072
:1008E00010212068FFF778FC10216068FFF774FC86
:1008F000204670BD10B5044601212068FFF77AFC40
:1009000001216068FFF776FC042000F0F9FC00216B
:100910002068FFF76FFC042000F0F2FC0021606803
:10092000FFF768FC10BD10B5044600216068FFF7B2
:1009300061FC00212068FFF75DFC042000F0E0FC72
:1009400001216068FFF756FC042000F0D9FC01216A
:100950002068FFF74FFC042000F0D2FC10BD2DE909
:10096000F04104460E4680251AE005EA060020B94B
:1009700000212068FFF73EFC03E001212068FFF71B
:1009800039FC042000F0BCFC01216068FFF732FC58
:10099000042000F0B5FC00216068FFF72BFC6D100F
:1009A000002DE2D101212068FFF724FC042000F093
:1009B000A7FC01216068FFF71DFC2068FFF732FCEF
:1009C0000746042000F09CFC00216068FFF712FC41
:1009D000F843C0B2BDE8F08170B505460C4600266C
:1009E0002846FFF787FF6006010E2846FFF7B7FF8E
:1009F00006462846FFF797FF304670BD10B50446FF
:100A000000216068FFF7F6FB01212068FFF7F2FB89
:100A1000042000F075FC01216068FFF7EBFB042067
:100A200000F06EFC00216068FFF7E4FB10BD10B51C
:100A3000044600216068FFF7DDFB00212068FFF716
:100A4000D9FB042000F05CFC01216068FFF7D2FBB9
:100A5000042000F055FC00216068FFF7CBFB10BDBF
:100A60002DE9F04104460E46802716E0002160681B
:100A7000FFF7C0FB042000F043FC01216068FFF792
:100A8000B9FB6806050E2068FFF7CCFB08B1681CAF
:100A9000C5B2042000F034FC7F10002FE6D11EB157
:100AA0002046FFF7C4FF02E02046FFF7A7FF2846D5
:100AB000BDE8F0810170704770B504460E461546DA
:100AC00021788048FFF788FF31467E48FFF747FFCF
:100AD00029467C48FFF743FF7A48FFF724FF70BDA3
:100AE00010B50446002211462046FFF7E5FF10BD71
:100AF00010B504467348FFF7FDFE2046FFF7F0FFF0
:100B000010BD70B504460D4621786E48FFF764FFAE
:100B100029466C48FFF723FF6A48FFF704FF294680
:100B20006848FFF79DFF70BD2DE9F34F83B08946FC
:100B3000484603F065FE0746634A644B03F036FC03
:100B4000054603F08BF98146614802904FF08B41D6
:100B5000029803F0E3FE02904946029803F0DEFE9D
:100B600002904FF07E51029803F0E6FF0290029847
:100B700003F046FE05460022564B03F0A1F9074656
:100B800003F0FEF8824603F0A7FBC0B201900021FB
:100B90000398FFF7B6FF044604F07F0040F0100012
:100BA00000900021009A0398FFF786FFFE21019A2A
:100BB0000398FFF781FF224600210398FFF77CFF8F
:100BC000052000F091FB44F0A10200210398FFF7FB
:100BD00073FF05B0BDE8F08F2DE9F04106460F46E2
:100BE00014461D4631783748FFF7F6FEB800801DE1
:100BF000C1B23448FFF7B3FEE1B23248FFF7AFFEAF
:100C000021123048FFF7ABFEE9B22E48FFF7A7FEEE
:100C100029122C48FFF7A3FE2A48FFF784FEBDE8FF
:100C2000F0812DE9F04106460F4614461D4640F678
:100C3000FF70844201DA204601E040F6FF7004466E
:100C4000EDB13CB900234FF4805239463046FFF7EE
:100C5000C3FF2EE040F6FF70844206D1431C002201
:100C600039463046FFF7B8FF23E040F6FF70001B1F
:100C700083B2002239463046FFF7AEFF19E040F656
:100C8000FF70844206D10023421C39463046FFF7EC
:100C9000A3FF0EE03CB94FF48053002239463046A2
:100CA000FFF79AFF05E02346002239463046FFF75A
:100CB00093FFBDE8F08110B5074A511C0148FFF7CA
:100CC00009FE10BD20000020CDCCCCCCCCCCEC3F1C
:100CD00020BCBE4B0000E03F060C0140F0B505AC67
:100CE000F0CCC1800271C37084704570067047718A
:100CF000F0BD10B586B00446072000210091019197
:100D000001231A46CDE902104FF4FA6104A8FFF757
:100D1000E5FF204606B010BD2DE9F04104460D4622
:100D200017461E4625606760A66010212846FFF71B
:100D300053FA10213046FFF74FFA2046BDE8F08104
:100D40002DE9F04104460026002704216068FFF7E2
:100D500043FA002513E06068FFF764FA074607FAD4
:100D600005F03043C6B20121A068FFF743FA012025
:100D700000F0C6FA0021A068FFF73CFA6D1C082DB0
:100D8000E9DB3046BDE8F08170B504460D46102120
:100D90006068FFF721FA2B460022D4E90101FFF732
:100DA00051FA70BD2DE9F04104460D46812646EA10
:100DB0004500C6B20021A068FFF71CFA0121206897
:100DC000FFF718FA31462046FFF7DEFF2046FFF70F
:100DD000B7FF074600212068FFF70CFA3846BDE848
:100DE000F0812DE9F04104460D461646802040EA88
:100DF0004500C7B20021A068FFF7FCF90121206877
:100E0000FFF7F8F939462046FFF7BEFF3146204686
:100E1000FFF7BAFF00212068FFF7ECF9BDE8F08189
:100E200070B505460C46E20107212846FFF7D9FFB9
:100E300070BD70B506460D4600213046FFF7B2FF83
:100E4000044624F0800444EAC514224600213046BA
:100E5000FFF7C7FF70BD2DE9F04106460F46154666
:100E600039463046FFF79EFF0446681C012101FA0F
:100E700000F0401E00F0FF0804EA080404F00F0030
:100E800021090A2202FB0100C4B22046BDE8F0811C
:100E900010B50446062200212046FFF7DCFF10BDF6
:100EA00070B504460D46072229462046FFF7D3FFBA
:100EB00070BD10B5044601212046FFF7F1FF10BDBB
:100EC00070B5064602213046FFF76CFF044604F079
:100ED000800028B1C4F3401000EB4000850004E01E
:100EE000C4F3011000EB8000450004F00F0028441B
:100EF000C4B2204670BD10B5044605220321204629
:100F0000FFF7A9FF10BD10B5044604221146204684
:100F1000FFF7A1FF10BD10B50446022205212046AF
:100F2000FFF799FF10BD10B5044606212046FFF7D4
:100F3000B7FF00F5FA6010BD7CB504460D46684663
:100F4000FFF7D7FE2846FFF7A3FF8DF800002846DD
:100F5000FFF7AFFF8DF801002846FFF7B1FF8DF8CE
:100F600002002846FFF7C7FF8DF803002846FFF769
:100F7000CAFF8DF804002846FFF7CDFF8DF8050065
:100F80002846FFF7D0FFADF80600009820600198D2
:100F900060607CBD2DE9F0470746884614461D4633
:100FA00041463846FFF7FEFE8146681C012101FAE2
:100FB00000F0401EC6B20A2094FBF0F000F0FF0AD9
:100FC0000A2094FBF0F100FB1140C4B244EA0A107D
:100FD000C4B2344029EA0600814604432246414611
:100FE0003846FFF7FEFEBDE8F08770B505460C46B3
:100FF0000623224600212846FFF7CCFF70BD70B5BE
:1010000005460C460623224601212846FFF7C2FF6B
:1010100070BD70B505460C46002202212846FFF738
:10102000E0FE0523224602212846FFF7B3FF70BDEC
:1010300070B505460C460523224603212846FFF7D6
:10104000A9FF70BD70B505460C460423224619461B
:101050002846FFF79FFF70BD70B505460C4602237A
:10106000224605212846FFF795FF70BD70B504465E
:101070000D4616460723324629462046FFF78AFFCB
:1010800070BD70B505460C46A4F5FA6084B2E2B2B4
:1010900006212846FFF7EAFF70BD37B504469DF8E4
:1010A00004102046FFF7A1FF9DF805102046FFF72A
:1010B000A6FF9DF806102046FFF7ABFF9DF807102E
:1010C0002046FFF7B5FF9DF808102046FFF7BAFF4E
:1010D0009DF809102046FFF7BFFFBDF80A10204613
:1010E000FFF7CFFF3EBD000008B50121102000F042
:1010F00097FEFF20ADF8000000208DF80300694640
:10110000584800F0D1FB08BD00B591B00121084658
:1011100000F079FE0121480200F082FE524800F002
:10112000E3FE52480690524807900020089008209D
:10113000099000200A9080200B9040000C908000C5
:101140000D9020200E9000020F900020109006A914
:10115000454800F06BFF0121434800F092FF00205A
:10116000019001208DF808008DF809004FF46020EF
:1011700003900020049008208DF8140001A93B483A
:101180004C3801F094FA4FF4404000F0ADFD0523D7
:101190000122002135484C3801F021FB05230222B1
:1011A000012132484C3801F01AFB052303220221A9
:1011B0002E484C3801F013FB0523042203212B4851
:1011C0004C3801F00CFB05231A46042127484C3803
:1011D00001F005FB05230622194624484C3801F08E
:1011E000FEFA05230722062120484C3801F0F7FAC1
:1011F0000523082207211D484C3801F0F0FA01218F
:101200001A484C3801F08AFA012118484C3801F08C
:101210007AFA16484C3801F098FA00BF13484C3857
:1012200001F098FA0028F9D110484C3801F09CFAE6
:1012300000BF0E484C3801F09CFA0028F9D101217A
:101240000A484C3801F09FFA11B000BD10B5FFF705
:101250004BFFFFF759FF10BD0146054830F811005C
:101260007047000000080140080002404C24014083
:10127000A40000202F484FF0E02148610020886141
:101280000846006940F0040008610846006940F023
:10129000020008610846006940F0010008617047DB
:1012A00025480068401C24490860704722480068AF
:1012B0002249884208D322480068401C204908601F
:1012C00000201D49086070471B480068FBE700B517
:1012D000FFF7ECFF00EB4001C1EBC0104FF0E02145
:1012E000896901EBC00000BD00B50246FFF7DEFFD3
:1012F000034600BFFFF7DAFFC01A9042FAD900BDDB
:1013000000B502464FF0E0208369B2F57A7F07D23C
:1013100000BF4FF0E0208069C01A9042F9D308E086
:10132000FFF7D5FF034600BFFFF7C0FFC01A90428A
:10133000FAD900BD401901002800002000C87E9A9B
:101340002C00002008B50121502000F069FD60202C
:10135000ADF8000010208DF8030003208DF8020086
:1013600069462D4800F0A0FA2020ADF80000482082
:101370008DF8030003208DF802006946274800F02D
:1013800093FA08BDF8B504460D4616462448844233
:1013900004D10121042000F043FD30E021488442C3
:1013A00004D10121082000F03BFD28E01B488442C5
:1013B00004D10121102000F033FD20E01A488442BE
:1013C00004D10121202000F02BFD18E012488442B6
:1013D00004D10121402000F023FD10E01348844295
:1013E00004D10121802000F01BFD08E01048844258
:1013F00004D10121801500F013FD00E0F8BDADF827
:1014000000508DF8036003208DF8020069462046E5
:1014100000F04AFA00BFF1E7001801400010014057
:1014200000080140000C014000140140001C014074
:101430000020014000BF704700BF4B4A128802F0F5
:101440004002002AF9D0C2B2474B1B1D1A807047D8
:1014500010B586B00446012144F2040000F0E0FC1F
:101460004FF40070ADF8140003208DF8160018201A
:101470008DF8170005A93D4800F016FA4FF480607A
:10148000ADF8140004208DF8170005A9374800F0C6
:101490000BFA25208DF8000003208DF801008DF84F
:1014A000020001208DF80300684600F034F9019431
:1014B0000020ADF80800ADF80A00ADF80C00ADF85A
:1014C00010000C20ADF80E0001A9274800F007FF1E
:1014D000012240F22551244800F099FF01212248C1
:1014E00000F089FF06B010BD0020704710B540F233
:1014F00025511D4801F070F810B31B4800F0ECFFB7
:10150000C4B21B48008800F40040C8B918480088DD
:1015100000F4804060B10A2C03D0002014490880F8
:1015200020E01348008840F400401149088019E089
:101530000D2C06D10E48008840F480400C490880EC
:1015400010E00B480088C0F30D000A490C5408480D
:101550000088401C0649088008460088C72801DD2D
:101560000020088010BD0000003801400008014044
:1015700034000020B40000200EB50121084600F020
:101580004FFC0321042000F0A5FA08200190002060
:101590008DF8080008208DF8090001208DF80A0058
:1015A00001A800F0D9FD0521022000F093FA2020C7
:1015B000019000208DF808000C208DF80900012012
:1015C0008DF80A0001A800F0C7FD09208DF8000081
:1015D00002208DF801008DF8020001208DF8030033
:1015E000684600F098F817208DF8000002208DF86A
:1015F000010001208DF802008DF80300684600F01C
:101600008AF80EBD10B5082000F00CFE90B10A203B
:10161000FFF76AFE1748006830B9164808300468BA
:10162000E0431549C1F894010A20FFF75DFE082048
:1016300000F009FE10BD10B50A24202000F0F2FDD4
:10164000B0B10A20FFF750FE0A48083000680128B0
:101650000BD1002007490C31086002E0C820FFF7D9
:1016600043FE2000A4F10104F8D1202000F0EBFD9E
:1016700010BD00008C012342000023427FB50546C7
:101680000C460121022000F0D8FB681E80B2ADF8A4
:101690000800601E80B2ADF804000020ADF80A001A
:1016A000ADF8060001A9164801F0D6FA012211464C
:1016B000134801F048FE1D208DF8000000208DF831
:1016C000010003208DF8020001208DF80300684618
:1016D00000F021F801210A4801F01AFE7FBD10B583
:1016E0000121074802F0DDF848B10121044802F069
:1016F000E9F804480068C0430349C1F8940110BDEB
:101700000004004094012342000023423149014378
:10171000314A1160704770B5002100230F22C47850
:1017200004B32D4C246804F4E064C4F5E064210A99
:10173000C1F10403CA40447804FA03F184781440E8
:1017400021430901254C0678A155047804F01F05B2
:101750000124AC4005786D11AD0005F1E025C5F818
:10176000004109E0047804F01F050124AC401C4D41
:101770000678761145F8264070BD1A4A0A400243A1
:10178000154B1B1F1A60704739B1134A121D12689E
:101790000243114B1B1D1A6006E00F4A121D12680E
:1017A00082430D4B1B1D1A607047042808D14FF06F
:1017B000E021096941F004014FF0E022116107E0E6
:1017C0004FF0E021096921F004014FF0E02211619E
:1017D000704700000000FA050CED00E000E400E0B6
:1017E00080E100E080FFFF1F10B50446CC48844232
:1017F00008D10121042000F02DFB0021042000F07D
:1018000029FB46E0C748844208D10121082000F0A6
:1018100021FB0021082000F01DFB3AE0C248844271
:1018200008D10121102000F015FB0021102000F04C
:1018300011FB2EE0BD48844208D10121202000F098
:1018400009FB0021202000F005FB22E0B84884427B
:1018500008D10121402000F0FDFA0021402000F0D5
:10186000F9FA16E0B348844208D10121802000F043
:10187000F1FA0021802000F0EDFA0AE0AE4884423F
:1018800007D10121801500F0E5FA0021A01500F034
:10189000E1FA10BD10B50121084600F0DBFA002185
:1018A000012000F0D7FA10BD2DE9F04102460025D5
:1018B0000026002000230024002791F803C00CF02C
:1018C0000F0591F803C00CF0100CBCF1000F03D011
:1018D00091F802C04CEA050591F800C0BCF1000F78
:1018E00031D0146800202BE04FF0010C0CFA00F30B
:1018F000B1F800C00CEA03069E4220D183004FF0ED
:101900000F0C0CFA03F7BC4305FA03FC4CEA040481
:1019100091F803C0BCF1280F06D14FF0010C0CFA6E
:1019200000FCC2F814C00AE091F803C0BCF1480FF3
:1019300005D14FF0010C0CFA00FCC2F810C0401C9D
:101940000828D1D31460B1F800C0BCF1FF0F34DD1A
:10195000546800202EE000F1080C4FF0010808FA4E
:101960000CF3B1F800C00CEA03069E4221D18300BB
:101970004FF00F0C0CFA03F7BC4305FA03FC4CEADA
:10198000040491F803C0BCF1280F05D100F1080C44
:1019900008FA0CF8C2F8148091F803C0BCF1480FA3
:1019A00007D100F1080C4FF0010808FA0CF8C2F852
:1019B0001080401C0828CED35460BDE8F0814FF65B
:1019C000FF710180022181700421C17070470246BD
:1019D000002093680B400BB1012000E0002070470D
:1019E0000146886880B2704702460020D3680B40E9
:1019F0000BB1012000E0002070470146C86880B2AA
:101A0000704701617047416170470AB1016100E0B0
:101A100041617047C16070474FF480320A43826170
:101A20008161826182698269704702460020434B6E
:101A300018684FF68073184040EA021008433F4B85
:101A4000186070473E49C8617047F0B50A460023E8
:101A500000240021002500F00046B6F1004F02D11D
:101A6000364EF16901E0354E7168C0F3034583B22B
:101A700000F44016B6F5401F08D121F070612F4EDA
:101A8000766826F070662D4F7E6012E000F48016B6
:101A9000B6F5801F06D1032606FA05F4A14341F0EE
:101AA000706106E0460D360103FA06F6B14341F0D7
:101AB000706122B1460D360103FA06F6314300F09B
:101AC0000046B6F1004F02D11C4EF16101E01B4E01
:101AD0007160F0BD30B500228B071C0F0F2303FA95
:101AE00004F2164B08338C1053F824309343134CF4
:101AF00008348D1044F8253023468C1053F82430D8
:101B00008C07240F00FA04F423430C4C08348D1086
:101B100044F8253030BD0A49DC31086070470000C8
:101B200000080140000C0140001001400014014079
:101B300000180140001C014000200140000001404D
:101B400000002042DF48006840F00100DD490860E5
:101B500008464068DC490840DA49486008460068A1
:101B6000DA490840D74908600846006820F4802018
:101B700008600846406820F4FE0048604FF41F00EB
:101B800088607047CF49096821F48031CD4A1160DF
:101B90001146096821F480211160B0F5803F03D01F
:101BA000B0F5802F0ED106E0C649096841F48031B6
:101BB000C44A116007E0C349096841F4A021C14A41
:101BC000116000E000BF00BF704710B50146002261
:101BD000002300204A11012A02D1BA4C236806E0F2
:101BE000022A02D1B74C236A01E0B64C636A01F0C5
:101BF0001F02012494401C400CB1012000E0002091
:101C000010BD38B5002000900024002500BF312011
:101C1000FFF7DBFF05460098401C00900098B0F5E8
:101C2000A06F01D0002DF2D03120FFF7CEFF08B118
:101C3000012400E00024204638BD01460020A14ACE
:101C4000106820F0F80040EAC10010607047A04919
:101C500008607047024600209A4B586820F47C10B8
:101C600042EA01031843974B586070479849086649
:101C7000704701460020934A506820F00300084353
:101C8000506070478F48406800F00C007047014674
:101C900000208C4A506820F0F000084350607047E4
:101CA00001460020874A506820F4E06008435060F5
:101CB000704701460020834A506820F4605040EA93
:101CC000C1005060704729B17E4A527A02437D4B71
:101CD0005A7204E07B4A527A82437A4B5A727047B6
:101CE0007B49D8310860704701460020754A50682A
:101CF00020F440400843506070470021714A203270
:101D00001170704A82F82010012802D004280AD1EC
:101D100004E001216B4A2032117005E00521694A77
:101D20002032117000E000BF00BF704769490860B1
:101D300070476449096A0143624A11627047654904
:101D400044390860704730B5002100220024002388
:101D50005C4D6D6805F00C0121B1042905D00829FE
:101D600023D105E05C4D056022E05B4D05601FE07E
:101D7000544D6D6805F47012524D6D6805F4803451
:101D8000022505EB92421CB9544D554305600BE00A
:101D90004C4D6D6805F400351DB1504D554305603F
:101DA00002E04D4D5543056002E04B4D056000BF1C
:101DB00000BF444D6D6805F0F0010909484D6B5CAA
:101DC0000568DD4045603F4D6D6805F4E061090A36
:101DD000434D6B5C4568DD4085603A4D6D6805F4A8
:101DE0006051C90A3E4D6B5C4568DD40C560354DAC
:101DF0006D6805F44041890B3A4D6B5CC568B5FBD5
:101E0000F3F5056130BD29B12E4A526902432D4BCD
:101E10005A6104E02B4A526982432A4B5A61704747
:101E200029B1284A92690243264B9A6104E0254A67
:101E300092698243234B9A61704729B1214AD26942
:101E40000243204BDA6104E01E4AD26982431D4BF3
:101E5000DA61704729B11B4AD2680243194BDA6034
:101E600004E0184AD2688243164BDA60704729B101
:101E7000144A12690243134B1A6104E0114A1269B1
:101E80008243104B1A61704712494039086070470D
:101E90000F49C86470470B49C87170470948406AC8
:101EA00040F0807007494862704701460020054AAB
:101EB00092680A400AB1012000E000207047014901
:101EC00088727047001002400000FFF8FFFFF6FE26
:101ED000000042428004424200127A0000093D00A4
:101EE000360000204600002001684FF6FE721140C7
:101EF00001600021016041608160C1608D498842BC
:101F000008D18C490839496841F00F01894A083ADB
:101F100051608AE087491431884208D185490839DF
:101F2000496841F0F001834A083A51607DE08149F7
:101F30002831884208D17F490839496841F47061E5
:101F40007C4A083A516070E07A493C31884208D1B5
:101F500078490839496841F47041764A083A516035
:101F600063E074495031884208D1724908394968A0
:101F700041F470216F4A083A516056E06D4964316E
:101F8000884208D16B490839496841F47001694AAF
:101F9000083A516049E067497831884208D165497B
:101FA0000839496841F07061624A083A51603CE082
:101FB0006149884206D1011F096841F00F01021FE3
:101FC000116032E05C491431884208D15A49091F36
:101FD000096841F0F001584A121F116025E0564986
:101FE0002831884208D15449091F096841F47061B9
:101FF000514A121F116018E04F493C31884208D104
:102000004D49091F096841F470414B4A121F116084
:102010000BE049495031884207D14749091F0968F7
:1020200041F47021444A121F1160704710B500221C
:10203000026847F6F0739A430C6A8B6823430C6975
:1020400023434C6923438C692343CC6923434C6A63
:1020500023438C6A23431A430260CB6843600B68B6
:1020600083604B68C36010BD0021016041608160E6
:10207000C160016141618161C1610162416281624E
:10208000704721B1026842F00102026004E0026878
:102090004FF6FE731A40026070471AB103680B4393
:1020A000036002E003688B43036070474160704740
:1020B0000146486880B2704701460020002201F0C6
:1020C00080531BB11C4B083B1A6802E0194B083BBC
:1020D0001A6802EA01030BB1012000E000207047FA
:1020E00000F0805119B11449091F086002E011493C
:1020F00008394860704701460020002201F08053F3
:102100001BB10D4B083B1A6802E00A4B083B1A68EA
:1021100002EA01030BB1012000E00020704700F04B
:10212000805119B10449091F086002E001490839CA
:1021300048607047080002400804024000204449FB
:102140000860091D0860091D0860091D08604148F4
:102150003F4914310860704700213D498279002AC7
:102160003AD00A46126803689A430B461A600A1D61
:10217000126803689A430B1D1A60027911440A68B9
:1021800003681A430A60324A0832126803689A43A5
:102190002F4B08331A601A1D126803689A432C4BA0
:1021A0000C331A604279102A0ED11A1F1268036884
:1021B0001A43274B08331A601A1D126803681A4322
:1021C000234B0C331A600DE02149427911440A680F
:1021D00003681A430A6005E0027911440A6803683B
:1021E0009A430A6070470021016001710C2141711E
:1021F0000021817170471649103109680143144A62
:1022000010321160704701460020114A14321268E2
:102210000A400AB1012000E0002070470C49143147
:1022200008607047014600200022094B1B6803EA42
:102230000102074B14331B680B4013B10AB1012094
:1022400000E0002070470249143108607047000028
:1022500000040140FFFF0F0010B50446FB48844214
:1022600009D101218803FFF7F5FD00214FF48040DB
:10227000FFF7F0FD32E0F648844209D1012148041D
:10228000FFF7F5FD00214FF40030FFF7F0FD25E0EA
:10229000F048844209D101218804FFF7E8FD0021BC
:1022A0004FF48020FFF7E3FD18E0EB48844209D1AA
:1022B0000121C804FFF7DBFD00214FF40020FFF7E8
:1022C000D6FD0BE0E548844208D101210805FFF75F
:1022D000CEFD00214FF48010FFF7C9FD10BD2DE9A0
:1022E000F04786B005460E460024A24600BFA14630
:1022F0000027B08900B100BF2F462C8A4CF6FF7032
:102300000440F08804432C82AC894EF6F31004405C
:10231000B08831890843718908430443AC81AC8A91
:102320004FF6FF400440B0890443AC8201A8FFF798
:102330000AFDC648874202D1DDF810A001E0DDF8B1
:102340000CA0A88900F4004040B10AEBCA0000EBE1
:102350000A1031684900B0FBF1F807E00AEBCA0047
:1023600000EB0A1031688900B0FBF1F86420B8FB7B
:10237000F0F004012009642101FB1089A88900F410
:10238000004040B1322000EBC900B0FBF1F000F09A
:102390000700044308E0322000EB09106421B0FB81
:1023A000F1F000F00F0004432C8106B0BDE8F08787
:1023B0004FF41651016000218180C18001810C2100
:1023C000418100218181704710B502460020108AAA
:1023D0004FF2FF0318400B884C8823438C8823431B
:1023E000CC8823431843108210BD00210180418016
:1023F0008180C180704721B1828942F4005282817C
:1024000004E082894DF6FF731A4082817047F0B56F
:102410000346002400260025002040F66A17B94232
:1024200000D100BF1846C1F3421401F01F06012776
:1024300007FA06F5012C01D10C3004E0022C01D181
:10244000103000E014301AB107682F43076002E033
:102450000768AF430760F0BD1AB1838A0B438382DC
:1024600002E0838A8B4383827047028A4FF6F073BF
:102470001A400282028A0A430282704782894FF21E
:10248000FF731A40828182890A438281704721B199
:10249000828942F00202828104E082894FF6FD7354
:1024A0001A4082817047028A4FF6DF731A40028217
:1024B000028A0A430282704721B1028A42F48042B2
:1024C000028204E0028A4BF6FF731A4002827047D0
:1024D000C1F308028280704701468888C0F3080073
:1024E0007047818941F0010181817047028BD2B22E
:1024F0000283028B42EA012202837047028B02F4BC
:102500007F420283028B0A430283704721B1828A91
:1025100042F02002828204E0828A4FF6DF731A4082
:102520008282704721B1828A42F01002828204E0E6
:10253000828A4FF6EF731A408282704721B1828AF5
:1025400042F00802828204E0828A4FF6F7731A4052
:102550008282704721B1828942F40042828103E085
:102560008289C2F30E028281704721B1828A42F4CD
:102570000062828204E0828A4FF2FF731A408282F4
:102580007047828A4FF6FB731A408282828A0A431E
:102590008282704721B1828A42F00202828204E084
:1025A000828A4FF6FD731A408282704702460020ED
:1025B000B1F5007F00D100BF13880B400BB10120A3
:1025C00000E00020704701F40072B2F5007F00D1F6
:1025D00000BFCA430280704770B502460024002342
:1025E0000025002040F66A16B14200D100BFC1F3B9
:1025F000421501F01F03012606FA03F3012D02D153
:102600009689334006E0022D02D1168A334001E05C
:10261000968A33400C12012606FA04F416883440D8
:1026200013B10CB1012000E0002070BD10B50022F4
:10263000002340F66A14A14200D100BF0A1201240F
:102640009440A3B2DC43048010BD00000038014078
:102650000044004000480040004C00400050004052
:1026600010B50446FA48844208D101214015FFF70D
:10267000F1FB00216015FFF7EDFB17E0F548844200
:1026800008D101210015FFF7E5FB00212015FFF718
:10269000E1FB0BE0F048844208D10121C803FFF7B9
:1026A000D9FB00214FF40040FFF7D4FB10BD30B53B
:1026B0000246002000235068E84C20400D790C6849
:1026C00044EA0524204350609068E54C2040D1E95D
:1026D00002542C434D7944EA450420439060D06A6B
:1026E00020F470000C7C641EE4B2234340EA0350E3
:1026F000D06230BD00210160017141718160C16013
:1027000001210174704721B1826842F001028260A8
:1027100003E0826822F001028260704721B1826882
:1027200042F48072826003E0826822F480728260E8
:10273000704710B50023CBB21AB144681C43446003
:1027400002E044689C43446010BD816841F0080188
:1027500081607047014600208A6802F008020AB1D1
:10276000012000E000207047816841F00401816091
:102770007047014600208A6802F004020AB1012075
:1027800000E00020704721B1826842F4A00282601C
:1027900003E0826822F4A0028260704701460020B4
:1027A0008A6802F480020AB1012000E0002070472C
:1027B00010B50A4600210023416821F46041531EF0
:1027C00041EA4331416010BD21B1426842F40062E8
:1027D000426003E0426822F4006242607047F0B554
:1027E00004460D4600200021092D11DDE068A5F109
:1027F0000A0606EB4607072606FA07F18843A5F105
:102800000A0606EB460603FA06F10843E0600CE010
:10281000206905EB4507072606FA07F1884305EB13
:10282000450603FA06F108432061072A0FDA606BB8
:10283000561E06EB86071F2606FA07F18843561E2A
:1028400006EB860605FA06F10843606322E00D2ACE
:102850000FDA206BD61F06EB86071F2606FA07F154
:102860008843D61F06EB860605FA06F10843206367
:1028700010E0E06AA2F10D0606EB86071F2606FAB5
:1028800007F18843A2F10D0606EB860605FA06F16C
:102890000843E062F0BD21B1826842F48012826098
:1028A00003E0826822F48012826070470146C86C9F
:1028B00080B2704766484C300068704721B142686A
:1028C00042F48062426003E0426822F48062426027
:1028D000704721B1426842F48052426003E042688E
:1028E00022F48052426070470A460021816821F438
:1028F000E04111438160704721B1826842F4004297
:10290000826003E0826822F400428260704721B155
:10291000826842F40212826003E0826822F40212AA
:1029200082607047014600208A6802F400120AB1F2
:10293000012000E000207047F0B504461546002055
:1029400000220026092911DDE068A1F10A0707EB42
:10295000470C072707FA0CF29043A1F10A0707EB8F
:10296000470703FA07F21043E0600CE0206901EB2F
:10297000410C072707FA0CF2904301EB410703FAD9
:1029800007F210432061A06BC0F30156EF1C06F163
:10299000010CA7EB0C0707EB870C1F2707FA0CF2BB
:1029A0009043EF1C06F1010CA7EB0C0707EB870720
:1029B00001FA07F21043A063F0BD10B50A460021EA
:1029C0000023816B21F44011531E41EA03518163BE
:1029D00010BD08B5002300930090009B0B440093AA
:1029E000009B1A6008BD08B50246002000900092C6
:1029F00001F12800009B184400900098006880B204
:102A000008BD0A4600214168164B19401143416038
:102A100070474162826270470A460021416821F096
:102A20001F0111434160704740B1094908310968ED
:102A300041F40001064A0832116007E004490831F8
:102A4000096821F40001024A083211607047000051
:102A50000024014000280140003C0140FFFEF0FF3F
:102A6000FDF7F1FFFFFD3FFF0246002013680B401A
:102A70000BB1012000E000207047CA43026070479C
:102A800070B502460020002300240B125568CEB218
:102A900005EA060415681D4015B10CB1012000E0DF
:102AA000002070BD00220A12D3430360704700006B
:102AB00010B50446FE48844208D10121C014FFF736
:102AC000C9F90021E014FFF7C5F9C4E0B4F1804F63
:102AD00008D101210846FFF7CAF900210120FFF7BC
:102AE000C6F9B8E0F348844208D101210220FFF77B
:102AF000BEF900210220FFF7BAF9ACE0EE488442AB
:102B000008D101210420FFF7B2F900210420FFF7CA
:102B1000AEF9A0E0E948844208D101210820FFF77E
:102B2000A6F900210820FFF7A2F994E0E4488442C6
:102B300008D101211020FFF79AF900211020FFF79A
:102B400096F988E0DF48844208D101212020FFF770
:102B50008EF900212020FFF78AF97CE0DA488442D0
:102B600008D101214014FFF775F900216014FFF727
:102B700071F970E0D548844209D10121C804FFF7FA
:102B800069F900214FF40020FFF764F963E0D048B1
:102B9000844209D101210805FFF75CF900214FF4B7
:102BA0008010FFF757F956E0CA48844209D1012145
:102BB0004805FFF74FF900214FF40010FFF74AF9DD
:102BC00049E0C548844208D101214020FFF74FF970
:102BD00000214020FFF74BF93DE0C048844208D176
:102BE00001218020FFF743F900218020FFF73FF902
:102BF00031E0BB48844208D101218015FFF737F945
:102C00000021A015FFF733F925E0B648844209D129
:102C100001210804FFF71EF900214FF48030FFF76F
:102C200019F918E0B048844209D101214804FFF79E
:102C300011F900214FF40030FFF70CF90BE0AB481D
:102C4000844208D101218804FFF704F900214FF4E0
:102C50008020FFF7FFF810BD00220288944B9842B5
:102C60000ED0994B98420BD0B0F1804F08D0914BC9
:102C7000984205D0904B984202D0904B984204D194
:102C80004FF68F731A404B881A438D4B984207D0EA
:102C90008C4B984204D04FF6FF431A40CB881A431E
:102CA00002808B8883850B880385814B98420BD0EB
:102CB000854B984208D08B4B984205D08A4B98425E
:102CC00002D08A4B984201D10B7A0386012383827A
:102CD000704770B5002400220023058C4FF6FE7665
:102CE00035400584028C8388048B4FF68F752C4009
:102CF000B51E2C400D882C43751E2A400D892A4391
:102D00004D882A436A4DA8420BD06F4DA84208D087
:102D1000744DA84205D0744DA84202D0734DA8420C
:102D200013D14FF6F7752A404D892A434FF6FB75AC
:102D30002A408D882A434FF6FF652B404FF6FF55FA
:102D40002B408D892B43CD892B4383800483CD88F1
:102D50008586028470BD70B5002400220023058C96
:102D60004FF6EF7635400584028C8388048B48F655
:102D7000FF752C404FF6FF452C400D884FF6FF762F
:102D800006EA05252C434FF6DF752A400D8906EA31
:102D900005152A434D8806EA05152A43444DA842E5
:102DA00002D0494DA8421DD14FF67F752A404D896A
:102DB0004FF6FF7606EA05152A434FF6BF752A40FF
:102DC0008D8806EA05152A434FF6FF352B404FF252
:102DD000FF752B408D8906EA85052B43CD8906EAD0
:102DE00085052B4383800483CD880587028470BDCD
:102DF00070B5002400220023058C4FF6FF66354095
:102E00000584028C8388848B4FF68F752C404FF697
:102E1000FC752C400D882C434FF6FF552A400D8938
:102E20004FF6FF7606EA05252A434D8806EA052572
:102E30002A431F4DA84202D0234DA8421DD14FF274
:102E4000FF752A404D894FF6FF7606EA05252A438D
:102E50004FF6FF352A408D8806EA05252A434EF6AF
:102E6000FF752B404DF6FF752B408D8906EA051541
:102E70002B43CD8906EA05152B4383808483CD88B7
:102E80008587028470BD70B5002200230024058C64
:102E90004EF6FF7635400584038C8488828B48F695
:102EA000FF752A404FF6FF452A400D8820E00000BC
:102EB000002C01400004004000080040000C0040CD
:102EC000001000400014004000340140004C01405C
:102ED000005001400054014000180040001C004018
:102EE00000200040004001400044014000480140F3
:102EF0004FF6FF7606EA05252A434DF6FF752B406F
:102F00000D8906EA05352B434D8806EA05352B4326
:102F1000FA4DA84202D0FA4DA84208D14BF6FF75EF
:102F20002C408D894FF6FF7606EA85152C43848068
:102F30008283CD88A0F84050038470BD828B4FF20D
:102F4000FF331A408283828B4FF6FF7303EA01231B
:102F50001A4382837047F0B50C46154600220021C3
:102F60000026078C4EF6FF7C07EA0C070784828B4D
:102F7000018C4FF6FF7707EA043640F6FF473A40E8
:102F80004FF6FF7707EA05273A434FF6FF7707EA40
:102F900003373A43D94FB8420ED0D94FB8420BD07D
:102FA000B0F1804F08D0D74FB84205D0D64FB842C5
:102FB00002D0D64FB84206D14DF6FF77394046F4DD
:102FC0008057394305E047F6FF57394044F48057AE
:102FD000394382830184F0BD828B4FF6F3731A402C
:102FE0008283828B0A4382837047F0B50C46154674
:102FF000002200210026078C4FF6FF6C07EA0C0721
:103000000784828B018C4FF6FF7707EA04264FF680
:103010000C773A404FF6FF7707EA03172F433A43FE
:10302000B64FB8420ED0B64FB8420BD0B0F1804F79
:1030300008D0B44FB84205D0B34FB84202D0B34F16
:10304000B84206D14FF6FF57394046F480773943EE
:1030500005E04FF2FF57394044F4807739438283CB
:103060000184F0BD028B4FF2FF331A400283028BC2
:103070004FF6FF7303EA01231A4302837047F0B54A
:103080000C461546002200210026078C4FF6EF7CE7
:1030900007EA0C070784028B018C4FF6FF7707EADB
:1030A000041640F6FF473A404FF6FF7707EA03372A
:1030B0003A434FF6FF7707EA05273A438F4FB84266
:1030C0000ED08F4FB8420BD0B0F1804F08D08D4F4B
:1030D000B84205D08C4FB84202D08C4FB84206D1CE
:1030E0004FF6DF77394046F01007394305E04FF6D9
:1030F0005F77394044F01007394302830184F0BD03
:10310000028B4FF6F3731A400283028B0A43028349
:103110007047F0B50C46154600220021068C4FF68C
:10312000FE773E400684028B018C4FF60C763240CF
:103130007E1C06EA03162E433243704EB0420ED078
:103140006F4EB0420BD0B0F1804F08D06D4EB04200
:1031500005D06D4EB04202D06C4EB04206D14FF653
:10316000FD76314044F00106314305E04FF6F57637
:10317000314044F00106314302830184F0BD70B553
:1031800005460C465D4885420ED05D4885420BD011
:10319000B5F1804F08D05B48854205D05A4885423A
:1031A00002D05A48854200D100E000BF208850B9C3
:1031B0002389A28861882846FFF7ABFFE18828466B
:1031C000FFF79EFF25E0208804280AD12389A288E2
:1031D00061882846FFF753FFE1882846FFF742FF42
:1031E00017E0208808280AD12389A2886188284608
:1031F000FFF7FBFEE1882846FFF7EEFE09E0238992
:10320000A28861882846FFF7A6FEE1882846FFF7D6
:1032100095FE70BD2DE9F04105460C4600260127BC
:10322000608808B9022600E00026A088012801D1A4
:10323000022700E001272088A0B92389A28861889D
:103240002846FFF766FFE1882846FFF759FF2389E4
:103250003A4631462846FFF712FFE1882846FFF735
:1032600001FF13E02389A28861882846FFF707FF42
:10327000E1882846FFF7F6FE23893A46314628467C
:10328000FFF747FFE1882846FFF73AFFBDE8F081E6
:103290000A884B881A438B881A43CB881A430B89B8
:1032A0001A434B891A438B891A43A0F8442070476C
:1032B0004FF6FF71818000210180C1804180017241
:1032C00070470021018041808180C180018141815E
:1032D0008181C1817047002101804180012181806D
:1032E0000021C180018170470021018041808180DF
:1032F000C18001814181818170470000002C014023
:10330000003401400004004000080040000C004070
:1033100021B1028842F00102028004E002884FF6E7
:10332000FE731A400280704731B1B0F8442042F475
:103330000042A0F8442005E0B0F84420C2F30E0299
:10334000A0F8442070471AB183890B43838102E0BF
:1033500083898B43838170478182704741EA0203EE
:10336000A0F8483070471AB183890B43838102E08B
:1033700083898B438381704701894FF6F87211402E
:10338000018170470A46002101894FF68F73194069
:1033900011430181704730B504460D462946204649
:1033A000FFF7F0FF208940F00700208130BD2DE9B4
:1033B000F04104460D4616461F46602D06D13B4699
:1033C000012231462046FFF75AFE05E03B46012226
:1033D00031462046FFF79DFE29462046FFF7D2FFE3
:1033E000208940F007002081BDE8F08130B50C460F
:1033F00000210189C9B24FF6FF7505EA032515437F
:1034000025432943018130BD2DE9F04105460E4693
:1034100017469846002443463A4631462846FFF769
:10342000E5FF2C894FF6F870044044F007044FF68E
:103430008F70044044F070042C81BDE8F081F0B539
:1034400004460D4616461F463B4632462946204650
:10345000FFF7CCFF208940F480402081F0BD01853A
:10346000828270470A46002101884FF68F73194007
:10347000114301807047F0B50C4615461E460021E9
:10348000002200230189028B038C4FF6F877394024
:1034900021434FF6FC473A4040F201173A434FF6BA
:1034A000DD773B404FF6FF7707EA06172F433B4394
:1034B000018102830384F0BD0A460021018B4FF68F
:1034C0008F7319401143018370470A460021018B15
:1034D00048F6FF7319404FF6FF7303EA02231943BE
:1034E000018370470A460021818B4FF68F73194084
:1034F0001143818370470A460021818B48F6FF7390
:1035000019404FF6FF7303EA022319438183704782
:1035100021B1028842F08002028004E002884FF666
:103520007F731A400280704721B1828842F0040202
:10353000828004E082884FF6FB731A4082807047D5
:1035400021B1828842F00802828004E082884FF62E
:10355000F7731A408280704721B1828842F00102DD
:10356000828004E082884FF6FE731A4082807047A2
:103570000A460021018B4FF6F7731940114301836E
:1035800070470A460021018B4FF2FF7319404FF636
:10359000FF7303EA02231943018370470A4600219F
:1035A000818B4FF6F77319401143818370470A46A8
:1035B0000021818B4FF2FF7319404FF6FF7303EA2E
:1035C00002231943818370470A460021018B4FF67D
:1035D000FB7319401143018370470A460021018B98
:1035E0004FF6FF3319404FF6FF7303EA02231943E6
:1035F000018370470A460021818B4FF6FB73194007
:103600001143818370470A460021818B4FF6FF33B7
:1036100019404FF6FF7303EA022319438183704771
:103620000A460021018B4FF67F7319401143018335
:1036300070470A460021018BC1F30E014FF6FF735C
:1036400003EA02231943018370470A460021818B54
:103650004FF67F7319401143818370470A4600215A
:10366000818BC1F30E014FF6FF7303EA0223194366
:10367000818370470A460021018C4FF6FD73194083
:103680001143018470470A460021018C4FF6F773FD
:1036900019401143018470470A460021018C4FF6FE
:1036A000DF7319404FF6FF7303EA021319430184D5
:1036B00070470A460021018C4FF67F7319404FF680
:1036C000FF7303EA02131943018470470A4600217D
:1036D000018C4FF6FF5319404FF6FF7303EA0223A4
:1036E0001943018470470A460021018C4FF2FF7391
:1036F00019404FF6FF7303EA022319430184704710
:103700000A460021018C4DF6FF7319404FF6FF73F6
:1037100003EA023319430184704730B500230124C2
:103720008C40A3B2048C9C430484048C02FA01F5FF
:10373000ADB22C43048430BD30B5002304248C404A
:10374000A3B2048C9C430484048C02FA01F5ADB24C
:103750002C43048430BD70B5034600200024184675
:10376000183001258D40ACB21D8CA5431D8409B1D4
:10377000082909D100EB6100056825F07005056096
:103780000568154305600EE00D1FC5F34E0528447E
:10379000056825F4E045056005684FF6FF7606EA02
:1037A00002263543056070BD21B1028842F0020255
:1037B000028004E002884FF6FD731A4002807047D1
:1037C00021B1028842F00402028004E002884FF630
:1037D000FB731A400280704721B1828842F0800258
:1037E000828004E082884FF67F731A40828070479F
:1037F00002884FF6F7731A40028002880A4302805B
:10380000704782884FF68F731A40828082880A43FD
:103810008280704702894FF6F8731A40028102894C
:103820000A430281704702894FF67F731A40028172
:1038300002890A43028170478184704781857047FD
:10384000818670470187704781877047A0F84010D4
:10385000704702884FF6FF431A40028002880A43ED
:10386000028070470146888E70470146088F704776
:103870000146888F70470146B1F840007047014605
:10388000888C70470146088D704702460020138AD5
:103890000B400BB1012000E000207047CA430282B8
:1038A000704730B50246002000230024158A05EA3F
:1038B0000103958905EA010413B10CB1012000E070
:1038C000002030BDCA43028270470000094880478B
:1038D00009480047FEE7FEE7FEE7FEE7FEE7FEE7F2
:1038E000FEE7FEE7FEE7FEE704480549054A064B0A
:1038F00070470000EB39000831010008E0010020AA
:10390000E0070020E0030020E00300200CB50020C9
:10391000019000906C48006840F480306A4908606B
:1039200000BF6948006800F4003000900198401C16
:103930000190009818B90198B0F5A06FF1D16248D4
:10394000006800F4003010B10120009001E0002078
:1039500000900098012843D15C48006840F01000B6
:103960005A4908600846006820F0030008600846CD
:10397000006840F0020008605348406852494860BF
:103980000846406848600846406840F480604860E7
:103990000846406820F47C1048600846406840F4BF
:1039A000E81048600846006840F08070086000BF7A
:1039B0004548006800F000700028F9D0424840688F
:1039C00020F00300404948600846406840F002008B
:1039D000486000BF3C48406800F00C000828F9D15E
:1039E0000CBD10B5FFF792FF10BD10B5364800684A
:1039F00040F00100344908600846406834490840F6
:103A00003149486008460068324908402E4908603C
:103A10000846006820F4802008600846406820F4CA
:103A2000FE0048604FF41F008860FFF7DAFF4FF098
:103A300000602949086010BD10B500210020002257
:103A4000214B5B6803F00C0121B1042906D0082941
:103A500028D107E0214B224C236027E01F4B204C4C
:103A6000236023E0184B5B6803F47010164B5B680F
:103A700003F48032022303EB904022B9194B4343F5
:103A8000174C23600DE0104B5B6803F4003323B147
:103A9000144B4343124C236003E0104B4343104C40
:103AA000236003E00D4B0E4C236000BF00BF064BAC
:103AB0005B68C3F303130C4CE15C094B1B68CB4000
:103AC000074C236010BD000000100240002002409F
:103AD0000000FFF8FFFFF6FE08ED00E000127A009C
:103AE0004C00002000093D005000002070470000FD
:103AF0000FB4044910B503AA029800F0E3F810BC13
:103B00005DF814FB300000202DE9F0410E4604461C
:103B1000002020622046E168884730B3252805D080
:103B2000D4E901219047206A401CF2E7E168204671
:103B300000278847050018D0A5F14100192802D8B0
:103B400020354FF400673246294620462760FCF7AF
:103B500029FB40B1012804D0F61D26F007060836DF
:103B6000D8E7361DD6E72846DAE7206ABDE8F081B7
:103B70002DE9F0410646002410687529314615A547
:103B800010D0AFF30080002802DA404212A507E00F
:103B900031688A0701D511A502E0490704D510A5AF
:103BA000012401E0AFF3008000210A2306F124077D
:103BB00007E0B0FBF3F203FB1200303078541046FC
:103BC000491C0028F5D123462A463046BDE8F0417D
:103BD00000F01FB8000000002D0000002B000000C6
:103BE00020000000704770477047000070B5064C19
:103BF0007C44064D7D4403E0206820448047241D1A
:103C0000AC42F9D170BD000050100000541000000B
:103C100070472DE9F0470D4699469246044600F15B
:103C200024080168880604D5E06921F010012160AC
:103C300000E00120A84201DD471B00E00027A16948
:103C40007A1902EB0900081AA0612078C00602D494
:103C50002046AFF30080002608E0D4E901211AF8DD
:103C600006009047206A401C761C20624E45F4DB1B
:103C70002078C0060AD52046AFF3008006E0D4E9DC
:103C8000012130209047206A401C2062381EA7F195
:103C90000107F4DC07E0D4E9012118F8050090479A
:103CA000206A401C2062281EA5F10105F3DC204695
:103CB000AFF300802078000602D50220BDE8F0872F
:103CC0000120FBE7074B70B50D467B4400F011F86F
:103CD0000446284600F020F810B14FF0FF3070BDC8
:103CE000204670BD6BD7FFFF01694A1C026108784E
:103CF000704700B58FB0CDE901310021059105492C
:103D00007944CDE9031011466846FFF7FDFE0FB078
:103D100000BD0000E5FFFFFF007B00F08000704762
:103D2000754600F029F8AE4605006946534620F076
:103D30000700854618B020B5FFF7D6FDBDE8204046
:103D40004FF000064FF000074FF000084FF0000B57
:103D500021F00701AC46ACE8C009ACE8C009ACE80A
:103D6000C009ACE8C0098D4670470446AFF3008037
:103D70002046FCF72BFA0000004870477C01002029
:103D80002DE9F041C1F30A52A2F2FF362F4A304B1F
:103D90000D460446142E2FDA002E12DA00F090F8A9
:103DA0000022134600F000FC4CD2002DA4BF0024DA
:103DB000254647DA25F00040204318BF254D41D065
:103DC00018E0DFF894C02CFA06F705EA070C5CEA65
:103DD000040C08BFBDE8F08100F072F80022134621
:103DE00000F0E2FB2ED2002D03DA4FF48010F040F9
:103DF0000544BD43002425E0332EC8BFBDE8F08153
:103E0000A6F1140C4FF0FF3727FA0CF73C4208BF1D
:103E1000BDE8F08100F0FEFB0022134600F0C4FB79
:103E200010D2002D0DDA142E08BF6D1C09D0C6F17A
:103E30003400012101FA00F02044A04238BF6D1C7B
:103E40000446BC4329462046BDE8F0819C750088A5
:103E50003CE4377E0000F0BFFFFF0F0021F000427E
:103E6000A2F16052B2F5801F01F0004328BFD2F1E9
:103E70007F6C0BD95FEA001C43EAC20242EB507030
:103E800018BF704728BF20F001007047B2F5801FAF
:103E9000BCBF184670474FEA410C1CF5001F02D208
:103EA000084600F043BE70B500F02AFB0000008910
:103EB000FFF7F6BF4FF00040A0F58000704700000C
:103EC00010B591EA030F48BF83F0004300F1B683B9
:103ED000841A71EB030C05D2121943EB0C03001B7F
:103EE00061EB0C01DFF824E14FEA1154A4EB135C01
:103EF0001EEA430F18BF9EEA445F73D023EA0E0305
:103F0000DCF1200E21EA045143F4801332D322FA6B
:103F10000CFE10EB0E0023FA0CFE41EB0E01CCF16F
:103F2000200E03FA0EFE10EB0E0051F10001B1F568
:103F3000801FCCF1200E32D201EB045112FA0EF2A6
:103F4000BDE8104058BF7047401C38BF5FEA4202CE
:103F500018BF7047002814BF20F0010041F1000194
:103F60004FEA410313F5001F38BF7047A1F1C0416C
:103F700000F014BB012A43EB0302ACF1200CDCF18E
:103F80001F0E32BF4FF0000E23FA0CF310EB0300AC
:103F900041EB0451B4EB115FD0D0A1EB045101F51A
:103FA000801149085FEA300001EB04510ED350F153
:103FB000000038BF12FA0EFE08D1BDE81040C9E774
:103FC000401C38BF5FEA4202CAD1C3E7BDE81040D7
:103FD0004FEA410313F5001F38BF7047A1F1C041FC
:103FE00000F0DCBA9EEA445F08D011EA5E0FBDE83B
:103FF000104004BF01F0004100207047BDE81040B0
:1040000070B500F07DFA00BF64FBBE3E0000E0FF2B
:10401000491058BFC1F140415B1058BFC3F1404344
:104020008B42EFF3008070472DE9C04130B4DFF8D8
:10403000A0C23CEA111418BF3CEA131400F0EC8053
:1040400081EA03051CEA111444EAD57418BF1CEA7E
:10405000131500F0C780A4EB05044FF0004545EAB6
:10406000C12145EAC32341EA505143EA525304F1C6
:104070007F74994204F500344FEAC0204FEAC2220F
:1040800008BF904200F09C804FEA13650FF2401683
:10409000765D4FEA134506FB05F7C7F1807706FB0F
:1040A00007F74FEAD737A7FB03687642C8F5803891
:1040B000A7FB06CE38BFA8F1010807FB08E64FF0C2
:1040C000000EA6FB028CE6FB03CEDCF1000CCEF169
:1040D000004E38BFAEF1010EA6FB0C584FF00007A2
:1040E0004FF00005E6FB0E87A1FB08C6A0FB07CE3C
:1040F00016EB0E0645F10005E1FB076515F1E04EF4
:104100007EBFA4F580345FEA46066D4116F1800754
:1041100045F100054FEA17274FEA066647EA0567AB
:10412000A6F1DE46B6F1805F4FEA15251FD9384665
:1041300024F0010C05EBC471BCF1FE6F01EB0C1116
:1041400002D8F0BCBDE8008124425CBF01F5801EAE
:104150009EEAC47F02D4F0BCBDE80081244238D47A
:10416000F0BCA1F1C041BDE8004100F017BA4FEA30
:10417000D22242EA43524FEAD323A7FB02864FEAF8
:10418000D02040EA415007FB03661EEA0E0F4FEABB
:10419000D12105FB026658BFA6EB0056B6EB0056D0
:1041A0004FEA520E4EEAC37E18EB0E0E56EB530E3C
:1041B000BDD518EB02085E417F1C55F10005B6E73E
:1041C0004FF480154FF000074FF000064FF0000845
:1041D000ADE7F0BC4FF0000001F1C04101F000413B
:1041E000BDE8008111EA0C1F0CEA131500D00CE0A9
:1041F00013EA0C1F00F025804FF00000F0BC81EAAC
:10420000030101F00041BDE80081F0BC81EA030137
:10421000BDE8004100F0C2B9F0BCBDE8004170B596
:1042200000F06EF9097EFC3E00F007B881EA030158
:104230004FF0000001F00041704781EA030100F0F7
:10424000ADB9F0BC4FF000002249BDE80041704715
:10425000FFFDFBF9F7F5F4F2F0EEEDEBE9E8E6E44B
:10426000E3E1E0DEDDDBDAD8D7D5D4D3D1D0CFCDD2
:10427000CCCBCAC8C7C6C5C4C2C1C0BFBEBDBCBB0B
:10428000BAB9B8B7B6B5B4B3B2B1B0AFAEADACAB06
:10429000AAA9A8A8A7A6A5A4A3A3A2A1A09F9F9EE0
:1042A0009D9C9C9B9A999998979796959594939392
:1042B000929191908F8F8E8E8D8C8C8B8B8A898929
:1042C00088888787868585848483838282818180AC
:1042D0000000FF070000F87F4FEA1153A3F5806349
:1042E000D3F11E03A8BFD3F1200C08DB4FF000422E
:1042F00042EAC12252EA505232FA03F070470942B0
:104300000BD4102BC4BF0020704703F5787CBCF1A0
:10431000FF3F05D04FF0FF3070474FF0000070476F
:1043200070B500F0EDF800BF49922480002070477E
:10433000F0E7000051EA030C17D41CF5801F58BFAA
:10434000BCF5801F00F10680994218BF704708BF76
:104350009042704707D711F5801F58BF13F5801F93
:1043600019D499427047894270471CF5801F08D5BF
:10437000BCF5801FF7D58B4218BF704708BF82423B
:1043800070474FF4001C1CEB410F38BF1CEB430F70
:1043900001D28B42704770B500F0B2F89224490008
:1043A0004FF000514FF08053FFF732BEDFF848C1A5
:1043B00070B51CEA111E1EBF1CEA13159EEA0C0FF5
:1043C00095EA0C0F00F06F8081EA030423EA4C1396
:1043D0004EEAD47E21EA4C1141F4801143F480135B
:1043E000AE44A1FB024CA0FB0365AEF17F7E361903
:1043F00055EB0C05A1FB034C4CF10003A0FB021C88
:1044000016EB0C06654153F10003094218BF46F054
:10441000010613F4007F0BD14FEA03314FEA053058
:10442000340341EA155140EA16506FF003020AE0E6
:104430004FEAC3214FEAC520F40241EA555140EA50
:1044400056506FF0020202EB2E4201EB025585EA54
:10445000CE710AD05FEA440C18BF24F0004450F13A
:10446000000041F1000120EAD47040F2FE7C624578
:1044700000D270BDA84214BF4FF080444FF04044BA
:10448000002E08BF0024BEF1806FA8BFA1F1C0417B
:10449000BDE8704080F282804FF0000001F1C04121
:1044A00001F0004170479EEA0C0F0CEA131518BF8B
:1044B00095EA0C0F06D04FF0000081EA030E0EF0D3
:1044C000004170BD00F01CF88900013E00F007B803
:1044D00000F009B84FEA430C5FEA5C5C08D081EA5F
:1044E000030100F05BB84FEA410C5FEA5C5CF6D177
:1044F0004FF00000014970470000FF070000F87FFF
:104500000EF1020E2EF0030E5EF8046B364205D457
:10451000012A43EB030515F5001F12D8012841EBD2
:10452000010C1CF5001F0CD80ED14FEAD17C15F5FB
:10453000001F0CEB4C0C0CF1020C08BF4CEBD37CB5
:1045400004E04FF0080C01E04FEAD37C0CEB4C0583
:1045500026FA05F606F00706B6F1040C06D20EEBB5
:10456000860CBDE870404CF0010C6047DFE80CF0B1
:10457000090B02024FF000414FF00000A1F50021AD
:1045800070BD19461046012851EB010418BFD4F53F
:10459000001484BF002001F0004170BD0808A0F5A0
:1045A00000114FEA3101704753EA010C17D41CF592
:1045B000801F58BFBCF5801F00F106808B4218BFDA
:1045C000704708BF8242704707D713F5801F58BF56
:1045D00011F5801F19D48B4270479B4270471CF520
:1045E000801F08D5BCF5801FF7D5994218BF7047CA
:1045F00008BF904270474FF4001C1CEB430F38BFBC
:104600001CEB410F01D2994270470FB40CBC03BCA4
:10461000FFF7C1BE91EA030F10B581F000413FF5ED
:1046200057AC83F0004300F009B8000010B591EAE0
:10463000030F48BF83F000433FF54AAC841A71EB87
:10464000030C07D212198CF0004C43EB0C03001B37
:1046500061EB0C01DFF8A4E14FEA1154A4EB135C09
:104660001EEA430F18BF9EEA445F00F0B08023EAC1
:104670006E03524221EA0451C3EB6E0338BF5B1E46
:10468000DCF1200E25D322FA0CFE10EB0E0043FACB
:104690000CFE41EB0E01CCF1200E03FA0EFE10EBE6
:1046A0000E0051F10001CCF1200E29D412FA0EF2C5
:1046B00001EB0451BDE8104058BF7047401C1CBFBF
:1046C000B2F1004F704700280CBF491C20F00100D8
:1046D000704712EB020E43EB030218BF4FF0010EBE
:1046E0004EEA4202ACF1200CDCF11E0E54D943FA22
:1046F0000CFE10EB0E0051F1FF31CCF11E0ED5D5A2
:104700000EF1010E12FA0EFE404141EB010101EBE8
:10471000445C5FEA5C5C10D910EBDE7001EB045185
:1047200038BFBEF1004FBDE8104018BF70470028E9
:104730000CBF491C20F00100704730D24FEAD42C46
:1047400011F5001124F400641BD0B1FA81F20B3A88
:10475000A41AA41ED2F12003914030FA03F31943A6
:10476000904001EBCC71002C01EB0451BDE81040EE
:10477000A8BF704701F1C0414FF0000001F00041B7
:104780007047B0FA80F310FA03F100D110BDE41ABB
:10479000173C4805C90AE4E701EB045110BD491074
:1047A00001EB0451BDE810404FEA300002E04FF049
:1047B000000170474A0008BF0042F8D0B2F5001F60
:1047C00028BF704701F000414FF0000070479EEA9B
:1047D000445F07D011EA5E0FBDE8104004BF00211E
:1047E00000207047BDE8104070B5FFF789FE00BF9C
:1047F00040DFF63E83F00041104670470000E0FFC6
:1048000043004FEAD30C4FEA3C0C43401FBF400724
:104810000CF1605113F0FE4F70471CF0006F03D194
:1048200000200CF0004170470CF0004343EA507048
:1048300010B540EACC0000F033F900BF0000009250
:104840004FEA0001FFF7AABE4FF000414FF0000011
:10485000A1F500217047000090EA010F48BF81F0E8
:10486000004100F17081421A3CBF801A89184FEA5A
:10487000D0524FF07F4C1CEA410FA2EBD15318BF2E
:104880009CEA026F00F03B804FF0004C4CEA0020A5
:104890004CEA012121FA03FC10EB0C0C1ED202F1B0
:1048A000FF325FEA1C2040EBC25038BF70471CF05B
:1048B0007F0F4FEA400C18BFBCF17F4F38BF7047E5
:1048C000C3F12003994008BF20F00100BCF17F4FE5
:1048D00038BF7047A0F1C04000F028B94FEA3C0053
:1048E000000A40EBC25028BF1CF0FF0F4FEA400CFB
:1048F000E6D018BFBCF17F4F38BF7047EAE79CEAAB
:10490000026F05D010EA5C0F08BF00F0004070474E
:1049100010B500F0C5F800BF64FBBE3E4FF47F0C3D
:104920001CEAD0121EBF1CEAD11392EA0C0F93EAC4
:104930000C0F00F0858090EA010F48BF42F48072AE
:1049400040F4000C41F400002CF07F4120F07F4047
:1049500000B58142A2EB03020FF2081CACEB504EF3
:10496000C0F100009EF800E04FEA4E0E00FB0EFC86
:1049700038BF49004FEA2C1C02F5FA020CFB0EF37B
:104980004FEACE1E4FEA112C4FEAC1210EEB635EB7
:1049900042EB22420EFB0CFC4FEA1C5300FB0311BE
:1049A0004FEA112C4FEA01310EFB0CFC4FEADC4CB4
:1049B00000FB0C11C14228BF09184CEB03335DF812
:1049C00004EB10EB410143EBC250B2F57C0F38BF52
:1049D000704729D512F0F00F1CBF00F1C04000F065
:1049E00000407047008182838485868788898B8C0C
:1049F0008D8E8F919293959697999A9C9D9FA0A248
:104A0000A3A5A7A8AAACAEB0B2B3B5B7B9BCBEC097
:104A1000C2C5C7C9CCCED1D4D7D9DCDFE2E6E9EC38
:104A2000F0F3F7FAFE0000004FEA400C0CF1807C36
:104A3000BCF17E4F28BF7047B0F1C04000F076B89F
:104A400090EA010F0CEAD11348BF42F4807262452C
:104A500038BF634507D213F47F0F16D080EA0100F8
:104A600000F00040704710B500F01AF8097EFC3ED7
:104A700000F005B880EA010000F00040704780EACD
:104A8000010000F0004000F051B812F47F0F04BFA5
:104A90000248704780EA010000F048B80000C07F7B
:104AA0000EF1020E2EF0030E5EF8044B244204D4E5
:104AB0004FEA4102B2F17F4F11D84FEA4003B3F100
:104AC0007F4F0CD80ED14FEAD07CB2F17F4F0CEB68
:104AD0004C0C0CF1020C08BF4CEBD17C04E04FF005
:104AE000080C01E04FEAD17C0CEB4C0324FA03F4F0
:104AF00004F00704B4F1040C06D20EEB840CBDE8FC
:104B000010404CF0010C6047DFE80CF0070802028F
:104B10004FF00040A0F5800010BD0846420018BFCD
:104B2000D2F1807288BF00F0004010BDFF2141EA41
:104B3000D050C0057047000090EA010F48BF81F0D7
:104B400000413FF590AE421A04D882F00042A0EB3B
:104B5000020011444FEAD0524FF07F4C1CEA410F43
:104B6000A2EBD15318BF9CEA026F4AD04FF0004C21
:104B70004CEA00204CEA012121FA03FCB0EB0C0CBA
:104B80000FD412F0FE0F36D05FEA4C001DD5001294
:104B900040EBC25038BF70471CF03F0F18BF704742
:104BA0000BE0A2F101025FEA1C2040EBC25038BFCB
:104BB00070471CF07F0F18BF7047C3F12003994066
:104BC00014BF401E20F00100704780084FEA1223F6
:104BD00008BF7047B0FA80FCA2EB0C02CCF1280CA5
:104BE00060FA0CF093EA122F04BF00EBC25070473A
:104BF0004FEAC3707047130A5FEADC1008BF7047C2
:104C0000F6E79CEA026F04D010EA5C0F08BF0020B0
:104C1000704710B5FFF744FF40DFF63E81F00040DB
:104C2000704700004C4C00080000002060000000AD
:104C30006C010008AC4C00086000002080070000F8
:104C40008801000823B8FFFF6FC0FFFF3443101036
:104C50000100000000000000000000000000000053
:104C60000000000000000000000000000000000044
:104C70000000000000000000000000000000000034
:104C80000000000000000102030401020304060703
:104C9000080902040608000000A24A0400000000FF
:0C4CA000000000000102030406070809E0
:0400000508000131BD
:00000001FF
