:020000040800F2
:10000000480D0020450200084D0200084F0200087C
:1000100051020008530200085502000800000000C9
:10002000000000000000000000000000570200086F
:1000300059020008000000005B020008F9290008CE
:100040005F0200085F0200085F0200085F0200080C
:100050005F0200085F0200086123000835240008E1
:100060005D24000885240008AD2400085F02000814
:100070005F0200085F0200085F0200085F020008DC
:100080005F0200085F0200085F0200085F020008CC
:100090005F0200085F0200085F020008D524000824
:1000A0005F020008F92A00085F0200085F020008EA
:1000B000292B0008552B0008852B00085F0200083B
:1000C0005F0200085F0200085F0200085F0200088C
:1000D0005F020008F9330008493400089934000829
:1000E000892300085F0200085F02000800F002F8A0
:1000F00000F099F80AA090E8000C82448344AAF129
:100100000107DA4501D100F08EF8AFF2090EBAE826
:100110000F0013F0010F18BFFB1A43F0010318473B
:10012000D00A0100F00A0100103A24BF78C878C153
:10013000FAD8520724BF30C830C144BF04680C60ED
:10014000704700000023002400250026103A28BF35
:1001500078C1FBD8520728BF30C148BF0B60704739
:100160006E2900F0B984702901F01380662908F027
:100170001E80652908F01B80672908F01880612916
:10018000AFF3008003681B0A28BF41F08001692992
:1001900000F07481642900F07181752900F06E818E
:1001A0006F2900F0A087782900F0DF87E92900F0A7
:1001B0003B87E42900F03887F52900F03587EF29DF
:1001C00000F09D87F82900F0DE870368DB0928BF6F
:1001D00041F08001632901F0F380732901F0F88078
:1001E000E32901F00381F32901F008810020704721
:1001F0001FB59DE8030000F0A5FB00F083FB0400A1
:100200000020002106F0D2FF401C60600020002189
:1002100006F0E2FFE06000F05FFB1FBD10B50020BC
:1002200000F0C2FF10BD01F0E2F91146FFF7E0FF58
:1002300006F0C4FE01F004FA03B4FFF7EFFF03BCBD
:1002400001F0CEF90948804709480047FEE7FEE77C
:10025000FEE7FEE7FEE7FEE7FEE7FEE7FEE7FEE776
:1002600004480549054A064B70470000092A000862
:10027000ED00000848070020480D00204809002034
:100280004809002010B500F03DFB001D10BD00BF67
:100290001D6F000070B5064600F030FB056806F1E2
:1002A0000B0020F00704B4429CBF002070BD2B4619
:1002B0006A68BAB11068A04210D304F108018842FC
:1002C0003CBF5068586007D35168101941601168ED
:1002D000091B016058601460101D70BD1346526800
:1002E000002AE7D12146284600F018FB0028DED17D
:1002F00070BD70B50446051F00F000FB0068002CBF
:1003000014BF446870BD002C18BFAC423CBF2046EF
:100310006468F8D301680A18AA4218BF456003D17F
:100320002A6805461144016028684119A1421CBF92
:100330006C6070BD6168696021680844286070BDA8
:1003400070B50D460646041F00F0D8FAD0F800C07C
:10035000C5B1E6B105F10B0020F00703AB423CBF8D
:10036000002070BD2068984238BFDCF8042013D309
:10037000C11A08292FD3E01840F8041B2360FFF7A7
:10038000B8FF28E03046FFF7B4FF002070BD2846D4
:10039000BDE87040FFF77EBF002A18BFA2423CBFF5
:1003A00094465268F8D30119914216D11168084455
:1003B000984212D3C11A08293CBF2060506808D364
:1003C0005168E0184160216812681144C91A01603F
:1003D0002360CCF80400201D70BD181FFFF75AFFE2
:1003E000050007D021680A1F211D00F005FF201D10
:1003F000FFF77FFF284670BD7CB51D4616460C00F2
:10040000009001D02044401E074B7B442A46694699
:100410000190304600F089FD05461CB10020694678
:1004200000F096FD28467CBD4D0B000070B50446DB
:1004300085690068C10601D5302600E02026C00786
:1004400007D070BDD4E9012130469047206A401C96
:1004500020626D1EF6D570BD70B5044685690078C2
:10046000C00707D170BDD4E9012120209047206A40
:10047000401C20626D1EF6D570BD00002DE9F041D4
:100480000646002410687529314616A510D000F0E4
:100490008FFA002802DA404213A507E031688A0784
:1004A00001D512A502E0490704D511A5012401E0F8
:1004B00000F087FA00210A2206F1240709E0B0FBC8
:1004C000F2FCB0FBF2F302FB1C003030785418460B
:1004D000491C0028F3D123462A463046BDE8F041A6
:1004E00000F0A1BA000000002D0000002B00000069
:1004F000200000002DE9F05F894604464FF0000A15
:10050000DFF874B1FB44C0F820A02046E1688847BA
:10051000002874D0252806D0D4E901219047206A0C
:10052000401C2062F1E700265F462046E1688847CC
:100530002028054607DB312D05D2781910F8200C4C
:1005400008B10643F1E7B00701D526F00406C4F868
:100550001CA00027C4F818A02A2D09D0284606F0B0
:10056000C1FC38B304EB8708303DC8F8185019E0D7
:1005700059F8041B204604EB87029161E168884723
:10058000012F054618D1E069002820DA26F0200660
:100590001DE0D8F8180000EB800005EB4000303873
:1005A000C8F818002046E1688847054606F09AFC1E
:1005B0000028EED1012F0AD02E2D08D12046E16867
:1005C00088477F1C0546022F46F02006C4DBA06941
:1005D000002803DA404246F00106A061F00701D08E
:1005E00026F010066C2D0BD0682D09D04C2D39D07B
:1005F0006A2D35D0742D35D07A2D33D016E038E001
:10060000E1682F4620468847B842054609D16C2F3D
:1006100026D04FF48060E1680643204688470546AF
:1006200004E06C2F1AD04FF4807006430DB3A5F18F
:100630004100192802D8203546F400664A4629466A
:10064000204626604E46FFF78BFD80B101280BD077
:10065000F61D26F0070000F1080956E74020E4E700
:100660008020D8E70020D6E706F104094DE72846A8
:1006700052E7206ABDE8F09F000501002DE9F04136
:10068000074615460E461020FFF704FE04000AD068
:100690006760C4E9026500F039F90168216004600F
:1006A0000020BDE8F0810120FBE740EA010302469B
:1006B00030B59B0710D14FF0013400E008C208C9E3
:1006C0001D1B9D4315EAC41FF8D013F0FF0102F86B
:1006D000011B0DD01B0AF8E711F8013B002B02F8B3
:1006E000013B05D011F8013B002B02F8013BF3D18F
:1006F00030BD10B5431C02E010F8011B71B1810739
:10070000FAD14FF0013202C88C1A8C4314EAC2119C
:10071000F9D0C01A0A0603D0C01E10BDC01A10BD01
:100720000A0401D0801E10BD0902FCD0401E10BD7D
:1007300040EA010370B59B072ED14FF00136042A21
:100740002AD308C810C99D1B9D43121F15EAC61560
:1007500017D0D8B2E1B2401A50EA056110D198B270
:10076000A1B2401A50EA05410AD123F07F4024F09B
:100770007F41401A50EA052102D1180EA0EB146007
:1007800070BDA342DBD018BA21BA884201D901203A
:1007900070BD4FF0FF3070BD0AB9002070BD10F879
:1007A000013B11F8014B63B1A3420AD1521E08D09C
:1007B00010F8013B11F8014B1BB1A34201D1521EAD
:1007C000EDD1181B70BD032A40F2308010F0030CED
:1007D00000F0158011F8013BBCF1020F624498BF94
:1007E00011F801CB00F8013B38BF11F8013BA2F131
:1007F000040298BF00F801CB38BF00F8013B11F0AC
:10080000030300F0F984083AC0F0088051F8043B73
:10081000083A51F804CBA0E80810F5E7121D5CBFB8
:1008200051F8043B40F8043BAFF30080D20724BFEB
:1008300011F8013B11F801CB48BF11F8012B24BF7F
:1008400000F8013B00F801CB48BF00F8012B7047CE
:100850004FF0013C50F8042B51F8043B9A4221D14F
:10086000A2EB0C03934313EACC1317D150F8042BDB
:1008700051F8043B9A4215D1A2EB0C03934313EABF
:10088000CC130BD150F8042B51F8043B9A4209D1F8
:10089000A2EB0C03934313EACC13DBD04FF0000020
:1008A000704700BFD01A01BAB1FA81F101F0180106
:1008B00022FA01F0CB40C1F12001DBB2C0B2C01A74
:1008C0002CFA01F3D11A914311EAC311E6D1704712
:1008D000704770477047000070B5064C7C44064D69
:1008E0007D4403E0206820448047241DAC42F9D1B8
:1008F00070BD00005C0401008004010000487047E6
:10090000EC060020004870470407002000487047AC
:100910001C070020704770477047704738B5044681
:100920000A4600206946AFF30080002808BF38BDA2
:1009300002460099204600F099FC012038BD0120B4
:1009400000F0F7BDF8B5AFF30080054600200C4677
:10095000102000BF0646A819A0420DD932466946AC
:100960000020AFF30080070008BF00F0E2FD009810
:10097000A04218BF0546C419FFF7C0FF056007462F
:10098000F01D20F007004619284600F00AF8B4428E
:1009900008BFF8BDA21B31463868BDE8F84000F03A
:1009A00065BC00210160C0E901107047102070474C
:1009B00009684A0501D540B27047C905FCD500B2A7
:1009C000704709684A0501D5C0B27047C905FCD512
:1009D00080B2704770B50C460546012A05D02878CC
:1009E000800600D5EA69002302E0012305E05B1CD4
:1009F000934202D2E05C0028F9D1A869E618C01A37
:100A0000A861286A184428622846FFF70FFD04E011
:100A1000D5E9012114F8010B9047B442F8D32846D8
:100A2000FFF71AFD70BD2DE9F0470D469946924635
:100A3000044600F124080168880604D5E06921F025
:100A40001001216000E00120A84201DD471B00E009
:100A50000027A1697A1902EB0900081AA061207821
:100A6000C00602D42046FFF7E1FC002608E0D4E9E6
:100A700001211AF806009047206A401C761C20626B
:100A80004E45F4DB2078C0060AD52046FFF7CEFCA1
:100A900006E0D4E9012130209047206A401C206202
:100AA000381EA7F10107F4DC07E0D4E9012118F8AA
:100AB00005009047206A401C2062281EA5F1010510
:100AC000F3DC2046FFF7C8FC2078000602D50220A0
:100AD000BDE8F0870120FBE711680268006A530552
:100AE00001D508700AE0D30501D5088006E0130699
:100AF00003D5C217C1E9000200E008600120704779
:100B000070472DE9FF4F0C461E464FF0FF378BB064
:100B1000D2E90001DDF860800A908A46C1F30A55E7
:100B200005B93D46002108464FF00000BAF1000F1C
:100B300000F4400005DA00EB80004FF4400101EAC8
:100B400050004FEA9059B9F1010F00DDB9460A98FB
:100B500050EA4A000ED044F61050A5F2FF35454346
:100B60002F14B8F1000F1ED07542291E1EDDC9F1E9
:100B700000021CE0B8F1010F4FF0000001D030215D
:100B800003E0F24305E02154401CB042FBDB304659
:100B90000022002121540B99C1F80880C1E90020EE
:100BA0000FB0BDE8F08FBD1B6D1CDEE74A4600DAD2
:100BB000694206A800F026FC06AB93E8070003ABE9
:100BC00083E8070050460A9900F0D4FD8DE807003D
:100BD000A0F500501F3800900398002D0ADD42F266
:100BE0001F014A460844002303A90390684601F008
:100BF0003DF809E0A0F500504A461F38002303A93C
:100C00000390684601F047F88DE807000004000CE7
:100C100003D04FF0FF30410800E01046B8F1000F5C
:100C200003D00022009215461EE0751E05D400F088
:100C300037FB303262556D1EF9D5B34601220843A9
:100C400002D000227F1C04E02078302801D100224D
:100C50007F1E002A099784D01DE0112D07DA00F0CD
:100C60001FFB303262556D1C50EA0102F5D108437A
:100C700002D00098C8B10EE00021681E05E0235C98
:100C8000625C63542254401E491C8142F7DBAB4630
:100C9000A81B401E0990002004F80B000B98099A2D
:100CA000C0F80880C0E9002B7AE711264FF0000851
:100CB00057E72DE9F04F88460446D21D22F0070180
:100CC00091B0D1E90001CDE90A0105F0FBFF024630
:100CD0000B98C00F01D02D2007E02068810701D5B7
:100CE0002B2002E0202101EAC000032A099001D054
:100CF000072A05DB03464146204600F017FB0BE1BF
:100D00002078800601D5E06900E00620B8F1650F83
:100D1000814606D0B8F1660F18D0B8F1670F70D1D0
:100D200031E00020B9F1110F009001DB112301E047
:100D300009F101030AAA01A90CA8FFF7E2FEDDE907
:100D40000C70002609F10105834647E001204B465F
:100D500000904FF000470AAA01A90CA8FFF7D1FEA6
:100D6000DDE90DB00C995D46002610B909F10100CE
:100D70000D18B9EB050003D4C0F1FF3609F10105E8
:100D8000A5EB09002BE0B9F1010F01DA4FF00109E1
:100D90000020B9F1110F0090484601DD112300E059
:100DA00003460AAA01A90CA8FFF7ABFEDDE90C7007
:100DB0004D4600268346207800070AD4AB4500DA6A
:100DC0005D4601A8012D04DD411911F8011C3029EF
:100DD00007D04F4502DA17F1040F04DA01208246EA
:100DE0000FE06D1EEEE7002F02DCED1B3E4403E03A
:100DF000781CA84200DD7D1CB81B00F1010A4FF0F1
:100E000000472078000703D4AA4501DB4FF0FF3AE2
:100E10000021B7F1004F0DF143088DF8431024D0A5
:100E200002202B23002F01DA7F422D230A21021EEC
:100E3000A0F1010000DC5FB197FBF1FC97FBF1F240
:100E400001FB1C7C17460CF1300C08F801CDEEE7D5
:100E5000A8F1010003702188090501D5452100E0B2
:100E60006521A0F1010800F8011C09980FA9A1EB68
:100E70000807FF1D00B10120411901EBEA70A169CB
:100E80003844081A401EA0612078C00602D42046CB
:100E9000FFF7CCFA099828B1D4E901219047206ADC
:100EA000401C20622078C00622D52046FFF7BEFAFB
:100EB0001EE0002E04DBB34502DD01A8805D00E0EA
:100EC0003020D4E901219047206A401C2062761C22
:100ED000AAF101005FEA000A0AD1FFF713FDC0681A
:100EE0000168405CD4E901219047206A401C2062DF
:100EF000281EA5F10105DCDC07E0D4E9012118F882
:100F0000010B9047206A401C2062381EA7F10107A0
:100F1000F3DC2046FFF7A0FA032011B041E6000001
:100F200001694A1C02610878704700B58FB0CDE9AD
:100F300001310021059105497944CDE9031011469D
:100F40006846FFF7D7FA0FB000BD0000E5FFFFFFCE
:100F50000A6802F8010B0A607047D1E900239A423F
:100F600002D2531C0B601070704700002DE9FF5F28
:100F700015468A460446DFF8AC80F8440027D8E9D5
:100F800000103E46CDE9001010E03AF816106A460F
:100F900002A800F0A9FA411C07D02178890603D5E0
:100FA000E269391891420DD80744761C20788006F2
:100FB00002D5E069B84205DDAE42E6DB3AF816003C
:100FC0000028E2D1A069C01BA0612046FFF72EFADD
:100FD000D8E90010CDE90010002017E03AF8181009
:100FE0006A4602A800F080FAB0F1FF3F81460BD0BC
:100FF00000250DF1080B05E0D4E901211BF80500DF
:1010000090476D1C4D45F7D308F10100B042804672
:10101000E4DB206A384420622046FFF71DFABDE871
:10102000FF9F00009EFA00002DE9F0418046D21D8E
:1010300022F007020025D2E90002F52915A614D0F6
:10104000011E72F1000106DA0023D0EB030063EB0E
:10105000020211A608E0D8F800108B0701D50FA6F0
:1010600002E0490701D50EA601251146002408F12A
:10107000240704E000F014F930323A55641C50EAB9
:101080000102F7D12B46324621464046BDE8F041E9
:10109000FFF7C9BC000000002D0000002B0000007D
:1010A0002000000030B4002100F1240408E002F028
:1010B0000705D208303542EA4372DB086554491C03
:1010C00052EA0305F3D10468002310A2250707D5CF
:1010D000A40600D421B1C46901230DA2641EC46119
:1010E00030BCFFF7A0BC10B5044621461068FFF7DE
:1010F00068FC02462046BDE810400023D2E7D21D1E
:1011000022F00701D1E90023CCE700000000000035
:1011100030000000F0B40D460188090502D5214CCD
:101120007C4402E01F4C7C440E34002100F1240674
:1011300008E002F00F071209E75D42EA03721B099B
:101140007754491C52EA0307F3D1027800231207AF
:1011500004D5702D06D009B1022311342246F0BC0B
:10116000FFF761BC01231034F8E770B504460D4663
:1011700021461068FFF725FC024629462046BDE8B7
:1011800070400023C6E7D21D22F00703D3E90023F5
:10119000C0E70368126843F0200303600823C361BB
:1011A0000023B7E700F900002DE9F0410646FFF7FC
:1011B000ADFB8046454613E016B1E068B0420ED163
:1011C00020682860D4E90101D8F8007088472046DB
:1011D000FFF78FF8D8F80000B842EBD100E02546C1
:1011E0002C68002CE8D1BDE8F08110B500F0A8F91A
:1011F000BDE8104000F098B910B5203AC0F00B805F
:10120000B1E81850203AA0E81850B1E81850A0E80A
:101210001850BFF4F5AF5FEA027C24BFB1E8185064
:10122000A0E8185044BF18C918C0BDE810405FEAD4
:10123000827C24BF51F8043B40F8043B08BF704750
:10124000D20728BF31F8023B48BF11F8012B28BF55
:1012500020F8023B48BF00F8012B70470048704758
:10126000E406002000487047180700200346406845
:101270008C46002818BF88423CBF03464068F8D31C
:1012800018681844884207D00CF1030020F00700CA
:10129000001D411A521A0146081D0A60FFF729B8BD
:1012A00030B5B0F10A024FEA900E71F100034EEA38
:1012B000817EB0EB0E0061EB91014FEA101E4EEA09
:1012C000017E10EB0E0041EB11114FEA102E4EEA99
:1012D000016E10EB0E0041EB11214FEA104E4EEA69
:1012E000014E10EB0E0041EB1141401841F100019D
:1012F0004FEAD00040EA41704FEAD10110EB80057F
:101300004FEA810444EA907444EB01046D1944EB04
:101310000404521BA3414FF0000348BF0A3200D51A
:1013200030BD401C41F1000130BD00002DE9F0410D
:101330001F46044603260168072A01F4006004DB07
:1013400008B116A505E016A503E008B115A500E053
:1013500015A521F010002060A069C01EA0610FB18A
:10136000401EA0612046FFF761F84FB1D4E901218A
:1013700038469047206A401C2062C01C206206E06C
:10138000206AFAE7D4E9012115F8010B9047761E8F
:10139000F8D22046FFF760F8BDE8F0814E414E00DC
:1013A0006E616E00494E4600696E660010B5436975
:1013B00013B1AFF3008001E0FFF70CFB012010BD7B
:1013C000127800F124010A7000224A700122EDE730
:1013D00011684FF0FF32E9E710B5436913B1AFF37D
:1013E000008001E0FFF7C2FD012010BD128800F16E
:1013F000240182840022C2840122EDE711684FF0AB
:10140000FF32E9E72DE9F047814616468AB03548B4
:1014100078440DC88DE80D0032487844801C03AC38
:101420000DC884E80D0041F69B300844372190FB3D
:10143000F1F290FBF1F5A5F1800501FB12041B3CD4
:1014400002D56442012000E00020DFF898A0804629
:101450000027FA44AAF1BE0A0EE0E0070AD032469D
:10146000684607EB470101230AEB810100F013FCFA
:101470008DE8070064107F1C002CEED1194F7F44CB
:10148000AE3F19E0E80715D007EB04100DF1180A7C
:1014900090E80E008AE80E00C068F04201D1981969
:1014A00008903246012306A903A800F0F4FB03AB21
:1014B00083E807006D10641C002DE3D14FF0010399
:1014C00032466946B8F1000F03A802D000F0CEFB07
:1014D00001E000F0E0FBC9E90001C9F808200AB00A
:1014E000BDE8F087B4F6000070B516460C46054618
:1014F000FEF7C8FE036893F80101012806D0FF2C0F
:101500000FD8185D68B101202C7070BDD3F80701A9
:101510003246214603F2071303442846BDE87040D3
:1015200018474FF0FF3070BD002801D000F058B8C8
:10153000704710B500F0B2F8BDE81040FFF7F4BFF7
:1015400010B5002102A000F08FF8012010BD0000AE
:101550005349475056464E3A205075726520766979
:10156000727475616C20666E2063616C6C656400DA
:10157000AFF3008010B500F00EF8016919B1002238
:101580000261884701E08068804700F062F800004F
:1015900010B500F05EF870B500F04EF8046805462E
:1015A000A4B92020FEF776FE040011D009490020DE
:1015B0002C60C4E900010849A160207320616061CA
:1015C0000649A06109B100F091F8E061204670BDC4
:1015D00000F03FF800000000911500080000000036
:1015E00001491820ABBEFEE7260002007047754691
:1015F000FFF734FEAE4605006946534620F007006B
:10160000854618B020B5FEF72BFEBDE820404FF010
:1016100000064FF000074FF000084FF0000B21F0DC
:101620000701AC46ACE8C009ACE8C009ACE8C009A9
:10163000ACE8C0098D46704700487047200700207D
:1016400010B50446AFF300802046BDE81040FEF719
:10165000F3BD10B5002000F06EF8FEF7DFFDBDE829
:1016600010400120FFF7BCBF70B505460C460A20AC
:1016700000E06D1C00F058F835B128780028F8D14A
:1016800002E0641C00F050F814B120780028F8D172
:10169000BDE870400A2000F047B8000010B50128EE
:1016A00005D0002103A0FFF7DFFF012010BD09A135
:1016B000F8E7000053494752544D454D3A204F75C5
:1016C00074206F662068656170206D656D6F72793A
:1016D000000000003A2048656170206D656D6F72F2
:1016E0007920636F727275707465640010B588201C
:1016F000FEF7D0FD002801D00021017010BD802927
:1017000002D808B1017809B100207047012100F822
:10171000081B704718B100F10802914201D0002067
:10172000704700210170704708B569468DF80000C8
:101730000320ABBE08BD10B500F004F8BDE81040B2
:10174000FFF7F2BE10B5002102A0FFF78DFF0120C8
:1017500010BD0000534947414252543A2041626E45
:101760006F726D616C207465726D696E6174696F02
:101770006E0000005FEA400C08BF91F0000F4FEAD6
:101780008C234FEAC12243EA51514FEA1C5018BF43
:1017900000F5F0404FEA300018BF41F000415FEA29
:1017A0006C5C00F02980BCF1FF3F08BF40F0804036
:1017B0007047130C06BF12044FF0100C4FF0000CD2
:1017C000130E04BF12020CF1080C130F04BF120118
:1017D0000CF1040C930F04BF92000CF1020CD30F18
:1017E00004BF52000CF1010C11464FF00002A0F1B1
:1017F0001F00A0EB0C00704711F0004F08BF7047AE
:1018000031F000413FF4D5AF0B0C06BF09044FF097
:10181000100C4FF0000C0B0E04BF09020CF1080C69
:101820000B0F04BF09010CF1040C8B0F04BF8900DE
:101830000CF1020CCB0F04BF49000CF1010CCCF1F0
:101840002003A0EB0C0022FA03F302FA0CF241EAA7
:10185000030100F10100704720F07F4C80EA030093
:1018600023F07F47ACEB070303F57C5300F0004007
:1018700003F1FF032DE980494FEA154B09B44FEA04
:10188000144325EA0B4E24EA03480FF2042606EB24
:10189000132749083E785FEA320203FB0667C7F563
:1018A000000707FB06F64FEA54374FEAD64606F123
:1018B000020607FB066CCCF1005C4FEA1C472CEAE1
:1018C000074C07FB06F40CFB06F504EB15464FEA44
:1018D000961634BF00204FF000404FEAD13706FB88
:1018E00007FC4FEA1C4C0CFB0BF7D21B03FB0CF75D
:1018F00061EB07010CFB0EF7B0EB074072EB1742F0
:101900000CFB08F734BFA2EB0742B2EB074261EBD6
:1019100017414FEA0C444FEA910706FB07FC4FEAD8
:101920001C4C0CFB0BF7B0EBC74072EB573203FBC0
:101930000CF734BFA2EBC742B2EBC74261EB5731A1
:101940000CFB0EF7B0EBC70072EB57720CFB08F7FD
:1019500034BFA2EBC702B2EBC70261EB5771039F22
:101960004FEA816141EA921104EBCC044FEAD1378E
:101970004FEA826206FB07FC42EA90124FEA80605F
:101980004FEA1C4C0CFB0BF7D21B03FB0CF761EB73
:1019900007010CFB0EF7B0EB074072EB17420CFB94
:1019A00008F734BFA2EB0742B2EB074261EB1741E5
:1019B0004FEA8C554FEA910704EB9C2406FB07FC89
:1019C0004FEA1C4C0CFB0BF7B0EBC74072EB5732E5
:1019D00003FB0CF734BFA2EBC742B2EBC74261EB8B
:1019E00057310CFB0EF7B0EBC70072EB57720CFBD4
:1019F00008F734BFA2EBC702B2EBC70261EB577125
:101A000015EB4C254FEA816141EA92114FEA82625F
:101A10004FEAD13742EA901206FB07FC44F100047A
:101A20004FEA80604FEA1C4C0CFB0BF7D21B03FB08
:101A30000CF761EB07010CFB0EF7B0EB074072EB04
:101A400017420CFB08F734BFA2EB0742B2EB074288
:101A500061EB174115EB1C154FEA813141EA9241C8
:101A60004FEA823242EA90424FEA80304FEA0C76E7
:101A700044F1000448EA03434EEA0B484FF0000EDD
:101A8000B2EB080C71EB030724BF624639464EEBFC
:101A90000E0E4FF0000B0018524149414BEB0B0B5F
:101AA000B2EB080C71EB03077BF1000B24BF62461D
:101AB00039464EEB0E0E4FF0000B001852414941D3
:101AC0004BEB0B0BB2EB080C71EB03077BF1000B3C
:101AD00024BF624639464EEB0E0E51EA020718BF8C
:101AE00046F0010616EB0E7655F1000254F10001A6
:101AF00003D5BDE88901BDE80088BDE88901BDE8DE
:101B00000048B619524141EB0101A3F101037047AE
:101B100080807F7E7D7C7B7A79787776767574732A
:101B2000727171706F6E6E6D6C6C6B6A6A696868E9
:101B3000676666656464636362616160605F5F5E7F
:101B40005E5D5D5C5C5B5B5A5A59595858575756F5
:101B5000565555555454535352525251515050505A
:101B60004F4F4F4E4E4D4D4D4C4C4C4B4B4B4A4AAC
:101B70004A494949484848474747474646464545F0
:101B80004544444444434343434242424241414129
:101B9000002B9C4630D477002BD01CB54FEA37077A
:101BA00003B44FF010004FF01001BAF1000F06D04F
:101BB000BCF1000FDCBF40F0080040F008014FF01E
:101BC00000000FBCBDE810400BF1010BBBF1010F91
:101BD00008BF5FEA170722BF12F1010211F10101EC
:101BE0004FF0004143F1000300F0004043EA0000E1
:101BF0007047F9D35708D0E746EA064613F1400F7D
:101C00004FEA16461FDD13F1200FDFBF16430A46C9
:101C1000002120335B42BED0C3F1200746EA0646CE
:101C200002FA07F74FEA164646EA0706C3F120070D
:101C300022FA03F201FA07F721FA03F14FF0000349
:101C400042EA0702A7E746EA020646EA06464FEAE4
:101C5000164646EA0106BCBF46EA0646360C4FF079
:101C600000034FF000024FF0000194E72DE9804C93
:101C70009A46934670B491E8380007C831EA400CA0
:101C800048BF34EA430C03D5FFF7E6FDFFF780FFBA
:101C9000F0BCBDE8008C2DE9804C9A46934670B4A8
:101CA00091E8380007C810F0804F08BF13F0804F4C
:101CB00003D100F005F8FFF76BFFF0BCBDE8008C26
:101CC00020F07F4780EA030023F07F4C07EB0C03F2
:101CD000A3F57C5300F00040A3F1FE0392F0000F47
:101CE00000F0B38095F0000F00F077802DE90149F6
:101CF0004FEA11404FEA144621EA004800FB06FC77
:101D000024EA064708FB06F607FB08F800FB07F77E
:101D100018EB06484CEB164C4FEA124B18EB0748F1
:101D20004FEA15464CEB174022EA0B4E0BFB06FC24
:101D300025EA06470EFB06F607FB0EFE0BFB07F730
:101D40001EEB064E4CEB164C4FF000061EEB074EFA
:101D50004CEB174B18EB0B0840F1000018EB0E0B87
:101D600058EB000840F100008F1A4FF000013CBF13
:101D7000C943661B14BFB5EB040C00213CBFC9432B
:101D8000F61B4FEA17444EEA8E0E27EA04454FEA47
:101D90001C4704FB07622CEA074C05FB07F70CFB0A
:101DA00005F604FB0CFC16EB074642EB174216EB5C
:101DB0000C4642EB1C421BEB060658EB020241416B
:101DC00046EA9E0601D5BDE80189B619524141EBAC
:101DD0000101A3F10103BDE801894FEA14454FEA6F
:101DE000114724EA054621EA074C05FB07F406FBE8
:101DF00007F70CFB06F105FB0CFC11EB074144EB6C
:101E000017444FEA124711EB0C4144EB1C4422EA01
:101E1000074C05FB07F206FB07F70CFB06F605FB74
:101E20000CFC16EB074642EB174216EB0C4642EB56
:101E30001C456A1854F1000148BF7047B619524159
:101E400041EB0101A3F10103704795F0000F37D07A
:101E50004FEA11424FEA144721EA024624EA074CAE
:101E600002FB07F106FB07F70CFB06F402FB0CFC78
:101E700014EB074441EB17414FEA154714EB0C44B0
:101E800041EB1C4125EA074C02FB07F506FB07F76F
:101E90000CFB06F602FB0CFC16EB074645EB174560
:101EA00016EB0C4645EB1C42121951F1000148BFDC
:101EB0007047B619524141EB0101A3F1010370478C
:101EC0004FEA14454FEA114724EA054621EA074C38
:101ED00005FB07F106FB07F70CFB06F24FF00006C7
:101EE00005FB0CFC12EB074241EB174112EB0C42D5
:101EF00051EB1C4148BF7047921841EB0101A3F11F
:101F0000010370470029816814BF41F0010121F0ED
:101F10000101816070470029816814BF41F480711C
:101F200021F480718160704701460020896811F0BA
:101F3000040F18BF0120704701460020896811F086
:101F4000080F18BF01207047426891F804C022F4BE
:101F5000807222F470220B6842EA0C221A4342601B
:101F600082680B4B1A40D1E902C343EA0C0391F893
:101F700005C042EA4C021A438260C26A097C22F41C
:101F80007002491EC9B242EA0151C16270470000A5
:101F9000FDF7F1FF30B4072409290DD9C568A1F177
:101FA0000A0C0CEB4C0C04FA0CF425EA040403FABA
:101FB0000CF32343C3600AE0056901EB410C04FA0A
:101FC0000CF425EA040403FA0CF3234303611F23F2
:101FD000072A0CD2D0F834C0521E02EB8202934082
:101FE0002CEA030391401943416330BC70470D2A2A
:101FF0000CD2D0F830C0D21F02EB820293402CEA00
:10200000030391401943016330BC7047D0F82CC0E2
:102010000D3A02EB820293402CEA030391401943EC
:10202000C16230BC7047816841F00801816070472F
:102030000029816814BF41F4A00121F4A00181604E
:102040007047816841F004018160704770B50121DB
:1020500090B0084600F000FC0121480200F020FC8E
:10206000454E304600F0C2F84448009008254448E8
:1020700000240395CDE901048020CDE9044040000F
:10208000069080000790202008900002CDE9090406
:102090006946304600F02CF90121304600F09BF8EB
:1020A00001208DF830008DF831000B944FF4602042
:1020B000CDE90D048DF83C50324D0BA92846FFF7B1
:1020C00043FF4FF4404000F0BDFB2F4C052301229D
:1020D000E17B2846FFF75EFFE17F052302222846C9
:1020E000FFF758FF94F82F10052303222846FFF727
:1020F00051FF94F83F10052304222846FFF74AFFBA
:10210000052394F84F101A462846FFF743FF94F82A
:102110005F10052306222846FFF73CFF94F86F1056
:10212000052307222846FFF735FF94F87F10052383
:1021300008222846FFF72EFF01212846FFF7EBFE75
:1021400001212846FFF7DEFE2846FFF76CFF2C46EC
:102150002046FFF7F1FE0028FAD12046FFF771FF75
:102160002046FFF7E1FE0028FAD101212046FFF7C3
:102170005FFF10B070BD0000080002404C24014019
:102180001C03002000240140B088000810B5002185
:10219000084604F099FF0021012004F095FF00217A
:1021A000022004F091FF0021032004F08DFF0021A4
:1021B000042004F089FF0021052004F085FF0021A0
:1021C000062004F081FF0021072004F07DFFBDE818
:1021D0001040FFF73BBF0029016812BF41F0010129
:1021E0004FF6FE72114001607047000001684FF623
:1021F000FE72114001600021016041608160C16098
:102200002E4A2F49904204BF486840F00F0022D068
:102210002C4A904204BF486840F0F0001BD02A4A84
:10222000904204BF486840F4706014D0274A90423E
:1022300004BF486840F470400DD0254A904204BF66
:10224000486840F4702006D0224A904204BF486893
:1022500040F4700001D1486070471F4A904204D199
:10226000486840F07060486070471C4A111F9042F7
:1022700004BF086840F00F0014D0194A904204BF10
:10228000086840F0F0000DD0164A904204BF08687C
:1022900040F4706006D0144A904204BF086840F4CD
:1022A000704001D108607047104A904218BF7047D3
:1022B000086840F470200860704700000800024081
:1022C000000002401C000240300002404400024076
:1022D000580002406C0002408000024008040240A6
:1022E0001C040240300402404404024058040240EE
:1022F00010B40268D1F820C08B686FF30E1243EA65
:102300000C03D1E904C44CEA040C43EA0C03D1F8F1
:1023100018C043EA0C03D1F81CC043EA0C03D1F8FF
:1023200024C043EA0C03D1F828C043EA0C031A4343
:102330000260CA6842600A6882604968C16010BC75
:10234000704700004FF0E0200449416100218161A5
:10235000016941F007010161704700004019010067
:1023600010B5012000F000F9002808BF10BD054895
:102370000068002818BF80470120BDE8104000F029
:10238000EDB800002C03002010B54FF4806000F081
:10239000EBF8274C38B1A06A002818BF80474FF4EB
:1023A000806000F0DBF84FF4006000F0DDF838B139
:1023B000E06A002818BF80474FF4006000F0CEF8B4
:1023C0004FF4805000F0D0F838B1206B002818BFCF
:1023D00080474FF4805000F0C1F84FF4005000F0F7
:1023E000C3F838B1606B002818BF80474FF4005025
:1023F00000F0B4F84FF4804000F0B6F838B1A06BAC
:10240000002818BF80474FF4804000F0A7F84FF431
:10241000004000F0A9F8002808BF10BDE06B0028BC
:1024200018BF80474FF40040BDE8104000F096B858
:102430002C03002010B5022000F096F8002808BFF9
:1024400010BD05484068002818BF80470220BDE83D
:10245000104000F083B800002C03002010B50420C9
:1024600000F082F8002808BF10BD054880680028E9
:1024700018BF80470420BDE8104000F06FB800008E
:102480002C03002010B5082000F06EF8002808BFCB
:1024900010BD0548C068002818BF80470820BDE867
:1024A000104000F05BB800002C03002010B5102095
:1024B00000F05AF8002808BF10BD05480069002840
:1024C00018BF80471020BDE8104000F047B800005A
:1024D0002C03002010B5202000F046F81E4C30B12F
:1024E0006069002818BF8047202000F037F840209E
:1024F00000F03AF830B1A069002818BF80474020AA
:1025000000F02CF8802000F02FF830B1E0690028AE
:1025100018BF8047802000F021F84FF4807000F051
:1025200023F838B1206A002818BF80474FF4807024
:1025300000F014F84FF4007000F016F8002808BFFF
:1025400010BD606A002818BF80474FF40070BDE8D6
:10255000104000F003B800002C030020014908607F
:102560007047000014040140054A00211268054B21
:1025700002401B6803421CBF002A01210846704725
:1025800000040140140401402DE9F001CB78002241
:1025900003F00F0C13F0100F1CBF8B7843EA0C0CE8
:1025A0000B784FF00F0613F0FF0F4FF0010518BF27
:1025B000046819D00F8805FA02F31F409F420FD11B
:1025C000970006FA07F824EA08040CFA07F73C43D8
:1025D000CF78282F08BF436102D0482F08BF03617E
:1025E000521C082AE6D304600A88FF2A87BF446881
:1025F0000022BDE8F001704702F108030F8805FAD8
:1026000003F31F409F420FD1970006FA07F824EA10
:1026100008040CFA07F73C43CF78282F08BF436122
:10262000CF78482F08BF0361521C082AE4D34460C6
:10263000BDE8F0017047000010B50121084600F028
:102640002FF9BDE810400121014800F003B8000057
:102650000002300070B4194A10F0004F14BFD36963
:102660005368C0F303444FF4401C3CEA00054FEAB2
:10267000505C4FEA0C1C86B206FA0CFC16D010F423
:10268000801F08BF23EA0C0303D0032505FA04F4D6
:10269000A34343F07063002918BF4CEA030310F012
:1026A000004F14BFD361536070BC7047546823F06F
:1026B000706324F070645460EDE700000000014096
:1026C000F8B50446A0F180401E4615460F46B0F509
:1026D000843008BF04202AD0A4F18040B0F58630B1
:1026E00008BF082023D0A4F18040B0F5883008BF8F
:1026F00010201CD0A4F18040B0F58A3008BF202003
:1027000015D0A4F18040B0F58C3008BF40200ED029
:10271000A4F18040B0F58E3008BF802007D0A4F12E
:102720008040B0F590300CBF4FF48070F8BD1C2D88
:1027300018BF182D0FD04FF0010100F0B1F800BF05
:10274000ADF800708DF803508DF8026069462046A0
:10275000FFF71AFFF8BD40F00100012100F0A0F8DA
:10276000EEE70000014931F8100070471C0300201B
:1027700010B4C27801784FF00F0C012322B3184A2D
:10278000126801F1E02102F4E062C2F5E062120A8F
:10279000C2F104042CFA02F290F801C00CFA04FC15
:1027A0008478224042EA0C02120181F80024007869
:1027B00000F01F0103FA01F14009800000F1E02060
:1027C000C0F8001110BC704701F01F0003FA00F0C0
:1027D0004909890001F1E021C1F8800110BC70476E
:1027E0000CED00E0034940F0FD7040F080600860AF
:1027F000704700000CED00E070B50D460F4916461D
:1028000001EB0014A17B002904BF002070BD18213A
:1028100004F05AFC0A480021B0FBF5F0B0FBF6F6D4
:10282000606800F0CDF9701E82B2681E81B2A37B91
:10283000606800F06FFCA07B70BD0000B0880008ED
:1028400000A24A0403494A6822F440421043486007
:102850007047000000100240044A0029516914BF6B
:10286000084321EA00005061704700000010024058
:10287000044A0029D16914BF084321EA0000D0614D
:102880007047000000100240044A0029116914BF7B
:10289000084321EA00001061704700000010024068
:1028A000044A0029916914BF084321EA000090619D
:1028B0007047000000100240044A0029D16814BF8C
:1028C000084321EA0000D060704700000010024079
:1028D000254910B44A6812F00C03244A18BF042B8F
:1028E00001D0082B01D0026015E04A684B6802F461
:1028F00070124FF0020C13F4803F0CEB924203D0A5
:102900004B6813F4003F03D0194B5A43026002E0B6
:10291000164B5A4302604A680F2303EA1212154B02
:102920009A5CD0F800C02CFA02F24260D1F804C0E0
:10293000072404EA1C2C13F80CC022FA0CFCC0F883
:1029400008C0D1F804C004EADC2C13F80C30DA40DB
:10295000C2604968032303EA9131074B595CB2FB1B
:10296000F1F1016110BC70470010024000127A00C2
:1029700000093D008C00002088000020002901880B
:1029800014BF41F0400121F0400101807047024630
:10299000002012890A4218BF0120704780897047C1
:1029A0008181704710B402880B88B1F802C0CC88CE
:1029B00043EA0C03B1F804C002F441524CEA040C9F
:1029C00043EA0C03B1F808C043EA0C03B1F80AC0AB
:1029D00043EA0C03B1F80CC043EA0C03B1F80EC093
:1029E00043EA0C031A430280828B22F40062828342
:1029F000098A018210BC704702480168491C0160C5
:102A00007047000014000020374882B0016841F090
:102A1000010101604168354A11404160016821F4BB
:102A2000102121F080710160016821F48021016092
:102A3000416821F4FE0141604FF41F0181600022D2
:102A400001920092016841F480310160016801F453
:102A5000003100910199491C0191009919B901991E
:102A6000B1F5A06FF2D1016811F4003F08BF0092E8
:102A700033D0012100911E490A6842F010020A6019
:102A80000A6822F003020A600A6842F002020A6041
:102A90004168416041684160416841F48061416042
:102AA000416821F47C114160416841F4E8114160C2
:102AB000016841F080710160016811F0007FFBD076
:102AC000416821F003014160416841F00201416029
:102AD000416801F00C010829FAD106494FF0006065
:102AE000086002B070470000001002400000FFF8CC
:102AF0000020024008ED00E010B5094C01212046FD
:102B000000F085F9002808BF10BD064801680029BB
:102B100018BF884701212046BDE8104000F04DB89D
:102B2000002C01406C03002010B50121880700F043
:102B30006EF9002808BF10BD05484068002818BF7E
:102B400080470121BDE81040880700F036B800003A
:102B50006C03002010B5094C0121204600F057F904
:102B6000002808BF10BD06488168002918BF8847A3
:102B700001212046BDE8104000F01FB800040040CD
:102B80006C03002010B5094C0121204600F03FF9EC
:102B9000002808BF10BD0648C168002918BF884733
:102BA00001212046BDE8104000F007B800080040B1
:102BB0006C030020C94301827047C94301827047FA
:102BC0000029018814BF41F0010121F001010180B9
:102BD00070470029B0F8441014BF41F40041C1F31C
:102BE0000E01A0F84410704710B5A0F18041B1F576
:102BF000963159D0B0F1804F6BD0A0F18041B1F542
:102C000080615CD0A0F18041B1F500616BD0A0F192
:102C10008041B1F5406170D0A0F18041B1F58051A3
:102C200075D0A0F18041B1F5A0517AD0A0F18041DA
:102C3000B1F59A317ED0A0F18041B1F5A6317AD0BC
:102C4000A0F18041B1F5A83176D0A0F18041B1F575
:102C5000AA3172D0A0F18041B1F5C0516ED0A0F17F
:102C60008041B1F5E0516AD0A0F18041B1F5005149
:102C700066D0A0F18041B1F5A0317DD0A0F18041B6
:102C8000B1F5A23179D0A0F18041B1F5A43118BFDE
:102C900010BD01218804FFF70FFEBDE810400021A0
:102CA0004FF48020FFF708BE0121C802FFF704FEA1
:102CB000BDE8104000214FF40060FFF7FDBD012189
:102CC0000220FFF7E1FD0021BDE810400220FFF7E0
:102CD000DBBD01210846FFF7D7FD0021BDE810400C
:102CE0000120FFF7D1BD01210420FFF7CDFD002118
:102CF000BDE810400420FFF7C7BD01210820FFF701
:102D0000C3FD0021BDE810400820FFF7BDBD012133
:102D10001020FFF7B9FD0021BDE810401020FFF79B
:102D2000B3BD01212020FFF7AFFD0021BDE8104019
:102D3000202006E007E011E01BE028E032E03BE065
:102D400044E0FFF7A1BD01214803FFF7B5FDBDE851
:102D5000104000214FF40050FFF7AEBD0121C80420
:102D6000FFF7AAFDBDE8104000214FF40020FFF757
:102D7000A3BD0121080501E033E03DE0FFF79CFD24
:102D8000BDE8104000214FF48010FFF795BD0121F0
:102D90004805FFF791FDBDE8104000214FF40010F9
:102DA000FFF78ABD01214020FFF76EFD0021BDE83D
:102DB00010404020FFF768BD01218020FFF764FD2F
:102DC0000021BDE810408020FFF75EBD0121080210
:102DD000FFF75AFDBDE8104000214FF48070FFF767
:102DE00053BD01210804FFF767FDBDE81040002135
:102DF0004FF48030FFF760BD01214804FFF75CFD10
:102E0000BDE8104000214FF40030FFF755BD038AA4
:102E1000002280890B4200EA01001CBF0028012229
:102E200010467047002A828914BF114322EA01012B
:102E30008181704710B4028C22F001020284028C5E
:102E40008388B0F818C00C882CF0730C44EA0C0C82
:102E50000C8922F0020222434C882243A0F18044D4
:102E6000B4F596341CBFA0F18044B4F59A340DD06B
:102E7000A0F18044B4F5A0341FBFA0F18044B4F5A4
:102E8000A234A0F18044B4F5A4340DD14C8922F0D1
:102E9000080222438C8822F0040222438C8923F406
:102EA00040732343CC8923438380A0F818C0C9888A
:102EB0008186028410BC7047028B22F00802114305
:102EC0000183704730B4028C22F010020284038C1C
:102ED000B0F804C0028B0D8822F4E6444FF6FF726E
:102EE00002EA05252C430D8923F0200302EA05158B
:102EF0002B434D8802EA05152B43A0F18045B5F51B
:102F000096351CBFA0F18045B5F59A3517D14D898E
:102F100023F0800302EA05152B438D8823F040033C
:102F200002EA05152B438D892CF4406C02EA8505D5
:102F300045EA0C0CCD8902EA850242EA0C0CA0F8A5
:102F400004C00483C9880187038430BC7047028BA6
:102F50004FF6FF7322F4006203EA0121114301835B
:102F6000704730B4028C22F480720284028C838811
:102F7000B0F81CC00C882CF0730C44EA0C0422F44A
:102F8000007C0D894FF6FF7202EA052545EA0C0C1C
:102F90004D8802EA052545EA0C0CA0F18045B5F5FF
:102FA00096351CBFA0F18045B5F59A3517D14D89EE
:102FB0002CF4006C02EA052545EA0C0C8D882CF4F3
:102FC000806C02EA052545EA0C0C8D8923F44053F8
:102FD00002EA05152B43CD8902EA051213438380CB
:102FE0008483C9888187A0F820C030BC7047828B59
:102FF00022F0080211438183704730B4028C22F41E
:1030000080520284048C8288838B0D8823F4E64CE2
:103010004FF6FF7303EA052545EA0C0C0D8924F4ED
:10302000005403EA05352C434D8803EA05352C434B
:10303000A0F18045B5F596351CBFA0F18045B5F5EA
:103040009A3505D18D8922F4804203EA85131A430B
:103050008280A0F81CC0C988A0F84010048430BC4D
:103060007047828B4FF6FF7322F4006203EA01215E
:10307000114381837047000010B40288234BDFF8AE
:1030800090C0984218BF604511D0B0F1804F1CBF6E
:10309000A0F18044B4F5806409D0A0F18044B4F577
:1030A00000641CBFA0F18044B4F5406403D14C8897
:1030B00022F070022243A0F18044B4F580541CBF7A
:1030C000A0F18044B4F5A05403D0CC8822F440721F
:1030D000224302808A8882850A880285984218BF26
:1030E00060450DD0A0F18042B2F5A0321FBFA0F123
:1030F0008042B2F5A232A0F18042B2F5A43201D1F1
:10310000097A01860121818210BC7047002C0140A0
:10311000003401402DE9F0413E4D88B01E4617466F
:1031200088460446A84204D10121C014FFF7B8FB29
:103130001AE0B4F1804F10D0A4F18040B0F5806067
:1031400004BF012102200DD0A4F18040B0F5006041
:1031500004BF0121042005D006E001210846FFF745
:1031600087FB01E0FFF784FB0020ADF81480ADF889
:103170001070ADF81600ADF8120004A92046FFF754
:103180007BFF7020ADF800000120ADF802000220A6
:10319000ADF80800012E06D0022E0DD0032E14D05B
:1031A000042E1BD022E069462046FFF743FE08218B
:1031B0002046FFF781FE19E069462046FFF782FEB0
:1031C00008212046FFF7C3FE10E069462046FFF7BE
:1031D000C8FE08212046FFF70AFF07E0694620469F
:1031E000FFF70BFF08212046FFF73BFF0121204698
:1031F000FFF7E6FCAC421FBFA4F18040B0F59A3067
:1032000008B0BDE8F08101212046FFF7E2FC08B0DC
:10321000BDE8F081002C014001EBC101C900B1F50E
:10322000076F38BF0A220CD30A4A8A428CBF4FF478
:103230007A7244F62062B1FBF2F298BFB1FBF2F170
:1032400001D9B1FBF2F1521E8285491E018501218F
:103250008182704718FCE7032DE9F04F85B01F46C7
:103260005F4BDFF880A1DDF83880044698424ED0ED
:10327000B4F1804F47D05C4DDFF87091AC4218BF7D
:103280004C4549D0A4F1804BBBF5406B1CBFA4F169
:10329000804BBBF5805B3FD0A4F1804BBBF5A05BBE
:1032A00018BF544538D0A4F1804BBBF5A63B1CBFDA
:1032B000A4F1804BBBF5A83B2ED0A4F1804BBBF50D
:1032C000AA3B1CBFA4F1804BBBF5C05B24D0A4F18A
:1032D000804BBBF5E05B1CBFA4F1804BBBF5005BF2
:1032E0001AD0A4F1804BBBF5A03B1CBFA4F1804BCE
:1032F000BBF5A23B10D0A4F18045B5F5A43517D09D
:1033000005B0BDE8F08F012084461C2610E00020A7
:103310004FF4006C19260BE0AC4203D10220844626
:103320001D2605E04C4503D103204FF0040C1E265A
:103330002F4D45F8202001EBC100C000B0F5076F0C
:1033400038BF0A250CD32B49884234BF4FF47A7119
:1033500044F62061B0FBF1F538BFB0FBF5F901D3BD
:10336000B0FBF5F99C4218BF54454FF0010160468F
:1033700002D1FFF795FA01E0FFF77AFA2046FFF74E
:1033800033FC691EADF804100020A9F10101ADF86D
:1033900000108DF80800ADF80600ADF8020069468F
:1033A0002046FFF769FE4FF4C060FFF71BFA8DF867
:1033B0000C608DF80D708DF80E8001208DF80F00D7
:1033C00003A8FFF7D5F901212046FFF7F3FB0122FF
:1033D00011462046FFF726FD05B0BDE8F08F00003E
:1033E000002C01400034014000040040000800406F
:1033F0006C03002018FCE70310B5124C40F2255175
:10340000206900F081F8002808BF10BD206900F095
:1034100013F9C1B2208B628B401C00F07F00824206
:1034200004D0228B04F11C03D1542083606900284E
:1034300018BF804740F225512069BDE8104000F0D8
:1034400053B800009C00002010B5124C40F22551EA
:10345000206900F059F8002808BF10BD206900F06D
:10346000EBF8C1B2208B628B401C00F07F008242DF
:1034700004D0228B04F11C03D154208360690028FE
:1034800018BF804740F225512069BDE8104000F088
:103490002BB800003801002010B5124C40F2255125
:1034A000206900F031F8002808BF10BD206900F045
:1034B000C3F8C1B2208B628B401C00F07F008242B7
:1034C00004D0228B04F11C03D154208360690028AE
:1034D00018BF804740F225512069BDE8104000F038
:1034E00003B80000D4010020090A012202FA01F108
:1034F000C943018070470029818914BF41F40051FC
:1035000021F400518181704710B401F01F020124A1
:103510000023C1F3421C04FA02F2BCF1010F04BF04
:10352000B0F80CC00CEA020208D0BCF1020F0CBFCC
:10353000B0F810C0B0F814C00CEA0202090A008802
:1035400004FA01F10840002A1CBF00280123184694
:1035500010BC7047C1F3421301F01F014FF0010C82
:103560000CFA01F1012B08BF0C3003D0022B0CBF69
:1035700010301430002A026814BF114322EA0101FE
:103580000160704730B50446008A85B00D464CF6A0
:10359000FF710840E98808432082A0894EF6F311A4
:1035A0000840A9882A8911436A8910430843A081E9
:1035B000A08A4FF6FF410840A9890843A0826846C7
:1035C000FFF786F9A4F18040B0F59C300CBF03985A
:1035D0000298A18911F4004F00EBC00101EB00102B
:1035E000296814BF49008900B0FBF1F0114A6FF05F
:1035F000180CA2FB0031490909010B0903FB0CF36C
:1036000000EB8300A38913F4004F4FF0320314BF83
:1036100003EBC00003EB0010A2FB00204FEA5010A8
:1036200014BF00F0070000F00F000843208105B030
:1036300030BD00001F85EB518088C0F30800704743
:10364000C1F30801818070472DE9F04782B0012164
:10365000112003F039FD0021112003F057FC102147
:103660001C2003F031FD00211C2003F071FC2821F7
:103670000F2003F029FD0421142003F025FD102163
:10368000152003F021FD1021162003F01DFD4E4DE5
:103690004E4E00242C70B470042003F02BFC4FF429
:1036A0007A77002340F6FF721946009703F0FAFC80
:1036B000A880052003F01EFC002340F6FF72194687
:1036C000009703F0EFFC4249E88040F2FF704C8025
:1036D000888040F6FF72CA804C818881CA813D494A
:1036E0004C808880CA804C818881CA8100F07CF837
:1036F00000F0E2FA00F082FCB07880B101281CBF33
:1037000002B0BDE8F0874FF4E131334801F002FF29
:1037100002B00121BDE8F0472F4801F023BF00248B
:103720003D274FF00F084FF05D0913264FF0360A82
:10373000287820B1012811D002281ED02BE04E237A
:1037400017222D212548CDE9006702F0A3FD14239F
:103750001D4A0121214802F02EFE1CE0CDE900980F
:1037600041232E2257211D4802F094FD10231C4AAC
:1037700001211A4802F01FFE0DE0CDE900A64E23FC
:1037800037220C21154802F085FD1023154A01212E
:10379000124802F010FE601CC4B2642CC8D30F485B
:1037A00002F08BFE50B10D4802F087FEFF2805D0D5
:1037B00002B00420BDE8F04701F014B902B00120C6
:1037C000BDE8F04701F00EB9080400201C040020F9
:1037D0008C0300209C0300203C060020B80300203E
:1037E000E8030020F803002038B505211A4802F04C
:1037F00067FB0021184802F001F900224FF6FF7123
:10380000154801F016FA0021134801F010FA0221C0
:10381000114801F007FA01240A23104A0021104838
:10382000009402F0B5FC4FF47A730E4A01210C4863
:10383000009402F0ADFC0A230B4A022108480094D0
:1038400002F0A6FC4FF47A73084A0321044800945E
:1038500002F09EFC38BD000054050020D13D000858
:1038600050000020753800081D4600085146000829
:103870007047000010B500224FF4FC610F4801F0C2
:10388000D8F901210D4801F0CDF9002211460B486D
:1038900001F0E2FC0A4C0BA10848228902F09EFFCD
:1038A0000020208102464FF6FF71044801F0C1F963
:1038B000BDE810400221014801F0B4B954050020D0
:1038C00040000020252D3364000000002DE9F8435E
:1038D000012003F00FFB554C00B24FF47A76B4F997
:1038E0000C10B4F90AC0B4F90E20431A4FF00008C6
:1038F000C6F1000905D40023009603F0D3FB00B203
:1039000007E00A464B466146CDF8008003F0CAFB4B
:1039100000B2474F2081F881032003F0EBFA454DB8
:1039200000B2B5F90C10B5F90AC0B5F90E20431A6A
:1039300005D40023009603F0B5FB00B207E00A4669
:103940004B466146CDF8008003F0ACFB00B2288105
:103950007882002003F0CEFAB4F9041000B2B4F972
:1039600002C0B4F90620431A05D40023009603F0E0
:1039700099FB00B207E00A464B466146CDF800804D
:1039800003F090FB00B22080B881022003F0B2FA6D
:10399000B5F9041000B2B5F902C0B5F90620431A12
:1039A00005D40023009603F07DFB00B207E00A4631
:1039B0004B466146CDF8008003F074FB00B22880CE
:1039C00038820F2003F0B8FA00284FF0040016D018
:1039D00003F090FA002340F6FF721946009603F0B8
:1039E00061FBB880052003F085FA002340F6FF72E2
:1039F0001946009603F056FBF880BDE8F88303F003
:103A000079FA4B4640F6FF720021009603F04AFB1C
:103A10003881052003F06EFA4B4640F6FF72002114
:103A2000009603F03FFB7881BDE8F8838C0300200B
:103A3000080400209C0300202DE9F047814622481D
:103A4000884684B005681E461746DFF880A02049E6
:103A5000284604F003F901464FF6FF7455450ADA8B
:103A60001F210094CDE9011033463A4641464846AD
:103A700000F0EAF818E01748A8420CDC08464FF4BA
:103A8000FC610094CDE9011033463A464146484670
:103A900000F0DAF808E00094CDE9014133463A46F7
:103AA0004146484600F0D0F809EB070001B2B01ECD
:103AB00003B208F1010002B20748009402F028F9AD
:103AC00004B0BDE8F08700002C0000200000A041F9
:103AD0000000C8420000B4425405002000B587B081
:103AE000062003F007FA04F003FA1D4904F0B6F8C3
:103AF00004F01AF84FF066321A4B03F02DFE012243
:103B000004F089FB03F07EFB17498842BCBF00200C
:103B1000164906DB16498142BABF1648164904F019
:103B200003F803F06FFB03F0FFFF0022134BCDE916
:103B30000222CDE90423104B0E4ACDE900230022D6
:103B40000A4B03F011FA03F097FD01460C4801F00F
:103B500039FC04F0B5F90B49C86007B000BD00009E
:103B600000F07F4566660A400000304000000640D5
:103B700066668640CDCCCCCCCCCC10400000594001
:103B8000AC0300202000002010B503F097FA014696
:103B9000BDE81040014802F017BB000018000020EB
:103BA00010B503F08BFA0B4C616888428EBF4FF45E
:103BB000FA6020886430208003F080FA00F57A7083
:103BC0006060052221881C2000F070FEBDE81040D6
:103BD00000F0F8BE38000020014801F0C5BB00002D
:103BE0004805002010B5192003F0A6F9154C28B19E
:103BF000182003F0A1F92178884208D04FF496707C
:103C0000A08003F05BFA00F5FA70A06006E003F014
:103C100055FAA168884284BF0020A0806088A188EE
:103C2000884238BF143088BF0A3800D060804FF017
:103C3000180003F081F920706188BDE81040112060
:103C400003F068BA200000202DE9F04383B0064657
:103C50001D46DDE90A08CDE90050144613460F461B
:103C60000A463146DDF83090124801F094FA291FD7
:103C700000200DB2CDE90050A01F03B2B81C02B263
:103C8000B01C01B217460E460A4802F09BF9A01F6D
:103C900004F016F9494604F03FF904F0D5F8CDE9EF
:103CA000005803B23A463146024802F08BF903B09D
:103CB000BDE8F0835405002010B53949394800F0BB
:103CC00086FF3749384800F082FF3549374800F011
:103CD0007EFF3349364800F07AFF3149354800F01D
:103CE00076FF2F49344800F072FF2D49334800F029
:103CF0006EFF2B49324800F06AFF2949314800F035
:103D000066FF3149274800F066FF2F49264800F03A
:103D100062FF2D49254800F05EFF2B49244800F042
:103D20005AFF2949234800F056FF2749224800F04E
:103D300052FF2549214800F04EFF2349204800F05A
:103D40004AFF21491F4800F046FF2049154800F06E
:103D500040FF1E49144800F03CFF1C49134800F086
:103D600038FF1A49124800F034FF1849114800F092
:103D700030FF1649104800F02CFF14490F4800F09E
:103D800028FF12490E4800F024FF10490D4800F0AA
:103D900020FFBDE8104048210A4800F01EBF000087
:103DA000493F00082804002048040020680400203F
:103DB00088040020A8040020C8040020E804002093
:103DC00008050020280500207545000899430008D3
:103DD0002DE9F04F83B002221421524801F03CFA41
:103DE000514E52493078A1FB00214908A1EB8101D5
:103DF000081804D0012807D002280AD00DE04CA1F1
:103E0000484802F0BDFC08E04AA1464802F0B8FC70
:103E100003E049A1434802F0B3FC3178F079DFF8C0
:103E20001C814FF0000B814255D0454A002482FB93
:103E300000C3A3EBE373A3EB8303181808BF1F278A
:103E400007D0012808BF3F2703D0022814BF00274E
:103E50005F2782FB0120A0EBE070A0EB8000401800
:103E600008BF1F2507D0012808BF3F2503D002281F
:103E700014BF00255F25BD42CCBF4FF0010A4FF0B3
:103E8000FF3A384604F01CF8DFF8B890C9F808008B
:103E9000C9F80000284604F013F8C9F80C00C9F866
:103EA0000400AF420FD0384604F00AF80146254816
:103EB00000F020FE03F0E4FF08EB04015744641C0B
:103EC0008870AF42EFD13078F07188F800B088F890
:103ED000014088F883B098F8820071780F38372550
:103EE000C4B24FF6FF778C4204BFB078372813D0A6
:103EF0004FF00208CDE9008B4FF01E03B27809485D
:103F000002F060F8CDE900871E232A4621460548C5
:103F100002F058F87470B5703089401C308103B0DD
:103F2000BDE8F08F5405002040000020ABAAAAAAEB
:103F3000522F4300434F4D0054414B009805002041
:103F4000565555551C06002010B514224FF47A71B1
:103F50001C2000F0ABFC2048204C807828B1E07891
:103F600040F00100E07000F02DFD1D48807828B180
:103F7000E07840F00200E07000F050FD19488078D1
:103F800018B1E07840F00800E0701748807818B168
:103F9000E07840F00400E0701448807818B1E078D0
:103FA00040F01000E0701248807818B1E07840F0DE
:103FB0004000E0700F48807818B1E07840F02000B1
:103FC000E0700D488078002808BF10BDE07840F010
:103FD0008000E07010BD00002804002008040020CC
:103FE000480400206804002088040020A804002061
:103FF000E8040020C80400200805002010B50421B2
:10400000064801F0A5F90649044801F09DF9BDE80C
:1040100010400449014801F099B90000480500200A
:10402000A13B0008594300082DE9F84F8D4FB7F91F
:10403000040003F045FF8C4D294603F00FFE8B4C26
:1040400020600090B7F9060003F03AFF294603F01C
:1040500005FE606097F800B08046BBF1000F08BF16
:10406000BDE8F88F8249DFF80C9201F15000D1E9E8
:1040700015C390F803A08048B1F8504091F8522041
:10408000B0F908507D4EB9F90000BBF1010F26D000
:10409000BBF1020F18BFBDE8F88FA1F8404081F8CE
:1040A0004220774A15F57A7F82F803A0C1E911C34F
:1040B0009581D081B8BF354604DBB5F57A7FC8BF9E
:1040C0004FF47A75958110F57A7F05DBB0F57A7F2C
:1040D000D4BF06464FF47A76D681BDE8F88F0C86B9
:1040E000684C81F8322084F803A0C1E90DC37978C7
:1040F00021B1012916D0022948D098E0284603F0C2
:10410000DFFE009903F008FF03F09EFEA081B9F9DD
:10411000080003F0D5FE414603F0FEFE03F094FED6
:10412000E08184E0002D17DB03F0CAFE414603F076
:10413000F3FE0746284603F0C3FE009903F0ECFEA9
:104140000546394603F01CFD03F07EFEA08139468A
:10415000284603F0B7FF16E003F0B2FE414603F035
:10416000DBFE0746284603F0ABFE009903F0D4FEC1
:104170000546394603F0A6FF03F066FEA0813946E6
:10418000284603F0FDFC03F05FFE4FE03A48002DA7
:10419000B0F9000024DB03F093FE009903F0BCFEAD
:1041A00003F0C2FC4FF0FF3204F035F807468846B2
:1041B000284603F085FE009903F0AEFE03F0B4FC40
:1041C0008946054643463A4603F04EF803F054FA52
:1041D000A0813A4643462846494603F0BBFB23E00C
:1041E00003F06EFE009903F097FE03F09DFC4FF084
:1041F000FF3204F010F807468846284603F060FEB8
:10420000009903F089FE03F08FFC8946054643467A
:104210003A4603F09FFB03F02FFAA0813A4643464B
:104220002846494603F020F803F026FAE081B4F965
:104230000C0010F57A7FB8BF304604DBB0F57A7F0A
:10424000C8BF4FF47A70A081B4F90E0010F57A7FE0
:1042500005DBB0F57A7FD4BF06464FF47A76E68167
:10426000BDE8F88F0804002000007A4430000020E8
:10427000B80300209C0300208C03002018FCFFFFE3
:10428000F8030020E803002010B5FFF71FFB00F043
:10429000D1F8FFF7A1FCBDE81040FFF71FBC0000FC
:1042A00016488178491C817001781430807851B1AA
:1042B000012913D0022918BF7047D0B1102210492C
:1042C000104802F077BA20B114220C490D4802F0D0
:1042D00071BA0A49A1F1500002F00BB820B11022C6
:1042E0000949084802F066BA0749A1F1300002F016
:1042F00000B80349A1F1400001F0FBBF0804002011
:10430000F80300209C000020E803002070B5114C49
:104310000F4D607805EB00100168CA688089504035
:10432000C86002F0CBFEE168884298BF70BD20787B
:10433000002818BF70BD66780021A068FEF740FC19
:1043400005EB06108189006841610020207070BD76
:10435000B08800080000002010B502F0AFFE0D4C40
:104360006168814238BF4FF4FA6004D32088642822
:1043700088BF643800D9208002F0A0FE00F57A7072
:104380006060052221881C2000F090FABDE81040F2
:1043900000F044BB380000201D4881781D4819B941
:1043A000C17821F00101C1701B49897819B9C17820
:1043B00021F00201C1701949897819B9C17821F039
:1043C0000801C1701649897819B9C17821F0040132
:1043D000C1701449897819B9C17821F01001C170F0
:1043E0001149897819B9C17821F04001C1700F498C
:1043F000897819B9C17821F02001C1700C498978F8
:10440000002918BF7047C17821F08001C170704742
:10441000280400200804002048040020680400202C
:1044200088040020A8040020E8040020C80400201C
:1044300008050020234810B5D0F85021B0F85C11D1
:104440001161D0F86021B0F86C115161B0F86C11B5
:10445000D0F86001016101221521142002F076FEDE
:10446000C4B2C4F30011184800F07CFBE1091748FE
:1044700000F078FBC4F38011154800F073FBC4F31F
:104480004011144800F06EFBC4F34001124800F0E4
:1044900069FBC4F38001114800F064FB04F00101E2
:1044A0000F4800F05FFBC4F3C0010E4800F05AFB58
:1044B000192002F041FD0146BDE810400A4800F015
:1044C00051BB0000B08800082804002048040020E8
:1044D0006804002088040020A8040020C8040020EC
:1044E000E804002008050020280500202DE9F74FEA
:1044F0000024DFF87090DFF870A00A26DFF86C80E7
:1045000082B093465D271A4802F090FB03F0D8FC76
:10451000039903F001FD494603F0D4FD03F094FC38
:1045200005B2134802F07FFB03F0CAFC029903F0C6
:10453000F3FC514603F0C6FD03F086FCCDE900769E
:1045400001B258F824302A46094800F0B7FB584613
:1045500002F0E8FC601CC4B20C2CD4D305B0BDE85A
:10456000F08F00000000A0400000384258000020FA
:104570005405002010B52048204C807828B1E07800
:1045800040F00100E07000F01DFA1D48807828B16D
:10459000E07840F00200E07000F040FA19488078BE
:1045A00018B1E07840F00800E0701748807818B142
:1045B000E07840F00400E0701448807818B1E078AA
:1045C00040F01000E0701248807818B1E07840F0B8
:1045D0004000E0700F48807818B1E07840F020008B
:1045E000E0700D488078002808BF10BDE07840F0EA
:1045F0008000E07010BD00002804002008040020A6
:10460000480400206804002088040020A80400203A
:10461000E8040020C8040020080500200A4890F89B
:104620008310002918BF704701784278914222BF59
:10463000012180F883107047044A8A5C80F8822048
:10464000491C017070470000980500209A05002061
:104650000A23142204215A20FFF7EEB92DE9F0476E
:10466000804682B01F4691468A465D4802F0DEFAD7
:1046700003F026FC394603F04FFC5A4E314603F056
:1046800021FD03F0E1FB05B2554802F0CCFA03F03E
:1046900017FC414603F040FC314603F013FD03F0E4
:1046A000D3FB1E2401B200944F4B2A464C48019480
:1046B00000F004FB4A4802F0B9FA03F001FC394665
:1046C00003F02AFC314603F0FDFC03F0BDFB05B20C
:1046D000434802F0A8FA03F0F3FB514603F01CFC38
:1046E000314603F0EFFC03F0AFFB01B200943F4B07
:1046F0002A463B48019400F0E1FA394802F096FA64
:1047000003F0DEFB394603F007FC314603F0DAFC28
:1047100003F09AFB05B2324802F085FA03F0D0FBB1
:10472000494603F0F9FB314603F0CCFC03F08CFB67
:1047300001B200942E4B2A462948019400F0BEFA9B
:10474000274802F073FA03F0BBFB394603F0E4FBA1
:10475000DFF8A0A0514603F0B5FC03F075FB04B2EE
:104760001F4802F060FA03F0ABFB494603F0D4FBAC
:10477000314603F005FA03F067FB05B2184802F072
:1047800055FA03F09DFB394603F0C6FB514603F092
:1047900099FC03F059FB07B2114802F044FA03F008
:1047A0008FFB414603F0B8FB314603F08BFC03F06E
:1047B0004BFB01B24FF6FF70CDE900402B463A4665
:1047C000074800F0A1FC0C480C4A4FF07C51C0E9AE
:1047D000041281614FF08041C16102B0BDE8F087F1
:1047E0005405002000007041C8A40008C09D0008C6
:1047F000D0AB0008000090411C060020000080BFE4
:1048000070477047F8B5244C0026A56811B1234ABB
:1048100091420CD9074600212846FEF7D1F92048DD
:1048200000EB07108189006841612670F8BD607057
:104830000120207060681B4F8542084617D002F0A7
:1048400078FF02460B460020394602F0BDFD02F01B
:1048500043FF01460023144A28460096FEF7FCFC5D
:104860000121A068FEF7ACF9A0686060F8BD02F015
:1048700060FF0B4602460020394602F0A5FD02F01B
:104880002BFF01462846FEF7C7FCA068BDE8F840AC
:104890000121FEF795B900000000002020A10700CB
:1048A000B088000880841E410D43000870B50E4C8E
:1048B0001546002659B10D4A914208D83DB1FFF77F
:1048C000A1FF02F0FBFB2844E060267070BD0546A6
:1048D0000021A068FEF774F9054800EB05108189F6
:1048E00000684161F1E700000000002020A10700FE
:1048F000B088000810B588B04FF4E131284800F0C6
:1049000009FE0121264800F02DFE254800F0B8FEE2
:1049100024A104A802F053F8024640F6B833204917
:1049200001A800F031FE04A802F06EF801A91E48AB
:1049300001F029FF1A4800F087FEFEF785FE0124EA
:1049400005231A4A00211A48009401F021FC05238E
:10495000184A01211648009401F01AFC0A23164A4D
:1049600002211348009401F013FC1E23134A032173
:104970000F48009401F00CFC4FF47A710123104AA7
:10498000C8060094FEF768FC00F02EF801218807A5
:10499000FEF716F901A802F037F808B010BD0000C4
:1049A0003C060020415400009C0000208942000881
:1049B0001800002029400008A1420008E53B00083B
:1049C000893B00080549064A0878401CA2FB0032D2
:1049D0005208A2EB82021044087070474000002089
:1049E000ABAAAAAA7047000010B54FF07C511E2256
:1049F0000846FFF77BFD0021064800F0FFFFBDE8F9
:104A00001040054B4FF07D524FF07C514FF07A50E3
:104A1000FFF724BE540500209A99193F0549064A1C
:104A20000878801CA2FB00325208A2EB82021044DC
:104A30000870704740000020ABAAAAAA2DE9F047F1
:104A4000456904460F46284603F066FAE669804643
:104A50003946304603F060FA81464046294603F065
:104A600027FB494603F08CF805464846314603F0DB
:104A70001FFB394603F084F881463946284603F087
:104A80004BFA82463946404603F046FA414603F067
:104A90000FFB514603F074F806463946484603F0CA
:104AA0003BFA80465046294603F002FB414603F09C
:104AB00067F8394603F030FA05463946304603F0C8
:104AC0002BFA314603F0F4FA294603F059F805466B
:104AD0002946606803F020FA2468064629462046E5
:104AE00003F01AFA214603F0E3FA3146BDE8F04735
:104AF00003F046B82DE9F04104460E46D4E9021011
:104B000003F06EF904BF0020BDE8F081D4E9025043
:104B1000294603F0D7FA07462946304603F0D2FA71
:104B2000394603F09BF801462046BDE8F041FFF707
:104B300085BF000000214FF07E52C0E90012816065
:104B40000549C1604FF07C510161816103494161B8
:104B50000349C161704700000000C842CDCC4C3E03
:104B6000CDCC4C3F70B50446007B0D46012660B1AC
:104B700002F0A4FAA168884218D36078A84215D040
:104B8000A6706069BDE8704000476078884208BF41
:104B900070BD2673A67002F091FAA1880844A06047
:104BA00020698047E069BDE870400047207B00280D
:104BB00008BF70BD6078A84218BF70BD0020207388
:104BC000A070A0698047E069BDE8704000470161BE
:104BD00070478161704741617047007802F074BA94
:104BE000417082800021816001730349016141614C
:104BF0008161C16170470000014800080170427086
:104C000083800021816001730249016141618161FA
:104C1000C1617047014800087047D0F800C0DCF857
:104C20000CC06047002908BF0121017670478176DA
:104C300070478182C28270472DE9F04104460068C6
:104C400082B00E4601691F461546DDF820802046D9
:104C50008847F019CDE90058401E03B220682A4663
:104C60003146D0F824C02046E0472068816A02B06F
:104C70002046BDE8F04108472DE9F04104460068B0
:104C800082B0154602691E460F46DDF82080204698
:104C90009047A819401E00B2CDE9000820683B46A5
:104CA0002A46D0F824C019462046E0472068816A89
:104CB00002B02046BDE8F041084700002DE9F05F52
:104CC000064600688A46DDE90A7B016999469046F6
:104CD000304688470025BBF1000F1CDD0024002F63
:104CE00011DD00BF05FB0740424639F810300AEBE2
:104CF000040001B23068D0F814C03046E047601CB0
:104D000004B2A742EEDC681C05B208F101000FFAFC
:104D100080F85D45E2DB3068816A3046BDE8F05FCF
:104D2000084710B582B0DDE9044CCDE9004CD0F85D
:104D300000C0DCF83CC0E04702B010BD08B5DDF8AB
:104D400008C0CDF800C0D0F800C0DCF838C0E0479B
:104D500008BD08B5DDF808C0CDF800C0D0F800C027
:104D6000DCF834C0E04708BDF0B50446C069002255
:104D700083B0002849D00A297AD00D2942D0037A7D
:104D8000994224BF90F809C08C453BD3D0F804C0A9
:104D9000CB1A0CEBC305AB7895F803C0002B18BFFA
:104DA000BCF1000F27D094F81AC095F90560BCF14A
:104DB000000F11D0B4F9107094F818C033440CFBF4
:104DC0000373B4F90C60B34206DD2282B4F91220F9
:104DD000807A0CFB00206082E28A237EA08ACDE9E3
:104DE00000020293B4F910000B460146B4F91220F8
:104DF000204600F047F8B4F910002979227E01FB23
:104E00000200208203B00120F0BD0A292AD00D291A
:104E1000F8D0A07E78B1207EB4F9103000EB400CC1
:104E200003EB4C03B4F90CC0634504DD2282628AB3
:104E300002EBC0006082E28A237EA08ACDE90002F4
:104E40000293B4F910000B460146B4F91220204633
:104E500000F018F8217E208A01EB410100EB4100AF
:104E6000CFE705E02282608A217E00EBC10006E0E8
:104E70002282B4F91210227E807A02FB0010608236
:104E8000C0E700002DE9FF4F8BB0C169DDE919A42F
:104E9000189F1E460546002948D0087A4A68181A05
:104EA000C0B202EBC00009680A91B0F800A090F807
:104EB00002B0C178059190F9051000914FF00008FB
:104EC00090F90660C146CDF81080CDF80C80012C19
:104ED00088BFCDE90361286801692846884700201A
:104EE00002900598002840F2FB800D980C99304400
:104EF00008900098084409900026BBF1000F40F28A
:104F0000E78002990898084400B207900846039980
:104F100008440D9900FB041000B2069019F0070F29
:104F200009F1010101F0FF097ED1ADE0B5F90C10E6
:104F30000C988142DCBF0FB0BDE8F08FB5F90E10C0
:104F40000D988142DCBF0FB0BDE8F08F04EB440147
:104F50000C9800EB4100012844BF0FB0BDE8F08F72
:104F60000D9800EBC400012844BF0FB0BDE8F08FDE
:104F7000E87E18B9B02E24BF581CC6B22868016953
:104F80002846884706EB86004FF00009CDF80C0054
:104F900000EB09015B48002610F801800C9848449A
:104FA00000B202900C9809FB04000FFA80FB00BFCE
:104FB00018F0010F1AD0012C0DD00D98CDE9004743
:104FC00006FB040002B2286859462346D0F818C0F0
:104FD0002846E0471BE00D980299304402B2286849
:104FE0003B46D0F814C02846E04710E0BA450ED042
:104FF000012C31D00D98CDE9004A06FB040002B225
:10500000286859462346D0F818C02846E047701C47
:1050100046B24FEA5808082ECADB09F101004FFAE0
:1050200080F9B9F1050F00E035E0B8BF0398AFDBB8
:10503000BA4555D0012C1AD0E000CDE9000A0C98F1
:1050400004EB8401084401B2286823460D9AD0F885
:1050500018C02846E04743E00D980299304402B258
:1050600028685346D0F814C02846E047CFE7CDF86B
:1050700000A028680823D0F81CC0DDE90C02401D00
:1050800001B22846E0472BE00A9810F80A800AF19E
:1050900001001FFA80FA18F0800F10D0012C26D0E2
:1050A0000498CDE9004781190C98069A01FB040089
:1050B00001B228682346D0F818C02846E0474FEAD6
:1050C00048604FEA1068701CC6B25E45FFF426AF18
:1050D00002980599401CC0B202908842FFF40CAFC0
:1050E0002868816A0FB02846BDE8F04F0847099844
:1050F000079A304401B228683B46D0F814C02846CD
:10510000E047DCE7A28200082DE9F04383B0804647
:10511000DDE90A591C46006816460F46A14211D126
:10512000AE42C4BF2E461546A91B491CCDF80090BF
:105130000BB2D0F834C0324639464046E04703B09F
:10514000BDE8F083AE4210D1A742C4BF1F460C4653
:10515000E11B491CCDF800900BB2D0F838C039469D
:105160004046E04703B0BDE8F08301694046884708
:10517000CDE90059D8F8000023463246D0F824C0C3
:1051800039464046E047D8F80000816A03B04046FF
:10519000BDE8F04308472DE9F84304460068894616
:1051A000DDE9086501691F4690462046884700955D
:1051B00020683B464246D0F820C049462046E0479A
:1051C00008EB0600401E02B2009520683B464946A7
:1051D000D0F820C02046E04700952068334642467C
:1051E000D0F81CC049462046E04709EB0700401EA6
:1051F00001B20095206833464246D0F81CC02046D4
:10520000E0472068816A01B02046BDE8F0430847C6
:1052100070472DE9F843054600680C46DDE908872C
:1052200001691E469146284688472644A6420CDD61
:105230000097286843464A46D0F81CC021462846B5
:10524000E047601C04B2A642F2DC2868816A01B023
:105250002846BDE8F04308470182428270472DE9A5
:10526000F84F81460A9814460E461D46021BA3EBD2
:10527000060148BF52420029B8BF49428A42D8BFFE
:105280004FF0000A06DD3146264605464FF0010A7A
:105290000C461846AE4205DD31462E460D462146E7
:1052A00004460846A91B0FFA81F8011B48BF494272
:1052B0000FFA81FB08EBD8714F108442B4BF012074
:1052C0004FF0FF300090AE42C8BFBDE8F88FBAF192
:1052D000000FD9F800000B9BD0F814C004D0324660
:1052E00021464846E04703E0224631464846E0472B
:1052F000A7EB0B0007B2002F05DA0098204404B298
:1053000007EB080007B2701C06B2AE42DFDDBDE855
:10531000F88F00000023DFF82CC0C0E900C3018132
:10532000428189B2818191B2C181437603824382F5
:10533000012101764FF6FF72C28282828176C376A6
:10534000C3617047E80A0108416070478160704797
:1053500070B504460D46007801F0B6FE6078294627
:10536000BDE8704001F0B0BE70B50446007801F0B1
:10537000E3FD002818BF012503D1E07800250128AE
:1053800005D00020A070E57094F9020070BD60782F
:1053900001F0D2FD002814BF4FF0FF300120A070B3
:1053A00014BFA06860688047EDE70000017042709C
:1053B00000218170C1700249416081607047000026
:1053C00003480008F0B4424B0289D3F800C00CF146
:1053D000010C9CFBF2F402FB14C21A60036843F850
:1053E00022100289FAB1002112F0010204D00168F2
:1053F00043680968196001210389934213DD03683A
:10540000D0F804C0921C53F821304CF821300368C6
:10541000491CD0F804C053F821304CF821300389DE
:10542000491C9342EBDC042502890127511E002907
:10543000C4BF0021541E12DD426805EB810352F8FF
:10544000216052F803C0664504DDD650426800274B
:1054500042F821C0491C641EEED1002FE4D001891E
:105460001C4AC1EB0113C72B86BFA2FB03C35B0918
:10547000012301EB011C0CEB8C0CA2FB0CC25209AA
:1054800002F1010C4C1EA445A8BFA4460022ACEBBF
:10549000030C1146BCF1000F16DD121F406802EB31
:1054A000830210441CF0010F18BF50F8041F0023A2
:1054B0005FEA6C0206D04468521E214450F8084F3F
:1054C0002344F8D11944624691FBF2F0F0BC7047D6
:1054D000100000201F85EB5110B5044611F0010F9C
:1054E00004BF481C81B221812068002818BF01F048
:1054F000CCFB2089800001F0CCFB20606068002894
:1055000018BF01F0C2FB2089800001F0C2FB60607F
:10551000204610BD10B50446C0F8A41000F016F9DE
:105520000A21204601F0B8F9B4F9A000B0F1FF3F1C
:1055300003D0C0B2102101F0C7FDB4F99C00B0F156
:10554000FF3F03D0C0B2042101F0BEFDB4F99E00BC
:10555000B0F1FF3F08BF10BDC0B2BDE81040102140
:1055600001F0B2BD10B5B0F9A000B0F1FF3F04BF2B
:10557000002010BD0029C0B214BF0121002101F09C
:10558000E7FC012010BD00002DE9F0418AB01D4666
:1055900016460C46074601F091FD054427A103A8D5
:1055A00001F00DFA304601F0A0F93146204601F035
:1055B0002AF901F083FDA84232D22068C168204652
:1055C000884748B32146684601F034F91CA106A873
:1055D00001F0F5F90146684601F02BFB804606A86C
:1055E00001F012FAB8F1000F06D0C82001F09AFCC1
:1055F000684601F009FAD8E7684601F076F969468D
:10560000384601F0EFF9684601F0FEF903A801F011
:10561000FBF90AB0BDE8F08101F050FDA842CCD3FF
:10562000206881692046884705A1384601F0C7F9FE
:1056300003A801F0E9F90AB0BDE8F081000000001C
:105640004552524F5200000010B5044690F8A00099
:10565000002101F07DFC94F89E00002101F078FC0F
:1056600040F2DC5001F05EFC94F8A000012101F052
:105670006FFC2046D4F8A410BDE8104000F066B8D6
:1056800010B586B004464FF4164100F05FF894F868
:10569000A000002101F05CFC642001F043FC94F8C0
:1056A0009E00012101F054FC642001F03BFC94F8C1
:1056B000A000012101F04CFC642001F033FC0EA19C
:1056C00003A801F07CF9024640F6B833214668464B
:1056D000FFF75AFF684609A101F0C0FA00280CBF85
:1056E00001240024684601F08FF903A801F08CF929
:1056F00006B0204610BD0000415400004552524FF4
:105700005200000070B51C461646049D00F0CEF80D
:1057100004490160A0F89C60A0F89E40A0F8A05049
:1057200070BD00003C0B0108018B428B914204BF0D
:105730004FF0FF307047418B00F11C02895C428BB7
:10574000521C02F07F0242830846704708B50323CB
:1057500000930022012300F001F808BD2DE9FF4F5E
:1057600087B001699046DDF850B0DFF80091A1F1F3
:1057700080429A460446B2F59C320AD0A1F180429A
:10578000B2F5884210D0A1F18042B2F5904218D013
:1057900024E0012144F20400FDF782F84FF4007088
:1057A00046004F46252519E001214804FDF760F821
:1057B00001210420FDF774F8042008264F46262511
:1057C0000CE001218804FDF753F801210820FDF7C2
:1057D00067F84FF480604600254F2725ADF810008C
:1057E00003208DF8120018208DF8130004A9384604
:1057F000FCF7CAFEADF8106004208DF8130004A970
:105800003846FCF7C1FE8DF814508DF815A08DF8C0
:1058100016B001208DF8170005A8FCF7A9FF08981D
:10582000009008F47040ADF8040008F47060ADF822
:10583000080008F0F0000002ADF806000020ADF806
:105840000C000C20ADF80A0069462069FDF79AFEAD
:10585000012240F225512069FDF77CFE01212069DB
:10586000FDF749FE0BB0BDE8F08F000000080140D5
:10587000000C014010B504462068016920468847A5
:105880000028F9DA10BD10B500690C46028812F044
:10589000400FFBD0FDF7D4FE204610BD018B408B9E
:1058A000081A803000F07F007047000000224FF49B
:1058B0007A73C0E90123024B0360C0E90412704708
:1058C000600B010870B5044682B0002084F82800FF
:1058D00084F8270084F829000E4684F82A0094F8FA
:1058E0002300102101F0F0FB94F92200B0F1FF3FFA
:1058F00004D094F82200102101F0E6FB94F9220074
:105900003B4D05EB00100168616394F9231005EB32
:1059100001110A68A2638089A4F840008889A4F86C
:10592000420094F8210070B14FF0010C00256CF397
:105930000F0065F31740CDE900072E492A462E488F
:1059400001F090F823E094F82600102101F0BCFB50
:1059500094F82500102101F0B7FB94F826000021EF
:1059600001F0F6FA94F82500002101F0F1FA94F91B
:10597000260005EB00100168216394F9251005EB62
:1059800001110A68E2628089E0878889A08794F91A
:105990002400B0F1FF3F1FD094F82400102101F043
:1059A00093FB94F82400012101F0D2FA4FF4FA702D
:1059B00001F0B8FA94F82400002101F0C9FA4FF47C
:1059C000FA7001F0AFFA94F82400012101F0C0FA56
:1059D0004FF4FA7001F0A6FA002E04BF02B070BDB9
:1059E000314602B02046BDE8704000F017B8000014
:1059F000B088000800127A008C02002000B583B045
:105A0000B0F90E20CDE9002101680022B0F90C3078
:105A1000D1F83CC01146E04703B000BD2DE9F0418C
:105A2000054611F8010B0C46411ECFB238BFBDE848
:105A3000F0812846AB6B14F8011BB5F842205A617F
:105A400000F03AFB14F8010B00F0800820F0800011
:105A5000411ECEB20BD3AB6B14F8011BB5F842203C
:105A600028461A6100F028FB711ECEB2F3D2B8F1BD
:105A7000000F07D014F8010BFF2808BF4FF4FA708D
:105A800001F050FA791ECFB2D3D2BDE8F081000008
:105A90002DE9F041836B0D46B0F8422004463621D3
:105AA0005A6100F009FB15F0030060764FF08005A5
:105AB0004FF0A0064FF050074FF0400821D00128CA
:105AC00054D0022874D0032818BFBDE8F08194F8A0
:105AD000200002281CBF04280528204669D0836BBB
